:020000040800F2
:1000000000000220D9A40008C3100008C91000088D
:10001000CF100008D5100008DB1000080000000019
:10002000000000000000000000000000E1100008D7
:10003000EF10000800000000FD100008B5A5000842
:10004000C1A50008CDA50008D9A50008E5A50008B0
:10005000F1A50008FDA5000809A6000815A60008DE
:1000600021A600082DA6000839A6000845A600080C
:1000700051A600085DA6000869A6000875A600083C
:1000800081A600088DA6000899A60008A5A600086C
:10009000B1A60008BDA60008C9A60008D5A600089C
:1000A000E1A60008EDA60008F9A6000805A70008CB
:1000B00011A700081DA7000829A7000835A70008F8
:1000C00041A700084DA7000859A7000865A7000828
:1000D00071A700087DA7000889A7000895A7000858
:1000E000A1A70008ADA7000800000000B9A70008FC
:1000F000C5A70008D1A70008DDA70008E9A70008E8
:10010000F5A7000801A800080DA8000819A8000814
:1001100025A8000831A800083DA8000849A8000843
:1001200055A8000861A800086DA8000879A8000873
:1001300085A8000891A800089DA80008A9A80008A3
:1001400000000000000000000000000000000000AF
:10015000B5A80008C1A80008CDA80008D9A80008C3
:10016000E5A80008F1A80008FDA8000809A90008F2
:1001700015A9000821A900082DA900080000000009
:1001800039A9000845A9000851A900085DA900087F
:1001900069A9000875A9000881A900088DA90008AF
:1001A00099A90008A5A90008B1A90008BDA90008DF
:1001B000C9A90008D5A90008E1A90008EDA900080F
:1001C000F9A9000805AA000811AA00081DAA00083C
:1001D00029AA000835AA000841AA00084DAA00086B
:1001E00059AA000865AA000871AA00087DAA00089B
:1001F00089AA000895AA0008A1AA0008ADAA0008CB
:10020000B9AA0008C5AA0008D1AA0008DDAA0008FA
:10021000E9AA0008F5AA000801AB00080DAB000828
:1002200019AB000825AB000831AB00080000000046
:100230003DAB000849AB00080000000055AB0008CA
:1002400061AB00086DAB000879AB000885AB000816
:1002500091AB00089DAB0008A9AB0008B5AB000846
:10026000C1AB0008CDAB0008D9AB0008E5AB000876
:10027000F1AB0008FDAB000809AC0008000000006D
:1002800015AC000821AC00082DAC000800000000EF
:080290000000000039AC000879
:1002980010B5054C237833B9044B13B10448AFF3B8
:1002A80000800123237010BD1C0000200000000006
:1002B800B8AC000808B5034B1BB103490348AFF3BA
:1002C800008008BD0000000020000020B8AC000835
:1002D80080B584B000AF474B5B6903F40033002B53
:1002E8001BD1BFF34F8F00BFBFF36F8F00BF414BD0
:1002F8000022C3F85022BFF34F8F00BFBFF36F8FA8
:1003080000BF3C4B5B693B4A43F400335361BFF386
:100318004F8F00BFBFF36F8F00E000BF354B5B69A5
:1003280003F48033002B38D1324B0022C3F88420E9
:10033800BFF34F8F00BF2F4BD3F88030FB60FB68B3
:100348005B0BC3F30E03BB60FB68DB08C3F3090355
:100358007B60BB685A0143F6E07313407A689207E2
:1003680024491343C1F860327B685A1E7A60002B17
:10037800EFD1BB685A1EBA60002BE5D1BFF34F8F8F
:1003880000BF1C4B5B691B4A43F480335361BFF3C6
:100398004F8F00BFBFF36F8F00E000BF07F094F8E6
:1003A80000F030F800F0B4F800F03AFD00F0C2FCBC
:1003B80000F04AFC00F0A8FA00F0E6FA00F0F2FBC0
:1003C80000F060F900F0D2F800F01EFB00F072FBBC
:1003D80000F0D2F900F034FA074802F029FA074889
:1003E80002F026FA064802F023FA01F0ABF901F010
:1003F800E5F9FCE700ED00E0B404002070050020FA
:100408002C06002080B59CB000AF07F124034C22D5
:10041800002118460AF044FC3B1D20220021184602
:100428000AF03EFC022007F015F800233B60354B2C
:100438009B69344A43F440439361324B9B6903F40C
:1004480040433B60304BDB6A2F4A43F00103D362E1
:100458002D4BDB6A03F001033B603B6800BF294B6F
:100468009B6903F40053B3F5005FF8D1274B9B6AEF
:1004780023F00303254A43F00103936210237B62B0
:1004880080233B6420237B640223BB640123FB6439
:1004980001233B65F0237B650223BB650223FB65D3
:1004A80002233B6608237B660023BB660023FB66AA
:1004B80007F12403184603F0D1FC0346002B01D0B2
:1004C80000F0F6FD3F237B600323BB600023FB6045
:1004D80008233B6140237B614023BB614FF4806369
:1004E800FB6140233B623B1D0421184604F0E4F8FD
:1004F8000346002B01D000F0DBFD00BF7037BD467E
:1005080080BD00BF0048025800040058004402584B
:1005180080B5B0B000AF3B1DBC22002118460AF0E0
:10052800BFFB4FF400437B600123BB602523FB60C6
:1005380002233B6102237B610223BB618023FB61B1
:1005480020233B624FF480537B624FF000533B679C
:100558003B1D184604F010FC0346002B01D000F0A8
:10056800A7FD00BFC037BD4680BD000080B58AB07A
:1005780000AF07F11C0300221A605A609A603B46DC
:1005880000221A605A609A60DA601A615A619A61A8
:10059800384B394A1A60374B4FF480125A60354B42
:1005A80000229A60334B0122DA60324B04221A612E
:1005B800304B00221A752F4B00225A752D4B022200
:1005C8009A612C4B01221A772A4B01221A62294B75
:1005D80000225A62274B00229A62264B0022DA62D6
:1005E800244B00221A63234B00225A63214B00221A
:1005F80083F838201F4807F0E3FC0346002B01D09E
:1006080000F056FD0023FB6107F11C031946194849
:1006180008F04EFD0346002B01D000F049FD174BB2
:100628003B6006237B600023BB6040F2FF73FB60E6
:1006380004233B6100237B6100237B763B461946FC
:100648000C4808F02BF80346002B01D000F030FDD1
:100658000B4B3B600C237B603B461946054808F072
:100668001DF80346002B01D000F022FD00BF2837FB
:10067800BD4680BD380000200020024040002019FF
:100688008000501D80B588B000AF3B1D00221A6065
:100698005A609A60DA601A615A619A61324B334A39
:1006A8001A60314B4FF480125A602F4B00229A6027
:1006B8002D4B0122DA602C4B04221A612A4B0022AE
:1006C8001A75294B00225A75274B02229A61264B2C
:1006D80001221A77244B01221A62234B00225A6204
:1006E800214B00229A62204B0022DA621E4B002224
:1006F8001A631D4B00225A631B4B002283F83820D3
:10070800194807F05DFC0346002B01D000F0D0FC2F
:10071800174B7B600623BB600023FB6040F2FF732E
:100728003B6104237B610023BB6100237B773B1D76
:1007380019460D4807F0B2FF0346002B01D000F020
:10074800B7FC0C4B7B600C23BB603B1D194606486D
:1007580007F0A4FF0346002B01D000F0A9FC00BF5E
:100768002037BD4680BD00BF9C00002000600258B5
:10077800000084CB000052C780B500AF2E4B2F4A33
:100788001A602D4B00229A602B4B0422DA602A4B08
:1007980001221A74284B00225A74274B01229A749A
:1007A800254B02225A61244B08229A61224B1F22B0
:1007B800DA61214B08221A621F4B01225A621E4B32
:1007C80001229A621C4B0122DA621B4B01221A6336
:1007D800194B00225A63184B01229A63164B0022C8
:1007E800DA63154B00221A64134B04225A64124B25
:1007F80000229A64104B0422DA640F4B00221A6517
:100808000D4B04225A650C4B00229A650A4B0022B4
:10081800DA65094B00221A66074B00225A66064B16
:1008280004229A66044808F043FE0346002B01D0D0
:1008380000F03EFC00BF80BD0001002000A0004089
:1008480080B500AF2E4B2F4A1A602D4B00229A60BC
:100858002B4B0422DA602A4B01221A74284B0022FF
:100868005A74274B01229A74254B02225A61244B51
:1008780008229A61224B1F22DA61214B08221A6250
:100888001F4B01225A621E4B01229A621C4B012205
:10089800DA621B4B01221A63194B00225A63184B68
:1008A80000229A63164B0022DA63154B00221A6461
:1008B800134B04225A64124B00229A64104B0422F0
:1008C800DA640F4B00221A650D4B04225A650C4B53
:1008D80000229A650A4B0022DA65094B00221A6643
:1008E800074B00225A66064B04229A66044808F011
:1008F800DFFD0346002B01D000F0DAFB00BF80BD0E
:10090800EC01002000A4004080B500AF1B4B1C4A3E
:100918001A601A4B1B4A5A60184B00229A60174BF0
:100928000122DA60154B00221A61144B00225A6129
:10093800124B00229A61114B0022DA610F4B002200
:100948001A620E4806F05EFE0346002B01D000F046
:10095800AFFB0021094807F02DF80346002B01D012
:1009680000F0A6FB0021054807F06FF80346002BAE
:1009780001D000F09DFB00BF80BD00BFD802002061
:1009880000540040DB3FB00080B500AF1B4B1C4A51
:100998001A601A4B1B4A5A60184B00229A60174B70
:1009A8000122DA60154B00221A61144B00225A61A9
:1009B800124B00229A61114B0022DA610F4B002280
:1009C8001A620E4806F01EFE0346002B01D000F006
:1009D8006FFB0021094806F0EDFF0346002B01D00C
:1009E80000F066FB0021054807F02FF80346002BAE
:1009F80001D000F05DFB00BF80BD00BF24030020D4
:100A0800001C0058B175703080B500AF274B284ADC
:100A18001A60264B4FF480025A60244B00229A60D9
:100A2800224B0322DA60214B00221A611F4B00225D
:100A38005A611E4B4FF000529A611C4B0022DA613A
:100A48001A4B00221A62194B00225A62174B0022D5
:100A58009A62164B0022DA62144B4FF080425A63B6
:100A6800124B00229A63114B0022DA630F4B0022CB
:100A78001A640E4B00225A640C4B00229A640B4BEA
:100A88000022DA64094B00221A65084B00225A65D5
:100A9800064B00229A65054808F0E8FB0346002B40
:100AA80001D000F005FB00BF80BD00BF700300202F
:100AB8000050014080B58EB000AF07F12803002236
:100AC8001A605A609A60DA6007F11C0300221A6003
:100AD8005A609A603B4600221A605A609A60DA604F
:100AE8001A615A619A612D4B2D4A1A602B4B772255
:100AF8005A602A4B00229A60284B4FF47A72DA60C7
:100B0800264B00221A61254B00229A61234801F0E6
:100B18002BFE0346002B01D000F0CAFA4FF4805395
:100B2800BB6207F1280319461C4802F0A5FA0346E0
:100B3800002B01D000F0BCFA184801F05FFF034613
:100B4800002B01D000F0B4FA0023FB6100237B6284
:100B580007F11C031946114803F04CF80346002B13
:100B680001D000F0A5FA60233B604FF4FA737B6074
:100B78000023BB6000233B613B460C221946074813
:100B880002F066F90346002B01D000F091FA034801
:100B980000F09EFD00BF3837BD4680BDF803002039
:100BA800000C004080B588B000AF07F110030022A8
:100BB8001A605A609A60DA603B1D00221A605A6017
:100BC8009A601F4B1F4A1A601D4BEF225A601C4B3C
:100BD80000229A601A4B42F20F72DA60184B002218
:100BE8001A61174B00225A61154B00229A6114486A
:100BF80001F0BAFD0346002B01D000F059FA4FF47A
:100C080080533B6107F1100319460D4802F034FA8E
:100C18000346002B01D000F04BFA00237B60002331
:100C2800FB603B1D1946064802F0E4FF0346002B13
:100C380001D000F03DFA00BF2037BD4680BD00BF9F
:100C4800B40400200040014080B592B000AF07F125
:100C58002C0300221A605A609A60DA601A615A619D
:100C68009A613B462C22002118460AF019F82F4BAE
:100C78002F4A1A602D4B17225A602C4B00229A607B
:100C88002A4B0922DA60294B00221A61274B0022DD
:100C98005A61264B00229A61244801F065FD0346FB
:100CA800002B01D000F004FA204801F039FE034679
:100CB800002B01D000F0FCF90023FB6200233B630A
:100CC80000237B630023BB630023FB6300233B6497
:100CD80000237B6407F12C0300221946134802F015
:100CE8003DF80346002B01D000F0E2F900233B60F9
:100CF80000237B600023BB600023FB6000233B6173
:100D08004FF400537B610023BB610023BB623B4669
:100D18001946064802F0FCFF0346002B01D000F0FC
:100D2800C7F900BF4837BD4680BD00BF7005002029
:100D38000044014080B592B000AF07F12C030022B7
:100D48001A605A609A60DA601A615A619A613B4681
:100D58002C220021184609F0A3FF2F4B2F4A1A60B6
:100D68002D4BEF225A602C4B00229A602A4B40F2FE
:100D7800E732DA60284B00221A61274B00225A61B9
:100D8800254B00229A61244801F0EEFC0346002B13
:100D980001D000F08DF9204801F0C2FD0346002B78
:100DA80001D000F085F90023FB6200233B63002398
:100DB8007B630023BB630023FB6300233B640023A6
:100DC8007B6407F12C0300221946134801F0C6FF83
:100DD8000346002B01D000F06BF900233B60002391
:100DE8007B600023BB600023FB6000233B614FF462
:100DF80000537B610023BB610023BB623B4619465D
:100E0800054802F085FF0346002B01D000F050F999
:100E180000BF4837BD4680BD2C0600200048014071
:100E280080B58EB000AF07F1240300221A605A6023
:100E38009A60DA601A61954BD3F8E030934A43F030
:100E48001003C2F8E030914BD3F8E03003F0100300
:100E58003B623B6A8D4BD3F8E0308C4A43F4807395
:100E6800C2F8E030894BD3F8E03003F48073FB61BB
:100E7800FB69864BD3F8E030844A43F02003C2F87C
:100E8800E030824BD3F8E03003F02003BB61BB694C
:100E98007E4BD3F8E0307D4A43F00403C2F8E030DB
:100EA8007A4BD3F8E03003F004037B617B69774B1E
:100EB800D3F8E030754A43F08003C2F8E030734B52
:100EC800D3F8E03003F080033B613B696F4BD3F804
:100ED800E0306E4A43F00103C2F8E0306B4BD3F8C0
:100EE800E03003F00103FB60FB68684BD3F8E030A7
:100EF800664A43F00203C2F8E030644BD3F8E030AE
:100F080003F00203BB60BB68604BD3F8E0305F4A74
:100F180043F00803C2F8E0305C4BD3F8E03003F04C
:100F280008037B607B68594BD3F8E030574A43F09D
:100F38004003C2F8E030554BD3F8E03003F04003EB
:100F48003B603B6800227421514806F069FA002290
:100F580040F2F7714F4806F063FA00224FF48061BF
:100F68004D4806F05DFA002201214C4806F058FA77
:100F780000224AF21C714A4806F052FA0022C221A5
:100F8800484806F04DFA00224FF4E651464806F06C
:100F980047FA00224021454806F042FA74237B6252
:100FA8000123BB620023FB6200233B6307F1240398
:100FB8001946374806F06CF840F2F7737B62012354
:100FC800BB620023FB6200233B6307F1240319463D
:100FD800304806F05DF84FF480637B620123BB6202
:100FE8000023FB6200233B6307F1240319462A48C8
:100FF80006F04EF801237B620123BB620023FB62EB
:1010080000233B6307F124031946244806F040F8FF
:101018004AF21C737B620123BB620023FB6200233C
:101028003B6307F1240319461D4806F031F8C22333
:101038007B620123BB620023FB6200233B6307F151
:1010480024031946174806F023F84FF4E6537B6249
:101058000123BB620023FB6200233B6307F12403E7
:101068001946114806F014F840237B620123BB623D
:101078000023FB6200233B6307F1240319460B4856
:1010880006F006F800BF3837BD4680BD0044025858
:101098000010025800200258001402580008025894
:1010A800001C02580004025800180258000C02588C
:1010B80080B400AF72B600BFFEE780B400AFFEE7B1
:1010C80080B400AFFEE780B400AFFEE780B400AFA5
:1010D800FEE780B400AFFEE780B400AF00BFBD46B6
:1010E8005DF8047B704780B400AF00BFBD465DF873
:1010F800047B704780B400AF00BFBD465DF8047B39
:101108007047000080B582B000AF78607B681B68CC
:101118000B4A934201D100F0C5FB7B681B68094A62
:10112800934201D100F03CFB7B681B68064A93425E
:1011380001D100F073FB00BF0837BD4680BD00BF7A
:1011480000400140004401400048014080B483B0A1
:1011580000AF0A4BD3F8F430084A43F00203C2F850
:10116800F430064BD3F8F43003F002037B607B685D
:1011780000BF0C37BD465DF8047B70470044025839
:1011880080B58CB000AF786007F11C0300221A60AC
:101198005A609A60DA601A617B681B68304A934229
:1011A80046D1304BD3F8D8302E4A43F02003C2F84A
:1011B800D8302C4BD3F8D83003F02003BB61BB697F
:1011C800284BD3F8E030274A43F00103C2F8E03057
:1011D800244BD3F8E03003F001037B617B69214B9A
:1011E800D3F8E0301F4A43F02003C2F8E0301D4B2B
:1011F800D3F8E03003F020033B613B698023FB61B7
:1012080003233B6200237B6207F11C03194616483F
:1012180005F03EFF4FF48053FB6103233B6200233C
:101228007B6207F11C031946104805F031FF13E0F3
:101238007B681B680E4A93420ED10A4BD3F8E03004
:10124800084A43F08073C2F8E030064BD3F8E03028
:1012580003F08073FB60FB6800BF3037BD4680BD7C
:1012680000200240004402580000025800140258AE
:101278000060025880B58CB000AF786007F11C039D
:1012880000221A605A609A60DA601A617B681B68EB
:101298003E4A934238D13E4B1B6801333C4A1360A7
:1012A8003B4B1B68012B0ED13A4BD3F8EC30394A33
:1012B80043F48073C2F8EC30364BD3F8EC3003F4C7
:1012C8008073BB61BB69334BD3F8E030314A43F0DC
:1012D8000103C2F8E0302F4BD3F8E03003F00103EC
:1012E8007B617B694FF4C053FB6102233B6201239E
:1012F8007B620323BB620923FB6207F11C031946C7
:10130800254805F0C5FE3CE07B681B68234A9342EC
:1013180037D11F4B1B6801331D4A13601C4B1B68D8
:10132800012B0ED11B4BD3F8EC301A4A43F48073CF
:10133800C2F8EC30174BD3F8EC3003F480733B6100
:101348003B69144BD3F8E030124A43F00203C2F869
:10135800E030104BD3F8E03003F00203FB60FB6889
:101368004FF44053FB6102233B6201237B6203235A
:10137800BB620923FB6207F11C031946084805F004
:1013880087FE00BF3037BD4680BD00BF00A00040CB
:10139800E8060020004402580000025800A400405B
:1013A8000004025880B5BAB000AF786007F1D403E2
:1013B80000221A605A609A60DA601A6107F118030D
:1013C800BC220021184609F06BFC7B681B68494A5F
:1013D800934243D10823BB610023C7F8983007F133
:1013E8001803184603F0C8FC0346002B01D0FFF78A
:1013F8005FFE414BD3F8E0303F4A43F00203C2F8A6
:10140800E0303D4BD3F8E03003F002037B617B69A9
:101418004FF44073C7F8D4301223C7F8D8300123EB
:10142800C7F8DC300023C7F8E0300423C7F8E430FD
:1014380007F1D4031946314805F02AFE2E4BD3F89C
:10144800E8302D4A43F40013C2F8E8302A4BD3F8A9
:10145800E83003F400133B613B6947E07B681B6895
:10146800274A934242D11023BB610023C7F8AC300E
:1014780007F11803184603F07FFC0346002B01D040
:10148800FFF716FE1C4BD3F8E0301B4A43F0080365
:10149800C2F8E030184BD3F8E03003F00803FB60E3
:1014A800FB684FF44053C7F8D4301223C7F8D8303C
:1014B8000123C7F8DC300023C7F8E0300423C7F85D
:1014C800E43007F1D40319460E4805F0E1FD0A4B54
:1014D800D3F8F430084A43F08003C2F8F430064BDE
:1014E800D3F8F43003F08003BB60BB6800BFE83773
:1014F800BD4680BD00540040004402580004025814
:10150800001C0058000C025880B5B8B000AF7860D5
:1015180007F1CC0300221A605A609A60DA601A61F7
:1015280007F11003BC220021184609F0B9FB7B68BB
:101538001B68254A934242D14FF400533B61002374
:101548003B6707F11003184603F016FC0346002B0F
:1015580001D0FFF7ADFD1D4BD3F8F0301B4A43F423
:101568008013C2F8F030194BD3F8F03003F480132D
:10157800FB60FB68154BD3F8E030144A43F02003B6
:10158800C2F8E030114BD3F8E03003F02003BB6021
:10159800BB684FF47073C7F8CC300223C7F8D0305B
:1015A8000023C7F8D4300023C7F8D8300523C7F87C
:1015B800DC3007F1CC031946054805F069FD00BF8A
:1015C800E037BD4680BD00BF0050014000440258CE
:1015D8000014025880B586B000AF78607B681B683D
:1015E800364A93420FD1364BD3F8E830344A43F0A9
:1015F8000803C2F8E830324BD3F8E83003F00803A8
:101608007B617B6955E07B681B682E4A934217D142
:101618002B4BD3F8F0302A4A43F48033C2F8F03029
:10162800274BD3F8F03003F480333B613B69002249
:101638000E21742001F063F8742001F07AF838E084
:101648007B681B68204A934217D11D4BD3F8F030B2
:101658001B4A43F40033C2F8F030194BD3F8F0308A
:1016680003F40033FB60FB6800220C21752001F0B5
:1016780046F8752001F05DF81BE07B681B68134A8B
:10168800934216D10E4BD3F8F0300D4A43F4802321
:10169800C2F8F0300A4BD3F8F03003F48023BB6073
:1016A800BB6800220D21762001F029F8762001F090
:1016B80040F800BF1837BD4680BD00BF000C004091
:1016C80000440258004001400044014000480140E5
:1016D80080B588B000AF786007F10C0300221A606B
:1016E8005A609A60DA601A617B681B68124A9342F2
:1016F8001ED1124BD3F8E030104A43F00103C2F870
:10170800E0300E4BD3F8E03003F00103BB60BB6858
:101718000823FB6002233B6100237B610023BB613C
:101728000223FB6107F10C031946054805F0B0FCDC
:1017380000BF2037BD4680BD000C00400044025861
:101748000000025880B500AF00F01EFB00F0D2FC8C
:1017580000BF80BD80B500AF00F0A4F900F028FA02
:1017680000F030FB00F082FB00F03CFD00BF80BDC4
:1017780080B500AF00F022FA00F046FA00F096FAC1
:1017880000BF80BD80B500AF00F0CEFC00BF80BDBB
:1017980080B400AF00BFBD465DF8047B7047000011
:1017A80080B400AF044B1B680133034A136000BFC9
:1017B800BD465DF8047B7047EC06002080B582B01A
:1017C80000AF144B93F85630012B14D1124B7B60A9
:1017D800104A7B6813660F4B002283F856200320BB
:1017E80000F0EAF8FFF7CEFF032000F00DF9032020
:1017F80000F092F80BE0042000F0DEF8FFF7C8FFD5
:10180800042000F001F9042000F086F800BF083732
:10181800BD4680BDEC0600208D17000880B582B05B
:1018280000AF1D4B5B6801331B4A53601A4B012202
:1018380083F85420184B5A68184BA3FB02135B0912
:10184800642101FB03F3D31A002B08D1124BDB6888
:101858000133114AD360104B012283F856200E4BF6
:1018680093F85430012B13D10D4B7B600A4A7B68E7
:101878009365094B002283F85420012000F09CF85E
:10188800FFF768FF012000F0BFF8012000F044F8DE
:1018980000BF0837BD4680BDEC0600201F85EB5110
:1018A8005D17000880B582B000AF134B9B68013309
:1018B800114A9360104B012283F855200E4B93F880
:1018C8005530012B13D10D4B7B600B4A7B68D365D8
:1018D800094B002283F85520022000F06DF8FFF72D
:1018E80047FF022000F090F8022000F015F800BF32
:1018F8000837BD4680BD00BFEC06002079170008F8
:1019080080B400AF034B1B681846BD465DF8047BE6
:10191800704700BFEC06002080B586B000AF0346D4
:10192800FB7100233B6100237B610023FB60FFF711
:10193800E7FF3861FB79032B0ED0032B10DC012B5A
:1019480002D0022B04D00BE01A4B9B6A7B6107E0A4
:10195800184BDB6A7B6103E0164B1B6B7B6100BF96
:101968003A697B69D31AFB603B697B61FB79032B7E
:1019780014D0032B1ADC012B02D0022B07D015E060
:101988000C4AFB6813640B4A7B6993620DE0094AB1
:10199800FB685364074A7B69D36206E0054AFB6823
:1019A8009364044A7B69136300BF00BF00BF183704
:1019B800BD4680BDEC06002080B584B000AF03466C
:1019C800FB710023FB60FFF79BFFF860FB79032B9B
:1019D8000ED0032B11DC012B02D0022B04D00CE01B
:1019E800084AFB68136107E0064AFB68936103E055
:1019F800044AFB68136200BF00BF00BF1037BD4632
:101A080080BD00BFEC06002080B586B000AF03465D
:101A1800FB7100233B6100237B610023FB60FFF720
:101A28006FFF3861FB79032B0ED0032B10DC012BE1
:101A380002D0022B04D00BE0194B1B697B6107E035
:101A4800174B9B697B6103E0154B1B6A7B6100BFE9
:101A58003A697B69D31AFB60FB79032B14D0032BFB
:101A68001ADC012B02D0022B07D015E00C4AFB68C8
:101A780053630B4A3B6953610DE0094AFB68936362
:101A8800074A3B69D36106E0054AFB68D363044A09
:101A98003B69536200BF00BF00BF1837BD4680BD19
:101AA800EC06002080B500AF3D4B1B780133DAB25D
:101AB8003B4B1A703A4B1B78642B02D9384B0022E7
:101AC8001A70374B1B78192B15D80122402135483D
:101AD80005F0A6FC00228021324805F0A1FC002276
:101AE8001021314805F09CFC00224FF480712F48EA
:101AF80005F096FC51E02A4B1B78192B19D9284B75
:101B08001B78322B15D800224021264805F088FC86
:101B180001228021234805F083FC0022102122485D
:101B280005F07EFC00224FF48071204805F078FC17
:101B380033E01B4B1B78322B19D9194B1B784B2BD5
:101B480015D800224021174805F06AFC00228021A0
:101B5800144805F065FC01221021134805F060FCCB
:101B680000224FF48071114805F05AFC15E000225C
:101B780040210C4805F054FC00228021094805F05A
:101B88004FFC00221021084805F04AFC01224FF4BE
:101B98008071064805F044FCFFE700BF80BD00BF28
:101BA8005007002000040258001C02580020025868
:101BB80080B500AF00F01CF800BF80BD80B500AF55
:101BC800094B1B7899B20A230322084805F0AAFD9D
:101BD8000346002B05D0044B1B780133DAB2024BC5
:101BE8001A7000BF80BD00BF95070020D8020020F2
:101BF80080B400AF034B00225A7400BFBD465DF8A5
:101C0800047B70475407002080B500AF214806F0D8
:101C180079FB0A211F4806F03FFC0346002B05D13B
:101C28001C4806F02DFD03461B4A1360194806F0B0
:101C380069FB0A21174806F02FFC0346002B05D143
:101C4800144806F01DFD0346144A1360144806F0B4
:101C580059FB0A21124806F01FFC0346002B05D148
:101C68000F4806F00DFD03460E4A13600C4806F0B7
:101C780049FB0A210A4806F00FFC0346002B06D14F
:101C8800074806F0FDFC0346074A136000BF00BF83
:101C980080BD00BF38000020980700209C07002066
:101CA8009C000020A0070020A407002080B400AFFB
:101CB8002A4B1B6807EE903AF8EE677A9FED287A70
:101CC80027EE877ADFED276AC7EE267AFCEEE77AF9
:101CD80017EE902A244B1A60244B1B6807EE903AA3
:101CE800F8EE677A9FED1E7A27EE877ADFED1D6A98
:101CF800C7EE267AFCEEE77A17EE902A1C4B1A609C
:101D08001C4B1B6807EE903AF8EE677A9FED1A7A3B
:101D180027EE877ADFED136AC7EE267AFCEEE77ABC
:101D280017EE902A154B1A60154B1B6807EE903A70
:101D3800F8EE677A9FED107A27EE877ADFED096A69
:101D4800C7EE267AFCEEE77A17EE902A0D4B1A605A
:101D580000BFBD465DF8047B704700BF98070020B0
:101D680000409C4500FF7F47A80700209C070020F3
:101D7800AC070020A007002000404E45B007002017
:101D8800A4070020B407002080B500AF642101201B
:101D980000F002F800BF80BD80B582B000AF0346F6
:101DA8000A46FB711346BB71FB791A464FF48071E2
:101DB800034805F035FB00BF0837BD4680BD00BFAE
:101DC8000020025880B500AF234B1B7803F00103B5
:101DD800002B0CBF01230023DBB21A461E4B1A70DE
:101DE8001E4B1B780F2B06D801224FF480611C482C
:101DF80005F016FB20E000224FF48061184805F03A
:101E08000FFB164B1B78112B05D100224FF4806174
:101E1800144805F005FB114B1B78122B05D1012244
:101E28004FF480610F4805F0FBFA0C4B1B78132B1D
:101E380002D10A4B00221A70084B1B780133DAB220
:101E4800064B1A70044B1B781A468021064805F089
:101E5800E7FA00BF80BD00BFB8070020B90700201F
:101E680000140258002002580018025880B500AF2C
:101E7800FF2000F009F8FF2000F06EF8FF2000F0C6
:101E8800D3F800BF80BD000080B582B000AF034624
:101E9800FB71FB7903F00103DBB21A4604212A48DF
:101EA80005F0BEFAFB795B08DBB203F00103DBB295
:101EB8001A460821244805F0B3FAFB799B08DBB2DF
:101EC80003F00103DBB21A464FF480711E4805F097
:101ED800A7FAFB79DB08DBB203F00103DBB21A4691
:101EE8004FF40071184805F09BFAFB791B09DBB227
:101EF80003F00103DBB21A464FF48061124805F083
:101F08008FFAFB795B09DBB203F00103DBB21A46F7
:101F180001210E4805F084FAFB799B09DBB203F036
:101F28000103DBB21A460221094805F079FAFB7968
:101F3800DB09DBB21A464021064805F071FA00BFFA
:101F48000837BD4680BD00BF001C02580008025873
:101F5800000402580018025880B582B000AF03464A
:101F6800FB71FB7903F00103DBB21A4620212A48F2
:101F780005F056FAFB795B08DBB203F00103DBB22C
:101F88001A464021244805F04BFAFB799B08DBB23E
:101F980003F00103DBB21A464FF400511F4805F065
:101FA8003FFAFB79DB08DBB203F00103DBB21A4628
:101FB8004FF480611A4805F033FAFB791B09DBB24C
:101FC80003F00103DBB21A464FF40041134805F051
:101FD80027FAFB795B09DBB203F00103DBB21A468F
:101FE8000121104805F01CFAFB799B09DBB203F0CC
:101FF8000103DBB21A4602210A4805F011FAFB79FF
:10200800DB09DBB21A460421064805F009FA00BFCD
:102018000837BD4680BD00BF00100258001C02589A
:10202800001802580020025880B582B000AF03465D
:10203800FB71FB7903F00103DBB21A461021294832
:1020480005F0EEF9FB795B08DBB203F00103DBB2C4
:102058001A464FF48051244805F0E2F9FB799B08B1
:10206800DBB203F00103DBB21A4640211F4805F03A
:10207800D7F9FB79DB08DBB203F00103DBB21A46C0
:102088004FF40061184805F0CBF9FB791B09DBB266
:1020980003F00103DBB21A461021154805F0C0F918
:1020A800FB795B09DBB203F00103DBB21A4620219E
:1020B8000F4805F0B5F9FB799B09DBB203F0010382
:1020C800DBB21A4640210A4805F0AAF9FB79DB0978
:1020D800DBB21A468021064805F0A2F900BF08378E
:1020E800BD4680BD0010025800180258000C025866
:1020F8000020025880B500AF074807F02BFC0346C4
:102108001A46064B1A70064807F024FC03461A467E
:10211800044B1A7000BF80BD000100200408002095
:10212800EC0100200508002080B500AF264B40F6E2
:10213800AA221A60244B00225A60234B00229A607C
:10214800214B4FF40022DA601F4B00221A611E4B0C
:1021580000225A611C4B00229A611B4B0022DA6153
:10216800194B00221A62194A1749194807F01DFC31
:1021780003461A46174B1A70174B40F6AA221A60E4
:10218800154B00225A60144B00229A60124B4FF4F0
:102198000022DA60104B00221A610F4B00225A61AC
:1021A8000D4B00229A610C4B0022DA610A4B002287
:1021B8001A62064A0849094807F0F7FB03461A4617
:1021C800074B1A7000BF80BDBC070020000000202C
:1021D8000001002006080020E0070020EC01002094
:1021E8000708002080B500AF064B1B78184600F0A2
:1021F8000DF8054B1B68184600F072F800F092F9CC
:1022080000BF80BD110800200800002080B485B000
:1022180000AF78600023FB732F4B1B687A68134468
:10222800BB60BB6848F6A042934204D9BA6848F636
:10223800A0439B1ABB60BB6841F26F72934202D8FD
:102248000123FB733FE0BB6841F26F72934207D9E9
:10225800BB6842F6DF62934202D80223FB7332E086
:10226800BB6842F6DF62934207D9BB6844F24F620B
:10227800934202D80323FB7325E0BB6844F24F6204
:10228800934207D9BB6845F6BF52934202D804234C
:10229800FB7318E0BB6845F6BF52934207D9BB6889
:1022A80047F22F52934202D80523FB730BE0BB6819
:1022B80047F22F52934206D9BB6848F69F42934291
:1022C80001D80623FB73054AFB7B137000BF143744
:1022D800BD465DF8047B70470C0800200808002004
:1022E80080B584B000AF7860774B1B78FB737B6850
:1022F800002B00F0D580FB7B013B052B00F2DF8033
:1023080001A252F823F000BF29230008692300081E
:10231800A9230008E92300082924000869240008E3
:1023280001214FF4005000F0D5F8684A7B685363E8
:10233800664B00229A63654B0022DA6302214FF450
:10234800404000F0C7F801224FF48041604805F092
:1023580067F800224FF400415D4805F061F8AFE0EE
:1023680001214FF4005000F0B5F8584A7B685363D8
:10237800564B00229A63554B0022DA6302214FF430
:10238800404000F0A7F800224FF48041504805F083
:1023980047F801224FF400414D4805F041F88FE01D
:1023A80001214FF4804000F095F8484B00225A6311
:1023B800464A7B689363454B0022DA6302214FF457
:1023C800204000F087F800224FF40051404805F003
:1023D80027F801224FF400413D4805F021F86FE04D
:1023E80001214FF4804000F075F8384B00225A6301
:1023F800364A7B689363354B0022DA6302214FF437
:10240800204000F067F801224FF40051304805F0F1
:1024180007F800224FF400412D4805F001F84FE07D
:1024280001214FF4004000F055F8284B00225A6370
:10243800264B00229A63254A7B68D36302214FF416
:10244800C04000F047F801224FF40051204804F042
:10245800E7FF00224FF480411D4804F0E1FF2FE020
:1024680001214FF4004000F035F8184B00225A6360
:10247800164B00229A63154A7B68D36302214FF4F6
:10248800C04000F027F800224FF40051104804F033
:10249800C7FF01224FF480410D4804F0C1FF0FE04F
:1024A80001214FF4604000F015F8084B00225A63F0
:1024B800064B00229A63054B0022DA6300E000BF56
:1024C80000BF1037BD4680BD08080020000001404D
:1024D8000004025880B588B000AF78600B46FB70E6
:1024E80007F10C0300221A605A609A60DA601A61D8
:1024F8007B68FB60FB78012B04D102233B6101233D
:10250800FB6103E001233B610023FB6107F10C033E
:102518001946034804F0BCFD00BF2037BD4680BD06
:102528000004025880B500AF4FF48051044804F00D
:102538005FFF03461A46034B1A7000BF80BD00BFF9
:10254800000402581008002080B485B000AF7860FD
:102558007B6803F00703FB600B4BDB68BB60BA6862
:102568004FF6FF031340BB60FB681A02BB681A43AF
:10257800064B1343BB60044ABB68D36000BF1437E3
:10258800BD465DF8047B704700ED00E00000FA05E9
:1025980080B400AF044BDB681B0A03F0070318463E
:1025A800BD465DF8047B704700ED00E080B483B061
:1025B80000AF0346FB80B7F90630002B0BDBFB8826
:1025C80003F01F020749B7F906305B09012000FA3A
:1025D80002F241F8232000BF0C37BD465DF8047BAA
:1025E800704700BF00E100E080B483B000AF03464D
:1025F8003960FB80B7F90630002B0ADB3B68DAB29A
:102608000C49B7F906301201D2B20B4483F8002303
:102618000AE03B68DAB20849FB8803F00F03043B81
:102628001201D2B20B441A7600BF0C37BD465DF8D2
:10263800047B704700E100E000ED00E080B489B061
:1026480000AFF860B9607A60FB6803F00703FB61CC
:10265800FB69C3F10703042B28BF0423BB61FB6993
:102668000433062B02D9FB69033B00E000237B619E
:102678004FF0FF32BB6902FA03F3DA43BB681A4032
:102688007B699A404FF0FF317B6901FA03F3D94324
:102698007B680B40134318462437BD465DF8047B1E
:1026A8007047000080B582B000AF78607B68013B5E
:1026B800B3F1807F01D301230FE00A4A7B68013B15
:1026C80053600F214FF0FF30FFF78EFF054B0022BC
:1026D8009A60044B07221A60002318460837BD4643
:1026E80080BD00BF10E000E080B582B000AF786028
:1026F8007868FFF729FF00BF0837BD4680BD80B561
:1027080086B000AF0346B9607A60FB81FFF740FFEF
:1027180078617A68B9687869FFF790FF0246B7F977
:102728000E3011461846FFF75FFF00BF1837BD4649
:1027380080BD80B582B000AF0346FB80B7F9063094
:102748001846FFF733FF00BF0837BD4680BD80B588
:1027580082B000AF78607868FFF7A4FF0346184698
:102768000837BD4680BD000080B582B000AF7860F4
:102778007B68002B01D1012354E07B6893F83D303E
:10278800DBB2002B11D17B68002283F83C207868EB
:1027980001F0D2F97B68DB6C002B02D17B68234AFD
:1027A800DA647B68DB6C786898477B68022283F878
:1027B8003D207B681A687B6804331946104600F090
:1027C800ADFD7B68012283F848207B68012283F8ED
:1027D8003E207B68012283F83F207B68012283F832
:1027E80040207B68012283F841207B68012283F81E
:1027F80042207B68012283F843207B68012283F80A
:1028080044207B68012283F845207B68012283F8F5
:1028180046207B68012283F847207B68012283F8E1
:102828003D20002318460837BD4680BDDD15000849
:1028380080B485B000AF78607B6893F83D30DBB238
:10284800012B01D0012354E07B68022283F83D204C
:102858007B681B68DA687B681B6842F00102DA60F3
:102868007B681B68264A934222D07B681B68B3F1B9
:10287800804F1DD07B681B68224A934218D07B6822
:102888001B68214A934213D07B681B681F4A9342F6
:102898000ED07B681B681E4A934209D07B681B6870
:1028A8001C4A934204D07B681B681B4A934215D18B
:1028B8007B681B689A68194B1340FB60FB68062B02
:1028C80015D0FB68B3F5803F11D07B681B681A6888
:1028D8007B681B6842F001021A6008E07B681B688D
:1028E8001A687B681B6842F001021A6000E000BFAA
:1028F800002318461437BD465DF8047B704700BFB7
:10290800000001400004004000080040000C0040A6
:102918000004014000180040004001400700010089
:1029280080B582B000AF78607B68002B01D10123AD
:1029380054E07B6893F83D30DBB2002B11D17B6803
:10294800002283F83C20786801F0F6F87B68DB6D9C
:10295800002B02D17B68234ADA657B68DB6D7868D7
:1029680098477B68022283F83D207B681A687B6859
:1029780004331946104600F0D1FC7B68012283F825
:1029880048207B68012283F83E207B68012283F877
:102998003F207B68012283F840207B68012283F86E
:1029A80041207B68012283F842207B68012283F85A
:1029B80043207B68012283F844207B68012283F846
:1029C80045207B68012283F846207B68012283F832
:1029D80047207B68012283F83D20002318460837EA
:1029E800BD4680BDF129000880B483B000AF78608F
:1029F80000BF0C37BD465DF8047B704780B582B0D8
:102A080000AF78607B68002B01D1012354E07B681C
:102A180093F83D30DBB2002B11D17B68002283F89C
:102A28003C20786801F088F87B685B6E002B02D147
:102A38007B68234A5A667B685B6E786898477B6830
:102A4800022283F83D207B681A687B6804331946A4
:102A5800104600F063FC7B68012283F848207B68FD
:102A6800012283F83E207B68012283F83F207B689F
:102A7800012283F840207B68012283F841207B688B
:102A8800012283F842207B68012283F843207B6877
:102A9800012283F844207B68012283F845207B6863
:102AA800012283F846207B68012283F847207B684F
:102AB800012283F83D20002318460837BD4680BD13
:102AC800CD2A000880B483B000AF786000BF0C370F
:102AD800BD465DF8047B704780B582B000AF786072
:102AE8007B681B681B6903F00203022B28D17B68F3
:102AF8001B68DB6803F00203022B21D17B681B688B
:102B08006FF002021A617B6801221A777B681B68E2
:102B18009B6903F00303002B05D07B68D3F894303E
:102B28007868984709E07B68D3F89C3078689847BC
:102B38007B68D3F8A030786898477B6800221A77BA
:102B48007B681B681B6903F00403042B28D17B688E
:102B58001B68DB6803F00403042B21D17B681B6826
:102B68006FF004021A617B6802221A777B681B687F
:102B78009B6903F44073002B05D07B68D3F894302D
:102B88007868984709E07B68D3F89C30786898475C
:102B98007B68D3F8A030786898477B6800221A775A
:102BA8007B681B681B6903F00803082B28D17B6826
:102BB8001B68DB6803F00803082B21D17B681B68BE
:102BC8006FF008021A617B6804221A777B681B6819
:102BD800DB6903F00303002B05D07B68D3F894303E
:102BE8007868984709E07B68D3F89C3078689847FC
:102BF8007B68D3F8A030786898477B6800221A77FA
:102C08007B681B681B6903F01003102B28D17B68B5
:102C18001B68DB6803F01003102B21D17B681B684D
:102C28006FF010021A617B6808221A777B681B68AC
:102C3800DB6903F44073002B05D07B68D3F894302C
:102C48007868984709E07B68D3F89C30786898479B
:102C58007B68D3F8A030786898477B6800221A7799
:102C68007B681B681B6903F00103012B10D17B688B
:102C78001B68DB6803F00103012B09D17B681B6823
:102C88006FF001021A617B68D3F88430786898473E
:102C98007B681B681B6903F08003802B10D17B685D
:102CA8001B68DB6803F08003802B09D17B681B68F5
:102CB8006FF080021A617B68D3F8B430786898475F
:102CC8007B681B681B6903F48073B3F5807F10D1A0
:102CD8007B681B68DB6803F08003802B09D17B6865
:102CE8001B686FF480721A617B68D3F8B830786813
:102CF80098477B681B681B6903F04003402B10D181
:102D08007B681B68DB6803F04003402B09D17B68B4
:102D18001B686FF040021A617B68D3F88C307868C2
:102D280098477B681B681B6903F02003202B10D190
:102D38007B681B68DB6803F02003202B09D17B68C4
:102D48001B686FF020021A617B68D3F8AC30786892
:102D5800984700BF0837BD4680BD000080B586B0E3
:102D680000AFF860B9607A600023FB75FB6893F8E0
:102D78003C30012B01D1022366E0FB68012283F875
:102D88003C207B68142B57D801A252F823F000BFCF
:102D9800ED2D0008412E0008412E0008412E0008A4
:102DA800FB2D0008412E0008412E0008412E000886
:102DB800092E0008412E0008412E0008412E000867
:102DC800172E0008412E0008412E0008412E000849
:102DD800252E0008412E0008412E0008412E00082B
:102DE800332E0008FB681B68B968184600F030FBF2
:102DF80025E0FB681B68B968184600F0B9FB1EE0BF
:102E0800FB681B68B968184600F03CFC17E0FB68D3
:102E18001B68B968184600F0BDFC10E0FB681B6829
:102E2800B968184600F020FD09E0FB681B68B9681E
:102E3800184600F07DFD02E00123FB7500BFFB682A
:102E4800002283F83C20FB7D18461837BD4680BD1C
:102E580080B586B000AFF860B9607A600023FB7572
:102E6800FB6893F83C30012B01D10223FFE0FB689B
:102E7800012283F83C207B68142B00F2F08001A229
:102E880052F823F0E12E0008673000086730000888
:102E980067300008212F00086730000867300008F5
:102EA80067300008632F00086730000867300008A3
:102EB80067300008A32F0008673000086730000853
:102EC80067300008E52F0008673000086730000801
:102ED8006730000825300008FB681B68B968184689
:102EE80000F0B6FAFB681B689A69FB681B6842F039
:102EF80008029A61FB681B689A69FB681B6822F0E4
:102F080004029A61FB681B689969BB681A69FB68C7
:102F18001B680A439A61A5E0FB681B68B9681846F4
:102F280000F026FBFB681B689A69FB681B6842F483
:102F380000629A61FB681B689A69FB681B6822F447
:102F480080629A61FB681B689969BB681B691A02F1
:102F5800FB681B680A439A6184E0FB681B68B968D0
:102F6800184600F08FFBFB681B68DA69FB681B6872
:102F780042F00802DA61FB681B68DA69FB681B68C3
:102F880022F00402DA61FB681B68D969BB681A6918
:102F9800FB681B680A43DA6164E0FB681B68B96870
:102FA800184600F0F7FBFB681B68DA69FB681B68CA
:102FB80042F40062DA61FB681B68DA69FB681B6827
:102FC80022F48062DA61FB681B68D969BB681B69F7
:102FD8001A02FB681B680A43DA6143E0FB681B6856
:102FE800B968184600F040FCFB681B685A6DFB681E
:102FF8001B6842F008025A65FB681B685A6DFB683B
:103008001B6822F004025A65FB681B68596DBB688F
:103018001A69FB681B680A435A6523E0FB681B684A
:10302800B968184600F084FCFB681B685A6DFB6899
:103038001B6842F400625A65FB681B685A6DFB689E
:103048001B6822F480625A65FB681B68596DBB686F
:103058001B691A02FB681B680A435A6502E00123D0
:10306800FB7500BFFB68002283F83C20FB7D1846F7
:103078001837BD4680BD00BF80B584B000AF78600A
:1030880039600023FB737B6893F83C30012B01D136
:103098000223DCE07B68012283F83C207B68022263
:1030A80083F83D207B681B689B68BB60BA686A4BE5
:1030B8001340BB60BB6823F47F43BB607B681B681D
:1030C800BA689A603B681B68644A934200F0A9801A
:1030D800624A934200F2AE80614A934200F0A180B6
:1030E8005F4A934200F2A6805E4A934200F09980BC
:1030F8005C4A934200F29E80B3F1101F00F0918069
:10310800B3F1101F00F29680B3F5801F00F089809C
:10311800B3F5801F00F28E80B3F5005F3ED0B3F5A3
:10312800005F00F28780B3F5805F00F08680B3F51A
:10313800805F7FD8702B1AD0702B7BD8602B50D033
:10314800602B77D8502B3CD0502B73D8402B58D0BD
:10315800402B6FD8302B64D0302B6BD8202B60D00D
:10316800202B67D8002B5CD0102B5AD062E07B68EC
:1031780018683B6899683B685A683B68DB6800F0E8
:10318800BBFC7B681B689B68BB60BB6843F077032C
:10319800BB607B681B68BA689A604FE07B681868F8
:1031A8003B6899683B685A683B68DB6800F0A4FC98
:1031B8007B681B689A687B681B6842F480429A6047
:1031C8003CE07B6818683B6859683B68DB681A46CE
:1031D80000F014FC7B681B685021184600F06EFC58
:1031E8002CE07B6818683B6859683B68DB681A46BE
:1031F80000F033FC7B681B686021184600F05EFC19
:103208001CE07B6818683B6859683B68DB681A46AD
:1032180000F0F4FB7B681B684021184600F04EFC68
:103228000CE07B681A683B681B681946104600F07A
:1032380045FC03E00123FB7300E000BF7B6801222B
:1032480083F83D207B68002283F83C20FB7B1846EE
:103258001037BD4680BD00BF88FFCEFF400010007C
:10326800300010002000100080B483B000AF7860F8
:1032780000BF0C37BD465DF8047B704780B483B04F
:1032880000AF786000BF0C37BD465DF8047B70471F
:1032980080B483B000AF786000BF0C37BD465DF8DE
:1032A800047B704780B483B000AF786000BF0C37F0
:1032B800BD465DF8047B704780B483B000AF78608A
:1032C80000BF0C37BD465DF8047B704780B483B0FF
:1032D80000AF786000BF0C37BD465DF8047B7047CF
:1032E80080B483B000AF786000BF0C37BD465DF88E
:1032F800047B704780B483B000AF786000BF0C37A0
:10330800BD465DF8047B704780B483B000AF786039
:1033180000BF0C37BD465DF8047B704780B485B0AC
:1033280000AF786039607B681B68FB607B68404A47
:10333800934213D07B68B3F1804F0FD07B683D4A2E
:1033480093420BD07B683C4A934207D07B683B4A48
:10335800934203D07B683A4A934208D1FB6823F032
:103368007003FB603B685B68FA681343FB607B682B
:103378002F4A93421FD07B68B3F1804F1BD07B68E4
:103388002C4A934217D07B682B4A934213D07B6810
:103398002A4A93420FD07B68294A93420BD07B6814
:1033A800284A934207D07B68274A934203D07B6818
:1033B800264A934208D1FB6823F44073FB603B68BC
:1033C800DB68FA681343FB60FB6823F080023B6804
:1033D8005B691343FB607B68FA681A603B689A680C
:1033E8007B68DA623B681A687B689A627B68104A75
:1033F80093420FD07B68124A93420BD07B68114AE4
:10340800934207D07B68104A934203D07B680F4AE7
:10341800934203D13B681A697B681A637B6801226F
:103428005A6100BF1437BD465DF8047B704700BF82
:10343800000001400004004000080040000C00406B
:1034480000040140004001400044014000480140A0
:1034580080B487B000AF786039607B681B6A23F05E
:1034680001027B681A627B681B6A7B617B685B6808
:103478003B617B689B69FB60FA68374B1340FB60D4
:10348800FB6823F00303FB603B681B68FA6813437F
:10349800FB607B6923F002037B613B689B687A6968
:1034A80013437B617B682D4A93420FD07B682C4A7B
:1034B80093420BD07B682B4A934207D07B682A4AF9
:1034C800934203D07B68294A93420CD17B6923F04D
:1034D80008037B613B68DB687A6913437B617B691E
:1034E80023F004037B617B681C4A93420FD07B68FE
:1034F8001B4A93420BD07B681A4A934207D07B68D9
:10350800194A934203D07B68184A934211D13B6908
:1035180023F480733B613B6923F400733B613B6890
:103528005B693A6913433B613B689B693A6913439A
:103538003B617B683A695A607B68FA689A613B68C4
:103548005A687B685A637B687A691A6200BF1C37BD
:10355800BD465DF8047B70478FFFFEFF0000014009
:10356800000401400040014000440140004801407F
:1035780080B487B000AF786039607B681B6A23F03D
:1035880010027B681A627B681B6A7B617B685B68D8
:103598003B617B689B69FB60FA68344B1340FB60B6
:1035A800FB6823F44073FB603B681B681B02FA68E6
:1035B8001343FB607B6923F020037B613B689B68B6
:1035C8001B017A6913437B617B68294A934203D0C4
:1035D8007B68284A93420DD17B6923F080037B6185
:1035E8003B68DB681B017A6913437B617B6923F0C5
:1035F80040037B617B681E4A93420FD07B681D4A5B
:1036080093420BD07B681C4A934207D07B681B4AC5
:10361800934203D07B681A4A934213D13B6923F43F
:1036280080633B613B6923F400633B613B685B69F2
:103638009B003A6913433B613B689B699B003A696D
:1036480013433B617B683A695A607B68FA689A6100
:103658003B685A687B689A637B687A691A6200BF1C
:103668001C37BD465DF8047B704700BFFF8FFFFE27
:1036780000000140000401400040014000440140B6
:103688000048014080B487B000AF786039607B683B
:103698001B6A23F480727B681A627B681B6A7B61F1
:1036A8007B685B683B617B68DB69FB60FA68334B6E
:1036B8001340FB60FB6823F00303FB603B681B6857
:1036C800FA681343FB607B6923F400737B613B68F2
:1036D8009B681B027A6913437B617B68284A934283
:1036E80003D07B68274A93420DD17B6923F400639A
:1036F8007B613B68DB681B027A6913437B617B69EA
:1037080023F480637B617B681D4A93420FD07B68FA
:103718001C4A93420BD07B681B4A934207D07B68B4
:103728001A4A934203D07B68194A934213D13B69E2
:1037380023F480533B613B6923F400533B613B68AE
:103748005B691B013A6913433B613B689B691B0139
:103758003A6913433B617B683A695A607B68FA6847
:10376800DA613B685A687B68DA637B687A691A624F
:1037780000BF1C37BD465DF8047B70478FFFFEFF16
:1037880000000140000401400040014000440140A5
:103798000048014080B487B000AF786039607B682A
:1037A8001B6A23F480527B681A627B681B6A3B6140
:1037B8007B685B687B617B68DB69FB60FA68244B2C
:1037C8001340FB60FB6823F44073FB603B681B6895
:1037D8001B02FA681343FB603B6923F400533B6107
:1037E8003B689B681B033A6913433B617B68194A32
:1037F80093420FD07B68184A93420BD07B68174AD4
:10380800934207D07B68164A934203D07B68154AD7
:10381800934209D17B6923F480437B613B685B69F0
:103828009B017A6913437B617B687A695A607B687C
:10383800FA68DA613B685A687B681A647B683A6997
:103848001A6200BF1C37BD465DF8047B704700BF95
:10385800FF8FFFFE000001400004014000400140CE
:10386800004401400048014080B487B000AF786050
:1038780039607B681B6A23F480327B681A627B6834
:103888001B6A3B617B685B687B617B685B6DFB6087
:10389800FA68214B1340FB603B681B68FA681343C6
:1038A800FB603B6923F400333B613B689B681B0466
:1038B8003A6913433B617B68184A93420FD07B688F
:1038C800174A93420BD07B68164A934207D07B680D
:1038D800154A934203D07B68144A934209D17B6905
:1038E80023F480337B613B685B691B027A6913436D
:1038F8007B617B687A695A607B68FA685A653B68BD
:103908005A687B689A657B683A691A6200BF1C37F7
:10391800BD465DF8047B70478FFFFEFF0000014045
:1039280000040140004001400044014000480140BB
:1039380080B487B000AF786039607B681B6A23F475
:1039480080127B681A627B681B6A3B617B685B68D4
:103958007B617B685B6DFB60FA68224B1340FB6000
:103968003B681B681B02FA681343FB603B6923F43E
:1039780000133B613B689B681B053A6913433B6135
:103988007B68194A93420FD07B68184A93420BD040
:103998007B68174A934207D07B68164A934203D044
:1039A8007B68154A934209D17B6923F480237B61A4
:1039B8003B685B699B027A6913437B617B687A6920
:1039C8005A607B68FA685A653B685A687B68DA65AA
:1039D8007B683A691A6200BF1C37BD465DF8047BF4
:1039E800704700BFFF8FFFFE000001400004014048
:1039F80000400140004401400048014080B487B0C5
:103A080000AFF860B9607A60FB681B6A7B61FB688D
:103A18001B6A23F00102FB681A62FB689B693B6121
:103A28003B6923F0F0033B617B681B013A69134350
:103A38003B617B6923F00A037B617A69BB681343A6
:103A48007B61FB683A699A61FB687A691A6200BF10
:103A58001C37BD465DF8047B704780B487B000AF63
:103A6800F860B9607A60FB681B6A23F01002FB6893
:103A78001A62FB689B697B61FB681B6A3B617B6917
:103A880023F470437B617B681B037A6913437B6172
:103A98003B6923F0A0033B61BB681B013A691343F0
:103AA8003B61FB687A699A61FB683A691A6200BFF0
:103AB8001C37BD465DF8047B7047000080B485B0B4
:103AC80000AF786039607B689B68FB60FA68094BD7
:103AD8001340FB603A68FB68134343F00703FB603D
:103AE8007B68FA689A6000BF1437BD465DF8047BAE
:103AF800704700BF8FFFCFFF80B487B000AFF8607A
:103B0800B9607A603B60FB689B687B617B6923F4E2
:103B18007F437B613B681A027B681A43BB68134387
:103B28007A6913437B61FB687A699A6000BF1C3726
:103B3800BD465DF8047B704780B483B000AF786001
:103B48007B681E4AC3F884207B681D4AC3F8882016
:103B58007B681C4AC3F88C207B681B4AC3F89020FA
:103B68007B681A4AC3F894207B68194AC3F89820DE
:103B78007B68184AC3F89C207B68174AC3F8A020C2
:103B88007B68164AC3F8A4207B68154AC3F8A820A6
:103B98007B68144AC3F8AC207B68134AC3F8B0208A
:103BA8007B68124AC3F8B4207B68114AC3F8B8206E
:103BB80000BF0C37BD465DF8047B70470D11000847
:103BC80071320008E9320008FD3200089932000815
:103BD800AD32000885320008C1320008D53200082D
:103BE80011330008153E0008293E00083D3E000834
:103BF800513E000880B485B000AF786039607B68BA
:103C080093F83C30012B01D102236DE07B6801223F
:103C180083F83C207B68022283F83D207B681B6880
:103C28005B68FB607B681B689B68BB607B681B6884
:103C3800304A934204D07B681B682F4A934208D1CC
:103C4800FB6823F47003FB603B685B68FA68134306
:103C5800FB60FB6823F07003FB603B681B68FA6835
:103C68001343FB607B681B68FA685A607B681B68B3
:103C7800204A934222D07B681B68B3F1804F1DD045
:103C88007B681B681D4A934218D07B681B681C4AD6
:103C9800934213D07B681B681A4A93420ED07B6804
:103CA8001B68154A934209D07B681B68164A9342E1
:103CB80004D07B681B68154A93420CD1BB6823F07B
:103CC8008003BB603B689B68BA681343BB607B6832
:103CD8001B68BA689A607B68012283F83D207B687C
:103CE800002283F83C20002318461437BD465DF8AF
:103CF800047B7047000001400004014000040040BC
:103D080000080040000C004000180040004001403E
:103D180080B485B000AF786039600023FB607B68B1
:103D280093F83C30012B01D1022365E07B68012226
:103D380083F83C20FB6823F0FF023B68DB681343F1
:103D4800FB60FB6823F440723B689B681343FB608D
:103D5800FB6823F480623B685B681343FB60FB6885
:103D680023F400623B681B681343FB60FB6823F481
:103D780080523B681B691343FB60FB6823F40052C5
:103D88003B685B691343FB60FB6823F480423B6834
:103D98009B6A1343FB60FB6823F470223B689B69B2
:103DA8001B041343FB607B681B68164A934204D0CC
:103DB8007B681B68144A934215D1FB6823F4700290
:103DC8003B685B6A1B051343FB60FB6823F080724A
:103DD8003B68DB691343FB60FB6823F000723B68B8
:103DE8001B6A1343FB607B681B68FA685A647B682C
:103DF800002283F83C20002318461437BD465DF89E
:103E0800047B7047000001400004014080B483B087
:103E180000AF786000BF0C37BD465DF8047B704783
:103E280080B483B000AF786000BF0C37BD465DF842
:103E3800047B704780B483B000AF786000BF0C3754
:103E4800BD465DF8047B704780B483B000AF7860EE
:103E580000BF0C37BD465DF8047B704780B58CB059
:103E680000AF78607B68002B02D1012300F01DBCF5
:103E78007B681B6803F00103002B00F08780994BD7
:103E88001B6903F03803FB62964B9B6ABB62FB6AB3
:103E9800102B07D0FB6A182B10D1BB6A03F0030361
:103EA800022B0BD18F4B1B6803F40033002B6CD013
:103EB8007B685B68002B68D10123F6E37B685B684D
:103EC800B3F5803F06D1874B1B68864A43F480339D
:103ED80013602EE07B685B68002B0CD1814B1B685C
:103EE800804A23F4803313607E4B1B687D4A23F499
:103EF800802313601DE07B685B68B3F5A02F0CD1AD
:103F0800784B1B68774A43F480231360754B1B6812
:103F1800744A43F4803313600BE0724B1B68714A98
:103F280023F4803313606F4B1B686E4A23F480239D
:103F380013607B685B68002B13D003F04BFB78623F
:103F480008E003F047FB02467B6AD31A642B01D9C9
:103F58000323AAE3634B1B6803F40033002BF0D060
:103F680014E003F037FB786208E003F033FB024605
:103F78007B6AD31A642B01D9032396E3594B1B6838
:103F880003F40033002BF0D100E000BF7B681B680E
:103F980003F00203002B00F0CB80524B1B6903F0A7
:103FA80038033B624F4B9B6AFB613B6A002B07D08F
:103FB8003B6A182B56D1FB6903F00303002B51D140
:103FC800484B1B6803F00403002B05D07B68DB68B3
:103FD800002B01D1012368E3424B1B6823F019022F
:103FE8007B68DB683F4913430B6003F0F3FA7862A0
:103FF80008E003F0EFFA02467B6AD31A022B01D9D4
:10400800032352E3374B1B6803F00403002BF0D063
:1040180003F0ECFA034641F20302934217D87B6897
:104028001B69402B08D12F4B5B6823F47C332D4A46
:1040380043F4003353607BE02A4B5B6823F47C3203
:104048007B681B691B03274913434B6070E0254BB2
:104058005B6823F0FE427B681B691B0621491343FA
:104068004B6065E07B68DB68002B48D01D4B1B6804
:1040780023F019027B68DB681A4913430B6003F0CD
:10408800A9FA786208E003F0A5FA02467B6AD31A17
:10409800022B01D9032308E3124B1B6803F0040326
:1040A800002BF0D003F0A2FA034641F20302934238
:1040B8001AD87B681B69402B08D10A4B5B6823F42C
:1040C8007C33084A43F40033536031E0054B5B68A6
:1040D80023F47C327B681B691B03024913434B6042
:1040E80026E000BF004402589A4B5B6823F0FE426A
:1040F8007B681B691B06974913434B6018E0954B77
:104108001B68944A23F00103136003F063FA786292
:1041180008E003F05FFA02467B6AD31A022B01D942
:104128000323C2E28B4B1B6803F00403002BF0D17E
:104138007B681B6803F01003002B00F0A980854BF7
:104148001B6903F03803BB61824B9B6A7B61BB69C7
:10415800082B07D0BB69182B3AD17B6903F00303FE
:10416800012B35D17B4B1B6803F48073002B05D0E2
:104178007B68DB69802B01D0012396E203F036FAD5
:10418800034641F20302934217D87B681B6A202B2F
:1041980008D1704B5B6823F0F8436E4A43F08043C4
:1041A800536075E06B4B5B6823F0F8427B681B6AD1
:1041B8009B06684913434B606AE0664BDB6823F053
:1041C8007C527B681B6A1B0662491343CB605FE025
:1041D8007B68DB69002B42D05E4B1B685D4A43F06D
:1041E8008003136003F0F6F9786208E003F0F2F94F
:1041F80002467B6AD31A022B01D9032355E2554B99
:104208001B6803F48073002BF0D003F0EFF903462A
:1042180041F20302934217D87B681B6A202B08D10E
:104228004C4B5B6823F0F8434A4A43F080435360A1
:104238002EE0484B5B6823F0F8427B681B6A9B06BC
:10424800444913434B6023E0424BDB6823F07C5224
:104258007B681B6A1B063F491343CB6018E03D4B44
:104268001B683C4A23F08003136003F0B3F97862BB
:1042780008E003F0AFF902467B6AD31A022B01D992
:10428800032312E2334B1B6803F48073002BF0D135
:104298007B681B6803F00803002B36D07B685B69DA
:1042A800002B19D02B4B5B6F2A4A43F0010353674D
:1042B80003F090F9786208E003F08CF902467B6A13
:1042C800D31A022B01D90323EFE1224B5B6F03F0D2
:1042D8000203002BF0D018E01E4B5B6F1D4A23F041
:1042E8000103536703F076F9786208E003F072F986
:1042F80002467B6AD31A022B01D90323D5E1154B59
:104308005B6F03F00203002BF0D17B681B6803F09E
:104318002003002B39D07B689B69002B1CD00D4BE8
:104328001B680C4A43F48053136003F053F9786216
:1043380008E003F04FF902467B6AD31A022B01D931
:104348000323B2E1034B1B6803F40053002BF0D0A6
:104358001BE000BF004402589B4B1B689A4A23F499
:104368008053136003F036F9786208E003F032F9FD
:1043780002467B6AD31A022B01D9032395E1924B9B
:104388001B6803F40053002BF0D17B681B6803F013
:104398000403002B00F081808C4B1B688B4A43F48C
:1043A8008073136003F016F9786208E003F012F9DD
:1043B80002467B6AD31A642B01D9032375E1834B28
:1043C8001B6803F48073002BF0D07B689B68012B7B
:1043D80006D17D4B1B6F7C4A43F0010313672DE028
:1043E8007B689B68002B0CD1774B1B6F764A23F0B8
:1043F80001031367744B1B6F734A23F0040313679D
:104408001CE07B689B68052B0CD16F4B1B6F6E4AB9
:1044180043F0040313676C4B1B6F6B4A43F00103B3
:1044280013670BE0684B1B6F674A23F001031367A0
:10443800654B1B6F644A23F0040313677B689B6812
:10444800002B15D003F0C6F878620AE003F0C2F832
:1044580002467B6AD31A41F28832934201D9032378
:1044680023E1594B1B6F03F00203002BEED014E03D
:1044780003F0B0F878620AE003F0ACF802467B6A11
:10448800D31A41F28832934201D903230DE14E4BEE
:104498001B6F03F00203002BEED17B685B6A002BD5
:1044A80000F00281484B1B6903F03803182B00F019
:1044B800BD807B685B6A022B40F09E80424B1B6884
:1044C800414A23F08073136003F084F8786208E0AF
:1044D80003F080F802467B6AD31A022B01D9032322
:1044E800E3E0394B1B6803F00073002BF0D1364B27
:1044F8009A6A374B13407A68916A7A68D26A1201CD
:104508000A43314913438B627B681B6B013BC3F33E
:1045180008027B685B6B013B5B029BB21A437B68BA
:104528009B6B013B1B0403F4FE031A437B68DB6BA4
:10453800013B1B0603F0FE43234913430B63224B45
:10454800DB6A214A23F00103D3621F4B5A6B214BCC
:1045580013407A68926CD2001B4913434B631A4B81
:10456800DB6A23F00C027B681B6C17491343CB6290
:10457800154BDB6A23F002027B685B6C124913431C
:10458800CB62114BDB6A104A43F48033D3620E4B83
:10459800DB6A0D4A43F40033D3620B4BDB6A0A4AE9
:1045A80043F48023D362084BDB6A074A43F00103D4
:1045B800D362054B1B68044A43F08073136003F011
:1045C80009F8786211E000BF004402580048025818
:1045D8000CFCFFFF0700FFFF02F0FCFF02467B6AAE
:1045E800D31A022B01D903235FE0324B1B6803F077
:1045F8000073002BF0D057E02E4B1B682D4A23F098
:104608008073136002F0E6FF786208E002F0E2FFD0
:1046180002467B6AD31A022B01D9032345E0254BB6
:104628001B6803F00073002BF0D13DE0214B9B6A1F
:104638003B61204B1B6BFB607B685B6A012B31D0B5
:104648003B6903F003027B689B6A9A422AD13B6963
:104658001B0903F03F027B68DB6A9A4222D1FB68A0
:10466800C3F308027B681B6B013B9A421AD1FB68B3
:104678005B0A03F07F027B685B6B013B9A4211D1B6
:10468800FB681B0C03F07F027B689B6B013B9A4223
:1046980008D1FB681B0E03F07F027B68DB6B013BD4
:1046A8009A4201D0012300E0002318463037BD4666
:1046B80080BD00BF0044025880B586B000AF786066
:1046C80039607B68002B01D101239CE18A4B1B6870
:1046D80003F00F033A689A4210D9874B1B6823F0FE
:1046E8000F0285493B6813430B60834B1B6803F03B
:1046F8000F033A689A4201D0012384E17B681B6862
:1047080003F00403002B10D07B681A697B4B9B696C
:1047180003F070039A4208D9784B9B6923F0700222
:104728007B681B69754913438B617B681B6803F0C1
:104738000803002B10D07B685A69704BDB6903F0C3
:1047480070039A4208D96D4BDB6923F070027B68CD
:104758005B696A491343CB617B681B6803F01003EC
:10476800002B10D07B689A69644BDB6903F4E06323
:104778009A4208D9614BDB6923F4E0627B689B6944
:104788005E491343CB617B681B6803F02003002B51
:1047980010D07B68DA69594B1B6A03F070039A42A0
:1047A80008D9564B1B6A23F070027B68DB695349B2
:1047B80013430B627B681B6803F00203002B10D0C5
:1047C8007B68DA684D4B9B6903F00F039A4208D95E
:1047D8004A4B9B6923F00F027B68DB684749134308
:1047E8008B617B681B6803F00103002B55D0434B9A
:1047F8009B6923F470627B689B68404913438B6113
:104808007B685B68022B07D13C4B1B6803F40033C1
:10481800002B21D10123F6E07B685B68032B07D1CD
:10482800364B1B6803F00073002B15D10123EAE017
:104838007B685B68012B07D1304B1B6803F48073DE
:10484800002B09D10123DEE02C4B1B6803F0040385
:10485800002B01D10123D6E0284B1B6923F0070266
:104868007B685B68254913430B6102F0B3FE7861EE
:104878000AE002F0AFFE02467B69D31A41F28832A1
:10488800934201D90323BEE01C4B1B6903F0380295
:104898007B685B68DB009A42EBD17B681B6803F09E
:1048A8000203002B10D07B68DA68144B9B6903F075
:1048B8000F039A4208D2114B9B6923F00F027B68C1
:1048C800DB680E4913438B610B4B1B6803F00F0326
:1048D8003A689A4214D2084B1B6823F00F02064923
:1048E8003B6813430B60044B1B6803F00F033A68E3
:1048F8009A4205D0012386E0002000520044025865
:104908007B681B6803F00403002B10D07B681A69CE
:104918003F4B9B6903F070039A4208D23C4B9B695A
:1049280023F070027B681B69394913438B617B68EC
:104938001B6803F00803002B10D07B685A69344BBE
:10494800DB6903F070039A4208D2314BDB6923F02C
:1049580070027B685B692E491343CB617B681B68D7
:1049680003F01003002B10D07B689A69284BDB6991
:1049780003F4E0639A4208D2254BDB6923F4E06232
:104988007B689B6922491343CB617B681B6803F0F2
:104998002003002B10D07B68DA691D4B1B6A03F0DB
:1049A80070039A4208D21A4B1B6A23F070027B6884
:1049B800DB69174913430B6200F034F80246144BC5
:1049C8009B691B0A03F00F031249CB5C03F01F031A
:1049D80022FA03F33B610E4B9B6903F00F030D4A68
:1049E800D35C03F01F033A6922FA03F30A4A1360FF
:1049F8000A4A3B6913600A4B1B68184602F0A0FD7F
:104A08000346FB73FB7B18461837BD4680BD00BFC5
:104A1800004402581CAD00081800002014000020B3
:104A28000C00002080B489B000AFB34B1B6903F0C1
:104A38003803182B00F2558101A252F823F000BF69
:104A4800AD4A0008EB4C0008EB4C0008EB4C0008A2
:104A5800EB4C0008EB4C0008EB4C0008EB4C000852
:104A6800D34A0008EB4C0008EB4C0008EB4C00085C
:104A7800EB4C0008EB4C0008EB4C0008EB4C000832
:104A8800D94A0008EB4C0008EB4C0008EB4C000836
:104A9800EB4C0008EB4C0008EB4C0008EB4C000812
:104AA800DF4A0008944B1B6803F02003002B09D051
:104AB800914B1B68DB0803F00303904A22FA03F3C7
:104AC800BB6111E18D4BBB610EE18D4BBB610BE10D
:104AD8008C4BBB6108E1884B9B6A03F003037B6145
:104AE800854B9B6A1B0903F03F033B61824BDB6AE2
:104AF80003F00103FB60804B5B6BDB08C3F30C0323
:104B0800FA6802FB03F307EE903AF8EE677AC7ED0E
:104B1800027A3B69002B00F0E1807B69022B00F0F0
:104B280083807B69022B00F2A1807B69002B03D074
:104B38007B69012B56D099E06F4B1B6803F020036B
:104B4800002B2DD06C4B1B68DB0803F003036B4A6A
:104B580022FA03F37B607B6807EE903AF8EE676A07
:104B68003B6907EE903AF8EE677A86EEA77A624BD1
:104B78001B6BC3F3080307EE903AF8EE676A97EDEC
:104B8800026ADFED615AC6EE257A76EEA77AF7EE6D
:104B9800006A77EEA67A67EE277AC7ED077A87E08C
:104BA8003B6907EE903AF8EE677ADFED586A86EED1
:104BB800A77A514B1B6BC3F3080307EE903AF8EE44
:104BC800676A97ED026ADFED505AC6EE257A76EEEF
:104BD800A77AF7EE006A77EEA67A67EE277AC7ED2E
:104BE800077A65E03B6907EE903AF8EE677ADFED01
:104BF800486A86EEA77A404B1B6BC3F3080307EE9F
:104C0800903AF8EE676A97ED026ADFED3F5AC6EE12
:104C1800257A76EEA77AF7EE006A77EEA67A67EE3F
:104C2800277AC7ED077A43E03B6907EE903AF8EE3A
:104C3800677ADFED386A86EEA77A2F4B1B6BC3F3D2
:104C4800080307EE903AF8EE676A97ED026ADFED1F
:104C58002E5AC6EE257A76EEA77AF7EE006A77EE38
:104C6800A67A67EE277AC7ED077A21E03B6907EE57
:104C7800903AF8EE677ADFED266A86EEA77A1E4B41
:104C88001B6BC3F3080307EE903AF8EE676A97EDDB
:104C9800026ADFED1D5AC6EE257A76EEA77AF7EEA0
:104CA800006A77EEA67A67EE277AC7ED077A00BF23
:104CB800114B1B6B5B0A03F07F0301333B603B68BE
:104CC80007EE903AB8EE677AD7ED076AC6EE877AAC
:104CD800FCEEE77A17EE903ABB6105E00023BB6172
:104CE80002E0074BBB6100BFBB6918462437BD46CD
:104CF8005DF8047B704700BF004402580090D00361
:104D080000093D0040787D01000000460024744CF5
:104D18000024744A20BCBE4B80B582B000AFFFF7B8
:104D280081FE0246104B9B691B0A03F00F030F49D3
:104D3800CB5C03F01F0322FA03F37B600A4B9B69E9
:104D480003F00F03094AD35C03F01F037A6822FAC1
:104D580003F3074A1360074A7B681360044B1B6818
:104D680018460837BD4680BD004402581CAD0008EF
:104D7800180000201400002080B586B000AF7860CD
:104D88000023FB750023BB757B681B6803F0006379
:104D9800002B3FD07B685B6EB3F5401F2AD0B3F57C
:104DA800401F24D8B3F5001F18D0B3F5001F1ED834
:104DB800002B03D0B3F5801F07D018E0A34BDB6AA4
:104DC800A24A43F40033D36215E07B68043302211E
:104DD800184601F0F9FF0346FB750CE07B682433A5
:104DE8000221184602F0A2F80346FB7503E00123EE
:104DF800FB7500E000BFFB7D002B09D1934B1B6DB9
:104E080023F440127B685B6E904913430B6501E005
:104E1800FB7DBB757B681B6803F48073002B3DD05A
:104E28007B685B6D042B26D801A252F823F000BFE3
:104E38004D4E00085B4E00086D4E0008854E000878
:104E4800854E0008814BDB6A804A43F40033D36205
:104E580015E07B6804330021184601F0B5FF0346CE
:104E6800FB750CE07B6824330021184602F05EF8DD
:104E78000346FB7503E00123FB7500E000BFFB7DE3
:104E8800002B09D1714B1B6D23F007027B685B6D0A
:104E98006E4913430B6501E0FB7DBB757B681B689E
:104EA80003F40073002B42D07B689B6DB3F5807FC1
:104EB8002BD0B3F5807F25D8C02B28D0C02B21D884
:104EC800802B16D0802B1DD8002B02D0402B07D06A
:104ED80018E05E4BDB6A5D4A43F40033D36217E0A7
:104EE8007B6804330021184601F06EFF0346FB750A
:104EF8000EE07B6824330021184602F017F80346B9
:104F0800FB7505E00123FB7502E000BF00E000BF70
:104F1800FB7D002B09D14D4B1B6D23F4E0727B68A0
:104F28009B6D4A4913430B6501E0FB7DBB757B68AC
:104F38001B6803F48063002B49D07B68D3F8A43046
:104F4800B3F5000F30D0B3F5000F2AD8B3F5C00F72
:104F58002CD0B3F5C00F24D8B3F5800F18D0B3F513
:104F6800800F1ED8002B03D0B3F5001F07D018E020
:104F7800364BDB6A354A43F40033D36217E07B686B
:104F880004330021184601F01FFF0346FB750EE0AD
:104F98007B6824330021184601F0C8FF0346FB75DF
:104FA80005E00123FB7502E000BF00E000BFFB7DC8
:104FB800002B0AD1254B9B6D23F460027B68D3F844
:104FC800A430224913438B6501E0FB7DBB757B68E8
:104FD8001B6803F40063002B4BD07B68D3F8A83020
:104FE800B3F1806F30D0B3F1806F2AD8B3F1407F2E
:104FF8002ED0B3F1407F24D8B3F1007F18D0B3F19D
:10500800007F1ED8002B03D0B3F1807F07D018E0B3
:105018000E4BDB6A0D4A43F40033D36219E07B6818
:1050280004330021184601F0CFFE0346FB7510E05B
:105038007B6824330021184601F078FF0346FB758E
:1050480007E00123FB7504E000BF02E000440258BA
:1050580000BFFB7D002B0AD1994B9B6D23F0E062CA
:105068007B68D3F8A830964913438B6501E0FB7D34
:10507800BB757B681B6803F00073002B32D07B681C
:105088009B6C302B1CD0302B17D8202B0CD0202B0E
:1050980013D8002B16D0102B0FD1894BDB6A884A06
:1050A80043F40033D3620EE07B68043302211846D0
:1050B80001F08AFE0346FB7505E00123FB7502E05B
:1050C80000BF00E000BFFB7D002B09D17C4BDB6CEF
:1050D80023F030027B689B6C79491343CB6401E071
:1050E800FB7DBB757B681B6803F48053002B47D09E
:1050F8007B68DB6DB3F5804F30D0B3F5804F2AD88D
:10510800B3F5405F2CD0B3F5405F24D8B3F5005F0A
:1051180018D0B3F5005F1ED8002B03D0B3F5805F1D
:1051280007D018E0664BDB6A654A43F40033D36264
:1051380017E07B6804330021184601F045FE03465A
:10514800FB750EE07B6824330021184601F0EEFE63
:105158000346FB7505E00123FB7502E000BF00E094
:1051680000BFFB7D002B09D1554B1B6D23F4E0429A
:105178007B68DB6D524913430B6501E0FB7DBB7512
:105188007B681B6803F40053002B49D07B681B6EB7
:10519800B3F5A02F2ED0B3F5A02F28D8B3F5802FC4
:1051A8002AD0B3F5802F22D8B3F5403F26D0B3F5E7
:1051B800403F1CD8B3F5003F10D0B3F5003F16D8D8
:1051C800002B1DD0B3F5803F11D17B68043301213A
:1051D800184601F0F9FD0346FB7512E07B6824339D
:1051E8000121184601F0A2FE0346FB7509E00123E0
:1051F800FB7506E000BF04E000BF02E000BF00E06E
:1052080000BFFB7D002B09D12D4B1B6D23F4E02241
:105218007B681B6E2A4913430B6501E0FB7DBB7558
:105228007B681B6803F48043002B4DD07B68D3F860
:10523800AC30B3F1A04F2ED0B3F1A04F28D8B3F1C2
:10524800804F2AD0B3F1804F22D8B3F1405F26D0E7
:10525800B3F1405F1CD8B3F1005F10D0B3F1005F29
:1052680016D8002B1DD0B3F1805F11D17B680433B1
:105278000121184601F0A8FD0346FB7512E07B6882
:1052880024330121184601F051FE0346FB7509E05D
:105298000123FB7506E000BF04E000BF02E000BF89
:1052A80000E000BFFB7D002B0CD1054B9B6D23F06C
:1052B800E0427B68D3F8AC30014913438B6503E0C7
:1052C80000440258FB7DBB757B681B6803F40043F0
:1052D800002B2FD07B68DB6EB3F1005F0ED0B3F1EB
:1052E800005F14D8002B15D0B3F1805F0FD1AF4BFE
:1052F800DB6AAE4A43F40033D3620CE07B680433C4
:105308000121184601F060FD0346FB7503E0012307
:10531800FB7500E000BFFB7D002B09D1A34B1B6D83
:1053280023F040527B68DB6EA04913430B6501E014
:10533800FB7DBB757B681B6803F08073002B32D044
:105348007B685B6C032B1BD801A252F823F000BFCB
:105358008F53000869530008775300088F530008DB
:10536800924BDB6A914A43F40033D3620CE07B68CA
:1053780004330221184601F027FD0346FB7503E0BC
:105388000123FB7500E000BFFB7D002B09D1874B93
:10539800DB6C23F003027B685B6C84491343CB64AA
:1053A80001E0FB7DBB757B681B6803F48003002B61
:1053B80000F086807E4B1B687D4A43F4807313603F
:1053C80002F008F9386109E002F004F902463B6985
:1053D800D31A642B02D90323FB7505E0744B1B68B1
:1053E80003F48073002BEFD0FB7D002B66D16F4B4D
:1053F8001A6F7B68D3F8B030534003F44073002B26
:1054080013D06A4B1B6F23F44073FB60674B1B6F11
:10541800664A43F480331367644B1B6F634A23F473
:1054280080331367614AFB6813677B68D3F8B03031
:10543800B3F5807F15D102F0CDF838610BE002F0AA
:10544800C9F802463B69D31A41F28832934202D91D
:105458000323FB7505E0554B1B6F03F00203002B7C
:10546800EDD0FB7D002B26D17B68D3F8B03003F458
:105478004073B3F5407F0DD14C4B1B6923F47C522C
:105488007B68D3F8B03019094A4B0B40474913439E
:105498000B6105E0454B1B69444A23F47C531361B7
:1054A800424B1A6F7B68D3F8B030C3F30B033F4904
:1054B80013430B6704E0FB7DBB7501E0FB7DBB7507
:1054C8007B681B6803F00103002B00F085807B6874
:1054D8009B6F282B66D801A252F823F0C15500080B
:1054E800AD550008AD550008AD550008AD5500088C
:1054F800AD550008AD550008AD55000889550008A0
:10550800AD550008AD550008AD550008AD5500086B
:10551800AD550008AD550008AD5500089B5500086D
:10552800AD550008AD550008AD550008AD5500084B
:10553800AD550008AD550008AD550008C155000827
:10554800AD550008AD550008AD550008AD5500082B
:10555800AD550008AD550008AD550008C155000807
:10556800AD550008AD550008AD550008AD5500080B
:10557800AD550008AD550008AD550008C1550008E7
:105588007B6804330121184601F01EFC0346FB75B5
:1055980013E07B6824330121184601F0C7FC034659
:1055A800FB750AE00123FB7507E000BF00440258C1
:1055B80000480258CFFFFF0000BFFB7D002B09D138
:1055C800964B5B6D23F038027B689B6F93491343BE
:1055D8004B6501E0FB7DBB757B681B6803F002032C
:1055E800002B38D07B685B6F052B21D801A252F8BD
:1055F80023F000BF3F56000815560008275600083C
:105608003F5600083F5600083F5600087B680433A1
:105618000121184601F0D8FB0346FB750CE07B68B6
:1056280024330121184601F081FC0346FB7503E091
:105638000123FB7500E000BFFB7D002B09D1774BF0
:105648005B6D23F007027B685B6F744913434B65FE
:1056580001E0FB7DBB757B681B6803F00403002B2E
:105668003AD07B68D3F89030052B21D801A252F8A4
:1056780023F000BFBF56000895560008A75600083B
:10568800BF560008BF560008BF5600087B680433A1
:105698000121184601F098FB0346FB750CE07B6876
:1056A80024330121184601F041FC0346FB7503E051
:1056B8000123FB7500E000BFFB7D002B0AD1574B8F
:1056C8009B6D23F007027B68D3F89030534913434E
:1056D8008B6501E0FB7DBB757B681B6803F02003CD
:1056E800002B4BD07B68D3F88C30B3F1A04F2ED071
:1056F800B3F1A04F28D8B3F1804F2AD0B3F1804F2F
:1057080022D8B3F1405F26D0B3F1405F1CD8B3F183
:10571800005F10D0B3F1005F16D8002B1DD0B3F195
:10572800805F11D17B6804330021184601F04CFBDF
:105738000346FB7512E07B6824330221184601F00A
:10574800F5FB0346FB7509E00123FB7506E000BF86
:1057580004E000BF02E000BF00E000BFFB7D002BBB
:105768000AD12E4B5B6D23F0E0427B68D3F88C3076
:105778002A4913434B6501E0FB7DBB757B681B68B9
:1057880003F04003002B4DD07B68D3F89830B3F575
:10579800A05F2ED0B3F5A05F28D8B3F5805F2AD0DC
:1057A800B3F5805F22D8B3F5406F26D0B3F5406FCC
:1057B8001CD8B3F5006F10D0B3F5006F16D8002BC6
:1057C8001DD0B3F5806F11D17B68043300211846D2
:1057D80001F0FAFA0346FB7512E07B6824330221D4
:1057E800184601F0A3FB0346FB7509E00123FB758E
:1057F80006E000BF04E000BF02E000BF00E000BF19
:10580800FB7D002B0CD1054B9B6D23F4E0527B688C
:10581800D3F89830014913438B6503E000440258DC
:10582800FB7DBB757B681B6803F08003002B4BD0A6
:105838007B68D3F89C30B3F5204F2ED0B3F5204FBA
:1058480028D8B3F5004F2AD0B3F5004F22D8B3F5C6
:10585800C04F26D0B3F5C04F1CD8B3F5804F10D039
:10586800B3F5804F16D8002B1DD0B3F5005F11D1CA
:105878007B6804330021184601F0A6FA0346FB753D
:1058880012E07B6824330221184601F04FFB0346DF
:10589800FB7509E00123FB7506E000BF04E000BFCB
:1058A80002E000BF00E000BFFB7D002B0AD19D4B4A
:1058B8009B6D23F460427B68D3F89C30994913436D
:1058C8008B6501E0FB7DBB757B681B6803F00803F3
:1058D800002B1AD07B68D3F88030B3F5805F0AD1EB
:1058E8007B6824330221184601F020FB0346002B75
:1058F80001D00123BB758B4B5B6D23F440527B6851
:10590800D3F88030874913434B657B681B6803F0E5
:105918001003002B1AD07B68D3F89430B3F5807F3E
:105928000AD17B6824330221184601F0FFFA0346A6
:10593800002B01D00123BB757A4B9B6D23F4407279
:105948007B68D3F89430774913438B657B681B6871
:1059580003F40023002B34D07B68D3F8A030B3F5D0
:10596800003F1DD0B3F5003F17D8002B03D0B3F587
:10597800803F09D011E07B6804330021184601F00C
:1059880023FA0346FB750CE07B6824330221184692
:1059980001F0CCFA0346FB7503E00123FB7500E038
:1059A80000BFFB7D002B0AD15E4B9B6D23F4403278
:1059B8007B68D3F8A0305B4913438B6501E0FB7D1E
:1059C800BB757B681B6803F48023002B33D07B688E
:1059D800D3F88430B3F5401F1CD0B3F5401F16D858
:1059E800B3F5801F03D0B3F5001F07D00FE04D4B70
:1059F800DB6A4C4A43F40033D3620CE07B682433FF
:105A08000121184601F092FA0346FB7503E00123D1
:105A1800FB7500E000BFFB7D002B0AD1414B5B6D9D
:105A280023F440127B68D3F884303E4913434B6516
:105A380001E0FB7DBB757B681B6803F48033002B9A
:105A480029D07B68DB6C002B03D0B3F5803F07D0EF
:105A58000FE0344BDB6A334A43F40033D3620BE084
:105A68007B6804330221184601F0AEF90346FB7542
:105A780002E00123FB7500BFFB7D002B09D1294BF8
:105A8800DB6C23F480327B68DB6C26491343CB64E0
:105A980001E0FB7DBB757B681B6803F00053002B9E
:105AA8000AD07B6824330221184601F03FFA0346E6
:105AB800002B01D00123BB757B681B6803F40033FE
:105AC800002B33D07B68DB6FB3F5407F17D0B3F57D
