:020000040800F2
:1000000000000220D92F0008F5060008F7060008B6
:10001000F9060008FB060008FD06000800000000C5
:10002000000000000000000000000000FF060008C3
:10003000010700080000000003070008050700088A
:1000400023300008293000082F3000083530000820
:100050003B30000841300008473000084D300008B0
:1000600053300008593000085F3000086530000840
:100070006B30000871300008773000087D300008D0
:1000800083300008893000088F3000089530000860
:100090009B300008A1300008A7300008AD300008F0
:1000A000B3300008B9300008BF300008C530000880
:1000B000CB300008D1300008D7300008DD30000810
:1000C000E3300008E9300008EF300008F5300008A0
:1000D000FB30000801310008073100080D3100082D
:1000E0001331000819310008000000001F3100081A
:1000F000253100082B310008313100083731000864
:100100003D31000843310008493100084F310008F3
:10011000553100085B310008613100086731000883
:100120006D31000873310008793100087F31000813
:10013000853100088B3100089131000897310008A3
:1001400000000000000000000000000000000000AF
:100150009D310008A3310008A9310008AF31000823
:10016000B5310008BB310008C1310008C7310008B3
:10017000CD310008D3310008D9310008000000005B
:10018000DF310008E5310008EB310008F1310008EB
:10019000F7310008FD310008033200080932000879
:1001A0000F320008153200081B3200082132000807
:1001B000273200082D320008333200083932000897
:1001C0003F320008453200084B3200085132000827
:1001D000573200085D3200086332000869320008B7
:1001E0006F320008753200087B3200088132000847
:1001F000873200088D3200089332000899320008D7
:100200009F320008A5320008AB320008B132000866
:10021000B732000871330008BD320008C33200084D
:10022000C9320008CF320008D532000800000000B3
:10023000DB320008E132000800000000E73200086D
:10024000ED320008F3320008F9320008FF320008EE
:10025000053300080B33000811330008173300087A
:100260001D33000823330008293300082F3300080A
:10027000353300083B33000841330008000000001C
:10028000473300084D3300085333000800000000D6
:080290000000000059330008D2
:1002980010B5054C237833B9044B13B10448AFF3B8
:1002A80000800123237010BD100000200000000012
:1002B800D033000808B5034B1BB103490348AFF31B
:1002C800008008BD0000000014000020D0330008A2
:1002D8002DE9F0438BB00024059406940794089404
:1002E80009943A4BD3F8E02042F01002C3F8E0201A
:1002F800D3F8E02002F010020192019AD3F8E0202E
:1003080042F48072C3F8E020D3F8E02002F480724F
:100318000292029AD3F8E02042F08002C3F8E0206B
:10032800D3F8E02002F080020392039AD3F8E02089
:1003380042F00202C3F8E020D3F8E03003F00203F1
:100348000493049BDFF8909022460421484602F06B
:100358007FFCDFF8888022464FF48071404602F027
:1003680077FC1B4F22461021384602F071FC194ECB
:100378002246C021304602F06BFC04230593012578
:1003880006950794089405A9484602F063FB4FF4C4
:100398008073059306950794089405A9404602F0D2
:1003A80059FB1023059306950794089405A9384628
:1003B80002F050FBC023059306950794089405A9FD
:1003C800304602F047FB0BB0BDE8F083004402580A
:1003D800001C02580004025800100258002002585D
:1003E80072B6FEE710B592B000240B940C940D94ED
:1003F8000E940F94109411942C222146684602F012
:10040800DBFF1D481D4B03604FF4F07343608460AD
:100418004FF47A73C36004614461846100F004FF9F
:1004280010BB154800F03AFF00BB00220B920C925B
:100438000D920E920F92109211920BA90E4800F095
:1004480075FEA8B9002300930193029303930493C4
:100458004FF40052059206930A936946064800F045
:1004680057FF38B912B010BDFFF7BAFFFFF7B8FF52
:10047800FFF7B6FFFFF7B4FF340100200048014042
:1004880010B592B000240B940C940D940E940F9414
:10049800109411942C222146684602F08DFF1D48C5
:1004A8001D4B0360EF234360846040F2E733C36071
:1004B80004614461846100F0B7FE10BB154800F088
:1004C800EDFE00BB00220B920C920D920E920F9241
:1004D800109211920BA90F4800F028FEA8B900232A
:1004E800009301930293039304934FF400520592EF
:1004F80006930A936946074800F00AFF38B912B014
:1005080010BDFFF76DFFFFF76BFFFFF769FFFFF700
:1005180067FF00BF780000200044014008B511487B
:10052800114B0360114B4360002383600122C260BA
:10053800036143618361C361036202F027FC50B920
:100548000021084802F080FC38B90021054802F073
:10055800A9FC20B908BDFFF743FFFFF741FFFFF7EC
:100568003FFF00BF2C00002000540040DB3FB000DC
:1005780000B59DB04C22002109A802F01DFF2022E1
:10058800002101A802F018FF022002F067FB0023F7
:100598000093264B9A6942F440429A619B6903F49E
:1005A80040430093224BDA6A42F00102DA62DB6AC6
:1005B80003F001030093009B1C4B9B6913F4005F3D
:1005C800FAD0102309938023109320231193022338
:1005D8001293012213921492F022159216931793F4
:1005E80018930823199300231A931B9309A800F062
:1005F800DBFEB8B93F23019303230293002303933F
:10060800082304934023059306934FF480620792CE
:10061800089304210DEB010001F0E4FA20B91DB0A4
:100628005DF804FBFFF7DCFEFFF7DAFE004802582E
:100638000004005808B52B4B5B6913F4003F13D135
:10064800BFF34F8FBFF36F8F264B0022C3F85022A2
:10065800BFF34F8FBFF36F8F5A6942F400325A616C
:10066800BFF34F8FBFF36F8F1E4B5B6913F4803F4F
:1006780027D11C4B0022C3F88420BFF34F8FD3F837
:100688008040C4F34E3000E01846C4F3C90243F674
:10069800E07303EA401343EA82731249C1F86032F7
:1006A8001346013A002BF2D1431E0028ECD1BFF3C8
:1006B8004F8F4B6943F480334B61BFF34F8FBFF3C8
:1006C8006F8F02F01DFBFFF753FFFFF701FEFFF7E7
:1006D80089FEFFF7D5FEFFF721FF034800F03AFB3C
:1006E800FEE700BF00ED00E078000020FEE7FEE72F
:1006F800FEE7FEE7FEE770477047704708B502F06F
:100708002DFB08BD08B500F0A3F808BD82B0074B63
:10071800D3F8F42042F00202C3F8F420D3F8F430FE
:1007280003F002030193019B02B070470044025892
:1007380010B5B6B00446002131913291339134910D
:100748003591BC2202A802F037FE22681B4B9A4260
:1007580001D036B010BD082302930DEB030001F061
:1007680097FC40BB164CD4F8E03043F00203C4F8C1
:10077800E030D4F8E03003F002030093009B4FF41C
:10078800407331931223329301233393002334931C
:100798000423359331A90B4802F05CF9D4F8E8300A
:1007A80043F40013C4F8E830D4F8E83003F4001335
:1007B8000193019BCDE7FFF713FED3E700540040F8
:1007C800004402580004025800B583B003681A4A6E
:1007D800934205D0194A934218D003B05DF804FB40
:1007E800174BD3F8F02042F40032C3F8F020D3F8C6
:1007F800F03003F400330093009B0022114675206B
:1008080000F002F9752000F035F9E6E70C4BD3F853
:10081800F02042F48022C3F8F020D3F8F03003F43B
:1008280080230193019B00221146762000F0ECF80A
:10083800762000F01FF9D0E700440140004801404D
:100848000044025808B500F047F800F0C7F808BDA2
:1008580008B5FFF7F7FF1C4A1368013313601B4AFA
:10086800A2FB031222F0030101EB9202934203D18F
:1008780015494A6801324A60144AA2FB0312D20899
:1008880002EB820251008B4203D10F498A68013280
:100898008A600F4AA2FB03125209642101FB12323B
:1008A8001AB90949CA680132CA600A4AA2FB031286
:1008B80092094FF47A7101FB12321AB9024A13698C
:1008C8000133136108BD00BFF0010020CDCCCCCCB2
:1008D8001F85EB51D34D621010B5394A1378013397
:1008E800DBB21370642B02D9134600221A70344B02
:1008F8001B78192B1FD9A3F11A02D2B2182A31D9A1
:10090800333BDBB2182B44D82E4C00224021204622
:1009180002F09EF900228021204602F099F9012276
:100928001021294802F094F900224FF480712748D9
:1009380002F08EF915E0234C01224021204602F0F6
:1009480087F900228021204602F082F90022102136
:100958001D4802F07DF900224FF480711B4802F017
:1009680077F910BD174C00224021204602F070F99B
:1009780001228021204602F06BF900221021124842
:1009880002F066F900224FF48071104802F060F915
:10099800E7E70C4C00224021204602F059F90022DA
:1009A8008021204602F054F900221021064802F066
:1009B8004FF901224FF48071044802F049F9D0E759
:1009C8000402002000040258001C025800200258AB
:1009D800014B00225A7470470802002008B5FFF73F
:1009E800F7FF08BD0649CB6823F4E0631B041B0C22
:1009F800000200F4E0600343024A1A43CA607047E9
:100A080000ED00E00000FA0500B5174BDB68C3F302
:100A18000223C3F1070CBCF1040F28BF4FF0040CEC
:100A280003F1040EBEF1060F14D9033B4FF0FF3E4D
:100A38000EFA0CFC21EA0C0199400EFA03F322EAA3
:100A480003031943002807DB0901C9B2074B1954EE
:100A58005DF804FB0023E9E700F00F000901C9B2C3
:100A6800034B1954F4E700BF00ED00E000E400E098
:100A780014ED00E0002807DB00F01F024009012305
:100A88009340024A42F82030704700BF00E100E07E
:100A98000138B0F1807F0BD24FF0E0235861054A4E
:100AA800F02182F823100020986107221A6170470C
:100AB8000120704700ED00E07047704770477047AD
:100AC800704770477047704770477047F0B4036AC3
:100AD80023F001030362036A466884691F4A2240BF
:100AE8000D68154323F002038C6823431C4A1D4CF0
:100AF800A04218BF90420CBF012200220CD004F57E
:100B08008044A04214BF00240124174FB84203D0E8
:100B180014B9164CA04205D123F00803CC6823432E
:100B280023F004035AB9124A904214BF002201224A
:100B38000D4CA04203D012B90C4A904207D126F4BA
:100B4800407C4A6942EA0C0C8E6946EA0C0646600B
:100B580085614A6842630362F0BC70478CFFFEFF00
:100B680000000140000401400040014000480140ED
:100B78000044014070B4036A23F480730362036A7B
:100B88004568C26922F073020E68164323F40073A5
:100B98008A6843EA0223164A164CA04218BF9042BC
:100BA8000CBF0122002206D123F40063CC6843EA7B
:100BB800042323F480635AB90F4A904214BF0022D9
:100BC80001220E4CA04203D012B90D4A904207D11F
:100BD80025F4405C4A694CEA021C8D694CEA05150B
:100BE8004560C6614A68C263036270BC704700BF53
:100BF8000000014000040140004401400040014061
:100C08000048014070B4036A23F480530362036A06
:100C18004468C26922F4E6420D6842EA052223F4D8
:100C280000538D6843EA05330F4E104DA84218BF94
:100C3800B0420DD005F58045A84214BF0025012516
:100C480006F58046B04203D015B9094DA84204D133
:100C580024F480444D6944EA85144460C2614A68BA
:100C68000264036270BC7047000001400004014048
:100C78000048014070B4036A23F480330362036AB6
:100C88004268446D24F0700C0C6844EA0C0623F4A6
:100C980000338C6843EA04430F4D104CA04218BF40
:100CA800A8420DD004F58044A04214BF00240124BA
:100CB80005F58045A84203D014B9094CA04204D1D7
:100CC80022F480324C6942EA0422426046654A684E
:100CD8008265036270BC7047000001400004014057
:100CE8000048014070B4036A23F480130362036A66
:100CF8004468426D22F4E0420D6842EA052223F47A
:100D080000138D6843EA05530F4E104DA84218BFD3
:100D1800B0420DD005F58045A84214BF0025012535
:100D280006F58046B04203D015B9094DA84204D152
:100D380024F400344D6944EA8524446042654A68D5
:100D4800C265036270BC70470000014000040140A6
:100D58000048014090F83D30DBB2012B36D1022328
:100D680080F83D300268D36843F00103D36003681C
:100D7800184AB3F1804F18BF934219D0A2F57C42AC
:100D8800934215D002F58062934211D002F5806239
:100D980093420DD002F57842934209D0A2F56C42F5
:100DA800934205D01A6842F001021A600020704789
:100DB8009968094A0A40062A18BFB2F5803F07D049
:100DC8001A6842F001021A6000207047012070473B
:100DD80000207047000001400700010010B50446DC
:100DE80003681A6912F0020F13D0DA6812F0020FC2
:100DF8000FD06FF002021A610123037703689B6921
:100E080013F0030F00F0A380D0F894309847002324
:100E1800237723681A6912F0040F14D0DA6812F0E5
:100E2800040F10D06FF004021A610223237723689D
:100E38009B6913F4407F00F09280D4F894302046E8
:100E480098470023237723681A6912F0080F14D0F3
:100E5800DA6812F0080F10D06FF008021A61042344
:100E680023772368DB6913F0030F00F08180D4F83F
:100E78009430204698470023237723681A6912F094
:100E8800100F13D0DA6812F0100F0FD06FF01002A5
:100E98001A61082323772368DB6913F4407F70D035
:100EA800D4F89430204698470023237723681A699A
:100EB80012F0010F0AD0DA6812F0010F06D06FF0B5
:100EC80001021A61D4F884302046984723681A69C9
:100ED80012F0800F0AD0DA6812F0800F06D06FF097
:100EE80080021A61D4F8B4302046984723681A69FA
:100EF80012F4807F0AD0DA6812F0800F06D06FF4FF
:100F080080721A61D4F8B8302046984723681A6965
:100F180012F0400F0AD0DA6812F0400F06D06FF0D6
:100F280040021A61D4F88C302046984723681A6921
:100F380012F0200F0AD0DA6812F0200F06D06FF0F6
:100F480020021A61D4F8AC302046984710BDD0F87A
:100F58009C309847D4F8A0302046984757E7D4F8F3
:100F68009C3020469847D4F8A0302046984768E738
:100F7800D4F89C3020469847D4F8A03020469847AB
:100F880079E7D4F89C3020469847D4F8A03020461A
:100F9800984789E730B50368394A904214BF4FF043
:100FA800000E4FF0010EB0F1804F14BF72464EF0A4
:100FB8000102AAB9334CA04214BF00240124324DC7
:100FC800A8420DD064B904F1804404F58234A042EB
:100FD80014BF0024012405F50065A84200D01CB107
:100FE80023F070034C68234312BB264A904214BF77
:100FF80000220122244CA0421AD0CAB902F1804230
:1010080002F58232904214BF0022012204F50064E6
:10101800A0420DD062B91D4A904214BF002201229D
:1010280004F59A34A04203D012B9194A904204D167
:1010380023F4407CCB6843EA0C0323F080034A691D
:10104800134303608A68C2620A688262114A904246
:1010580014BF73464EF0010363B90C4B984214BF9A
:101068000023012302F57052904203D013B9084BB4
:10107800984201D10B6903630123436130BD00BF6E
:101088000000014000080040000400400044014006
:10109800004801400004014070B4036A23F01003C3
:1010A8000362036A456884691A4A22400E6842EA64
:1010B800062623F020038A6843EA0213164A174CCF
:1010C800A04218BF90420CBF0122002206D123F093
:1010D8008003CC6843EA041323F040035AB9104A4A
:1010E800904214BF002201220E4CA04203D012B934
:1010F8000D4A904207D125F4406C4A694CEA820CAB
:101108008D694CEA8505456086614A688263036299
:1011180070BC7047FF8CFFFE0000014000040140D6
:1011280000440140004001400048014090F83C3034
:10113800012B2ED010B50446012380F83C30142A28
:101148000FD8DFE802F00B0E0E0E120E0E0E160E62
:101158000E0E1A0E0E0E1E0E0E0E22000068FFF75F
:10116800B5FC002084F83C0010BD0068FFF794FF30
:10117800F7E70068FFF7FEFCF3E70068FFF742FDBA
:10118800EFE70068FFF776FDEBE70068FFF7AAFDD9
:10119800E7E7022070470000154BC0F88430154B74
:1011A800C0F88830144BC0F88C30144BC0F890301D
:1011B800134BC0F89430134BC0F89830124BC0F85A
:1011C8009C30124BC0F8A030114BC0F8A430114B22
:1011D800C0F8A830104BC0F8AC30104BC0F8B03095
:1011E8000F4BC0F8B4300F4BC0F8B830704700BF91
:1011F8000D070008C30A0008CF0A0008D10A000832
:10120800C70A0008C90A0008C50A0008CB0A00086E
:10121800CD0A0008D30A0008A9130008AB13000878
:10122800AD130008AF130008A0B310B5044690F83A
:101238003D3013B3022384F83D30214651F8040BA6
:10124800FFF7A8FE012384F8483084F83E3084F87C
:101258003F3084F8403084F8413084F8423084F8D4
:10126800433084F8443084F8453084F8463084F8B4
:10127800473084F83D30002010BD80F83C30FFF73F
:101288008BFFE36C1BB1E36C20469847D2E7024B17
:10129800E364F8E701207047D1070008A0B310B550
:1012A800044690F83D3013B3022384F83D302146BC
:1012B80051F8040BFFF76EFE012384F8483084F8D8
:1012C8003E3084F83F3084F8403084F8413084F868
:1012D800423084F8433084F8443084F8453084F848
:1012E800463084F8473084F83D30002010BD80F83F
:1012F8003C30FFF751FFE36D1BB1E36D2046984783
:10130800D2E7024BE365F8E701207047C10A0008FD
:1013180090F83C30012B3CD030B4012380F83C30AD
:10132800CB6823F440738A68134323F480634A68C4
:10133800134323F400630A68134323F480530A69B0
:10134800134323F400534A69134323F480438A6AFE
:10135800134323F470238A6943EA024302680E4D5B
:101368000E4CA24218BFAA420CD123F470034C6A57
:1013780043EA045323F08073CC69234323F00073BA
:10138800096A0B435364002380F83C30184630BC8C
:1013980070470220704700BF000001400004014070
:1013A8007047704770477047002800F0028338B5CF
:1013B8000446036813F0010F25D09C4A136903F013
:1013C8003803926A102B15D0182B0FD06368B3F529
:1013D800803F3FD0002B53D1944B1A6822F48032BF
:1013E8001A601A6822F480221A6038E002F00302B8
:1013F800022AEBD18D4B1B6813F4003F03D06368BE
:10140800002B00F0D882236813F0020F00F08B80C5
:10141800864A1369926A13F038035AD0182B55D0AC
:10142800E368002B00F0C88080490A6822F019029E
:1014380013430B6001F09EFC05467C4B1B6813F0C0
:10144800040F40F0978001F095FC401B0228F4D966
:101458000320B7E2754A136843F480331360636866
:101468002BB301F087FC0546704B1B6813F4003F53
:10147800C9D101F07FFC401B6428F5D90320A1E203
:10148800B3F5A02F09D0694B1A6822F480321A608C
:101498001A6822F480221A60E1E7644B1A6842F461
:1014A80080221A601A6842F480321A60D7E701F085
:1014B80061FC05465D4B1B6813F4003FA3D001F0A7
:1014C80059FC401B6428F5D903207BE212F0030F76
:1014D800A6D1564B1B6813F0040F03D0E368002B0A
:1014E80000F06B8201F04CFC41F20303984212D8E1
:1014F8002269402A07D04D494B6823F47C3343EADC
:1015080002334B600FE0494A536823F47C3343F4B9
:101518000033536007E0454A536823F0FE432169CE
:1015280043EA01635360236813F0100F00F08880CA
:101538003E4A136903F03803926A082B54D0182BDB
:101548004ED0E369002B00F0B880384A136843F0A6
:101558008003136001F00EFC0546344B1B6813F43E
:10156800807F40F0888001F005FC401B0228F4D9F8
:10157800032027E201F004FC41F20303984212D849
:101588002269402A07D029494B6823F47C3343EA6F
:1015980002334B60C7E7254A536823F47C3343F48E
:1015A80000335360BFE7214A536823F0FE432169A3
:1015B80043EA01635360B6E71C4A136823F001034A
:1015C800136001F0D7FB0546184B1B6813F0040F96
:1015D800A9D001F0CFFB401B0228F5D90320F1E187
:1015E80002F00302012AACD1104B1B6813F4807F70
:1015F80003D0E369802B40F0E28101F0C1FB41F2A6
:101608000303984214D8226A202A07D007494B6856
:1016180023F0F84343EA82634B6011E0034A5368BE
:1016280023F0F84343F08043536009E00044025834
:101638009A4AD36823F07C53216A43EA0163D36052
:10164800236813F0080F60D06369002B49D0934AD0
:10165800536F43F00103536701F08CFB05468F4B32
:101668005B6F13F0020F50D101F084FB401B02287E
:10167800F5D90320A6E101F083FB41F20303984268
:1016880012D8226A202A07D084494B6823F0F843ED
:1016980043EA82634B60D3E7804A536823F0F843F8
:1016A80043F080435360CBE77C4AD36823F07C53F4
:1016B800216A43EA0163D360C2E7784A136823F0DA
:1016C8008003136001F056FB0546744B1B6813F446
:1016D800807FB5D001F04EFB401B0228F5D90320CE
:1016E80070E16E4A536F23F00103536701F042FB28
:1016F80005466A4B5B6F13F0020F06D001F03AFB08
:10170800401B0228F5D903205CE1236813F0200F61
:1017180029D0A3699BB1614A136843F480531360CD
:1017280001F028FB05465D4B1B6813F4005F1AD1D6
:1017380001F020FB401B0228F5D9032042E1574A5B
:10174800136823F48053136001F014FB0546534BD0
:101758001B6813F4005F06D001F00CFB401B022845
:10176800F5D903202EE1236813F0040F21D1636A11
:10177800002B00F02681494A126902F03802182A23
:1017880000F0EE80022B75D0444A136823F0807372
:10179800136001F0EFFA0446404B1B6813F0007F1A
:1017A80000F0DC8001F0E6FA001B0228F4D90320DF
:1017B80008E13B4A136843F48073136001F0DAFAD6
:1017C8000546374B1B6813F4807F06D101F0D2FA27
:1017D800401B6428F5D90320F4E0A368012B0AD044
:1017E8000BBB2E4B1A6F22F001021A671A6F22F0F8
:1017F80004021A6704E0294A136F43F001031367D0
:10180800A36833B301F0B6FA0546244B1B6F13F0F7
:10181800020FACD101F0AEFA401B41F28833984276
:10182800F3D90320CEE0052B09D01C4B1A6F22F008
:1018380001021A671A6F22F004021A67E0E7174BD1
:101848001A6F42F004021A671A6F42F001021A670F
:10185800D6E701F08FFA0546104B1B6F13F0020F05
:1018680085D001F087FA401B41F288339842F3D9BA
:101878000320A7E0094A136823F08073136001F07E
:1018880079FA0546054B1B6813F0007F0AD001F072
:1018980071FA401B0228F5D9032093E0004402584E
:1018A800004802584F4B996A4F4A0A40A16AE06AB9
:1018B80041EA00110A439A62226B013AC2F3080214
:1018C800616B0139490289B20A43A16B01390904E4
:1018D80001F4FE010A43E16B0139090601F0FE41FA
:1018E8000A431A63DA6A22F00102DA62596B3F4A44
:1018F8000A40A16C42EAC1025A63DA6A22F00C0279
:10190800216C0A43DA62DA6A22F00202616C0A4345
:10191800DA62DA6A42F48032DA62DA6A42F400326F
:10192800DA62DA6A42F48022DA62DA6A42F00102A2
:10193800DA621A6842F080721A6001F01BFA0446F3
:10194800284B1B6813F0007F06D101F013FA001B27
:101958000228F5D9032035E0002033E0002031E0EB
:10196800204A916A106B012B2DD001F00303A26A63
:1019780093422AD1C1F30511E36A994227D1C0F3F2
:101988000802236B013B9A4223D1C0F34622636BC2
:10199800013B9A421FD1C0F30642A36B013B9A4216
:1019A8001BD1C0F30660E36B013B984217D10020BE
:1019B80008E001207047012004E0012002E0012036
:1019C80000E0002038BD0120FCE70120FAE70120F3
:1019D800F8E70120F6E70120F4E70120F2E701200B
:1019E800F0E700BF004402580CFCFFFF0700FFFFB0
:1019F800744B1B6903F03803102B00F0DE80182BA2
:101A080010D00BB1704870476E4B1B6813F0200F55
:101A180000F0D5806B4B1868C0F3C1006B4B23FAFC
:101A280000F0704710B4674A916A01F00301946AA4
:101A3800C4F30510D36A03F0010C536BC3F3CC0352
:101A48000CFB03F307EE903AF8EE677A14F47C7F08
:101A580000F09380012965D0022900F09180E1B15E
:101A680007EE100AF8EE476A9FED596A86EE267A65
:101A7800544B1B6BC3F3080306EE903AF8EE666A04
:101A88009FED546A67EE867A76EEA77AF7EE006ADB
:101A980077EEA67A27EE277A60E0136813F0200F16
:101AA80023D011461268C2F3C102484BD34007EE57
:101AB800103AF8EE476A07EE100AB8EE476A86EE63
:101AC800867A0B6BC3F3080306EE903AF8EE666A63
:101AD8009FED406A67EE867A76EEA77AF7EE006A9F
:101AE80077EEA67A27EE277A38E007EE100AF8EEA6
:101AF800476A9FED396A86EE267A324B1B6BC3F331
:101B0800080306EE903AF8EE666A9FED326A67EED1
:101B1800867A76EEA77AF7EE006A77EEA67A27EE4F
:101B2800277A1BE007EE100AF8EE476A9FED286A4D
:101B380086EE267A234B1B6BC3F3080306EE903A16
:101B4800F8EE666A9FED236A67EE867A76EEA77AE4
:101B5800F7EE006A77EEA67A27EE277A194B1B6B09
:101B6800C3F34623013307EE903AF8EE677AC7EEDF
:101B7800276AFCEEE67A17EE900A5DF8044B704788
:101B880007EE100AF8EE476A9FED146A86EE267A89
:101B98000C4B1B6BC3F3080306EE903AF8EE666A2B
:101BA8009FED0C6A67EE867A76EEA77AF7EE006A02
:101BB80077EEA67A27EE277AD0E7094870470348D8
:101BC800704700BF0044025800093D000090D00350
:101BD8000024744A000000390024744C20BCBE4B19
:101BE80040787D01002800F0328170B50D4604462A
:101BF8009B4B1B6803F00F038B420BD2984A136868
:101C080023F00F030B431360136803F00F038B4299
:101C180040F01F81236813F0040F0CD02269914B08
:101C28009B6903F070039A4205D98E498B6923F0AA
:101C380070031A438A61236813F0080F0CD0626995
:101C4800884BDB6903F070039A4205D98549CB6953
:101C580023F070031A43CA61236813F0100F0CD0E5
:101C6800A269804BDB6903F4E0639A4205D97D4998
:101C7800CB6923F4E0631A43CA61236813F0200F89
:101C88000CD0E269774B1B6A03F070039A4205D9BE
:101C980074490B6A23F070031A430A62236813F02D
:101CA800020F0CD0E2686F4B9B6903F00F039A4256
:101CB80005D96C498B6923F00F031A438A6123689D
:101CC80013F0010F41D0674A936923F47063A16848
:101CD8000B4393616368022B0AD0032B27D0012B97
:101CE8002CD0604A126812F0040F06D10120ADE032
:101CF800126812F4003F00F0AE805A490A6922F0D7
:101D0800070213430B6101F035F80646554B1B6972
:101D180003F038036268B3EBC20F16D001F02AF85B
:101D2800801B41F288339842F0D903208EE04D4A57
:101D3800126812F0007FE0D1012087E0494A12685A
:101D480012F4807FD9D1012080E0236813F0020FBC
:101D58000CD0E268434B9B6903F00F039A4205D20B
:101D680040498B6923F00F031A438A613C4B1B6877
:101D780003F00F03AB420AD9394A136823F00F0363
:101D88002B431360136803F00F03AB4265D123683C
:101D980013F0040F0CD02269324B9B6903F07003D7
:101DA8009A4205D22F498B6923F070031A438A613E
:101DB800236813F0080F0CD062692A4BDB6903F023
:101DC80070039A4205D22749CB6923F070031A435E
:101DD800CA61236813F0100F0CD0A269214BDB698C
:101DE80003F4E0639A4205D21E49CB6923F4E06309
:101DF8001A43CA61236813F0200F0CD0E269194B0B
:101E08001B6A03F070039A4205D216490B6A23F045
:101E180070031A430A62FFF7EBFD12498B69C3F39B
:101E28000323114AD35C03F01F03D8408B6903F0E6
:101E38000F03D35C03F01F0320FA03F30B4A13606C
:101E48000B4B18600B4B186800F032FF70BD012077
:101E580070470120FAE70120F8E70120F6E700BF04
:101E68000020005200440258E83300080C0000200B
:101E78000800002004000020404B9B6A03F0030385
:101E8800032B79D070B505460E463C4A136823F0FB
:101E98008063136000F06EFF0446384B1B6813F034
:101EA800006F06D000F066FF031B022BF5D9032054
:101EB80070BD324B9A6A22F47C32296842EA0132B8
:101EC8009A626A68013AC2F30802A96801394902AC
:101ED80089B20A43E9680139090401F4FE010A4399
:101EE80029690139090601F0FE410A439A63DA6A51
:101EF80022F0C00269690A43DA62DA6A22F0200233
:101F0800A9690A43DA62DA6A22F01002DA62D96B46
:101F18001B4A0A40E96942EAC102DA63DA6A42F016
:101F28001002DA62C6B91A46DB6A43F40023D362A8
:101F3800124A136843F08063136000F01BFF0446E5
:101F48000E4B1B6813F0006F14D100F013FF001B39
:101F58000228F5D90320ABE7012E05D0074AD36A3A
:101F680043F40013D362E3E7044AD36A43F48013CB
:101F7800D362DDE700209BE7012070470044025848
:101F88000700FFFF404B9B6A03F00303032B79D044
:101F980070B505460E463C4A136823F0805313601B
:101FA80000F0E8FE0446384B1B6813F0005F06D0CB
:101FB80000F0E0FE031B022BF5D9032070BD324B65
:101FC8009A6A22F07C72296842EA01529A626A6827
:101FD800013AC2F30802A9680139490289B20A43E1
:101FE800E9680139090401F4FE010A432969013944
:101FF800090601F0FE410A431A64DA6A22F44062D3
:1020080069690A43DA62DA6A22F40072A9690A4342
:10201800DA62DA6A22F48072DA62596C1B4A0A4080
:10202800E96942EAC1025A64DA6A42F48072DA6201
:10203800C6B91A46DB6A43F48003D362124A1368AE
:1020480043F08053136000F095FE04460E4B1B6866
:1020580013F0005F14D100F08DFE001B0228F5D9A3
:102068000320ABE7012E05D0074AD36A43F08073FB
:10207800D362E3E7044AD36A43F40003D362DDE79B
:1020880000209BE701207047004402580700FFFF2B
:10209800F8B50446036813F0006F30D0436EB3F50B
:1020A800001F26D00ED8EBB1B3F5801F07D102214F
:1020B8000430FFF7E1FE054645B12E4621E0012632
:1020C80035461EE0B3F5401F09D10025954A136D2A
:1020D80023F44013616E0B431365002611E00126BB
:1020E80035460EE08F4AD36A43F40033D3620025A5
:1020F800ECE702212430FFF745FF0546DCE7002620
:102108003546236813F4807F14D0636D042B30D8D0
:10211800DFE803F0032228080800824AD36A43F460
:102128000033D36245BB7F4A136D23F00703616D0B
:102138000B431365236813F4007F2FD0A36D802B06
:1021480049D01ED8002B40D0402B17D10021201D8C
:10215800FFF792FE054619E00021201DFFF78CFECF
:102168000546DFE7002104F12400FFF70BFF0546D1
:10217800D8E701263546DDE72E46DBE7012635465A
:102188000CE0C02B02D0B3F5807F1BD155BB654A4C
:10219800136D23F4E073A16D0B431365236813F4E7
:1021A800806F45D0D4F8A430B3F5800F38D01ED84E
:1021B80083B3B3F5001F17D10021201DFFF75CFE84
:1021C80005461AE001263546E8E7564AD36A43F43D
:1021D8000033D362DAE7002104F12400FFF7D2FECE
:1021E8000546D3E72E46D9E70126354620E0B3F564
:1021F800C00F02D0B3F5000F09D1C5B9494A936D94
:1022080023F46003D4F8A4100B43936510E001266F
:1022180035460DE0434AD36A43F40033D362ECE712
:10222800002104F12400FFF7ADFE0546E5E72E4640
:10223800236813F4006F23D0D4F8A830B3F1007FDB
:1022480041D00DD8002B38D0B3F1807F05D10021C3
:10225800201DFFF711FE054608E0012635460FE070
:10226800B3F1407F02D0B3F1806F23D1002D31D17B
:102278002C4A936D23F0E063D4F8A8100B439365C0
:10228800236813F0007F2ED0A36C202B3FD026D8D4
:1022980033B1102B20D1234AD36A43F40033D362DD
:1022A800002D3AD11F4AD36C23F03003A16C0B43A5
:1022B800D36418E001263546E2E71A4AD36A43F4A4
:1022C8000033D362D2E7002104F12400FFF75AFE5D
:1022D8000546CBE72E46D3E70126354603E0302BEB
:1022E800DED001263546236813F4805F2BD0E36DDA
:1022F800B3F5005F4CD017D8002B43D0B3F5805FFF
:102308000DD10021201DFFF7B7FD054612E002217F
:10231800201DFFF7B1FD0546C2E72E46E3E701267B
:10232800354610E000440258B3F5405F02D0B3F5DB
:10233800804F24D1002D32D1754A136D23F4E04328
:10234800E16D0B431365236813F4005F37D0236EE8
:10235800B3F5003F51D027D83BB1B3F5803F20D12A
:102368000121201DFFF788FD0546002D4CD1684A44
:10237800136D23F4E023216E0B4313651FE0012640
:102388003546E0E7624AD36A43F40033D362D1E7C3
:10239800002104F12400FFF7F5FD0546CAE72E46A3
:1023A800D1E7012635460AE0B3F5802FDDD0B3F535
:1023B800A02FDAD0B3F5403FD7D0012635462368A1
:1023C80013F4804F30D0D4F8AC30B3F1005F44D070
:1023D8001FD83BB1B3F1805F18D10121201DFFF751
:1023E8004BFD0546002D3FD1494A936D23F0E0434C
:1023F800D4F8AC100B43936516E0012104F12400D6
:10240800FFF7C0FD0546B0E72E46D8E7012635465A
:102418000AE0B3F1804FE5D0B3F1A04FE2D0B3F1B9
:10242800405FDFD001263546236813F4004F09D0FA
:10243800E36EB3F1805F19D0B3F1005F24D0D3B15C
:1024480001263546236813F0807F32D0636C032B56
:1024580059D8DFE803F026215226012104F124008F
:10246800FFF790FD0546BDE72E46DDE7284AD36A0B
:1024780043F40033D3626DB9254A136D23F04053FA
:10248800E16E0B431365DDE70121201DFFF7F4FC26
:102498000546F0E72E46D5E71D4AD36A43F40033D4
:1024A800D3629DBB1A4AD36C23F00303616C0B43C0
:1024B800D364236813F4800F2CD1236813F0010F21
:1024C80000F0A380A36F282B00F29D80DFE803F0C3
:1024D8008B9B9B9B9B9B9B9B869B9B9B9B9B9B9B69
:1024E800949B9B9B9B9B9B9B8B9B9B9B9B9B9B9B4B
:1024F8008B9B9B9B9B9B9B9B8B000221201DFFF72B
:10250800BBFC0546CDE701263546D2E72E46D0E787
:10251800004402588F4A136843F48073136000F034
:1025280029FC07468B4B1B6813F4807F05D100F00C
:1025380021FCC01B6428F5D90325002D4AD1864B00
:102548001B6FD4F8B020534013F4407F0CD0824B5B
:102558001A6F22F44072196F41F480311967196FAC
:1025680021F4803119671A67D4F8B030B3F5807F49
:1025780015D08DBBD4F8B03003F44072B2F5407F6B
:102588001ED0754A136923F47C53136172490B6F8B
:10259800D4F8B020C2F30B0213430B678DE700F0A9
:1025A800E9FB07466C4B1B6F13F0020FE1D100F0FB
:1025B800E1FBC01B41F288339842F3D90325D8E7E1
:1025C8006548026922F47C52644901EA13131343F3
:1025D8000361DBE72E4670E72E466EE70121201DDA
:1025E800FFF74AFC0546E5B95B4A536D23F038030B
:1025F800A16F0B43536508E0012104F12400FFF7A4
:10260800C1FC0546EFE701263546236813F0020FA3
:1026180016D0636F052B27D8DFE803F00A051F0AD9
:102628000A0A2E46F1E70121201DFFF725FC054681
:10263800EDB9494A536D23F00703616F0B435365A6
:10264800236813F0040F22D0D4F89030052B43D818
:10265800DFE803F0140F3B141414012104F12400E3
:10266800FFF790FC0546E3E701263546E8E72E46E6
:10267800E6E70121201DFFF7FFFB05467DBB364A33
:10268800936D23F00703D4F890100B4393652368E8
:1026980013F0200F33D0D4F88C30B3F1005F4CD056
:1026A80022D83BB1B3F1805F1BD10021201DFFF779
:1026B800E3FB0546002D47D1274A536D23F0E0433D
:1026C800D4F88C100B43536519E0012104F1240060
:1026D800FFF758FC0546D1E701263546D7E72E46D1
:1026E800D5E7012635460AE0B3F1804FE2D0B3F1D1
:1026F800A04FDFD0B3F1405FDCD001263546236818
:1027080013F0400F37D0D4F89830B3F5006F52D09B
:1027180026D83BB1B3F5806F18D10021201DFFF7F3
:10272800ABFB0546002D4DD10B4A936D23F4E053C6
:10273800D4F898100B4393651DE0022104F124009E
:10274800FFF720FC0546B5E72E46D8E701263546B3
:1027580011E000BF0048025800440258CFFFFF00B4
:10276800B3F5805FDED0B3F5A05FDBD0B3F5406F83
:10277800D8D001263546236813F0800F32D0D4F81C
:102788009C30B3F5804F00F09D8020D83BB1B3F565
:10279800005F19D10021201DFFF76EFB0546002DB3
:1027A80040F09780A54A936D23F46043D4F89C10B9
:1027B8000B43936516E0022104F12400FFF7E2FBC6
:1027C8000546AFE72E46D6E7012635460AE0B3F5BB
:1027D800004FE4D0B3F5204FE1D0B3F5C04FDED0C1
:1027E80001263546236813F0080F0CD0D4F8803042
:1027F800B3F5805F6FD0914A536D23F44053D4F8FA
:1028080080100B435365236813F0100F0CD0D4F8D5
:102818009430B3F5807F67D0884A936D23F4407372
:10282800D4F894100B439365236813F4002F0BD04E
:10283800D4F8A030B3F5803F6ED0B3F5003F61D037
:10284800002B5AD001263546236813F4802F0CD06C
:10285800D4F88430B3F5001F76D0B3F5401F69D0A3
:10286800B3F5801F61D001263546236813F4803FF5
:1028780007D0E36C002B70D0B3F5803F7BD00126E6
:102888003546236813F0005F7DD1236813F4003FB9
:1028980000F08680E36FB3F5807F00F0C6807CD9B6
:1028A800B3F5007F03D0B3F5407F40F0BC80002D26
:1028B80040F0C180614A536D23F44073E16F0B43CC
:1028C80053656DE0022104F12400FFF75BFB054628
:1028D80065E72E4686E7022104F12400FFF752FB44
:1028E800002888D0012686E7022104F12400FFF79A
:1028F80049FB002890D001268EE70021201DFFF714
:10290800BBFA05467DB94D4A936D23F44033D4F89C
:10291800A0100B43936597E7022104F12400FFF709
:1029280031FB0546EEE72E468EE7444AD36A43F468
:102938000033D3627DB9414A536D23F44013D4F870
:1029480084100B43536590E7012104F12400FFF73D
:1029580019FB0546EEE72E4687E7384AD36A43F463
:102968000033D3626DB9354AD36C23F48033E16CFC
:102978000B43D36485E70221201DFFF77DFA054646
:10298800F0E72E467DE7022104F12400FFF7FAFA6A
:1029980000283FF47AAF012677E7002B87D001267D
:1029A800236813F4801F06D0244A136D23F00043D4
:1029B800216F0B431365236813F0805F07D01F4A0C
:1029C800136923F48043D4F8B4100B4313612368CC
:1029D80013F4001F06D0194A136D23F08073A16EFB
:1029E8000B431365236813F0804F09D0134B1A6902
:1029F80022F400421A611A69D4F8B8100A431A611D
:102A08002368002B1CDB236813F4000F07D00B4A44
:102A1800536D23F44003D4F888100B43536506B173
:102A280001263046F8BD0126BAE7044AD36A43F4C2
:102A38000033D3623BE72E46B2E700BF004402589A
:102A4800034AD36C23F04053216D0B43D364DAE778
:102A580000440258F0B583B0002340E0092400E0A8
:102A68000024B44044EA0C040235764E46F825406A
:102A78004FF0B044D4F88050D44325EA02064F689A
:102A880017F4803F01D042EA05064FF0B045C5F87B
:102A98008060D5F8845004EA05064F6817F4003FB3
:102AA80001D042EA05064FF0B045C5F884602D68AC
:102AB80004EA05064F6817F4801F01D042EA0506AC
:102AC8004FF0B0452E606D682C404E6816F4001F1C
:102AD80001D042EA05044FF0B042546001330A685D
:102AE80032FA03F400F0AB804FF0010C0CFA03FC4F
:102AF8001CEA0202F2D04C68651E112C18BF012D89
:102B080001D9122C13D185685E000324B44025EA4C
:102B18000405CC68B4402C438460446824EA0C0C57
:102B28004C68C4F300149C4044EA0C044460C66832
:102B38004FEA430C032505FA0CF5EC4326EA050E8B
:102B48008D6805FA0CF545EA0E05C5604D68122D2D
:102B580018BF022D12D1DE08083650F8267003F08F
:102B680007054FEA850E0F2505FA0EF527EA050732
:102B78000D6905FA0EF53D4340F8265005682540D5
:102B88004C6804F0030404FA0CF42C4304604C6809
:102B980014F0805FA2D02C4CD4F8F45045F0020514
:102BA800C4F8F450D4F8F44004F002040194019CF1
:102BB8009D08AE1C234C54F8267003F00304A600AD
:102BC8000F24B44027EA040C204CA0423FF448AF3D
:102BD80004F58064A04222D004F58064A04220D08D
:102BE80004F58064A0421ED004F58064A0421CD085
:102BF80004F58064A0421AD004F58064A04218D07D
:102C080004F58064A04216D004F58064A04214D074
:102C180004F58064A0423FF421AF0A2421E701248F
:102C28001FE702241DE703241BE7042419E70524F2
:102C380017E7062415E7072413E7082411E703B06C
:102C4800F0BD00BF000400580044025800000258BC
:102C58000AB181617047090481617047134BDB68D1
:102C680013F0040F07D1114BDB6803F0070383420D
:102C78001AD00120704710B50C4AD36823F0070317
:102C88001843D06000F076F80446084B5B6813F4EC
:102C9800005F07D100F06EF8001BB0F57A7FF4D919
:102CA800012000E0002010BD0020704700480258B5
:102CB800104B1B780BB90120704710B504464FF430
:102CC8007A70B0FBF3F30C4A1068B0FBF3F0FDF731
:102CD800DFFE68B90F2C01D901200AE00022214645
:102CE8004FF0FF30FDF790FE044B1C60002000E021
:102CF800012010BD00000020080000200400002072
:102D080010B50320FDF76EFEFEF772FE0F498B69C2
:102D1800C3F303230E4AD35C03F01F03D8408B6927
:102D280003F00F03D35C03F01F0320FA03F3094AEF
:102D38001360094B18600020FFF7BAFF10B1012497
:102D4800204610BD0446FDF7E1FCF9E700440258AF
:102D5800E83300080C00002008000020034B1B7813
:102D6800034A11680B441360704700BF000000203D
:102D78004C020020014B1868704700BF4C0200202D
:102D8800014B1868000C70470010005C002857D0F1
:102D980010B5044690F84130002B41D0242384F824
:102DA80041302268136823F00103136063682268C6
:102DB80023F0706313612268936823F400439360DF
:102DC800E368012B31D0A368226843F4044393607D
:102DD800E368022B2FD0226851681A4B0B435360CB
:102DE8002268D36823F40043D360236962691343DC
:102DF800A169226843EA0123D360E369216A226852
:102E08000B4313602268136843F00103136000202A
:102E18006064202384F84130206384F8420010BDA8
:102E280080F84030FDF784FCB8E7A368226843F4D3
:102E380000439360CCE723684FF400625A60CAE706
:102E4800012070470080000290F84130DBB2202B4F
:102E580024D190F84030012B22D0012380F8403053
:102E6800242380F841300268136823F001031360BB
:102E78000268136823F480531360026813681943C7
:102E880011600268136843F001031360202380F87F
:102E98004130002380F840301846704702207047C0
:102EA8000220704790F84130DBB2202B22D190F8F5
:102EB8004030012B20D0012380F84030242380F8B3
:102EC80041300268136823F0010313600268136835
:102ED80023F4706343EA012111600268136843F028
:102EE80001031360202380F84130002380F840302C
:102EF800184670470220704702207047294AD2F8C6
:102F0800883043F47003C2F88830274B1B6803F0FD
:102F18000F03062B06D8244A136823F00F0343F047
:102F280007031360214B1A6842F001021A6000225D
:102F38001A6119681E4A0A401A601B4B1B6813F075
:102F4800080F06D0184A136823F00F0343F007034D
:102F58001360164B00229A61DA611A621549996268
:102F68001549D962154919635A639963DA63196473
:102F78005A64196821F4802119601A66104B1A687E
:102F8800104B1340B3F1005F03D20F4B0122C3F87B
:102F980008210E4B43F2D2021A60024B4FF0006236
:102FA8009A60704700ED00E000200052004402588B
:102FB8007FEDF6EA000202020000FF018002010133
:102FC8000010005C0000FFFF00800051004000522C
:102FD80008B50C4B0C4A03E052F8041B43F8041BD9
:102FE8000A498B42F8D30A4B02E0002243F8042B2B
:102FF800084A9342F9D3FFF781FF00F0B9F9FDF7CA
:1030080019FBFEE700000020003400081000002033
:103018001000002050020020FEE708B5FFF7FCFF73
:1030280008B5FFF7F9FF08B5FFF7F6FF08B5FFF792
:10303800F3FF08B5FFF7F0FF08B5FFF7EDFF08B598
:10304800FFF7EAFF08B5FFF7E7FF08B5FFF7E4FF6A
:1030580008B5FFF7E1FF08B5FFF7DEFF08B5FFF792
:10306800DBFF08B5FFF7D8FF08B5FFF7D5FF08B5B0
:10307800FFF7D2FF08B5FFF7CFFF08B5FFF7CCFF82
:1030880008B5FFF7C9FF08B5FFF7C6FF08B5FFF792
:10309800C3FF08B5FFF7C0FF08B5FFF7BDFF08B5C8
:1030A800FFF7BAFF08B5FFF7B7FF08B5FFF7B4FF9A
:1030B80008B5FFF7B1FF08B5FFF7AEFF08B5FFF792
:1030C800ABFF08B5FFF7A8FF08B5FFF7A5FF08B5E0
:1030D800FFF7A2FF08B5FFF79FFF08B5FFF79CFFB2
:1030E80008B5FFF799FF08B5FFF796FF08B5FFF792
:1030F80093FF08B5FFF790FF08B5FFF78DFF08B5F8
:10310800FFF78AFF08B5FFF787FF08B5FFF784FFC9
:1031180008B5FFF781FF08B5FFF77EFF08B5FFF791
:103128007BFF08B5FFF778FF08B5FFF775FF08B50F
:10313800FFF772FF08B5FFF76FFF08B5FFF76CFFE1
:1031480008B5FFF769FF08B5FFF766FF08B5FFF791
:1031580063FF08B5FFF760FF08B5FFF75DFF08B527
:10316800FFF75AFF08B5FFF757FF08B5FFF754FFF9
:1031780008B5FFF751FF08B5FFF74EFF08B5FFF791
:103188004BFF08B5FFF748FF08B5FFF745FF08B53F
:10319800FFF742FF08B5FFF73FFF08B5FFF73CFF11
:1031A80008B5FFF739FF08B5FFF736FF08B5FFF791
:1031B80033FF08B5FFF730FF08B5FFF72DFF08B557
:1031C800FFF72AFF08B5FFF727FF08B5FFF724FF29
:1031D80008B5FFF721FF08B5FFF71EFF08B5FFF791
:1031E8001BFF08B5FFF718FF08B5FFF715FF08B56F
:1031F800FFF712FF08B5FFF70FFF08B5FFF70CFF41
:1032080008B5FFF709FF08B5FFF706FF08B5FFF790
:1032180003FF08B5FFF700FF08B5FFF7FDFE08B587
:10322800FFF7FAFE08B5FFF7F7FE08B5FFF7F4FE5B
:1032380008B5FFF7F1FE08B5FFF7EEFE08B5FFF792
:10324800EBFE08B5FFF7E8FE08B5FFF7E5FE08B5A1
:10325800FFF7E2FE08B5FFF7DFFE08B5FFF7DCFE73
:1032680008B5FFF7D9FE08B5FFF7D6FE08B5FFF792
:10327800D3FE08B5FFF7D0FE08B5FFF7CDFE08B5B9
:10328800FFF7CAFE08B5FFF7C7FE08B5FFF7C4FE8B
:1032980008B5FFF7C1FE08B5FFF7BEFE08B5FFF792
:1032A800BBFE08B5FFF7B8FE08B5FFF7B5FE08B5D1
:1032B800FFF7B2FE08B5FFF7AFFE08B5FFF7ACFEA3
:1032C80008B5FFF7A9FE08B5FFF7A6FE08B5FFF792
:1032D800A3FE08B5FFF7A0FE08B5FFF79DFE08B5E9
:1032E800FFF79AFE08B5FFF797FE08B5FFF794FEBB
:1032F80008B5FFF791FE08B5FFF78EFE08B5FFF792
:103308008BFE08B5FFF788FE08B5FFF785FE08B500
:10331800FFF782FE08B5FFF77FFE08B5FFF77CFED2
:1033280008B5FFF779FE08B5FFF776FE08B5FFF791
:1033380073FE08B5FFF770FE08B5FFF76DFE08B518
:10334800FFF76AFE08B5FFF767FE08B5FFF764FEEA
:1033580008B5FFF761FE000008B50248FDF73EFD1D
:1033680008BD00BF7800002008B5FFF7F5FF08BDCD
:1033780070B50D4D0D4C641BA4100026A64209D152
:103388000B4D0C4C00F020F8641BA4100026A6423C
:1033980005D170BD55F8043B98470136EEE755F85E
:1033A800043B98470136F2E7F8330008F833000881
:1033B800F8330008FC33000802440346934200D166
:1033C800704703F8011BF9E7F8B500BFF8BC08BC63
:1033D8009E467047F8B500BFF8BC08BC9E467047CB
:1033E80000000000010203040102030406070809A3
:0433F800BD0200080A
:0433FC00990200082A
:1034000001000000100000000090D0030090D003E5
:0400000508002FD9E7
:00000001FF
