:020000040800F2
:10000000000002201987000835100008371000088A
:10001000391000083B1000083D10000800000000E7
:100020000000000000000000000000003F10000879
:10003000411000080000000043100008F58A000885
:1000400063870008698700086F87000875870008C4
:100050007B87000881870008878700088D87000854
:1000600093870008998700089F870008A5870008E4
:10007000AB870008B1870008B7870008BD87000874
:10008000C3870008C9870008CF870008D587000804
:10009000DB870008E1870008E7870008ED87000894
:1000A000F3870008F9870008FF8700080588000823
:1000B0000B88000811880008178800081D880008B0
:1000C00023880008298800082F8800083588000840
:1000D0003B880008E58A0008418800084788000836
:1000E0004D88000853880008000000005988000867
:1000F0005F880008658800086B8800087188000820
:10010000778800087D8800088388000889880008AF
:100110008F880008958800089B880008A18800083F
:10012000A7880008AD880008B3880008B9880008CF
:10013000BF880008C5880008CB880008D18800085F
:1001400000000000000000000000000000000000AF
:10015000D7880008DD880008E3880008E9880008DF
:10016000EF880008F5880008FB880008018900086E
:10017000078900080D8900081389000800000000A5
:10018000198900081F890008258900082B890008A3
:1001900031890008378900083D8900084389000833
:1001A000498900084F890008558900085B890008C3
:1001B00061890008678900086D8900087389000853
:1001C000798900087F890008858900088B890008E3
:1001D00091890008978900089D890008A389000873
:1001E000A9890008AF890008B5890008BB89000803
:1001F000C1890008C7890008CD890008D389000893
:10020000D9890008DF890008E5890008EB89000822
:100210009D8A0008B58A0008CD8A0008F189000887
:10022000F7890008FD890008038A00080000000023
:10023000098A00080F8A000800000000158A0008DB
:100240001B8A0008218A0008278A00082D8A0008D6
:10025000338A0008398A00083F8A0008458A000866
:100260004B8A0008518A0008578A00085D8A0008F6
:10027000638A0008698A00086F8A0008000000008D
:10028000758A00087B8A0008818A00080000000047
:0802900000000000878A00084D
:1002980010B5054C237833B9044B13B10448AFF3B8
:1002A80000800123237010BD100000200000000012
:1002B800548B000808B5034B1BB103490348AFF33F
:1002C800008008BD0000000014000020548B0008C6
:1002D800034613F8012B002AFBD1181A013870477E
:1002E80053B94AB9002908BF00281CBF4FF0FF3195
:1002F8004FF0FF3000F074B9ADF1080C6DE904CE91
:1003080000F006F8DDF804E0DDE9022304B07047E8
:100318002DE9F047089D04468E46002B4DD18A42B0
:10032800944669D9B2FA82F252B101FA02F3C2F1E3
:10033800200120FA01F10CFA02FC41EA030E944074
:100348004FEA1C48210CBEFBF8F61FFA8CF708FB95
:1003580016E341EA034306FB07F199420AD91CEB6D
:10036800030306F1FF3080F01F81994240F21C819F
:10037800023E63445B1AA4B2B3FBF8F008FB1033E7
:1003880044EA034400FB07F7A7420AD91CEB04041C
:1003980000F1FF3380F00A81A74240F207816444EC
:1003A800023840EA0640E41B00261DB1D440002371
:1003B800C5E900433146BDE8F0878B4209D9002DD5
:1003C80000F0EF800026C5E9000130463146BDE85F
:1003D800F087B3FA83F6002E4AD18B4202D38242C9
:1003E80000F2F980841A61EB030301209E46002D78
:1003F800E0D0C5E9004EDDE702B9FFDEB2FA82F2CD
:10040800002A40F09280A1EB0C014FEA1C471FFA2A
:100418008CFE0126200CB1FBF7F307FB131140EA11
:1004280001410EFB03F0884208D91CEB010103F1DE
:10043800FF3802D2884200F2CB804346091AA4B2A0
:10044800B1FBF7F007FB101144EA01440EFB00FE74
:10045800A64508D91CEB040400F1FF3102D2A645D9
:1004680000F2BB800846A4EB0E0440EA03409CE778
:10047800C6F12007B34022FA07FC4CEA030C20FA25
:1004880007F401FA06F31C43F9404FEA1C4900FA45
:1004980006F3B1FBF9F8200C1FFA8CFE09FB1811C2
:1004A80040EA014108FB0EF0884202FA06F20BD935
:1004B8001CEB010108F1FF3A80F08880884240F285
:1004C8008580A8F102086144091AA4B2B1FBF9F0C9
:1004D80009FB101144EA014100FB0EFE8E4508D9C4
:1004E8001CEB010100F1FF346CD28E456AD9023849
:1004F800614440EA0840A0FB0294A1EB0E01A1422E
:10050800C846A64656D353D05DB1B3EB080261EB9B
:100518000E0101FA07F722FA06F3F1401F43C5E975
:10052800007100263146BDE8F087C2F12003D840AB
:100538000CFA02FC21FA03F3914001434FEA1C47ED
:100548001FFA8CFEB3FBF7F007FB10360B0C43EADF
:10055800064300FB0EF69E4204FA02F408D91CEB8F
:10056800030300F1FF382FD29E422DD9023863448D
:100578009B1B89B2B3FBF7F607FB163341EA03412D
:1005880006FB0EF38B4208D91CEB010106F1FF387C
:1005980016D28B4214D9023E6144C91A46EA004673
:1005A80038E72E46284605E70646E3E61846F8E605
:1005B8004B45A9D2B9EB020864EB0C0E0138A3E74E
:1005C8004646EAE7204694E74046D1E7D0467BE72F
:1005D800023B614432E7304609E76444023842E7A7
:1005E800704700BF2DE9F04F8FB0002409940A949A
:1005F8000B940C940D94794BD3F8E02042F0100240
:10060800C3F8E020D3F8E02002F010020092009A2C
:10061800D3F8E02042F48072C3F8E020D3F8E02059
:1006280002F480720192019AD3F8E02042F020028D
:10063800C3F8E020D3F8E02002F020020292029AE8
:10064800D3F8E02042F00402C3F8E020D3F8E02019
:1006580002F004020392039AD3F8E02042F08002E9
:10066800C3F8E020D3F8E02002F080020492049A54
:10067800D3F8E02042F00102C3F8E020D3F8E020EC
:1006880002F001020592059AD3F8E02042F0020236
:10069800C3F8E020D3F8E02002F002020692069A9E
:1006A800D3F8E02042F00802C3F8E020D3F8E020B5
:1006B80002F008020792079AD3F8E02042F04002BD
:1006C800C3F8E020D3F8E03003F040030893089B18
:1006D800DFF81CB122467421584605F06DF9DFF8A1
:1006E80014A1224640F2F771504605F065F9DFF88B
:1006F800089122464FF48061484605F05DF9DFF81D
:10070800FC8022460121404605F056F9344F224626
:100718004AF21C71384605F04FF9324E2246C22182
:10072800304605F049F922464FF4E6512E4805F0C7
:1007380043F9224640212D4805F03EF974230993D8
:1007480001250A950B940C9409A9584605F036F82A
:1007580040F2F77309930A950B940C9409A9504633
:1007680005F02CF84FF4806309930A950B940C94C8
:1007780009A9484605F022F809950A950B940C94A6
:1007880009A9404605F01AF84AF21C7309930A951C
:100798000B940C9409A9384605F010F8C223099364
:1007A8000A950B940C9409A9304605F007F84FF404
:1007B800E65309930A950B940C9409A90A4804F086
:1007C800FDFF402309930A950B940C9409A9074847
:1007D80004F0F4FF0FB0BDE8F08F00BF00440258EA
:1007E800001C02580004025800180258000C025855
:1007F800001002580020025800140258000802583D
:1008080072B6FEE710B592B000240B940C940D94C8
:100818000E940F94109411942C222146684608F0E7
:100828008DF91D481D4B0360EF234360846040F23F
:10083800E733C36004614461846102F0CDFC10BBFE
:10084800154802F003FD00BB00220B920C920D929A
:100858000E920F92109211920BA90F4802F01AFBF8
:10086800A8B90023009301930293039304934FF4D0
:100878000052059206930A936946074802F0A6FDBE
:1008880038B912B010BDFFF7BBFFFFF7B9FFFFF78C
:10089800B7FFFFF7B5FF00BF48040020004801403C
:1008A80010B592B000240B940C940D940E940F94F0
:1008B800109411942C222146684608F03FF91C48F0
:1008C8001C4B03601723436084600923C3600461E1
:1008D8004461846102F080FC10BB154802F0B6FC4C
:1008E80000BB00220B920C920D920E920F92109266
:1008F80011920BA90E4802F0CDFAA8B90023009373
:1009080001930293039304934FF4005205920693C4
:100918000A936946064802F059FD38B912B010BD6D
:10092800FFF76EFFFFF76CFFFFF76AFFFFF768FF3F
:100938008C0300200044014008B51148114B0360A6
:10094800114B4360002383600122C260036143614D
:100958008361C361036205F0D3FB50B900210848E5
:1009680005F0E2FC38B90021054805F00BFD20B977
:1009780008BDFFF745FFFFF743FFFFF741FF00BF43
:10098800F400002000540040DB3FB00008B51348D5
:10099800134B0360A3F11E53A3F57A23A3F24F630D
:1009A8004360002383600122C26003614361836165
:1009B800C361036205F0A4FB50B90021074805F0A4
:1009C800B3FC38B90021054805F0DCFC20B908BDA6
:1009D800FFF716FFFFF714FFFFF712FF4001002093
:1009E800001C005800B589B00023049305930693B2
:1009F80007930193029303931348144A0260EF226A
:100A08004260836042F20F72C26003614361836196
:100A180002F0E2FB90B94FF48053049304A90A480A
:100A280002F00EFB60B900230193039301A9064865
:100A380002F080FC30B909B05DF804FBFFF7E0FE76
:100A4800FFF7DEFEFFF7DCFED00200200040014089
:100A580010B59AB000241694179418941994139406
:100A6800149415940C940D940E940F94109411945E
:100A780012942C22214601A808F060F83348344B20
:100A8800036040F2DF134360846042F21073C36076
:100A980004614461846102F09FFB002847D14FF450
:100AA8008053169316A9294802F0CAFA002840D1A3
:100AB800264802F005FC00283DD100231393149327
:100AC800159313A9214802F035FC002835D160237D
:100AD8000C9341F288330D9300220E920F921092DC
:100AE800119212920CA9194802F009FA38BB08228F
:100AF8000CA9164802F003FA18BB002301930293CD
:100B08000393049305934FF40052069207930893B6
:100B18004FF0007209920A930B9301A90B4802F057
:100B280055FC80B9094800F06BFC1AB010BDFFF7FE
:100B380067FEFFF765FEFFF763FEFFF761FEFFF74D
:100B48005FFEFFF75DFEFFF75BFE00BF14020020AB
:100B58000000014000B589B000230193029303937C
:100B680004930593069307931F48204A0260436045
:100B780083600122C260042101610375437502216B
:100B880081610277026243628362C36203634363E3
:100B980080F8383006F03EF9F8B9154B0193062372
:100BA80002930023039340F2FF72049204220592F9
:100BB80006938DF81D300DEB02010B4805F012FD70
:100BC80068B90C4B01930C23029301A9064805F060
:100BD80009FD30B909B05DF804FBFFF711FEFFF716
:100BE8000FFEFFF70DFE00BF9000002000600258C6
:100BF800000084CB000052C700B58BB000230793D8
:100C08000893099300930193029303930493059324
:100C180006932348234A0260436083600122C2602E
:100C28000421016103754375022181610277026223
:100C380043628362C3620363436380F8383006F01B
:100C4800E9F828BB0023079307A9154806F014FA0A
:100C580000BB154B0093062301930023029340F237
:100C6800FF7203920422049205938DF819306946A5
:100C78000B4805F0B7FC78B90C4B00930C23019393
:100C88006946074805F0AEFC40B90BB05DF804FBB7
:100C9800FFF7B6FDFFF7B4FDFFF7B2FDFFF7B0FDB4
:100CA8002C00002000200240400020198000501D28
:100CB80008B51348134B03604FF4800343600023C7
:100CC80083600322C260036143614FF00052826176
:100CD800C361036243628362C3624FF0804242632E
:100CE8008363C363036443648364C36403654365C4
:100CF800836506F07BFA00B908BDFFF781FD00BFE8
:100D08008C0100200050014000B58FB000230A93E9
:100D18000B930C930D9307930893099300930193F6
:100D2800029303930493059306932048204A026094
:100D38007722426083604FF47A72C26003618361F4
:100D480002F04AFA38BB4FF480530A930AA91748AD
:100D580002F076F908BB154802F0B2FAF8B9002398
:100D68000793099307A9114802F0E4FAC8B9602368
:100D780000934FF4FA7301930023029304930C2217
:100D880069460A4802F0BBF868B9084800F038FB21
:100D98000FB05DF804FBFFF733FDFFF731FDFFF7F8
:100DA8002FFDFFF72DFDFFF72BFD00BF04050020E9
:100DB800000C004008B51548154B03604FF4E133AB
:100DC800436000238360C36003610C224261836136
:100DD800C36103624362836207F020FB70B900219C
:100DE8000A4807F04BFC58B90021084807F06BFC8B
:100DF80040B9064807F023FC30B908BDFFF700FDED
:100E0800FFF7FEFCFFF7FCFCFFF7FAFCC00500202B
:100E18000010014000B59DB04C22002109A807F040
:100E28008DFE2022002101A807F088FE022005F08F
:100E3800A1F8002300932A4B9A6942F440429A6130
:100E48009B6903F440430093264BDA6A42F001029F
:100E5800DA62DB6A03F001030093009B204B9B6975
:100E680013F4005FFAD0204A936A23F0030343F097
:100E78000103936210230993802310932023119375
:100E880002231293012213921492F02215921693C0
:100E9800179318930823199300231A931B9309A8EF
:100EA80002F0E0FAB8B93F23019303230293002329
:100EB8000393082304934023059306934FF4806219
:100EC8000792089304210DEB010002F0E9FE20B916
:100ED8001DB05DF804FBFFF793FCFFF791FC00BF22
:100EE80000480258000400580044025800B5B1B048
:100EF800BC22002101A807F021FE4FF40023019332
:100F08000123029325230393022304930593069355
:100F180080230793202308934FF48053099301A853
:100F280003F05AF910B931B05DF804FBFFF768FC1B
:100F380008B53A4B5B6913F4003F13D1BFF34F8FE9
:100F4800BFF36F8F354B0022C3F85022BFF34F8F8A
:100F5800BFF36F8F5A6942F400325A61BFF34F8F63
:100F6800BFF36F8F2D4B5B6913F4803F27D12B4B59
:100F78000022C3F88420BFF34F8FD3F88040C4F316
:100F88004E3000E01846C4F3C90243F6E07303EAA2
:100F9800401343EA82732149C1F860321346013A8B
:100FA800002BF2D1431E0028ECD1BFF34F8F4B69C1
:100FB80043F480334B61BFF34F8FBFF36F8F05F05E
:100FC8002BF8FFF727FFFFF791FFFFF70BFBFFF762
:100FD80019FCFFF765FCFFF7AFFCFFF7D7FCFFF73D
:100FE80001FDFFF735FDFFF7B5FDFFF705FEFFF73C
:100FF8005FFEFFF789FEFFF7DDFE094801F05EFDA1
:10100800084801F05BFD084801F058FD01F0EEFAD0
:1010180000F0C4FA00F03EFBFCE700BF00ED00E082
:10102800D00200208C03002048040020FEE7FEE7E1
:10103800FEE7FEE7FEE770477047704710B50446C5
:1010480002680A4B9A4208D02268094B9A4207D094
:101058002268084B9A4206D010BD00F071FBF3E7F6
:1010680000F0A0FAF4E700F03BFBF5E70040014090
:10107800004401400048014082B0074BD3F8F420F7
:1010880042F00202C3F8F420D3F8F43003F002036C
:101098000193019B02B070470044025810B58AB012
:1010A8000023059306930793089309930368274A37
:1010B800934204D0264A934239D00AB010BD254B3A
:1010C800D3F8D82042F02002C3F8D820D3F8D8208B
:1010D80002F020020192019AD3F8E02042F00102C6
:1010E800C3F8E020D3F8E02002F001020292029A4D
:1010F800D3F8E02042F02002C3F8E020D3F8E03033
:1011080003F020030393039B802305930324069491
:1011180005A9114804F052FB4FF480530593069437
:101128000023079305A90D4804F048FBC5E7094BC0
:10113800D3F8E02042F08072C3F8E020D3F8E03022
:1011480003F080730493049BB7E700BF00200240BC
:101158000060025800440258000002580014025867
:1011680010B5B8B0044600213391349135913691C9
:101178003791BC2204A807F0E1FC2368364A934261
:1011880004D0364A934233D038B010BD08230493B4
:1011980004A803F021F840BB314CD4F8E03043F008
:1011A8000203C4F8E030D4F8E03003F002030093FF
:1011B800009B4FF4407333931223349301233593E8
:1011C800002336930423379333A9264804F0F6FA0C
:1011D800D4F8E83043F40013C4F8E830D4F8E83021
:1011E80003F400130193019BCEE7FFF709FBD3E754
:1011F800102304930DEB030002F0EEFF40BB184CE4
:10120800D4F8E03043F00803C4F8E030D4F8E03014
:1012180003F008030293029B4FF4405333931223C5
:10122800349301233593002336930423379333A94A
:101238000D4804F0C3FAD4F8F43043F08003C4F83E
:10124800F430D4F8F43003F080030393039B9BE756
:10125800FFF7D6FAD3E700BF00540040001C00583F
:101268000044025800040258000C025810B5B6B0E9
:101278000446002131913291339134913591BC2249
:1012880002A807F05BFC22681B4B9A4201D036B0DB
:1012980010BD4FF40053029302A802F09DFF38BB23
:1012A800164BD3F8F02042F48012C3F8F020D3F89C
:1012B800F02002F480120092009AD3F8E02042F065
:1012C8002002C3F8E020D3F8E03003F020030193B4
:1012D800019B4FF4707331930223329300233393AD
:1012E80034930523359331A9054804F067FACEE70E
:1012F800FFF786FAD4E700BF0050014000440258C7
:101308000014025800B587B00368374A934221D0C9
:10131800364A93422ED0364A934239D0354A9342C0
:101328004CD0354A934222D1344BD3F8F02042F4C2
:101338008022C3F8F020D3F8F03003F4802305931B
:10134800059B00220D21762001F0DEF9762001F0C0
:1013580011FA0CE0294BD3F8F02042F00102C3F84F
:10136800F020D3F8F03003F001030193019B07B09C
:101378005DF804FB214BD3F8E82042F00802C3F8DB
:10138800E820D3F8E83003F008030293029BEEE765
:101398001A4BD3F8F02042F48032C3F8F020D3F887
:1013A800F03003F480330393039B00220E21742052
:1013B80001F0AAF9742001F0DDF9D8E70F4BD3F852
:1013C800F02042F40032C3F8F020D3F8F03003F4F0
:1013D80000330493049B00220C21752001F094F93A
:1013E800752001F0C7F9C2E700000140000C004079
:1013F80000400140004401400048014000440258B8
:1014080030B589B00023039304930593069307939B
:101418000368284A934204D0274A934232D009B03D
:1014280030BD264BD3F8E02042F01002C3F8E0208C
:10143800D3F8E02002F010020092009AD3F8E020DE
:1014480042F00202C3F8E020D3F8E03003F00203D0
:101458000193019B4FF40073039302250495012423
:10146800079403A9164804F0A9F94FF4004303931D
:101478000495002305930693079403A9114804F0E3
:101488009DF9CCE70D4BD3F8E02042F00102C3F8F8
:10149800E020D3F8E03003F001030293029B082315
:1014A800039302230493079303A9074804F086F9DA
:1014B800B5E700BF00000140000C0040004402589E
:1014C80000100258000402580000025810B5B6B0C7
:1014D8000446002131913291339134913591BC22E7
:1014E80002A807F02BFB22681E4B9A4201D036B0A7
:1014F80010BD0123029302A802F06EFE78BB1A4BBE
:10150800D3F8F02042F01002C3F8F020D3F8F0200E
:1015180002F010020092009AD3F8E02042F0010293
:10152800C3F8E020D3F8E03003F001030193019BF6
:101538004FF4F053319302233293002433943494BC
:101548000723359331A9094804F038F922460B21BD
:10155800252001F0D9F8252001F00CF9C7E7FFF79D
:101568004FF9CCE70010014000440258000002582F
:1015780008B501F03FF808BD08B500F0FFF800F025
:101588007FF900F0FDFA00F047FB08BD08B500F050
:101598007BF900F08BF900F0D3F908BD08B500F02D
:1015A800E9FA08BD024A136801331360704700BFA7
:1015B80088060020014B1868704700BF8806002085
:1015C80010B50446FFF7F6FF022C07D0032C08D00D
:1015D800012C00D010BD044B1861FBE7024B986149
:1015E800F8E7014B1862F5E78806002010B50446B5
:1015F800FFF7E0FF022C0FD0032C10D0012C08D0ED
:101608000023C31A022C11D0032C13D0012C09D0AB
:1016180010BD0A4B1B69F4E7084B9B69F1E7074BC0
:101628001B6AEEE7054A53635061F1E7034A936387
:10163800D061EDE7014AD3635062E9E788060020EC
:1016480010B50446FFF7B6FF022C0FD0032C10D0BC
:10165800012C08D00023C31A022C11D0032C13D05C
:10166800012C09D010BD0A4B9B6AF4E7084BDB6AD2
:10167800F1E7074B1B6BEEE7054A13649062F1E74D
:10168800034A5364D062EDE7014A93641063E9E7C3
:101698008806002008B5104B93F85630012B09D066
:1016A8000420FFF78DFF0420FFF7A0FF0420FFF7B9
:1016B800C7FF08BD084B094A1A66002283F856205E
:1016C8000320FFF77DFFFFF753FF0320FFF78EFF8F
:1016D8000320FFF7B5FFECE788060020791500081E
:1016E80008B5144B5A6801325A60012183F8541026
:1016F800114BA3FB02135B09642101FB132333B9CC
:101708000C4BDA680132DA60012283F85620094B63
:101718000A4A9A65002283F854200120FFF750FFF7
:10172800FFF72AFF0120FFF761FF0120FFF788FF7D
:1017380008BD00BF880600201F85EB5181150008F1
:1017480008B50C4B9A6801329A60012283F855203B
:10175800094ADA65002283F855200220FFF730FF96
:10176800FFF714FF0220FFF741FF0220FFF768FF91
:1017780008BD00BF880600209515000810B5394A35
:1017880013780133DBB21370642B02D9134600229D
:101798001A70344B1B78192B1FD9A3F11A02D2B235
:1017A800182A31D9333BDBB2182B44D82E4C0022EF
:1017B8004021204604F000F900228021204604F050
:1017C800FBF801221021294804F0F6F800224FF412
:1017D8008071274804F0F0F815E0234C01224021DD
:1017E800204604F0E9F800228021204604F0E4F8BD
:1017F800002210211D4804F0DFF800224FF4807108
:101808001B4804F0D9F810BD174C0022402120468F
:1018180004F0D2F801228021204604F0CDF80022FD
:101828001021124804F0C8F800224FF480711048C3
:1018380004F0C2F8E7E70C4C00224021204604F0EF
:10184800BBF800228021204604F0B6F800221021BF
:10185800064804F0B1F801224FF48071044804F0FE
:10186800ABF8D0E7EC06002000040258001C025830
:1018780000200258014B00225A747047F0060020DD
:1018880008B5FFF7F7FF08BD08B50A230322054985
:101898000978054804F092FC18B1024A137801331C
:1018A800137008BDED060020F400002010B51E4C92
:1018B800204605F075F90A21204604F0F9FDD8B153
:1018C800194C204605F06CF90A21204604F0F0FD79
:1018D800C0B1164C204605F063F90A21204604F0F1
:1018E800E7FDA8B1114C204605F05AF90A21204617
:1018F80004F0DEFD90B110BD204604F06FFE0C4BE5
:101908001860DDE7204604F069FE0A4B1860E0E73E
:10191800204604F063FE084B1860E3E7204604F015
:101928005DFE064B1860E6E72C00002090000020C2
:101938003C07002044070020340700204C07002003
:101948001F4B93ED007AB8EE477ADFED1E5A27EE6B
:10195800257ADFED1D6A87EE266ABCEEC66A1B4B48
:1019680083ED006A1A4BD3ED007AF8EE677A67EEDA
:10197800A57A87EEA67ABCEEC77A164B83ED007A75
:10198800154B93ED007AB8EE477ADFED145A27EE3F
:10199800257A87EE266ABCEEC66A114B83ED006A8B
:1019A800104BD3ED007AF8EE677A67EEA57A87EEEA
:1019B800A67ABCEEC77A0C4B83ED007A704700BF5D
:1019C8003C07002000409C4500FF7F47400700205F
:1019D80044070020480700203407002000404E45F7
:1019E800380700204C0700205007002008B50246A1
:1019F8004FF48071014803F0DFFF08BD0020025852
:101A080038B50446194D00F001020421284603F0B8
:101A1800D3FFC4F340020821284603F0CDFFC4F3E6
:101A280080024FF48071284603F0C6FFC4F3C00259
:101A38004FF40071284603F0BFFFC4F300124FF4BF
:101A48008061284603F0B8FFC4F34012012108481A
:101A580003F0B2FFC4F380120221064803F0ACFF82
:101A6800E2094021044803F0A7FF38BD001C0258D2
:101A780000080258000402580018025838B50446F5
:101A88001B4D00F001022021284603F095FFC4F306
:101A980040024021284603F08FFF05F54065C4F356
:101AA80080024FF40051284603F086FFC4F3C002B9
:101AB8004FF480610F4803F07FFFC4F300124FF426
:101AC8000041284603F078FF05F58065C4F340120D
:101AD8000121284603F070FFC4F380120221284632
:101AE80003F06AFFE2090421284603F065FF38BDC8
:101AF800001002580018025838B5044600F00102D8
:101B08001021194803F058FF184DC4F340024FF450
:101B18008051284603F050FFC4F380024021144846
:101B280003F04AFFC4F3C0024FF40061284603F0F3
:101B380043FF05F50065C4F300121021284603F0A1
:101B48003BFFC4F340122021284603F035FFC4F3BD
:101B580080124021284603F02FFFE2098021284601
:101B680003F02AFF38BD00BF0010025800180258C1
:101B7800000C025808B564210120FFF737FF08BDA3
:101B880008B5204A137883F0010303F001031370AA
:101B98001D4B1B780F2B10D801224FF480611B4876
:101BA80003F00AFF184A137801331370154B1A789B
:101BB8008021174803F000FF08BD00224FF4806120
:101BC800124803F0F9FE104B1B78112B0BD00E4B6B
:101BD8001B78122B0ED00C4B1B78132BE2D10A4B1F
:101BE80000221A70DEE700224FF48061094803F0F2
:101BF800E3FEECE701224FF48061064803F0DCFEC7
:101C0800E9E700BF550700205407002000140258D8
:101C1800001802580020025808B5FF20FFF7F0FE10
:101C2800FF20FFF72BFFFF20FFF766FF08BD00002E
:101C38006C4B1B786C4A1370012B07D0022B2ED0EB
:101C4800032B62D0042B00F09680704730380328AD
:101C58001ED8DFE800F002080F160023614A13704F
:101C6800624A137070475F4B02221A70604B002261
:101C78001A7070475B4B03221A705E4B00221A7071
:101C88007047584B04221A705B4B00221A70704739
:101C9800544B05221A70594B00221A70704730387D
:101CA80009282BD801A353F820F000BFDD1C000839
:101CB800531C0008531C0008531C0008051D00088D
:101CC800051D0008051D0008051D0008E91C000881
:101CD800F71C00080023434A1370444A13707047E6
:101CE800404B02221A70424B00221A7070473D4B3B
:101CF80001221A70424B00221A707047394B052294
:101D08001A703E4B00221A707047303809282BD8B9
:101D180001A353F820F000BF491D0008531C000818
:101D2800531C0008711D0008711D0008711D000872
:101D3800711D0008711D0008551D0008631D00086D
:101D48000023284A1370294A13707047254B022232
:101D58001A70274B00221A707047224B01221A7002
:101D6800274B00221A7070471E4B05221A70234B0E
:101D780000221A707047303809282BD801A353F86D
:101D880020F000BFB51D0008531C0008DD1D000829
:101D9800DD1D0008DD1D0008DD1D0008DD1D000833
:101DA800DD1D0008C11D0008CF1D000800230D4AD5
:101DB80013700E4A137070470A4B02221A700C4BAC
:101DC80000221A707047074B01221A700C4B002230
:101DD8001A707047034B05221A70084B00221A70BC
:101DE80033E700BF0000002056070020BE07002090
:101DF800C1070020C0070020BD070020BC07002045
:101E0800BF070020F8B5644B1B78002B37D1624B15
:101E180001221A70614B1B78013B032B2FD8DFE896
:101E280003F0022F5C8E5E4E34465E4D0FCD0FC41C
:101E380095E80F0007C423703046FEF749FA5A4F59
:101E4800642382B23146384606F041FA3446574D8B
:101E58000FCD0FC40FCD0FC40FCD0FC42B68237047
:101E68003046FEF735FA642382B23146384606F02A
:101E78002EFA4F4B01221A704E4B00221A70F8BDF1
:101E8800474E34464C4D0FCD0FC495E80F0007C49C
:101E980023703046FEF71CFA434F642382B2314662
:101EA800384606F014FA3446444D0FCD0FC40FCD12
:101EB8000FC40FCD0FC42B6823803046FEF708FAF5
:101EC800642382B23146384606F001FA384B0222C2
:101ED8001A703B4B00221A70D1E7314E3446394D07
:101EE8000FCD0FC495E80F0007C423703046FEF7E6
:101EF800EFF92D4D642382B23146284606F0E7F902
:101F0800B446314C0FCCACE80F000FCCACE80F0056
:101F18000FCCACE80F0094E803008CE803003046CF
:101F2800FEF7D6F9642382B23146284606F0CFF987
:101F38001F4B03221A70254B00221A709FE7184E78
:101F48003446234D0FCD0FC495E80F0007C4237006
:101F58003046FEF7BDF9144F642382B23146384645
:101F680006F0B5F934461B4D0FCD0FC40FCD0FC485
:101F78000FCD0FC42B6823703046FEF7A9F96423F0
:101F880082B23146384606F0A2F9094B04221A708B
:101F9800114B00221A7072E7BC0700205607002078
:101FA800580700206C8B0008C00500208C8B0008A7
:101FB80000000020BF070020C08B0008E08B00084D
:101FC800C1070020148C0008348C0008C0070020CA
:101FD8006C8C00088C8C0008BD070020374B1B78E0
:101FE80003B170472DE9F0410127344B1F70344D80
:101FF800AC46344C0FCCACE80F0094E80700ACE8D2
:102008000300ACF800202846FEF762F9DFF8DC8010
:10201800642382B22946404606F059F92C462A4ED6
:102028000FCE0FC496E80300206024F8041F28464A
:10203800FEF74EF9642382B22946404606F047F976
:10204800AC46224E0FCEACE80F0096E80300CCF861
:10205800000021802846FEF73BF9642382B2294616
:10206800404606F034F93A461949404606F094FAD3
:10207800184B1B78013B032B09D8DFE803F0020A51
:102088001118154B01221A70144B00221A70BDE862
:10209800F081114B02221A70114B00221A70F6E7D8
:1020A8000D4B03221A700F4B00221A70EFE70A4BF0
:1020B80004221A700C4B00221A70E8E7BE070020B1
:1020C80058070020C08C0008DC8C0008F48C00083D
:1020D800570700205607002000000020BF070020F7
:1020E800C1070020C0070020BD070020C005002050
:1020F800F8B53C4B1B7803B1F8BD0127394B1F706D
:10210800394C3A4B0FCB84E80F002046FEF7E0F835
:10211800374E642382B22146304606F0D8F8354B54
:1021280025460FCB07C52B801B0CA3732046FEF753
:10213800CFF8642382B22146304606F0C8F8254617
:10214800DFF8C4C0BCE80F000FC59CE8030045F8E1
:10215800040B29702046FEF7BBF8642382B221469F
:10216800304606F0B4F8244B25460FCB07C52B8024
:102178002046FEF7ADF8642382B22146304606F0C9
:10218800A6F8A4461D4D0FCDACE80F0095E8070052
:10219800ACE803002CF8022B120C8CF80020204627
:1021A800FEF796F8642382B22146304606F08FF88F
:1021B800A446134D0FCDACE80F0095E80700ACE836
:1021C8000300ACF800202046FEF782F8642382B2B0
:1021D8002146304606F07BF83A460A49304606F072
:1021E800DBF989E7BF070020580700200C8D00089D
:1021F800C00500201C8D0008448D0008548D00087F
:10220800708D0008570700202C8D00084C4B1B7858
:1022180003B170472DE9F0414FF00108484B83F8AE
:102228000080484C484B93E8070084E807002046A4
:10223800FEF74EF8454E642382B22146304606F03A
:1022480046F8434B0FCB84E80F002046FEF740F8D2
:10225800642382B22146304606F039F83D4B0FCB55
:1022680084E80F002046FEF733F8642382B2214643
:10227800304606F02CF8384B25460FCB07C52B8087
:102288001B0CA3732046FEF723F8642382B2214671
:10229800304606F01CF8A446304D0FCDACE80F00D0
:1022A80095E80700ACE803002CF8022B120C8CF818
:1022B80000202046FEF70CF8642382B221463046FF
:1022C80006F005F82546264F0FCF0FC597E80700FB
:1022D80003C52A702046FDF7FBFF642382B221461E
:1022E800304605F0F4FF2746DFF880C0BCE80F0051
:1022F8000FC7DCF800303B702046FDF7E9FF642388
:1023080082B22146304605F0E2FFA446154F0FCFB2
:10231800ACE80F0097E80700ACE803002A802046E5
:10232800FDF7D6FF642382B22146304605F0CFFF81
:1023380042460D49304606F02FF9BDE8F08100BF4E
:10234800C1070020580700208C8D0008C005002018
:10235800988D0008A88D0008B88D0008548D0008D5
:10236800C88D0008708D000857070020E48D00080C
:102378002DE9F843464B1B780BB1BDE8F8834FF0C5
:102388000109434B83F80090424C2646424D0FCD3D
:102398000FC62B6833802046FDF79AFFDFF81881B7
:1023A800642382B22146404605F091FF27463B4D03
:1023B8000FCD0FC72B6833602046FDF789FF6423D4
:1023C80082B22146404605F082FF2546344F0FCFA2
:1023D8000FC597E8030045F8040BB180090CB171EB
:1023E8002046FDF775FF642382B22146404605F07A
:1023F8006EFFA4462B4D0FCDACE80F0095E8070003
:10240800ACE803002CF8022B120C8CF800202046B4
:10241800FDF75EFF642382B22146404605F057FF70
:102428002546214F0FCF0FC597E8070003C52A702F
:102438002046FDF74DFF642382B22146404605F051
:1024480046FFA446194F0FCFACE80F003B68337026
:102458002046FDF73DFF642382B22146404605F041
:1024680036FF2646124F0FCF0FC697E8070003C660
:102478002A802046FDF72CFF642382B2214640467D
:1024880005F025FF4A460B49404606F085F874E7F3
:10249800C007002058070020F88D00080C8E00089F
:1024A800208E0008548D0008C88D0008E48D0008AF
:1024B800708D000857070020C0050020414B1B788D
:1024C80003B170472DE9F0414FF001083D4B83F807
:1024D80000803D4C3D4A234607CA03C323F8022B1C
:1024E800120C1A702046FDF7F3FE394F642382B2AE
:1024F8002146384605F0EBFE364B25460FCB07C57F
:1025080025F8023B1B0C2B702046FDF7E1FE6423E7
:1025180082B22146384605F0DAFEA4462E4D0FCD8C
:10252800ACE80F0095E80700ACE803002CF8022B94
:10253800120C8CF800202046FDF7CAFE642382B2F4
:102548002146384605F0C3FE2546244E0FCE0FC55A
:1025580096E8070003C52A702046FDF7B9FE6423F4
:1025680082B22146384605F0B2FE2646DFF878C02A
:10257800BCE80F000FC6DCF8003033702046FDF7CA
:10258800A7FE642382B22146384605F0A0FEA44681
:10259800134E0FCEACE80F0096E80700ACE8030036
:1025A8002A802046FDF794FE642382B221463846ED
:1025B80005F08DFE42460B49384605F0EDFFBDE8B3
:1025C800F08100BFBD07002058070020388E0008A2
:1025D800C0050020448E0008548D0008C88D0008EE
:1025E800708D000857070020E48D000808B5FFF734
:1025F800F5FC08BD08B50D4B1B78052B06D8DFE8A0
:1026080003F00306090C0F12FFF7E8FC08BDFFF7FB
:102618006FFDFBE7FFF7FAFDF8E7FFF7A9FEF5E71F
:10262800FFF74CFFF2E7FFF7EDFBEFE700000020B4
:102638000268264B9A4200D0704770B5244B1B782D
:10264800A3F13001C9B2A3F16102D2B2192A88BF3D
:10265800092903D9413BDBB2192B30D81D4DAC46B3
:102668001D4C0FCCACE80F0094E80F00ACE8070055
:102678002CF8023B1B0C8CF800302846FDF728FE8E
:10268800164C642382B22946204605F020FE104EDF
:10269800642301223146204605F019FE104B1B68C1
:1026A8002B801B0CAB702846FDF712FE642382B208
:1026B8002946204605F00BFE3078FFF7B9FA0122CB
:1026C8000349064805F068FF70BD00BF00100140CF
:1026D8005707002058070020548E0008C005002026
:1026E800748E00080649CB6823F4E0631B041B0CB6
:1026F800000200F4E0600343024A1A43CA607047CC
:1027080000ED00E00000FA0500B5174BDB68C3F3E5
:102718000223C3F1070CBCF1040F28BF4FF0040CCF
:1027280003F1040EBEF1060F14D9033B4FF0FF3E30
:102738000EFA0CFC21EA0C0199400EFA03F322EA86
:1027480003031943002807DB0901C9B2074B1954D1
:102758005DF804FB0023E9E700F00F000901C9B2A6
:10276800034B1954F4E700BF00ED00E000E400E07B
:1027780014ED00E0002807DB00F01F0240090123E8
:102788009340024A42F82030704700BF00E100E061
:102798000138B0F1807F0BD24FF0E0235861054A31
:1027A800F02182F823100020986107221A617047EF
:1027B8000120704700ED00E0704770477047704790
:1027C8007047704770477047704770477047000000
:1027D800F0B4036A23F001030362036A466884695C
:1027E8001F4A22400D68154323F002038C682343D7
:1027F8001C4A1D4CA04218BF90420CBF0122002267
:102808000CD004F58044A04214BF00240124174FC3
:10281800B84203D014B9164CA04205D123F00803DE
:10282800CC68234323F004035AB9124A904214BFD8
:10283800002201220D4CA04203D012B90C4A90424A
:1028480007D126F4407C4A6942EA0C0C8E6946EAB4
:102858000C06466085614A6842630362F0BC7047B3
:102868008CFFFEFF000001400004014000400140D1
:10287800004801400044014070B4036A23F48073A7
:102888000362036A4568C26922F073020E68164340
:1028980023F400738A6843EA0223164A164CA042BE
:1028A80018BF90420CBF0122002206D123F4006316
:1028B800CC6843EA042323F480635AB90F4A904250
:1028C80014BF002201220E4CA04203D012B90D4AB7
:1028D800904207D125F4405C4A694CEA021C8D6994
:1028E8004CEA05154560C6614A68C263036270BC5C
:1028F800704700BF0000014000040140004401404F
:10290800004001400048014070B4036A23F480533A
:102918000362036A4468C26922F4E6420D6842EA27
:10292800052223F400538D6843EA05330F4E104DFA
:10293800A84218BFB0420DD005F58045A84214BF83
:102948000025012506F58046B04203D015B9094D8A
:10295800A84204D124F480444D6944EA85144460B3
:10296800C2614A680264036270BC7047000001409B
:10297800000401400048014070B4036A23F4803326
:102988000362036A4268446D24F0700C0C6844EAE0
:102998000C0623F400338C6843EA04430F4D104CB3
:1029A800A04218BFA8420DD004F58044A04214BF2D
:1029B8000024012405F58045A84203D014B9094C28
:1029C800A04204D122F480324C6942EA04224260D7
:1029D80046654A688265036270BC70470000014022
:1029E800000401400048014070B4036A23F48013D6
:1029F8000362036A4468426D22F4E0420D6842EAC9
:102A0800052223F400138D6843EA05530F4E104D39
:102A1800A84218BFB0420DD005F58045A84214BFA2
:102A28000025012506F58046B04203D015B9094DA9
:102A3800A84204D124F400344D6944EA8524446052
:102A480042654A68C265036270BC70470000014075
:102A5800000401400048014010B4036A046A24F0ED
:102A680001040462846924F0F00C4CEA021223F099
:102A78000A030B43826103625DF8044B704710B48C
:102A8800046A24F0100404628469036A24F4704C14
:102A98004CEA023223F0A00343EA01138261036285
:102AA8005DF8044B704700008268034B13400B43EA
:102AB80043F00703836070478FFFCFFF90F83D30E6
:102AC800DBB2012B36D1022380F83D300268D3688F
:102AD80043F00103D3600368184AB3F1804F18BF6D
:102AE800934219D0A2F57C42934215D002F5806238
:102AF800934211D002F5806293420DD002F57842DC
:102B0800934209D0A2F56C42934205D01A6842F06C
:102B180001021A60002070479968094A0A40062A8B
:102B280018BFB2F5803F07D01A6842F001021A6058
:102B380000207047012070470020704700000140C6
:102B48000700010010B5044603681A6912F0020F65
:102B580013D0DA6812F0020F0FD06FF002021A6178
:102B68000123037703689B6913F0030F00F0A38028
:102B7800D0F8943098470023237723681A6912F015
:102B8800040F14D0DA6812F0040F10D06FF00402AA
:102B98001A610223237723689B6913F4407F00F0AE
:102BA8009280D4F8943020469847002323772368EE
:102BB8001A6912F0080F14D0DA6812F0080F10D052
:102BC8006FF008021A61042323772368DB6913F086
:102BD800030F00F08180D4F89430204698470023F2
:102BE800237723681A6912F0100F13D0DA6812F0ED
:102BF800100F0FD06FF010021A6108232377236893
:102C0800DB6913F4407F70D0D4F89430204698479D
:102C18000023237723681A6912F0010F0AD0DA68B3
:102C280012F0010F06D06FF001021A61D4F8843057
:102C38002046984723681A6912F0800F0AD0DA688C
:102C480012F0800F06D06FF080021A61D4F8B43009
:102C58002046984723681A6912F4807F0AD0DA68F8
:102C680012F0800F06D06FF480721A61D4F8B83071
:102C78002046984723681A6912F0400F0AD0DA688C
:102C880012F0400F06D06FF040021A61D4F88C3071
:102C98002046984723681A6912F0200F0AD0DA688C
:102CA80012F0200F06D06FF020021A61D4F8AC3071
:102CB8002046984710BDD0F89C309847D4F8A030EB
:102CC8002046984757E7D4F89C3020469847D4F8D0
:102CD800A0302046984768E7D4F89C3020469847AB
:102CE800D4F8A0302046984779E7D4F89C3020469D
:102CF8009847D4F8A0302046984789E730B503684C
:102D0800394A904214BF4FF0000E4FF0010EB0F157
:102D1800804F14BF72464EF00102AAB9334CA0424C
:102D280014BF00240124324DA8420DD064B904F127
:102D3800804404F58234A04214BF0024012405F520
:102D48000065A84200D01CB123F070034C682343EF
:102D580012BB264A904214BF00220122244CA042F2
:102D68001AD0CAB902F1804202F58232904214BFE9
:102D78000022012204F50064A0420DD062B91D4A68
:102D8800904214BF0022012204F59A34A04203D0D5
:102D980012B9194A904204D123F4407CCB6843EA23
:102DA8000C0323F080034A69134303608A68C262F4
:102DB8000A688262114A904214BF73464EF00103BA
:102DC80063B90C4B984214BF0023012302F57052DB
:102DD800904203D013B9084B984201D10B690363A1
:102DE8000123436130BD00BF0000014000080040DE
:102DF8000004004000440140004801400004014034
:102E080070B4036A23F010030362036A4568846997
:102E18001A4A22400E6842EA062623F020038A68EE
:102E280043EA0213164A174CA04218BF90420CBF3F
:102E38000122002206D123F08003CC6843EA041360
:102E480023F040035AB9104A904214BF00220122CD
:102E58000E4CA04203D012B90D4A904207D125F476
:102E6800406C4A694CEA820C8D694CEA85054560DC
:102E780086614A688263036270BC7047FF8CFFFEFC
:102E880000000140000401400044014000400140AE
:102E98000048014090F83C30012B2ED010B5044674
:102EA800012380F83C30142A0FD8DFE802F00B0E1B
:102EB8000E0E120E0E0E160E0E0E1A0E0E0E1E0E02
:102EC8000E0E22000068FFF783FC002084F83C0007
:102ED80010BD0068FFF794FFF7E70068FFF7CCFC28
:102EE800F3E70068FFF710FDEFE70068FFF744FD20
:102EF800EBE70068FFF778FDE7E70220704738B591
:102F080090F83C30012B00F08C8004460D460123DC
:102F180080F83C30142A1ED8DFE802F00B1D1D1D76
:102F2800211D1D1D351D1D1D481D1D1D5C1D1D1D43
:102F38006F000068FFF74CFC2268936943F00803B0
:102F480093612268936923F004039361226893696B
:102F580029690B439361002084F83C0038BD006860
:102F6800FFF74EFF2268936943F400639361226878
:102F7800936923F48063936122689369296943EA1A
:102F880001239361E7E70068FFF776FC2268D369BD
:102F980043F00803D3612268D36923F00403D361A3
:102FA8002268D36929690B43D361D4E70068FFF726
:102FB800ABFC2268D36943F40063D3612268D36908
:102FC80023F48063D3612268D369296943EA012322
:102FD800D361C0E70068FFF7CFFC2268536D43F068
:102FE800080353652268536D23F004035365226870
:102FF800536D29690B435365ADE70068FFF7F4FC8F
:103008002268536D43F4006353652268536D23F4BB
:10301800806353652268536D296943EA0123536528
:1030280099E702209AE710B4846824F47F4C42EAB6
:1030380003220A4342EA0C0282605DF8044B70479F
:1030480090F83C30012B77D010B50446012380F866
:103058003C30022380F83D3002689068374B0340CB
:1030680093600B68602B53D00ED9B3F5005F43D043
:103078002DD9334A934225D037D9324A934221D0A9
:10308800103293421ED013E0402B4BD00BD9502B5B
:103098000ED1CA6849682068FFF7DEFC5021206815
:1030A800FFF702FD04E0202B0CD008D9302B09D003
:1030B800012384F83D30002084F83C0010BD0BB19A
:1030C800102BF5D119462068FFF7EEFCF0E7702BBE
:1030D800EED1CB684A6889682068FFF7A4FF2268A8
:1030E800936843F077039360E2E7B3F5801FE9D074
:1030F800B3F1101FE6D0DBE7CB684A68896820681F
:10310800FFF791FF2268936843F480439360CFE709
:10311800CA6849682068FFF7B2FC60212068FFF799
:10312800C3FCC5E7CA6849682068FFF795FC4021D9
:103138002068FFF7B9FCBBE7022070478800CEFF84
:103148002000100030001000154BC0F88430154BDB
:10315800C0F88830144BC0F88C30144BC0F890304D
:10316800134BC0F89430134BC0F89830124BC0F88A
:103178009C30124BC0F8A030114BC0F8A430114B52
:10318800C0F8A830104BC0F8AC30104BC0F8B030C5
:103198000F4BC0F8B4300F4BC0F8B830704700BFC1
:1031A80045100008C5270008D1270008D3270008C4
:1031B800C9270008CB270008C7270008CD27000823
:1031C800CF270008D52700086534000867340008B1
:1031D800693400086B340008A0B310B5044690F8B1
:1031E8003D3013B3022384F83D30214651F8040BD7
:1031F800FFF784FD012384F8483084F83E3084F8D2
:103208003F3084F8403084F8413084F8423084F804
:10321800433084F8443084F8453084F8463084F8E4
:10322800473084F83D30002010BD80F83C30FFF76F
:103238008BFFE36C1BB1E36C20469847D2E7024B47
:10324800E364F8E7012070470D130008A0B310B538
:10325800044690F83D3013B3022384F83D302146EC
:1032680051F8040BFFF74AFD012384F8483084F82D
:103278003E3084F83F3084F8403084F8413084F898
:10328800423084F8433084F8443084F8453084F878
:10329800463084F8473084F83D30002010BD80F86F
:1032A8003C30FFF751FFE36D1BB1E36D20469847B3
:1032B800D2E7024BE365F8E701207047C127000811
:1032C800A0B310B5044690F83D3013B3022384F838
:1032D8003D30214651F8040BFFF710FD012384F817
:1032E800483084F83E3084F83F3084F8403084F821
:1032F800413084F8423084F8433084F8443084F80C
:10330800453084F8463084F8473084F83D30002052
:1033180010BD80F83C30FFF717FF636E1BB1636E7A
:1033280020469847D2E7024B6366F8E701207047CA
:10333800C327000890F83C30012B41D070B401231A
:1033480080F83C30022380F83D3003685A689C6856
:103358001C4E1D4DAB4218BFB34203D122F470027C
:103368004D682A4322F070020D682A435A600368A8
:10337800144AB3F1804F18BF934213D0A2F57C4290
:1033880093420FD002F5806293420BD002F580621F
:10339800934207D002F57842934203D0A2F56C42DB
:1033A800934204D124F080048A6814439C6001236A
:1033B80080F83D30002380F83C30184670BC7047D8
:1033C80002207047000001400004014090F83C30A2
:1033D800012B3CD030B4012380F83C30CB6823F477
:1033E80040738A68134323F480634A68134323F4C1
:1033F80000630A68134323F480530A69134323F4D0
:1034080000534A69134323F480438A6A134323F41D
:1034180070238A6943EA024302680E4D0E4CA242A9
:1034280018BFAA420CD123F470034C6A43EA045330
:1034380023F08073CC69234323F00073096A0B439C
:103448005364002380F83C30184630BC7047022093
:10345800704700BF000001400004014070477047FA
:1034680070477047002800F0028338B504460368A7
:1034780013F0010F25D09C4A136903F03803926AB0
:10348800102B15D0182B0FD06368B3F5803F3FD0B1
:10349800002B53D1944B1A6822F480321A601A68B0
:1034A80022F480221A6038E002F00302022AEBD1EB
:1034B8008D4B1B6813F4003F03D06368002B00F0AA
:1034C800D882236813F0020F00F08B80864A1369B4
:1034D800926A13F038035AD0182B55D0E368002BA2
:1034E80000F0C88080490A6822F0190213430B6073
:1034F80002F0CCFD05467C4B1B6813F0040F40F02E
:10350800978002F0C3FD401B0228F4D90320B7E2DC
:10351800754A136843F48033136063682BB302F071
:10352800B5FD0546704B1B6813F4003FC9D102F086
:10353800ADFD401B6428F5D90320A1E2B3F5A02F07
:1035480009D0694B1A6822F480321A601A6822F48A
:1035580080221A60E1E7644B1A6842F480221A60FC
:103568001A6842F480321A60D7E702F08FFD0546E8
:103578005D4B1B6813F4003FA3D002F087FD401B8E
:103588006428F5D903207BE212F0030FA6D1564B2D
:103598001B6813F0040F03D0E368002B00F06B8264
:1035A80002F07AFD41F20303984212D82269402AB8
:1035B80007D04D494B6823F47C3343EA02334B6010
:1035C8000FE0494A536823F47C3343F400335360D3
:1035D80007E0454A536823F0FE43216943EA016343
:1035E8005360236813F0100F00F088803E4A136977
:1035F80003F03803926A082B54D0182B4ED0E36995
:10360800002B00F0B880384A136843F08003136039
:1036180002F03CFD0546344B1B6813F4807F40F0F4
:10362800888002F033FD401B0228F4D9032027E2EA
:1036380002F032FD41F20303984212D82269402A6F
:1036480007D029494B6823F47C3343EA02334B60A3
:10365800C7E7254A536823F47C3343F400335360A7
:10366800BFE7214A536823F0FE43216943EA016317
:103678005360B6E71C4A136823F00103136002F095
:1036880005FD0546184B1B6813F0040FA9D002F07E
:10369800FDFC401B0228F5D90320F1E102F00302EA
:1036A800012AACD1104B1B6813F4807F03D0E36967
:1036B800802B40F0E28102F0EFFC41F203039842D4
:1036C80014D8226A202A07D007494B6823F0F84308
:1036D80043EA82634B6011E0034A536823F0F843DE
:1036E80043F08043536009E0004402589A4AD36883
:1036F80023F07C53216A43EA0163D360236813F003
:10370800080F60D06369002B49D0934A536F43F088
:103718000103536702F0BAFC05468F4B5B6F13F049
:10372800020F50D102F0B2FC401B0228F5D9032049
:10373800A6E102F0B1FC41F20303984212D8226AD2
:10374800202A07D084494B6823F0F84343EA826370
:103758004B60D3E7804A536823F0F84343F0804333
:103768005360CBE77C4AD36823F07C53216A43EA51
:103778000163D360C2E7784A136823F080031360BB
:1037880002F084FC0546744B1B6813F4807FB5D0A7
:1037980002F07CFC401B0228F5D9032070E16E4A38
:1037A800536F23F00103536702F070FC05466A4B20
:1037B8005B6F13F0020F06D002F068FC401B022872
:1037C800F5D903205CE1236813F0200F29D0A36901
:1037D8009BB1614A136843F48053136002F056FCAE
:1037E80005465D4B1B6813F4005F1AD102F04EFCCE
:1037F800401B0228F5D9032042E1574A136823F4F5
:103808008053136002F042FC0546534B1B6813F4C7
:10381800005F06D002F03AFC401B0228F5D90320CD
:103828002EE1236813F0040F21D1636A002B00F006
:103838002681494A126902F03802182A00F0EE80FF
:10384800022B75D0444A136823F08073136002F08A
:103858001DFC0446404B1B6813F0007F00F0DC8021
:1038680002F014FC001B0228F4D9032008E13B4AAB
:10387800136843F48073136002F008FC0546374B65
:103888001B6813F4807F06D102F000FC401B6428FB
:10389800F5D90320F4E0A368012B0AD00BBB2E4B0B
:1038A8001A6F22F001021A671A6F22F004021A67CF
:1038B80004E0294A136F43F001031367A36833B385
:1038C80002F0E4FB0546244B1B6F13F0020FACD14A
:1038D80002F0DCFB401B41F288339842F3D9032005
:1038E800CEE0052B09D01C4B1A6F22F001021A6793
:1038F8001A6F22F004021A67E0E7174B1A6F42F0BA
:1039080004021A671A6F42F001021A67D6E702F03A
:10391800BDFB0546104B1B6F13F0020F85D002F05C
:10392800B5FB401B41F288339842F3D90320A7E046
:10393800094A136823F08073136002F0A7FB054659
:10394800054B1B6813F0007F0AD002F09FFB401B59
:103958000228F5D9032093E0004402580048025891
:103968004F4B996A4F4A0A40A16AE06A41EA00113E
:103978000A439A62226B013AC2F30802616B013969
:10398800490289B20A43A16B0139090401F4FE0115
:103998000A43E16B0139090601F0FE410A431A6343
:1039A800DA6A22F00102DA62596B3F4A0A40A16CD6
:1039B80042EAC1025A63DA6A22F00C02216C0A4315
:1039C800DA62DA6A22F00202616C0A43DA62DA6ABF
:1039D80042F48032DA62DA6A42F40032DA62DA6A8F
:1039E80042F48022DA62DA6A42F00102DA621A6884
:1039F80042F080721A6002F049FB0446284B1B68AB
:103A080013F0007F06D102F041FB001B0228F5D914
:103A1800032035E0002033E0002031E0204A916A9D
:103A2800106B012B2DD001F00303A26A93422AD117
:103A3800C1F30511E36A994227D1C0F30802236B49
:103A4800013B9A4223D1C0F34622636B013B9A4261
:103A58001FD1C0F30642A36B013B9A421BD1C0F3AE
:103A68000660E36B013B984217D1002008E0012073
:103A78007047012004E0012002E0012000E000205E
:103A880038BD0120FCE70120FAE70120F8E7012012
:103A9800F6E70120F4E70120F2E70120F0E700BF94
:103AA800004402580CFCFFFF0700FFFF744B1B6922
:103AB80003F03803102B00F0DE80182B10D00BB168
:103AC800704870476E4B1B6813F0200F00F0D580CC
:103AD8006B4B1868C0F3C1006B4B23FA00F07047BA
:103AE80010B4674A916A01F00301946AC4F305109F
:103AF800D36A03F0010C536BC3F3CC030CFB03F341
:103B080007EE903AF8EE677A14F47C7F00F0938021
:103B1800012965D0022900F09180E1B107EE100A71
:103B2800F8EE476A9FED596A86EE267A544B1B6B6E
:103B3800C3F3080306EE903AF8EE666A9FED546AFE
:103B480067EE867A76EEA77AF7EE006A77EEA67ABF
:103B580027EE277A60E0136813F0200F23D0114670
:103B68001268C2F3C102484BD34007EE103AF8EE90
:103B7800476A07EE100AB8EE476A86EE867A0B6B3C
:103B8800C3F3080306EE903AF8EE666A9FED406AC2
:103B980067EE867A76EEA77AF7EE006A77EEA67A6F
:103BA80027EE277A38E007EE100AF8EE476A9FED0D
:103BB800396A86EE267A324B1B6BC3F3080306EE8E
:103BC800903AF8EE666A9FED326A67EE867A76EE8C
:103BD800A77AF7EE006A77EEA67A27EE277A1BE037
:103BE80007EE100AF8EE476A9FED286A86EE267AF5
:103BF800234B1B6BC3F3080306EE903AF8EE666A94
:103C08009FED236A67EE867A76EEA77AF7EE006A6A
:103C180077EEA67A27EE277A194B1B6BC3F3462358
:103C2800013307EE903AF8EE677AC7EE276AFCEEA2
:103C3800E67A17EE900A5DF8044B704707EE100A13
:103C4800F8EE476A9FED146A86EE267A0C4B1B6BDA
:103C5800C3F3080306EE903AF8EE666A9FED0C6A25
:103C680067EE867A76EEA77AF7EE006A77EEA67A9E
:103C780027EE277AD0E7094870470348704700BF06
:103C88000044025800093D000090D0030024744A03
:103C9800000000390024744C20BCBE4B40787D01E4
:103CA800002800F0328170B50D4604469B4B1B6816
:103CB80003F00F038B420BD2984A136823F00F03CB
:103CC8000B431360136803F00F038B4240F01F810E
:103CD800236813F0040F0CD02269914B9B6903F001
:103CE80070039A4205D98E498B6923F070031A43F1
:103CF8008A61236813F0080F0CD06269884BDB696E
:103D080003F070039A4205D98549CB6923F0700303
:103D18001A43CA61236813F0100F0CD0A269804BB4
:103D2800DB6903F4E0639A4205D97D49CB6923F442
:103D3800E0631A43CA61236813F0200F0CD0E269CC
:103D4800774B1B6A03F070039A4205D974490B6AD2
:103D580023F070031A430A62236813F0020F0CD091
:103D6800E2686F4B9B6903F00F039A4205D96C49CF
:103D78008B6923F00F031A438A61236813F0010F3C
:103D880041D0674A936923F47063A1680B43936138
:103D98006368022B0AD0032B27D0012B2CD0604A52
:103DA800126812F0040F06D10120ADE0126812F477
:103DB800003F00F0AE805A490A6922F00702134317
:103DC8000B6102F063F90646554B1B6903F0380393
:103DD8006268B3EBC20F16D002F058F9801B41F2AB
:103DE80088339842F0D903208EE04D4A126812F0C9
:103DF800007FE0D1012087E0494A126812F4807FF1
:103E0800D9D1012080E0236813F0020F0CD0E268BA
:103E1800434B9B6903F00F039A4205D240498B69D3
:103E280023F00F031A438A613C4B1B6803F00F030E
:103E3800AB420AD9394A136823F00F032B431360A6
:103E4800136803F00F03AB4265D1236813F0040F26
:103E58000CD02269324B9B6903F070039A4205D259
:103E68002F498B6923F070031A438A61236813F082
:103E7800080F0CD062692A4BDB6903F070039A4281
:103E880005D22749CB6923F070031A43CA61236816
:103E980013F0100F0CD0A269214BDB6903F4E06327
:103EA8009A4205D21E49CB6923F4E0631A43CA61DA
:103EB800236813F0200F0CD0E269194B1B6A03F03A
:103EC80070039A4205D216490B6A23F070031A430D
:103ED8000A62FFF7EBFD12498B69C3F30323114A0A
:103EE800D35C03F01F03D8408B6903F00F03D35C46
:103EF80003F01F0320FA03F30B4A13600B4B1860FF
:103F08000B4B186802F060F870BD01207047012063
:103F1800FAE70120F8E70120F6E700BF0020005289
:103F280000440258788E00080C0000200800002089
:103F38000400002008B5FFF7B9FD0B4A9369C3F3E5
:103F480003230A49CB5C03F01F0320FA03F39269A9
:103F580002F00F02885C00F01F0023FA00F0044A08
:103F68001060044A136008BD00440258788E0008A7
:103F78000C0000200800002008B5FFF7DBFF054B08
:103F8800DB69C3F30213044AD35C03F01F03D84070
:103F980008BD00BF00440258788E000808B5FFF736
:103FA800C9FF054BDB69C3F30223044AD35C03F062
:103FB8001F03D84008BD00BF00440258788E00088F
:103FC800404B9B6A03F00303032B79D070B5054679
:103FD8000E463C4A136823F08063136002F056F8DB
:103FE8000446384B1B6813F0006F06D002F04EF8F9
:103FF800031B022BF5D9032070BD324B9A6A22F4B9
:104008007C32296842EA01329A626A68013AC2F34C
:104018000802A9680139490289B20A43E9680139E5
:10402800090401F4FE010A4329690139090601F06E
:10403800FE410A439A63DA6A22F0C00269690A43B8
:10404800DA62DA6A22F02002A9690A43DA62DA6AD5
:1040580022F01002DA62D96B1B4A0A40E96942EA87
:10406800C102DA63DA6A42F01002DA62C6B91A46A5
:10407800DB6A43F40023D362124A136843F0806377
:10408800136002F003F804460E4B1B6813F0006F30
:1040980014D101F0FBFF001B0228F5D90320ABE780
:1040A800012E05D0074AD36A43F40013D362E3E72D
:1040B800044AD36A43F48013D362DDE700209BE708
:1040C80001207047004402580700FFFF404B9B6ADD
:1040D80003F00303032B79D070B505460E463C4A1E
:1040E800136823F08053136001F0D0FF0446384B67
:1040F8001B6813F0005F06D001F0C8FF031B022BFA
:10410800F5D9032070BD324B9A6A22F07C72296877
:1041180042EA01529A626A68013AC2F30802A9683F
:104128000139490289B20A43E9680139090401F4ED
:10413800FE010A4329690139090601F0FE410A43D3
:104148001A64DA6A22F4406269690A43DA62DA6A4E
:1041580022F40072A9690A43DA62DA6A22F48072E8
:10416800DA62596C1B4A0A40E96942EAC1025A6498
:10417800DA6A42F48072DA62C6B91A46DB6A43F434
:104188008003D362124A136843F08053136001F02E
:104198007DFF04460E4B1B6813F0005F14D101F03D
:1041A80075FF001B0228F5D90320ABE7012E05D0C7
:1041B800074AD36A43F08073D362E3E7044AD36AB9
:1041C80043F40003D362DDE700209BE7012070473A
:1041D800004402580700FFFFF8B50446036813F0CF
:1041E800006F30D0436EB3F5001F26D00ED8EBB168
:1041F800B3F5801F07D102210430FFF7E1FE054621
:1042080045B12E4621E0012635461EE0B3F5401F94
:1042180009D10025954A136D23F44013616E0B43B1
:104228001365002611E0012635460EE08F4AD36A51
:1042380043F40033D3620025ECE702212430FFF772
:1042480045FF0546DCE700263546236813F4807FE2
:1042580014D0636D042B30D8DFE803F0032228085C
:104268000800824AD36A43F40033D36245BB7F4ACD
:10427800136D23F00703616D0B431365236813F473
:10428800007F2FD0A36D802B49D01ED8002B40D0A3
:10429800402B17D10021201DFFF792FE054619E09B
:1042A8000021201DFFF78CFE0546DFE7002104F101
:1042B8002400FFF70BFF0546D8E701263546DDE762
:1042C8002E46DBE7012635460CE0C02B02D0B3F5BD
:1042D800807F1BD155BB654A136D23F4E073A16D34
:1042E8000B431365236813F4806F45D0D4F8A430CA
:1042F800B3F5800F38D01ED883B3B3F5001F17D19C
:104308000021201DFFF75CFE05461AE00126354610
:10431800E8E7564AD36A43F40033D362DAE7002168
:1043280004F12400FFF7D2FE0546D3E72E46D9E76D
:104338000126354620E0B3F5C00F02D0B3F5000FD3
:1043480009D1C5B9494A936D23F46003D4F8A41080
:104358000B43936510E0012635460DE0434AD36AC6
:1043680043F40033D362ECE7002104F12400FFF7A3
:10437800ADFE0546E5E72E46236813F4006F23D00B
:10438800D4F8A830B3F1007F41D00DD8002B38D035
:10439800B3F1807F05D10021201DFFF711FE0546EE
:1043A80008E0012635460FE0B3F1407F02D0B3F1B3
:1043B800806F23D1002D31D12C4A936D23F0E06317
:1043C800D4F8A8100B439365236813F0007F2ED010
:1043D800A36C202B3FD026D833B1102B20D1234AF1
:1043E800D36A43F40033D362002D3AD11F4AD36C09
:1043F80023F03003A16C0B43D36418E00126354643
:10440800E2E71A4AD36A43F40033D362D2E70021C1
:1044180004F12400FFF75AFE0546CBE72E46D3E702
:104428000126354603E0302BDED0012635462368C9
:1044380013F4805F2BD0E36DB3F5005F4CD017D831
:10444800002B43D0B3F5805F0DD10021201DFFF76D
:10445800B7FD054612E00221201DFFF7B1FD054614
:10446800C2E72E46E3E70126354610E0004402582D
:10447800B3F5405F02D0B3F5804F24D1002D32D17F
:10448800754A136D23F4E043E16D0B43136523680C
:1044980013F4005F37D0236EB3F5003F51D027D80F
:1044A8003BB1B3F5803F20D10121201DFFF788FDE6
:1044B8000546002D4CD1684A136D23F4E023216E84
:1044C8000B4313651FE001263546E0E7624AD36ACD
:1044D80043F40033D362D1E7002104F12400FFF74D
:1044E800F5FD0546CAE72E46D1E7012635460AE01E
:1044F800B3F5802FDDD0B3F5A02FDAD0B3F5403F68
:10450800D7D001263546236813F4804F30D0D4F82D
:10451800AC30B3F1005F44D01FD83BB1B3F1805F3A
:1045280018D10121201DFFF74BFD0546002D3FD175
:10453800494A936D23F0E043D4F8AC100B439365DC
:1045480016E0012104F12400FFF7C0FD0546B0E79D
:104558002E46D8E7012635460AE0B3F1804FE5D06C
:10456800B3F1A04FE2D0B3F1405FDFD0012635466A
:10457800236813F4004F09D0E36EB3F1805F19D0BC
:10458800B3F1005F24D0D3B101263546236813F078
:10459800807F32D0636C032B59D8DFE803F02621E3
:1045A8005226012104F12400FFF790FD0546BDE7DE
:1045B8002E46DDE7284AD36A43F40033D3626DB947
:1045C800254A136D23F04053E16E0B431365DDE775
:1045D8000121201DFFF7F4FC0546F0E72E46D5E73C
:1045E8001D4AD36A43F40033D3629DBB1A4AD36C85
:1045F80023F00303616C0B43D364236813F4800F27
:104608002CD1236813F0010F00F0A380A36F282B8F
:1046180000F29D80DFE803F08B9B9B9B9B9B9B9B01
:10462800869B9B9B9B9B9B9B949B9B9B9B9B9B9BEE
:104638008B9B9B9B9B9B9B9B8B9B9B9B9B9B9B9BE2
:104648008B000221201DFFF7BBFC0546CDE70126A4
:104658003546D2E72E46D0E7004402588F4A136801
:1046680043F48073136001F011FD07468B4B1B6800
:1046780013F4807F05D101F009FDC01B6428F5D92A
:104688000325002D4AD1864B1B6FD4F8B020534028
:1046980013F4407F0CD0824B1A6F22F44072196FCA
:1046A80041F480311967196F21F4803119671A674D
:1046B800D4F8B030B3F5807F15D08DBBD4F8B030C6
:1046C80003F44072B2F5407F1ED0754A136923F493
:1046D8007C53136172490B6FD4F8B020C2F30B02FC
:1046E80013430B678DE701F0D1FC07466C4B1B6F3A
:1046F80013F0020FE1D101F0C9FCC01B41F288336D
:104708009842F3D90325D8E76548026922F47C5218
:10471800644901EA131313430361DBE72E4670E78C
:104728002E466EE70121201DFFF74AFC0546E5B934
:104738005B4A536D23F03803A16F0B43536508E0C0
:10474800012104F12400FFF7C1FC0546EFE701262B
:104758003546236813F0020F16D0636F052B27D850
:10476800DFE803F00A051F0A0A0A2E46F1E70121CD
:10477800201DFFF725FC0546EDB9494A536D23F086
:104788000703616F0B435365236813F0040F22D0AE
:10479800D4F89030052B43D8DFE803F0140F3B140E
:1047A8001414012104F12400FFF790FC0546E3E707
:1047B80001263546E8E72E46E6E70121201DFFF7EA
:1047C800FFFB05467DBB364A936D23F00703D4F8FB
:1047D80090100B439365236813F0200F33D0D4F85F
:1047E8008C30B3F1005F4CD022D83BB1B3F1805F7D
:1047F8001BD10021201DFFF7E3FB0546002D47D103
:10480800274A536D23F0E043D4F88C100B435365CB
:1048180019E0012104F12400FFF758FC0546D1E70F
:1048280001263546D7E72E46D5E7012635460AE064
:10483800B3F1804FE2D0B3F1A04FDFD0B3F1405FC6
:10484800DCD001263546236813F0400F37D0D4F862
:104858009830B3F5006F52D026D83BB1B3F5806FCE
:1048680018D10021201DFFF7ABFB0546002D4DD1C7
:104878000B4A936D23F4E053D4F898100B439365D7
:104888001DE0022104F12400FFF720FC0546B5E7EE
:104898002E46D8E70126354611E000BF00480258E9
:1048A80000440258CFFFFF00B3F5805FDED0B3F5B8
:1048B800A05FDBD0B3F5406FD8D00126354623681A
:1048C80013F0800F32D0D4F89C30B3F5804F00F04D
:1048D8009D8020D83BB1B3F5005F19D10021201D80
:1048E800FFF76EFB0546002D40F09780A54A936DB3
:1048F80023F46043D4F89C100B43936516E002211F
:1049080004F12400FFF7E2FB0546AFE72E46D6E7A1
:10491800012635460AE0B3F5004FE4D0B3F5204F41
:10492800E1D0B3F5C04FDED001263546236813F039
:10493800080F0CD0D4F88030B3F5805F6FD0914A5F
:10494800536D23F44053D4F880100B435365236808
:1049580013F0100F0CD0D4F89430B3F5807F67D0E3
:10496800884A936D23F44073D4F894100B439365ED
:10497800236813F4002F0BD0D4F8A030B3F5803F90
:104988006ED0B3F5003F61D0002B5AD001263546D2
:10499800236813F4802F0CD0D4F88430B3F5001FAB
:1049A80076D0B3F5401F69D0B3F5801F61D00126DA
:1049B8003546236813F4803F07D0E36C002B70D092
:1049C800B3F5803F7BD001263546236813F0005F9E
:1049D8007DD1236813F4003F00F08680E36FB3F5C0
:1049E800807F00F0C6807CD9B3F5007F03D0B3F593
:1049F800407F40F0BC80002D40F0C180614A536D7B
:104A080023F44073E16F0B4353656DE0022104F119
:104A18002400FFF75BFB054665E72E4686E7022183
:104A280004F12400FFF752FB002888D0012686E70E
:104A3800022104F12400FFF749FB002890D0012649
:104A48008EE70021201DFFF7BBFA05467DB94D4AC8
:104A5800936D23F44033D4F8A0100B43936597E784
:104A6800022104F12400FFF731FB0546EEE72E464C
:104A78008EE7444AD36A43F40033D3627DB9414A8E
:104A8800536D23F44013D4F884100B43536590E717
:104A9800012104F12400FFF719FB0546EEE72E4635
:104AA80087E7384AD36A43F40033D3626DB9354A8D
:104AB800D36C23F48033E16C0B43D36485E7022184
:104AC800201DFFF77DFA0546F0E72E467DE7022117
:104AD80004F12400FFF7FAFA00283FF47AAF012620
:104AE80077E7002B87D00126236813F4801F06D0B0
:104AF800244A136D23F00043216F0B431365236889
:104B080013F0805F07D01F4A136923F48043D4F859
:104B1800B4100B431361236813F4001F06D0194A1D
:104B2800136D23F08073A16E0B431365236813F094
:104B3800804F09D0134B1A6922F400421A611A698E
:104B4800D4F8B8100A431A612368002B1CDB2368C9
:104B580013F4000F07D00B4A536D23F44003D4F825
:104B680088100B43536506B101263046F8BD01266F
:104B7800BAE7044AD36A43F40033D3623BE72E46CC
:104B8800B2E700BF00440258034AD36C23F04053F5
:104B9800216D0B43D364DAE70044025808B5FFF7E8
:104BA800C9F9054B1B6AC3F30213044AD35C03F02B
:104BB8001F03D84008BD00BF00440258788E000883
:104BC80010B5774A916A946AC4F3053ED36AC3F371
:104BD800001CD36BC3F3CC030CFB03F314F47C3F2E
:104BE80000F0D88001F0030107EE903AF8EE677AFA
:104BF800012965D0022900F0B080E1B107EE10EA82
:104C0800B8EE477A9FED676AC6EE076A644B9B6BFE
:104C1800C3F3080307EE103AB8EE477A9FED626ACD
:104C280067EE867A77EE277AB7EE007A77EE877A9C
:104C380066EEA76A60E0136813F0200F23D01146D0
:104C48001268C2F3C102594BD34007EE103AB8EECE
:104C5800477A06EE90EAB8EE666AC7EE066A8B6B8C
:104C6800C3F3080307EE103AB8EE477A9FED4E6A91
:104C780067EE867A77EE277AB7EE007A77EE877A4C
:104C880066EEA76A38E007EE10EAB8EE477A9FEDBD
:104C9800486AC6EE076A424B9B6BC3F3080307EEEC
:104CA800103AB8EE477A9FED406A67EE867A77EE5B
:104CB800277AB7EE007A77EE877A66EEA76A1BE066
:104CC80007EE10EAB8EE477A9FED366AC6EE076A35
:104CD800334B9B6BC3F3080307EE103AB8EE477AE1
:104CE8009FED316A67EE867A77EE277AB7EE007A1B
:104CF80077EE877A66EEA76A294A936BC3F3462351
:104D080007EE103AB8EE477AB7EE006A37EE067A41
:104D1800C6EE877AFCEEE77AC0ED007A936BC3F3B0
:104D2800064307EE103AB8EE477A37EE067AC6EE33
:104D3800877AFCEEE77AC0ED017A936BC3F30663DA
:104D480007EE903AF8EE677A77EE867A86EEA77ADB
:104D5800BCEEC77A80ED027A10BD07EE10EAB8EE15
:104D6800477A9FED146AC6EE076A0D4B9B6BC3F337
:104D7800080307EE103AB8EE477A9FED0B6A67EE24
:104D8800867A77EE277AB7EE007A77EE877A66EE3C
:104D9800A76AB1E70023036043608360DCE700BFD4
:104DA800004402580024744A000000390090D003DF
:104DB8000024744C20BCBE4B10B5774A916A946AA3
:104DC800C4F3055ED36AC3F3002C536CC3F3CC035E
:104DD8000CFB03F314F07C7F00F0D88001F0030192
:104DE80007EE903AF8EE677A012965D0022900F0BB
:104DF800B080E1B107EE10EAB8EE477A9FED676A36
:104E0800C6EE076A644B1B6CC3F3080307EE103A3F
:104E1800B8EE477A9FED626A67EE867A77EE277A70
:104E2800B7EE007A77EE877A66EEA76A60E01368D5
:104E380013F0200F23D011461268C2F3C102594B58
:104E4800D34007EE103AB8EE477A06EE90EAB8EE8D
:104E5800666AC7EE066A0B6CC3F3080307EE103ADE
:104E6800B8EE477A9FED4E6A67EE867A77EE277A34
:104E7800B7EE007A77EE877A66EEA76A38E007EE33
:104E880010EAB8EE477A9FED486AC6EE076A424BC9
:104E98001B6CC3F3080307EE103AB8EE477A9FED90
:104EA800406A67EE867A77EE277AB7EE007A77EE71
:104EB800877A66EEA76A1BE007EE10EAB8EE477A33
:104EC8009FED366AC6EE076A334B1B6CC3F30803C3
:104ED80007EE103AB8EE477A9FED316A67EE867AA8
:104EE80077EE277AB7EE007A77EE877A66EEA76ACA
:104EF800294A136CC3F3462307EE103AB8EE477AF3
:104F0800B7EE006A37EE067AC6EE877AFCEEE77AE5
:104F1800C0ED007A136CC3F3064307EE103AB8EEFF
:104F2800477A37EE067AC6EE877AFCEEE77AC0ED66
:104F3800017A136CC3F3066307EE903AF8EE677ACA
:104F480077EE867A86EEA77ABCEEC77A80ED027A8B
:104F580010BD07EE10EAB8EE477A9FED146AC6EE68
:104F6800076A0D4B1B6CC3F3080307EE103AB8EE43
:104F7800477A9FED0B6A67EE867A77EE277AB7EE67
:104F8800007A77EE877A66EEA76AB1E700230360B6
:104F980043608360DCE700BF004402580024744A81
:104FA800000000390090D0030024744C20BCBE4B94
:104FB80010B5774A916A946AC4F3051ED36A03F060
:104FC800010C536BC3F3CC030CFB03F314F47C7F89
:104FD80000F0D88001F0030107EE903AF8EE677A06
:104FE800012965D0022900F0B080E1B107EE10EA8E
:104FF800B8EE477A9FED676AC6EE076A644B1B6B8B
:10500800C3F3080307EE103AB8EE477A9FED626AD9
:1050180067EE867A77EE277AB7EE007A77EE877AA8
:1050280066EEA76A60E0136813F0200F23D01146DC
:105038001268C2F3C102594BD34007EE103AB8EEDA
:10504800477A06EE90EAB8EE666AC7EE066A0B6B18
:10505800C3F3080307EE103AB8EE477A9FED4E6A9D
:1050680067EE867A77EE277AB7EE007A77EE877A58
:1050780066EEA76A38E007EE10EAB8EE477A9FEDC9
:10508800456AC6EE076A424B1B6BC3F3080307EE7B
:10509800103AB8EE477A9FED406A67EE867A77EE67
:1050A800277AB7EE007A77EE877A66EEA76A1BE072
:1050B80007EE10EAB8EE477A9FED396AC6EE076A3E
:1050C800334B1B6BC3F3080307EE103AB8EE477A6D
:1050D8009FED316A67EE867A77EE277AB7EE007A27
:1050E80077EE877A66EEA76A294A136BC3F34623DD
:1050F80007EE103AB8EE477AB7EE006A37EE067A4E
:10510800C6EE877AFCEEE77AC0ED007A136BC3F33C
:10511800064307EE103AB8EE477A37EE067AC6EE3F
:10512800877AFCEEE77AC0ED017A136BC3F3066366
:1051380007EE903AF8EE677A77EE867A86EEA77AE7
:10514800BCEEC77A80ED027A10BD07EE10EAB8EE21
:10515800477A9FED146AC6EE076A0D4B1B6BC3F3C3
:10516800080307EE103AB8EE477A9FED0B6A67EE30
:10517800867A77EE277AB7EE007A77EE877A66EE48
:10518800A76AB1E70023036043608360DCE700BFE0
:10519800004402580024744C000000390090D003E9
:1051A8000024744A20BCBE4B00B58BB0B0F5807F9C
:1051B80020D0B0F5007F71D0B0F5806F00F0C880C6
:1051C800B0F5006F00F02181B0F5805F00F08281BA
:1051D800B0F5002F00F0DB81B0F5803F00F01F82B2
:1051E800B0F5804F00F03982B0F5004F00F08482AE
:1051F8000020B2E2954B1B6D03F00703042B00F26D
:10520800A382DFE803F005101B0326009048A4E200
:105218008E4B186810F0007000F09F8207A8FFF707
:10522800C7FE089899E2894B186810F0006000F0F2
:10523800948204A8FFF7C4FC04988EE2834B186894
:1052480010F0005000F0898201A8FFF7B5FD019821
:1052580083E27E4AD36C03F04053126812F0040FC5
:1052680007D033B9794B1B68C3F3C1037948D840D9
:1052780073E2764A126812F4807F03D0B3F1805F3C
:1052880000F06482714A126812F4003F00F06082F4
:10529800B3F1005F00F05E8200205EE26B4B1B6D95
:1052A80003F4E073802B33D015D9C02B00F054825F
:1052B800B3F5807F1FD1654AD36C03F04053126861
:1052C80012F0040F2FD073BB604B1B68C3F3C103EC
:1052D8006048D84041E283B1402B0AD15B4B186843
:1052E80010F0006000F0398204A8FFF769FC049808
:1052F80033E2002031E200202FE2544B186810F00E
:10530800007000F02A8207A8FFF752FE089824E2EE
:105318004E4B186810F0005000F01F8201A8FFF7EC
:105328004BFD019819E2494A126812F4807F03D0B4
:10533800B3F1805F00F01482444A126812F4003F0F
:1053480000F01082B3F1005F00F00E82002004E24A
:105358003E4B9B6D03F46003B3F5800F35D016D92F
:10536800B3F5C00F00F00282B3F5000F20D1374A21
:10537800D36C03F04053126812F0040F30D07BBB9B
:10538800324B1B68C3F3C1033248D840E5E18BB107
:10539800B3F5001F0AD12D4B186810F0006000F01B
:1053A800DC8104A8FFF70CFC0498D6E10020D4E1C6
:1053B8000020D2E1254B186810F0007000F0CD8174
:1053C80007A8FFF7F5FD0898C7E1204B186810F00B
:1053D800005000F0C28101A8FFF7EEFC0198BCE183
:1053E8001A4A126812F4807F03D0B3F1805F00F08C
:1053F800BF81164A126812F4003F00F0BB81B3F176
:10540800005F00F0B9810020A7E1104B9B6D03F00D
:10541800E063B3F1007F3DD01ED9B3F1407F00F0C7
:10542800AD81B3F1806F28D1084AD36C03F04053A3
:10543800126812F0040F38D0002B36D1034B1B68CA
:10544800C3F3C1030348D84087E100BF00440258B2
:105458000080BB000090D0038BB1B3F1807F0AD1EC
:10546800994B186810F0006000F0778104A8FFF7E6
:10547800A7FB049871E100206FE100206DE1924BD9
:10548800186810F0007000F0688107A8FFF790FD19
:10549800089862E18C4B186810F0005000F05D81AC
:1054A80001A8FFF789FC019857E1874A126812F4AE
:1054B800807F03D0B3F1805F00F06281824A126876
:1054C80012F4003F00F05E81B3F1005F00F05C81F0
:1054D800002042E17C4B1B6D03F4E043B3F5005F11
:1054E80035D016D9B3F5405F00F05081B3F5804F41
:1054F80020D1754AD36C03F04053126812F0040FA0
:1055080030D07BBB704B1B68C3F3C1036F48D840D6
:1055180023E18BB1B3F5805F0AD16B4B186810F0AB
:10552800006000F01A8104A8FFF74AFB049814E110
:10553800002012E1002010E1634B186810F00070A1
:1055480000F00B8107A8FFF733FD089805E15E4BD3
:10555800186810F0005000F0008101A8FFF72CFC3B
:105568000198FAE0584A126812F4807F03D0B3F128
:10557800805F00F00D81544A126812F4003F00F079
:105588000981B3F1005F00F007810020E5E04E4B90
:105598009B6D03F44033B3F5803F10D0B3F5003F63
:1055A80018D00BB10020D8E0474B186810F0006005
:1055B80000F0D38004A8FFF703FB0498CDE0424B2A
:1055C800186810F0005000F0C88001A8FFF7F4FB3D
:1055D8000398C2E03C4AD36C03F04053126812F0BF
:1055E800040F07D033B9384B1B68C3F3C1033748DE
:1055F800D840B2E0344A126812F4807F03D0B3F185
:10560800805F00F0CB80304A126812F4003F00F04F
:10561800C780B3F1005F00F0C58000209DE02A4BF1
:10562800DB6C13F4803302D063B9002095E0264B7D
:10563800186810F0007000F0908007A8FFF7B8FC19
:1056480008988AE0204B186810F0006000F0858008
:1056580004A8FFF7B5FA06987FE01B4B9B6D03F093
:10566800E043B3F1405F35D015D8B3F1805F21D066
:10567800B3F1005F09D1144B186810F000506CD0DA
:1056880001A8FFF799FB029867E013B9FFF786FABC
:1056980063E0002061E0B3F1804F26D0B3F1A04F62
:1056A80006D1094B186810F4003056D0084854E069
:1056B800002052E0044B186810F000604DD004A898
:1056C800FFF77EFA059848E0004402580090D0039E
:1056D80040787D01344B186810F004003DD01B68F9
:1056E800C3F3C1033148D84037E02F4B186810F492
:1056F800807032D02E4830E02B4B1B6D03F04053A6
:10570800B3F1805F0CD0B3F1005F13D00BB1002070
:1057180023E0254B186810F400301ED025481CE003
:10572800214B186810F0007017D007A8FFF740FC4D
:10573800089812E01C4B186810F000600DD004A8FF
:10574800FFF73EFA059808E0002006E0184804E054
:10575800002002E0174800E017480BB05DF804FB92
:105768001348FAE70020F8E71248F6E71248F4E78A
:105778000F48F2E70020F0E70E48EEE70E48ECE7A6
:105788000B48EAE70020E8E70A48E6E70A48E4E7C2
:105798000748E2E70020E0E70648DEE70448DCE7E0
:1057A8000020DAE70348D8E7004402580090D00305
:1057B80000093D0040787D010080BB00F0B583B052
:1057C800002340E0092400E00024B44044EA0C042B
:1057D8000235764E46F825404FF0B044D4F8805054
:1057E800D44325EA02064F6817F4803F01D042EA05
:1057F80005064FF0B045C5F88060D5F8845004EA36
:1058080005064F6817F4003F01D042EA05064FF03D
:10581800B045C5F884602D6804EA05064F6817F49A
:10582800801F01D042EA05064FF0B0452E606D6832
:105838002C404E6816F4001F01D042EA05044FF0D0
:10584800B042546001330A6832FA03F400F0AB80C6
:105858004FF0010C0CFA03FC1CEA0202F2D04C686F
:10586800651E112C18BF012D01D9122C13D1856882
:105878005E000324B44025EA0405CC68B4402C43F8
:105888008460446824EA0C0C4C68C4F300149C40FF
:1058980044EA0C044460C6684FEA430C032505FA41
:1058A8000CF5EC4326EA050E8D6805FA0CF545EA79
:1058B8000E05C5604D68122D18BF022D12D1DE08E5
:1058C800083650F8267003F007054FEA850E0F25B5
:1058D80005FA0EF527EA05070D6905FA0EF53D43A9
:1058E80040F82650056825404C6804F0030404FA83
:1058F8000CF42C4304604C6814F0805FA2D02C4C4C
:10590800D4F8F45045F00205C4F8F450D4F8F44043
:1059180004F002040194019C9D08AE1C234C54F829
:10592800267003F00304A6000F24B44027EA040CF1
:10593800204CA0423FF448AF04F58064A04222D036
:1059480004F58064A04220D004F58064A0421ED0F3
:1059580004F58064A0421CD004F58064A0421AD0EB
:1059680004F58064A04218D004F58064A04216D0E3
:1059780004F58064A04214D004F58064A0423FF48A
:1059880021AF0A2421E701241FE702241DE703248D
:105998001BE7042419E7052417E7062415E707245D
:1059A80013E7082411E703B0F0BD00BF0004005856
:1059B80000440258000002580AB181617047090486
:1059C8008161704770B5044600F060FB002C00F060
:1059D8009181054694F83530DBB2022B06D080233E
:1059E8006365002384F83430012070BD23688C4936
:1059F8008C4A934218BF8B4230D0183293422DD034
:105A0800183293422AD01832934227D01832934240
:105A180024D01832934221D0183293421ED002F576
:105A2800567293421AD01832934217D018329342C2
:105A380014D01832934211D0183293420ED0183233
:105A480093420BD01832934208D01832934205D0B3
:105A58001A6822F00E021A60266809E01A6822F015
:105A68001E021A602268536923F080035361266876
:105A780023686B496B4A934218BF8B4242D0183255
:105A880093423FD0183293423CD01832934239D0D7
:105A98001832934236D01832934233D01832934298
:105AA80030D002F5567293422CD01832934229D046
:105AB8001832934226D01832934223D01832934298
:105AC80020D0183293421DD0183293421AD018327F
