:020000040800F2
:1000000000000220E95D0008110D0008130D000832
:10001000150D0008170D0008190D0008000000005C
:100020000000000000000000000000001B0D0008A0
:100030001D0D0008000000001F0D0008B56100083C
:10004000335E0008395E00083F5E0008455E000828
:100050004B5E0008515E0008575E00085D5E0008B8
:10006000635E0008695E00086F5E0008755E000848
:100070007B5E0008815E0008875E00088D5E0008D8
:10008000935E0008995E00089F5E0008A55E000868
:10009000AB5E0008B15E0008B75E0008BD5E0008F8
:1000A000C35E0008C95E0008CF5E0008D55E000888
:1000B000DB5E0008E15E0008E75E0008ED5E000818
:1000C000F35E0008F95E0008FF5E0008055F0008A7
:1000D0000B5F0008115F0008175F00081D5F000834
:1000E000235F0008295F0008000000002F5F000860
:1000F000355F00083B5F0008415F0008475F00086C
:100100004D5F0008535F0008595F00085F5F0008FB
:10011000655F00086B5F0008715F0008775F00088B
:100120007D5F0008835F0008895F00088F5F00081B
:10013000955F00089B5F0008A15F0008A75F0008AB
:1001400000000000000000000000000000000000AF
:10015000AD5F0008B35F0008B95F0008BF5F00082B
:10016000C55F0008CB5F0008D15F0008D75F0008BB
:10017000DD5F0008E35F0008E95F000800000000A1
:10018000EF5F0008F55F0008FB5F000801600008F2
:10019000076000080D60000813600008196000087F
:1001A0001F600008256000082B600008316000080F
:1001B000376000083D60000843600008496000089F
:1001C0004F600008556000085B600008616000082F
:1001D000676000086D6000087360000879600008BF
:1001E0007F600008856000088B600008916000084F
:1001F000976000089D600008A3600008A9600008DF
:10020000AF600008B5600008BB600008C16000086E
:10021000756100088D610008A5610008C7600008CD
:10022000CD600008D3600008D9600008000000001D
:10023000DF600008E560000800000000EB600008D7
:10024000F1600008F7600008FD6000080361000825
:10025000096100080F610008156100081B610008B2
:1002600021610008276100082D6100083361000842
:10027000396100083F610008456100080000000086
:100280004B61000851610008576100080000000040
:08029000000000005D610008A0
:1002980010B5054C237833B9044B13B10448AFF3B8
:1002A80000800123237010BD100000200000000012
:1002B8001462000808B5034B1BB103490348AFF3A8
:1002C800008008BD0000000014000020146200082F
:1002D80053B94AB9002908BF00281CBF4FF0FF31A5
:1002E8004FF0FF3000F074B9ADF1080C6DE904CEA1
:1002F80000F006F8DDF804E0DDE9022304B07047F9
:100308002DE9F047089D04468E46002B4DD18A42C0
:10031800944669D9B2FA82F252B101FA02F3C2F1F3
:10032800200120FA01F10CFA02FC41EA030E944084
:100338004FEA1C48210CBEFBF8F61FFA8CF708FBA5
:1003480016E341EA034306FB07F199420AD91CEB7D
:10035800030306F1FF3080F01F81994240F21C81AF
:10036800023E63445B1AA4B2B3FBF8F008FB1033F7
:1003780044EA034400FB07F7A7420AD91CEB04042C
:1003880000F1FF3380F00A81A74240F207816444FC
:10039800023840EA0640E41B00261DB1D440002381
:1003A800C5E900433146BDE8F0878B4209D9002DE5
:1003B80000F0EF800026C5E9000130463146BDE86F
:1003C800F087B3FA83F6002E4AD18B4202D38242D9
:1003D80000F2F980841A61EB030301209E46002D88
:1003E800E0D0C5E9004EDDE702B9FFDEB2FA82F2DD
:1003F800002A40F09280A1EB0C014FEA1C471FFA3B
:100408008CFE0126200CB1FBF7F307FB131140EA21
:1004180001410EFB03F0884208D91CEB010103F1EE
:10042800FF3802D2884200F2CB804346091AA4B2B0
:10043800B1FBF7F007FB101144EA01440EFB00FE84
:10044800A64508D91CEB040400F1FF3102D2A645E9
:1004580000F2BB800846A4EB0E0440EA03409CE788
:10046800C6F12007B34022FA07FC4CEA030C20FA35
:1004780007F401FA06F31C43F9404FEA1C4900FA55
:1004880006F3B1FBF9F8200C1FFA8CFE09FB1811D2
:1004980040EA014108FB0EF0884202FA06F20BD945
:1004A8001CEB010108F1FF3A80F08880884240F295
:1004B8008580A8F102086144091AA4B2B1FBF9F0D9
:1004C80009FB101144EA014100FB0EFE8E4508D9D4
:1004D8001CEB010100F1FF346CD28E456AD9023859
:1004E800614440EA0840A0FB0294A1EB0E01A1423E
:1004F800C846A64656D353D05DB1B3EB080261EBAC
:100508000E0101FA07F722FA06F3F1401F43C5E985
:10051800007100263146BDE8F087C2F12003D840BB
:100528000CFA02FC21FA03F3914001434FEA1C47FD
:100538001FFA8CFEB3FBF7F007FB10360B0C43EAEF
:10054800064300FB0EF69E4204FA02F408D91CEB9F
:10055800030300F1FF382FD29E422DD9023863449D
:100568009B1B89B2B3FBF7F607FB163341EA03413D
:1005780006FB0EF38B4208D91CEB010106F1FF388C
:1005880016D28B4214D9023E6144C91A46EA004683
:1005980038E72E46284605E70646E3E61846F8E615
:1005A8004B45A9D2B9EB020864EB0C0E0138A3E75E
:1005B8004646EAE7204694E74046D1E7D0467BE73F
:1005C800023B614432E7304609E76444023842E7B7
:1005D800704700BF2DE9F0438BB0002405940694C2
:1005E800079408940994404BD3F8E02042F48072B1
:1005F800C3F8E020D3F8E02002F480720092009A59
:10060800D3F8E02042F02002C3F8E020D3F8E0203D
:1006180002F020020192019AD3F8E02042F0010290
:10062800C3F8E020D3F8E02002F001020292029A17
:10063800D3F8E02042F08002C3F8E020D3F8E020AD
:1006480002F080020392039AD3F8E02042F00202FB
:10065800C3F8E020D3F8E03003F002030493049BCE
:10066800DFF8909022464FF48071484604F03AF83B
:10067800DFF8848022460F21404604F033F81B4FF0
:1006880022461021384604F02DF8194E2246C02182
:10069800304604F027F84FF480730593012506953A
:1006A8000794089405A9484603F00CFF0F23059307
:1006B80006950794089405A9404603F003FF102304
:1006C800059306950794089405A9384603F0FAFEA1
:1006D800C023059306950794089405A9304603F0AE
:1006E800F1FE0BB0BDE8F08300440258001C02582C
:1006F80000040258002002580014025872B6FEE79F
:1007080010B592B000240B940C940D940E940F9491
:10071800109411942C222146684605F06FFD1D485F
:100728001D4B0360EF234360846040F2E733C360EE
:1007380004614461846104F0F7FB10BB154804F0C0
:1007480023FC00BB00220B920C920D920E920F928A
:10075800109211920BA90F4804F090FCA8B900233D
:10076800009301930293039304934FF4005205926C
:1007780006930A936946074804F0B6FD38B912B0E3
:1007880010BDFFF7BBFFFFF7B9FFFFF7B7FFFFF794
:10079800B5FF00BF8C0100200048014010B592B0A1
:1007A80000240B940C940D940E940F9410941194AF
:1007B8002C222146684605F021FD1C481C4B03608D
:1007C8001723436084600923C36004614461846122
:1007D80004F0AAFB10BB154804F0D6FB00BB0022AE
:1007E8000B920C920D920E920F92109211920BA9ED
:1007F8000E4804F043FCA8B9002300930193029328
:10080800039304934FF40052059206930A936946A2
:10081800064804F069FD38B912B010BDFFF76EFF45
:10082800FFF76CFFFFF76AFFFFF768FF4001002042
:100838000044014000B589B0002304930593069352
:1008480007930193029303931348144A0260EF221B
:100858004260836042F20F72C26003614361836148
:1008680004F062FB90B94FF48053049304A90A483A
:1008780004F04EFC60B900230193039301A90648D4
:1008880004F0E2FC30B909B05DF804FBFFF736FF6D
:10089800FFF734FFFFF732FFF4000020004001406B
:1008A80000B589B000230193029303930493059341
:1008B800069307931E481F4A026083600122C260A4
:1008C8000421016103754375022181610277026287
:1008D80043628362C3620363436380F8383001F084
:1008E8004BFAF8B9144B01930623029300230393A0
:1008F80040F2FF7204920422059206938DF81D308F
:100908000DEB02010A4800F01FFE68B90B4B01937A
:100918000C23029301A9064800F016FE30B909B06D
:100928005DF804FBFFF7EAFEFFF7E8FEFFF7E6FED7
:100938009000002000600258000084CB000052C7DD
:1009480000B58BB000230793089309930093019394
:10095800029303930493059306932348234A026062
:10096800436083600122C2600421016103754375FD
:10097800022181610277026243628362C362036378
:10098800436380F8383001F0F7F928BB0023079358
:1009980007A9154801F022FB00BB154B009306235D
:1009A80001930023029340F2FF72039204220492FF
:1009B80005938DF8193069460B4800F0C5FD78B9E4
:1009C8000C4B00930C2301936946074800F0BCFDCB
:1009D80040B90BB05DF804FBFFF790FEFFF78EFE01
:1009E800FFF78CFEFFF78AFE2C0000200020024053
:1009F800400020198000501D08B51548154B0360AC
:100A08004FF4E133436000238360C36003610C2229
:100A180042618361C36103624362836205F0B7F890
:100A280070B900210A4805F02AF958B90021084888
:100A380005F04AF940B9064805F002F930B908BD91
:100A4800FFF75CFEFFF75AFEFFF758FEFFF756FE6A
:100A580068020020004C004008B51548154B03609B
:100A68004FF4E133436000238360C36003610C22C9
:100A780042618361C36103624362836205F087F860
:100A880070B900210A4805F0FAF858B90021084859
:100A980005F01AF940B9064805F0D2F830B908BD92
:100AA800FFF72CFEFFF72AFEFFF728FEFFF726FECA
:100AB800D80100200010014000B59FB04C22002151
:100AC8000BA805F09BFB2022002103A805F096FB4C
:100AD800022003F00DFE002300933D4BDA6A22F05A
:100AE8000102DA62DB6A03F001030093394B9A6969
:100AF80042F440429A619B6903F440430093009B8F
:100B0800344B9B6913F4005FFAD0334BD3F8F420CD
:100B180042F00202C3F8F420D3F8F43003F00203E1
:100B28000193019B002302932A4B9A6942F44042A5
:100B38009A619B6903F440430293254BDA6A42F0B9
:100B48000102DA62DB6A03F001030293029B214B84
:100B58009B6913F4005FFAD01F4A936A23F00303DA
:100B680043F00103936210230B93802312932023F5
:100B7800139302231493012215921692F0221792CE
:100B8800189319931A9308231B9300231C931D93FE
:100B98000BA801F0D5FAB0B93F23039303230493BC
:100BA80000230593082306934023079308934FF4E3
:100BB800806209920A93042103A801F0F5FE20B986
:100BC8001FB05DF804FBFFF799FDFFF797FD00BF25
:100BD80000040058004802580044025800B5B1B05B
:100BE800BC22002101A805F009FB4FF40023019362
:100BF8000123029325230393022304930593069369
:100C080080230793202308934FF48053099301A866
:100C180002F066F910B931B05DF804FBFFF76EFD1C
:100C280008B5354B5B6913F4003F13D1BFF34F8F01
:100C3800BFF36F8F304B0022C3F85022BFF34F8FA2
:100C4800BFF36F8F5A6942F400325A61BFF34F8F76
:100C5800BFF36F8F284B5B6913F4803F27D1264B76
:100C68000022C3F88420BFF34F8FD3F88040C4F329
:100C78004E3000E01846C4F3C90243F6E07303EAB5
:100C8800401343EA82731C49C1F860321346013AA3
:100C9800002BF2D1431E0028ECD1BFF34F8F4B69D4
:100CA80043F480334B61BFF34F8FBFF36F8F03F073
:100CB800DBFDFFF701FFFFF791FFFFF78BFCFFF765
:100CC8001FFDFFF76BFDFFF7B5FDFFF7E9FDFFF728
:100CD80037FEFFF791FEFFF7BFFE084803F088FFD5
:100CE800074803F085FF074803F082FF00F08BF9FF
:100CF80000F002FAFCE700BF00ED00E0F40000207D
:100D0800400100208C010020FEE7FEE7FEE7FEE739
:100D1800FEE770477047704710B5044602680A4BF3
:100D28009A4208D02268094B9A4207D02268084B99
:100D38009A4206D010BD00F033FAF3E700F064F9E8
:100D4800F4E700F0FDF9F5E70040014000440140F8
:100D58000048014082B0074BD3F8F42042F0020269
:100D6800C3F8F420D3F8F43003F002030193019B95
:100D780002B070470044025810B58AB000230593AA
:100D880006930793089309930368274A934204D06C
:100D9800264A934239D00AB010BD254BD3F8D82043
:100DA80042F02002C3F8D820D3F8D82002F020025D
:100DB8000192019AD3F8E02042F00102C3F8E02042
:100DC800D3F8E02002F001020292029AD3F8E02060
:100DD80042F02002C3F8E020D3F8E03003F020030B
:100DE8000393039B802305930324069405A91148C4
:100DF80003F068FB4FF48053059306940023079390
:100E080005A90D4803F05EFBC5E7094BD3F8E020C0
:100E180042F08072C3F8E020D3F8E03003F080732A
:100E28000493049BB7E700BF00200240006002580B
:100E380000440258000002580014025800B585B05A
:100E48000368274A934208D0264A93421BD0264A71
:100E580093422ED005B05DF804FB244BD3F8F02064
:100E680042F48032C3F8F020D3F8F03003F4803332
:100E78000193019B00220E21742003F075FC74205D
:100E880003F0A8FCE6E7194BD3F8F02042F400324F
:100E9800C3F8F020D3F8F03003F400330293029B38
:100EA80000220C21752003F05FFC752003F092FCF2
:100EB800D0E70E4BD3F8F02042F48022C3F8F0209C
:100EC800D3F8F03003F480230393039B00220D2111
:100ED800762003F049FC762003F07CFCBAE700BFDB
:100EE80000400140004401400048014000440258CD
:100EF80010B5B8B00446002133913491359136913C
:100F08003791BC2204A805F079F92368344A934242
:100F180004D0344A934231D038B010BD0223049330
:100F280004A801F0DDFF30BB2F4BD3F8E82042F4D2
:100F38000022C3F8E820D3F8E82002F40022009247
:100F4800009AD3F8E02042F00102C3F8E020D3F879
:100F5800E03003F001030193019B03233393022242
:100F680034920022359236930823379333A91F48C9
:100F780003F0A8FAD0E7FFF7C1FBD5E701230493F4
:100F880004A801F0ADFF40BB174BD3F8F02042F0A6
:100F98001002C3F8F020D3F8F02002F010020292F9
:100FA800029AD3F8E02042F00102C3F8E020D3F817
:100FB800E03003F001030393039B4FF4C0633393C2
:100FC800022334930023359303233693072337935F
:100FD80033A9064803F076FA9EE7FFF78FFBD3E7BD
:100FE800004C004000100140004402580000025824
:100FF800704708B500F0F2F808BD08B500F06AF9C6
:1010080000F0B2F908BD7047024A13680133136053
:10101800704700BFF8020020014B1868704700BFF6
:10102800F802002010B50446FFF7F6FF022C07D09F
:10103800032C08D0012C00D010BD044B1861FBE72D
:10104800024B9861F8E7014B1862F5E7F8020020B7
:1010580010B50446FFF7E0FF022C0FD0032C10D088
:10106800012C08D00023C31A022C11D0032C13D052
:10107800012C09D010BD0A4B1B69F4E7084B9B698A
:10108800F1E7074B1B6AEEE7054A53635061F1E746
:10109800034A9363D061EDE7014AD3635062E9E7FD
:1010A800F802002010B50446FFF7B6FF022C0FD057
:1010B800032C10D0012C08D00023C31A022C11D005
:1010C800032C13D0012C09D010BD0A4B9B6AF4E7FE
:1010D800084BDB6AF1E7074B1B6BEEE7054A136425
:1010E8009062F1E7034A5364D062EDE7014A9364E2
:1010F8001063E9E7F802002008B50F4B93F8563063
:10110800012B09D00420FFF78DFF0420FFF7A0FF73
:101118000420FFF7C7FF08BD074B084A1A660022DC
:1011280083F856200320FFF77DFF0320FFF790FF89
:101138000320FFF7B7FFEEE7F8020020F90F0008D9
:1011480008B5144B5A6801325A60012183F85410CB
:10115800114BA3FB02135B09642101FB132333B971
:101168000C4BDA680132DA60012283F85620094B09
:101178000A4A9A65002283F854200120FFF752FF9B
:10118800FFF737FF0120FFF763FF0120FFF78AFF12
:1011980008BD00BFF80200201F85EB51FB0F0008B7
:1011A80008B50C4B9A6801329A60012283F85520E1
:1011B800094ADA65002283F855200220FFF732FF3A
:1011C800FFF71BFF0220FFF743FF0220FFF76AFF2C
:1011D80008BD00BFF80200200310000810B5394A06
:1011E80013780133DBB21370642B02D91346002243
:1011F8001A70344B1B78192B1FD9A3F11A02D2B2DB
:10120800182A31D9333BDBB2182B44D82E4C002294
:101218004021204603F066FA00228021204603F090
:1012280061FA01221021294803F05CFA00224FF4E8
:101238008071274803F056FA15E0234C012240211B
:10124800204603F04FFA00228021204603F04AFA94
:10125800002210211D4803F045FA00224FF4807146
:101268001B4803F03FFA10BD174C002240212046CE
:1012780003F038FA01228021204603F033FA0022D5
:101288001021124803F02EFA00224FF48071104802
:1012980003F028FAE7E70C4C00224021204603F02F
:1012A80021FA00228021204603F01CFA0022102196
:1012B800064803F017FA01224FF48071044803F03E
:1012C80011FAD0E75C03002000040258001C025801
:1012D8000020025810B51E4C204600F013FC0A21CD
:1012E800204600F097F8D8B1194C204600F00AFCC7
:1012F8000A21204600F08EF8C0B1164C204600F0B6
:1013080001FC0A21204600F085F8A8B1114C2046BE
:1013180000F0F8FB0A21204600F07CF890B110BDDF
:10132800204600F00DF90C4B1860DDE7204600F070
:1013380007F90A4B1860E0E7204600F001F9084B6E
:101348001860E3E7204600F0FBF8064B1860E6E774
:101358002C0000209000002068030020700300206B
:1013680060030020780300201F4B93ED007AB8EE4D
:10137800477ADFED1E5A27EE257ADFED1D6A87EEE4
:10138800266ABCEEC66A1B4B83ED006A1A4BD3ED86
:10139800007AF8EE677A67EEA57A87EEA67ABCEE51
:1013A800C77A164B83ED007A154B93ED007AB8EEA9
:1013B800477ADFED145A27EE257A87EE266ABCEEC7
:1013C800C66A114B83ED006A104BD3ED007AF8EE34
:1013D800677A67EEA57A87EEA67ABCEEC77A0C4BD9
:1013E80083ED007A704700BF6803002000409C45E9
:1013F80000FF7F476C030020700300207403002067
:101408006003002000404E4564030020780300205C
:101418007C0300202DE9F04104460E460368454947
:10142800454A934218BF8B4213D102F50072976860
:1014380007F01F072569082D12D0052F18BF002FA8
:1014480009D0092F07D0936813F4404F2DD10425F4
:1014580006E03A4AEBE7DB6813F0010F1FD10425D9
:1014680003F03CFA804623681A682A4223D1B6F171
:10147800FF3FF8D003F032FAA0EB0800B04201D8E1
:10148800002EF0D123681B682B42ECD1636D43F02A
:1014980004036365002384F85030032045E0636D3E
:1014A80043F02003636501203FE0636D43F02003B0
:1014B8006365012039E0626D42F400726265DA68A2
:1014C80012F4406F11D1627D7AB91A6812F0080FD0
:1014D8000BD0626D22F480726265626D12F4805FD7
:1014E80003D1626D42F001026265134A93420CD047
:1014F8001A4693420CD0052F14BF002101213FB199
:1015080031B9092F04D0D26803E0A2F58072F0E760
:10151800DA68082D06D012F4804F08D10C221A6020
:10152800002002E008221A600020BDE8F0810020B7
:10153800FBE700BF00200240002102400063025880
:101548000368186C70470000F0B583B00022019260
:1015580090F85020012A00F055820346012280F8B5
:1015680050200068826812F0040F09D05A6D42F0CA
:1015780020025A650120002283F8502003B0F0BDF4
:101588000A68C2F31304002C4ED1C2F3846201240A
:101598009440C2692243C2611D684C683035220AF2
:1015A800920002F00C02A85804F01F0E1F2404FA3F
:1015B8000EF420EA04000C68C4F3846C0CFA0EFCE8
:1015C80040EA0C00A8501C68A26812F0040200D07F
:1015D8000122A06810F0080000D0012002432FD09B
:1015E8001868826812F0010F40F008820A68CD6816
:1015F800D0F8C040C2F3130624EA060405F0180C1C
:10160800B24D25FA0CF52A40C2F313022243C0F862
:10161800C020C868AE4A904200F0B0800A68002A2C
:10162800C0F26B810020A6E792FAA2F232B1B2FAB8
:1016380082F202F01F0201249440AAE72022F8E770
:101648000F688D681434780E800000F00400265866
:10165800C7F3045E4FF0070C0CFA0EFC26EA0C0CDC
:1016680005FA0EF54CEA050525509A48006800F081
:101678007040B0F1805F0BD01C68E06810F0100F6C
:1016880039D14869E468C4F382046400A04006E0E4
:1016980048691C68E468C4F382046400A0400D69CA
:1016A800042D36D01F680E68603757F8254004F0BF
:1016B800004406F0F8463043204347F825001868F0
:1016C8000E694C7E012C1ED01546603050F826401D
:1016D80024F000442C4340F826401D680C69087E1D
:1016E800012813D0286920F4F04004F01F04A24018
:1016F80002432A6174E74869E468A40804F0040412
:101708006400A040CBE74FF00045DEE74FF40062ED
:10171800E8E71868026E02F0F8420C68B2EB846FD2
:101728001DD01868426E02F0F8420C68B2EB846F64
:101738001AD01868826E02F0F8420C68B2EB846F17
:1017480017D01868C26E02F0F8420C68B2EB846FCA
:101758007FF446AFC26E22F00042C26640E7026ED6
:1017680022F000420266DCE7426E22F00042426646
:10177800DFE7826E22F000428266E2E71C680A68B0
:10178800C2F31305002D34D1900E013000F01F0074
:1017980009288CBF00200120002861D0002D37D1F6
:1017A800900E0130800600F0F840002D3CD1960ED6
:1017B800013606F01F070126BE403043002D41D1F7
:1017C800920E013202F01F0202EB4202120502439E
:1017D80088681434550EAD0005F004056659C2F347
:1017E80004520727974026EA070690403043605185
:1017F80014E792FAA2F048B1B0FA80F0013000F094
:101808001F0009288CBF00200120C5E72020F5E72C
:1018180092FAA2F030B1B0FA80F00130800600F000
:10182800F840C2E72020F8E792FAA2F646B1B6FAE5
:1018380086F6013606F01F06012707FA06F6BCE70A
:101848002026F6E792FAA2F242B1B2FA82F2013207
:1018580002F01F0202EB42021205B8E72022F6E767
:10186800CDB9900E0130800600F0F840FDB9960E13
:10187800013606F01F070126BE40304365BB920EB5
:10188800013202F01F0202EB42021E3A120542F038
:10189800007202439CE792FAA2F030B1B0FA80F0ED
:1018A8000130800600F0F840E0E72020F8E792FADF
:1018B800A2F646B1B6FA86F6013606F01F060127EB
:1018C80007FA06F6D9E72026F6E700BFFFFF0F0064
:1018D8000000FF470010005C92FAA2F25AB1B2FA77
:1018E80082F2013202F01F0202EB42021E3A120596
:1018F80042F00072CDE72022F3E719684248434CD2
:10190800A14218BF81420CBF0120002021D1404EC6
:10191800B56805F0E077F0B13B48806810F0010049
:1019280000D00120394CA46814F0010400D001242F
:1019380020430CBF01200020002859D0354882429E
:1019480012D03548824231D0344882423FD00020FC
:1019580011E6334EDCE73348806810F0010000D010
:10196800012080F00100E7E715F4000FE9D12D4AC6
:10197800914201D00020FEE547F40002B16821F051
:10198800E0710A43B260284A126892092749A1FB0C
:101998000212920901325200019202E0019A013AC0
:1019A8000192019A002AF9D10020E4E515F0807F20
:1019B800CAD11C4A914201D00020DCE547F0807270
:1019C800B16821F0E0710A43B2600020D3E515F454
:1019D800800F15D1134A914201D00020CBE547F47E
:1019E8008002B16821F0E0710A43B2600020C2E5CC
:1019F8005A6D42F020025A650120BCE50020BAE584
:101A08000020B8E50220B9E500200240002102408C
:101A180000230240000084CB000052C70000B8CF6A
:101A2800006302580060025808000020632D3E053C
:101A380038B503689A6812F0010F56D104469968C0
:101A48002B4A114209D0436D43F010034365836D5F
:101A580043F001038365012048E09968254A0A405C
:101A680042F001029A6002F039FF054623682249D4
:101A7800224A934218BF8B420DD102F50072926838
:101A880002F01F021D498B4207D01946994207D020
:101A980032B100202AE01A4AF1E7A1F58071F5E792
:101AA80023681A6812F0010F1DD19A6812F0010F0D
:101AB80005D199680F4A0A4042F001029A6002F083
:101AC8000DFF401B0228EBD923681B6813F0010F98
:101AD800E6D1636D43F010036365A36D43F0010322
:101AE800A365012002E0002000E0002038BD00BF0F
:101AF8003F000080C0FFFF7F00200240002102401D
:101B08000063025838B5044603683E493E4A93428A
:101B180018BF8B4252D102F50072956805F01F0577
:101B28009B6813F0040F69D194F85030012B67D0EB
:101B3800012384F850302046FFF77AFF002859D156
:101B4800626DA0F60273134043F4807363652368E3
:101B58002D4A934234D01A46934200D01DB9626D83
:101B680022F480126265626D12F4805F2BD0A26D40
:101B780022F00602A2651C221A60002384F8503065
:101B88002368214A934221D01A46934221D0052D39
:101B980014BF00210121E5B1D9B9092D19D0636D10
:101BA80043F480136365D36813F0007F27D0636D17
:101BB80023F4405343F48053636520E0134AACE7B1
:101BC800A2F58072C8E70022A265D4E7A2F5807268
:101BD800DBE7DA6812F0007F05D0626D22F440522C
:101BE80042F4805262659968094A0A4042F0040248
:101BF8009A6004E0002384F8503000E0022038BDE9
:101C08000220FCE700200240002102400063025845
:101C1800C0FFFF7F38B5044603684F494F4A9342D7
:101C280018BF8B4223D14E4B9B6813F4403F14BF1F
:101C3800012300234BB301F001F805466368B3F5AF
:101C4800003F1CD0B3F5403F1DD0B3F5803F16D000
:101C580002F04AFE41F20303984257D8414B9D4295
:101C68004ED92268936843F48073936038BD3E4B25
:101C78009B6813F4403F14BF01230023DAE71B0CD1
:101C8800B5FBF3F5E4E78508E2E74FF4002002F03E
:101C98000FF905466368B3F5101F2DD022D8B3F5A8
:101CA800E01F27D004D9B3F5001FD1D14509CFE7EC
:101CB800B3F5801F0DD006D9B3F5A01F09D0B3F531
:101CC800C01F06D0C4E7B3F5002F02D0B3F5402FEC
:101CD80004D19B0C5B00B5FBF3F5B9E7B3F5802F96
:101CE800F7D0B5E7B3F5201F08D0B3F5301FAFD153
:101CF800050AADE70509ABE78509A9E7C509A7E71F
:101D08002268936823F480739360AFE7174B9D4272
:101D180005D82268936823F440739360A6E7144BB0
:101D28009D4207D82268936823F4407343F4807374
:101D380093609BE70F4B9D4207D82268936823F472
:101D4800407343F40073936090E72268936843F408
:101D5800407393608AE700BF0020024000210240E0
:101D680000230240002D31010063025821BCBE004F
:101D780041787D0181F0FA0230B583B000230193E8
:101D8800002800F010810446436DEBB123689A687F
:101D980012F0005F03D09968844A0A409A60236869
:101DA8009A6812F0805F1CD19968814A0A4042F013
:101DB80080529A607F4B1B689B097F4AA2FB0323D2
:101DC8009B090133019309E0FEF7D6FF0023A365C1
:101DD80084F85030DAE7019B013B0193019B002B0B
:101DE800F9D12268936813F0805F40F09C80636D9E
:101DF80043F010036365A36D43F00103A365012558
:101E0800936813F0040300D00123616D11F0100FE3
:101E180040F0C180002B40F0BE80636D23F48173D5
:101E280043F002036365936813F0010F21D16349FE
:101E3800634B9A4218BF8A420CBF0122002274D118
:101E48008B6813F0010300D001235D49896811F004
:101E5800010100D001210B430CBF0123002343B132
:101E6800002A6BD0574963688A6822F47C121343AE
:101E78008B6002F039FD41F20303984202D9A3684E
:101E8800102B5DD0627D236B43EA4233A268134373
:101E9800227F43EA0243227F012A5CD0626A22B190
:101EA80002F47872A16A0A4313432168C868464A53
:101EB80002401343CB6021688B6813F0040300D001
:101EC80001238A6812F0080200D0012213431BD1B3
:101ED800227DE36A43EA8232C8683C4B03401343DD
:101EE800CB6094F83830012B3AD02268136923F07C
:101EF800010313612268136923F07043616B0B437C
:101F080013612046FFF786FEE368012B3AD022686A
:101F1800136B23F00F031363636D23F0030343F084
:101F2800010363653CE000256AE7294B9B6813F0D1
:101F3800010300D0012383F0010390E7254992E7CC
:101F4800617D226B42EA41321343227F43EA024316
:101F580043F00C039FE7226A013A43EA42439DE7B4
:101F6800206802691C4B1340E26B511E226C42EA46
:101F78000142616C0A43A16C0A43134343F0010315
:101F88000361B7E721680B6B23F00F03A269013ADD
:101F980013430B63C0E7636D43F0100363650125CA
:101FA800284603B030BD0125FAE700BFC0FFFF5F38
:101FB800C0FFFF6F08000020632D3E05002002408F
:101FC800002102400023024003C0F0FFFCBFFFFFD6
:101FD80000600258006302581EF800FC90F8502078
:101FE800012A00F0A18030B49AB00346012280F89B
:101FF800502000221692179200684C4A904242D014
:1020080000220192019A002A41D0926812F004023B
:1020180000D00122846814F0040F76D1002A74D10C
:10202800424C434A904218BFA04239D102F500728F
:10203800086800283FD0906820F440404C6820434E
:1020480090601868394D3A4CA04218BFA84229D16F
:10205800A86810F0010000D00120354CA46814F0E5
:10206800010400D0012420430CBF012000200028D7
:1020780056D094682F4820400C688968214308434B
:102088009060002046E002F580720192BAE75A6D2E
:1020980042F020025A65002283F8502001203CE0DB
:1020A800254AC5E72548806810F0010000D00120C6
:1020B80080F00100DBE7916821F4404191601968E4
:1020C8001A4C1B48814218BFA14215D1A16811F0D2
:1020D800010100D001211648806810F0010000D0ED
:1020E800012001430CBF01210021D9B19068114999
:1020F8000140916000200DE01049896811F001014C
:1021080000D0012181F00101EFE75A6D42F0200271
:102118005A650120002283F850201AB030BC70475D
:102128000020F7E70020F5E7022070470020024072
:1021380000210240E0F0FFFF0063025800600258EF
:10214800002800F0188338B50446036813F0010F1F
:1021580025D0944A136903F03803926A102B15D0DE
:10216800182B0FD06368B3F5803F3FD0002B53D1B5
:102178008C4B1A6822F480321A601A6822F4802282
:102188001A6038E002F00302022AEBD1854B1B6883
:1021980013F4003F03D06368002B00F0EE8223683D
:1021A80013F0020F00F0A1807E4A1369926A13F0BF
:1021B80038035AD0182B55D0E368002B00F0DE8086
:1021C80078490A6822F0190213430B6002F086FB73
:1021D8000546744B1B6813F0040F40F0AD8002F005
:1021E8007DFB401B0228F4D90320CDE26D4A136819
:1021F80043F48033136063682BB302F06FFB05462A
:10220800684B1B6813F4003FC9D102F067FB401B01
:102218006428F5D90320B7E2B3F5A02F09D0614BA4
:102228001A6822F480321A601A6822F480221A602E
:10223800E1E75C4B1A6842F480221A601A6842F49B
:1022480080321A60D7E702F049FB0546554B1B68F8
:1022580013F4003FA3D002F041FB401B6428F5D9DA
:10226800032091E212F0030FA6D14E4B1B6813F026
:10227800040F03D0E368002B00F08182494A1368F9
:1022880023F01903E1680B43136002F027FB0546AE
:10229800444B1B6813F0040F06D102F01FFB401BD0
:1022A8000228F5D903206FE202F01EFB41F2030376
:1022B800984212D82269402A07D03A494B6823F439
:1022C8007C3343EA02334B600FE0364A536823F409
:1022D8007C3343F40033536007E0324A536823F0F9
:1022E800FE43216943EA01635360236813F0100F2A
:1022F80000F088802B4A136903F03803926A082B90
:1023080056D0182B50D0E369002B00F0B880254A2E
:10231800136843F08003136002F0E0FA0546214B8E
:102328001B6813F4807F40F0888002F0D7FA401BC6
:102338000228F4D9032027E202F0D6FA41F2030377
:10234800984212D82269402A07D016494B6823F4CC
:102358007C3343EA02334B60C7E7124A536823F4DD
:102368007C3343F400335360BFE70E4A536823F0CD
:10237800FE43216943EA01635360B6E7094A1368DB
:1023880023F00103136002F0A9FA0546054B1B6808
:1023980013F0040FA9D002F0A1FA401B0228F5D9C6
:1023A8000320F1E10044025802F00302012AAAD1F5
:1023B800A14B1B6813F4807F03D0E369802B40F0A6
:1023C800E08102F091FA41F20303984212D8226A9E
:1023D800202A07D098494B6823F0F84343EA8263E0
:1023E8004B600FE0944A536823F0F84343F080436E
:1023F800536007E0904AD36823F07C53216A43EA8C
:102408000163D360236813F0080F60D06369002B61
:1024180049D0894A536F43F00103536702F05EFACB
:102428000546854B5B6F13F0020F50D102F056FA48
:10243800401B0228F5D90320A6E102F055FA41F223
:102448000303984212D8226A202A07D07A494B6897
:1024580023F0F84343EA82634B60D3E7764A536834
:1024680023F0F84343F080435360CBE7724AD368C4
:1024780023F07C53216A43EA0163D360C2E76E4AC2
:10248800136823F08003136002F028FA05466A4BAC
:102498001B6813F4807FB5D002F020FA401B022895
:1024A800F5D9032070E1644A536F23F001035367A1
:1024B80002F014FA0546604B5B6F13F0020F06D06A
:1024C80002F00CFA401B0228F5D903205CE12368CE
:1024D80013F0200F29D0A3699BB1574A136843F41E
:1024E8008053136002F0FAF90546534B1B6813F446
:1024F800005F1AD102F0F2F9401B0228F5D9032037
:1025080042E14D4A136823F48053136002F0E6F960
:102518000546494B1B6813F4005F06D002F0DEF94C
:10252800401B0228F5D903202EE1236813F0040F7D
:1025380021D1636A002B00F026813F4A126902F01C
:102548003802182A00F0EE80022B79D03A4A136834
:1025580023F08073136002F0C1F90446364B1B6800
:1025680013F0007F00F0DC8002F0B8F9001B0228AD
:10257800F4D9032008E1314A136843F480731360E7
:1025880002F0ACF905462D4B1B6813F4807F06D189
:1025980002F0A4F9401B6428F5D90320F4E0A368ED
:1025A800012B0AD00BBB244B1A6F22F001021A67C9
:1025B8001A6F22F004021A6704E01F4A136F43F0EF
:1025C80001031367A36833B302F088F905461A4B71
:1025D8001B6F13F0020FACD102F080F9401B41F2DF
:1025E80088339842F3D90320CEE0052B09D0124B4B
:1025F8001A6F22F001021A671A6F22F004021A6792
:10260800E0E70D4B1A6F42F004021A671A6F42F0A6
:1026180001021A67D6E702F061F90546064B1B6FFF
:1026280013F0020F85D002F059F9401B41F28833AC
:102638009842F3D90320A7E0004402580048025802
:10264800594A136823F08073136002F047F905466E
:10265800554B1B6813F0007F06D002F03FF9401B72
:102668000228F5D903208FE04F4B996A4F4A0A4058
:10267800A16AE06A41EA00110A439A62226B013AB0
:10268800C2F30802616B0139490289B20A43A16B9E
:102698000139090401F4FE010A43E16B0139090615
:1026A80001F0FE410A431A63DA6A22F00102DA6293
:1026B800596B3F4A0A40A16C42EAC1025A63DA6A7E
:1026C80022F00C02216C0A43DA62DA6A22F0020272
:1026D800616C0A43DA62DA6A42F48032DA62DA6AF0
:1026E80042F40032DA62DA6A42F48022DA62DA6AA2
:1026F80042F00102DA621A6842F080721A6002F04F
:10270800EDF80446284B1B6813F0007F06D102F051
:10271800E5F8001B0228F5D9032035E0002033E056
:10272800002031E0204A916A106B012B2DD001F076
:102738000303A26A93422AD1C1F30511E36A9942BD
:1027480027D1C0F30802236B013B9A4223D1C0F37F
:102758004622636B013B9A421FD1C0F30642A36B2A
:10276800013B9A421BD1C0F30660E36B013B9842E0
:1027780017D1002008E001207047012004E0012063
:1027880002E0012000E0002038BD0120FCE7012024
:10279800FAE70120F8E70120F6E70120F4E7012035
:1027A800F2E70120F0E700BF004402580CFCFFFFED
:1027B8000700FFFF744B1B6903F03803102B00F070
:1027C800DE80182B10D00BB1704870476E4B1B6819
:1027D80013F0200F00F0D5806B4B1868C0F3C100D0
:1027E8006B4B23FA00F0704710B4674A916A01F006
:1027F8000301946AC4F30510D36A03F0010C536B08
:10280800C3F3CC030CFB03F307EE903AF8EE677AB8
:1028180014F47C7F00F09380012965D0022900F030
:102828009180E1B107EE100AF8EE476A9FED596A08
:1028380086EE267A544B1B6BC3F3080306EE903AD8
:10284800F8EE666A9FED546A67EE867A76EEA77AA6
:10285800F7EE006A77EEA67A27EE277A60E013682B
:1028680013F0200F23D011461268C2F3C102484B5F
:10287800D34007EE103AF8EE476A07EE100AB8EEB2
:10288800476A86EE867A0B6BC3F3080306EE903A26
:10289800F8EE666A9FED406A67EE867A76EEA77A6A
:1028A800F7EE006A77EEA67A27EE277A38E007EE89
:1028B800100AF8EE476A9FED396A86EE267A324B9F
:1028C8001B6BC3F3080306EE903AF8EE666A9FEDB9
:1028D800326A67EE867A76EEA77AF7EE006A77EEC6
:1028E800A67A27EE277A1BE007EE100AF8EE476A69
:1028F8009FED286A86EE267A234B1B6BC3F30803E9
:1029080006EE903AF8EE666A9FED236A67EE867ADD
:1029180076EEA77AF7EE006A77EEA67A27EE277AA0
:10292800194B1B6BC3F34623013307EE903AF8EEBD
:10293800677AC7EE276AFCEEE67A17EE900A5DF82A
:10294800044B704707EE100AF8EE476A9FED146AC9
:1029580086EE267A0C4B1B6BC3F3080306EE903AFF
:10296800F8EE666A9FED0C6A67EE867A76EEA77ACD
:10297800F7EE006A77EEA67A27EE277AD0E70948BD
:1029880070470348704700BF0044025800093D00E3
:102998000090D0030024744A000000390024744CCD
:1029A80020BCBE4B40787D01002800F0328170B514
:1029B8000D4604469B4B1B6803F00F038B420BD25A
:1029C800984A136823F00F030B431360136803F04E
:1029D8000F038B4240F01F81236813F0040F0CD0C3
:1029E8002269914B9B6903F070039A4205D98E497D
:1029F8008B6923F070031A438A61236813F0080F68
:102A08000CD06269884BDB6903F070039A4205D9E0
:102A18008549CB6923F070031A43CA61236813F010
:102A2800100F0CD0A269804BDB6903F4E0639A4273
:102A380005D97D49CB6923F4E0631A43CA61236849
:102A480013F0200F0CD0E269774B1B6A03F0700378
:102A58009A4205D974490B6A23F070031A430A6233
:102A6800236813F0020F0CD0E2686F4B9B6903F0E8
:102A78000F039A4205D96C498B6923F00F031A4357
:102A88008A61236813F0010F41D0674A936923F4E0
:102A98007063A1680B4393616368022B0AD0032B10
:102AA80027D0012B2CD0604A126812F0040F06D1EF
:102AB8000120ADE0126812F4003F00F0AE805A49E0
:102AC8000A6922F0070213430B6101F007FF06466B
:102AD800554B1B6903F038036268B3EBC20F16D07D
:102AE80001F0FCFE801B41F288339842F0D90320A4
:102AF8008EE04D4A126812F0007FE0D1012087E095
:102B0800494A126812F4807FD9D1012080E02368F5
:102B180013F0020F0CD0E268434B9B6903F00F03DC
:102B28009A4205D240498B6923F00F031A438A6100
:102B38003C4B1B6803F00F03AB420AD9394A1368B0
:102B480023F00F032B431360136803F00F03AB420A
:102B580065D1236813F0040F0CD02269324B9B69AE
:102B680003F070039A4205D22F498B6923F0700352
:102B78001A438A61236813F0080F0CD062692A4B44
:102B8800DB6903F070039A4205D22749CB6923F029
:102B980070031A43CA61236813F0100F0CD0A2699E
:102BA800214BDB6903F4E0639A4205D21E49CB69E5
:102BB80023F4E0631A43CA61236813F0200F0CD092
:102BC800E269194B1B6A03F070039A4205D2164951
:102BD8000B6A23F070031A430A62FFF7EBFD1249F0
:102BE8008B69C3F30323114AD35C03F01F03D84056
:102BF8008B6903F00F03D35C03F01F0320FA03F380
:102C08000B4A13600B4B18600B4B186801F004FE5D
:102C180070BD012070470120FAE70120F8E7012084
:102C2800F6E700BF00200052004402585462000832
:102C38000C000020080000200400002008B5FFF761
:102C4800B9FD0B4A9369C3F303230A49CB5C03F02C
:102C58001F0320FA03F3926902F00F02885C00F068
:102C68001F0023FA00F0044A1060044A136008BDEC
:102C780000440258546200080C000020080000209C
:102C880008B5FFF7DBFF054BDB69C3F30213044A02
:102C9800D35C03F01F03D84008BD00BF00440258AE
:102CA8005462000808B5FFF7C9FF054BDB69C3F399
:102CB8000223044AD35C03F01F03D84008BD00BFB9
:102CC8000044025854620008404B9B6A03F0030317
:102CD800032B79D070B505460E463C4A136823F09D
:102CE8008063136001F0FAFD0446384B1B6813F04B
:102CF800006F06D001F0F2FD031B022BF5D903206B
:102D080070BD324B9A6A22F47C32296842EA013259
:102D18009A626A68013AC2F30802A968013949024D
:102D280089B20A43E9680139090401F4FE010A433A
:102D380029690139090601F0FE410A439A63DA6AF2
:102D480022F0C00269690A43DA62DA6A22F02002D4
:102D5800A9690A43DA62DA6A22F01002DA62D96BE8
:102D68001B4A0A40E96942EAC102DA63DA6A42F0B8
:102D78001002DA62C6B91A46DB6A43F40023D3624A
:102D8800124A136843F08063136001F0A7FD0446FC
:102D98000E4B1B6813F0006F14D101F09FFD001B50
:102DA8000228F5D90320ABE7012E05D0074AD36ADC
:102DB80043F40013D362E3E7044AD36A43F480136D
:102DC800D362DDE700209BE70120704700440258EA
:102DD8000700FFFF404B9B6A03F00303032B79D0E6
:102DE80070B505460E463C4A136823F080531360BD
:102DF80001F074FD0446384B1B6813F0005F06D0E1
:102E080001F06CFD031B022BF5D9032070BD324B7A
:102E18009A6A22F07C72296842EA01529A626A68C8
:102E2800013AC2F30802A9680139490289B20A4382
:102E3800E9680139090401F4FE010A4329690139E5
:102E4800090601F0FE410A431A64DA6A22F4406274
:102E580069690A43DA62DA6A22F40072A9690A43E4
:102E6800DA62DA6A22F48072DA62596C1B4A0A4022
:102E7800E96942EAC1025A64DA6A42F48072DA62A3
:102E8800C6B91A46DB6A43F48003D362124A136850
:102E980043F08053136001F021FD04460E4B1B687C
:102EA80013F0005F14D101F019FD001B0228F5D9B9
:102EB8000320ABE7012E05D0074AD36A43F080739D
:102EC800D362E3E7044AD36A43F40003D362DDE73D
:102ED80000209BE701207047004402580700FFFFCD
:102EE800F8B50446036813F0006F30D0436EB3F5AD
:102EF800001F26D00ED8EBB1B3F5801F07D10221F1
:102F08000430FFF7E1FE054645B12E4621E00126D3
:102F180035461EE0B3F5401F09D10025954A136DCB
:102F280023F44013616E0B431365002611E001265C
:102F380035460EE08F4AD36A43F40033D362002546
:102F4800ECE702212430FFF745FF0546DCE70026C1
:102F58003546236813F4807F14D0636D042B30D872
:102F6800DFE803F0032228080800824AD36A43F402
:102F78000033D36245BB7F4A136D23F00703616DAD
:102F88000B431365236813F4007F2FD0A36D802BA8
:102F980049D01ED8002B40D0402B17D10021201D2E
:102FA800FFF792FE054619E00021201DFFF78CFE71
:102FB8000546DFE7002104F12400FFF70BFF054673
:102FC800D8E701263546DDE72E46DBE701263546FC
:102FD8000CE0C02B02D0B3F5807F1BD155BB654AEE
:102FE800136D23F4E073A16D0B431365236813F489
:102FF800806F45D0D4F8A430B3F5800F38D01ED8F0
:1030080083B3B3F5001F17D10021201DFFF75CFE25
:1030180005461AE001263546E8E7564AD36A43F4DE
:103028000033D362DAE7002104F12400FFF7D2FE6F
:103038000546D3E72E46D9E70126354620E0B3F505
:10304800C00F02D0B3F5000F09D1C5B9494A936D35
:1030580023F46003D4F8A4100B43936510E0012611
:1030680035460DE0434AD36A43F40033D362ECE7B4
:10307800002104F12400FFF7ADFE0546E5E72E46E2
:10308800236813F4006F23D0D4F8A830B3F1007F7D
:1030980041D00DD8002B38D0B3F1807F05D1002165
:1030A800201DFFF711FE054608E0012635460FE012
:1030B800B3F1407F02D0B3F1806F23D1002D31D11D
:1030C8002C4A936D23F0E063D4F8A8100B43936562
:1030D800236813F0007F2ED0A36C202B3FD026D876
:1030E80033B1102B20D1234AD36A43F40033D3627F
:1030F800002D3AD11F4AD36C23F03003A16C0B4347
:10310800D36418E001263546E2E71A4AD36A43F445
:103118000033D362D2E7002104F12400FFF75AFEFE
:103128000546CBE72E46D3E70126354603E0302B8C
:10313800DED001263546236813F4805F2BD0E36D7B
:10314800B3F5005F4CD017D8002B43D0B3F5805FA0
:103158000DD10021201DFFF7B7FD054612E0022121
:10316800201DFFF7B1FD0546C2E72E46E3E701261D
:10317800354610E000440258B3F5405F02D0B3F57D
:10318800804F24D1002D32D1754A136D23F4E043CA
:10319800E16D0B431365236813F4005F37D0236E8A
:1031A800B3F5003F51D027D83BB1B3F5803F20D1CC
:1031B8000121201DFFF788FD0546002D4CD1684AE6
:1031C800136D23F4E023216E0B4313651FE00126E2
:1031D8003546E0E7624AD36A43F40033D362D1E765
:1031E800002104F12400FFF7F5FD0546CAE72E4645
:1031F800D1E7012635460AE0B3F5802FDDD0B3F5D7
:10320800A02FDAD0B3F5403FD7D001263546236842
:1032180013F4804F30D0D4F8AC30B3F1005F44D011
:103228001FD83BB1B3F1805F18D10121201DFFF7F2
:103238004BFD0546002D3FD1494A936D23F0E043ED
:10324800D4F8AC100B43936516E0012104F1240077
:10325800FFF7C0FD0546B0E72E46D8E701263546FC
:103268000AE0B3F1804FE5D0B3F1A04FE2D0B3F15B
:10327800405FDFD001263546236813F4004F09D09C
:10328800E36EB3F1805F19D0B3F1005F24D0D3B1FE
:1032980001263546236813F0807F32D0636C032BF8
:1032A80059D8DFE803F026215226012104F1240031
:1032B800FFF790FD0546BDE72E46DDE7284AD36AAD
:1032C80043F40033D3626DB9254A136D23F040539C
:1032D800E16E0B431365DDE70121201DFFF7F4FCC8
:1032E8000546F0E72E46D5E71D4AD36A43F4003376
:1032F800D3629DBB1A4AD36C23F00303616C0B4362
:10330800D364236813F4800F2CD1236813F0010FC2
:1033180000F0A380A36F282B00F29D80DFE803F064
:103328008B9B9B9B9B9B9B9B869B9B9B9B9B9B9B0A
:10333800949B9B9B9B9B9B9B8B9B9B9B9B9B9B9BEC
:103348008B9B9B9B9B9B9B9B8B000221201DFFF7CC
:10335800BBFC0546CDE701263546D2E72E46D0E729
:10336800004402588F4A136843F48073136001F0D5
:10337800B5FA07468B4B1B6813F4807F05D101F023
:10338800ADFAC01B6428F5D90325002D4AD1864B18
:103398001B6FD4F8B020534013F4407F0CD0824BFD
:1033A8001A6F22F44072196F41F480311967196F4E
:1033B80021F4803119671A67D4F8B030B3F5807FEB
:1033C80015D08DBBD4F8B03003F44072B2F5407F0D
:1033D8001ED0754A136923F47C53136172490B6F2D
:1033E800D4F8B020C2F30B0213430B678DE701F04A
:1033F80075FA07466C4B1B6F13F0020FE1D101F011
:103408006DFAC01B41F288339842F3D90325D8E7F7
:103418006548026922F47C52644901EA1313134394
:103428000361DBE72E4670E72E466EE70121201D7B
:10343800FFF74AFC0546E5B95B4A536D23F03803AC
:10344800A16F0B43536508E0012104F12400FFF745
:10345800C1FC0546EFE701263546236813F0020F45
:1034680016D0636F052B27D8DFE803F00A051F0A7B
:103478000A0A2E46F1E70121201DFFF725FC054623
:10348800EDB9494A536D23F00703616F0B43536548
:10349800236813F0040F22D0D4F89030052B43D8BA
:1034A800DFE803F0140F3B141414012104F1240085
:1034B800FFF790FC0546E3E701263546E8E72E4688
:1034C800E6E70121201DFFF7FFFB05467DBB364AD5
:1034D800936D23F00703D4F890100B43936523688A
:1034E80013F0200F33D0D4F88C30B3F1005F4CD0F8
:1034F80022D83BB1B3F1805F1BD10021201DFFF71B
:10350800E3FB0546002D47D1274A536D23F0E043DE
:10351800D4F88C100B43536519E0012104F1240001
:10352800FFF758FC0546D1E701263546D7E72E4672
:10353800D5E7012635460AE0B3F1804FE2D0B3F172
:10354800A04FDFD0B3F1405FDCD0012635462368B9
:1035580013F0400F37D0D4F89830B3F5006F52D03D
:1035680026D83BB1B3F5806F18D10021201DFFF795
:10357800ABFB0546002D4DD10B4A936D23F4E05368
:10358800D4F898100B4393651DE0022104F1240040
:10359800FFF720FC0546B5E72E46D8E70126354655
:1035A80011E000BF0048025800440258CFFFFF0056
:1035B800B3F5805FDED0B3F5A05FDBD0B3F5406F25
:1035C800D8D001263546236813F0800F32D0D4F8BE
:1035D8009C30B3F5804F00F09D8020D83BB1B3F507
:1035E800005F19D10021201DFFF76EFB0546002D55
:1035F80040F09780A54A936D23F46043D4F89C105B
:103608000B43936516E0022104F12400FFF7E2FB67
:103618000546AFE72E46D6E7012635460AE0B3F55C
:10362800004FE4D0B3F5204FE1D0B3F5C04FDED062
:1036380001263546236813F0080F0CD0D4F88030E3
:10364800B3F5805F6FD0914A536D23F44053D4F89B
:1036580080100B435365236813F0100F0CD0D4F877
:103668009430B3F5807F67D0884A936D23F4407314
:10367800D4F894100B439365236813F4002F0BD0F0
:10368800D4F8A030B3F5803F6ED0B3F5003F61D0D9
:10369800002B5AD001263546236813F4802F0CD00E
:1036A800D4F88430B3F5001F76D0B3F5401F69D045
:1036B800B3F5801F61D001263546236813F4803F97
:1036C80007D0E36C002B70D0B3F5803F7BD0012688
:1036D8003546236813F0005F7DD1236813F4003F5B
:1036E80000F08680E36FB3F5807F00F0C6807CD958
:1036F800B3F5007F03D0B3F5407F40F0BC80002DC8
:1037080040F0C180614A536D23F44073E16F0B436D
:1037180053656DE0022104F12400FFF75BFB0546C9
:1037280065E72E4686E7022104F12400FFF752FBE5
:10373800002888D0012686E7022104F12400FFF73B
:1037480049FB002890D001268EE70021201DFFF7B5
:10375800BBFA05467DB94D4A936D23F44033D4F83E
:10376800A0100B43936597E7022104F12400FFF7AB
:1037780031FB0546EEE72E468EE7444AD36A43F40A
:103788000033D3627DB9414A536D23F44013D4F812
:1037980084100B43536590E7012104F12400FFF7DF
:1037A80019FB0546EEE72E4687E7384AD36A43F405
:1037B8000033D3626DB9354AD36C23F48033E16C9E
:1037C8000B43D36485E70221201DFFF77DFA0546E8
:1037D800F0E72E467DE7022104F12400FFF7FAFA0C
:1037E80000283FF47AAF012677E7002B87D001261F
:1037F800236813F4801F06D0244A136D23F0004376
:10380800216F0B431365236813F0805F07D01F4AAD
:10381800136923F48043D4F8B4100B43136123686D
:1038280013F4001F06D0194A136D23F08073A16E9C
:103838000B431365236813F0804F09D0134B1A69A3
:1038480022F400421A611A69D4F8B8100A431A61BE
:103858002368002B1CDB236813F4000F07D00B4AE6
:10386800536D23F44003D4F888100B43536506B115
:1038780001263046F8BD0126BAE7044AD36A43F464
:103888000033D3623BE72E46B2E700BF004402583C
:10389800034AD36C23F04053216D0B43D364DAE71A
:1038A8000044025808B5FFF7C9F9054B1B6AC3F372
:1038B8000213044AD35C03F01F03D84008BD00BFBD
:1038C800004402585462000810B5774A916A946A15
:1038D800C4F3053ED36AC3F3001CD36BC3F3CC0314
:1038E8000CFB03F314F47C3F00F0D88001F00301D3
:1038F80007EE903AF8EE677A012965D0022900F0C0
:10390800B080E1B107EE10EAB8EE477A9FED676A3A
:10391800C6EE076A644B9B6BC3F3080307EE103AC5
:10392800B8EE477A9FED626A67EE867A77EE277A75
:10393800B7EE007A77EE877A66EEA76A60E01368DA
:1039480013F0200F23D011461268C2F3C102594B5D
:10395800D34007EE103AB8EE477A06EE90EAB8EE92
:10396800666AC7EE066A8B6BC3F3080307EE103A64
:10397800B8EE477A9FED4E6A67EE867A77EE277A39
:10398800B7EE007A77EE877A66EEA76A38E007EE38
:1039980010EAB8EE477A9FED486AC6EE076A424BCE
:1039A8009B6BC3F3080307EE103AB8EE477A9FED16
:1039B800406A67EE867A77EE277AB7EE007A77EE76
:1039C800877A66EEA76A1BE007EE10EAB8EE477A38
:1039D8009FED366AC6EE076A334B9B6BC3F3080349
:1039E80007EE103AB8EE477A9FED316A67EE867AAD
:1039F80077EE277AB7EE007A77EE877A66EEA76ACF
:103A0800294A936BC3F3462307EE103AB8EE477A78
:103A1800B7EE006A37EE067AC6EE877AFCEEE77AEA
:103A2800C0ED007A936BC3F3064307EE103AB8EE85
:103A3800477A37EE067AC6EE877AFCEEE77AC0ED6B
:103A4800017A936BC3F3066307EE903AF8EE677A50
:103A580077EE867A86EEA77ABCEEC77A80ED027A90
:103A680010BD07EE10EAB8EE477A9FED146AC6EE6D
:103A7800076A0D4B9B6BC3F3080307EE103AB8EEC9
:103A8800477A9FED0B6A67EE867A77EE277AB7EE6C
:103A9800007A77EE877A66EEA76AB1E700230360BB
:103AA80043608360DCE700BF004402580024744A86
:103AB800000000390090D0030024744C20BCBE4B99
:103AC80010B5774A916A946AC4F3055ED36AC3F362
:103AD800002C536CC3F3CC030CFB03F314F07C7F72
:103AE80000F0D88001F0030107EE903AF8EE677A0B
:103AF800012965D0022900F0B080E1B107EE10EA93
:103B0800B8EE477A9FED676AC6EE076A644B1B6C8E
:103B1800C3F3080307EE103AB8EE477A9FED626ADE
:103B280067EE867A77EE277AB7EE007A77EE877AAD
:103B380066EEA76A60E0136813F0200F23D01146E1
:103B48001268C2F3C102594BD34007EE103AB8EEDF
:103B5800477A06EE90EAB8EE666AC7EE066A0B6C1C
:103B6800C3F3080307EE103AB8EE477A9FED4E6AA2
:103B780067EE867A77EE277AB7EE007A77EE877A5D
:103B880066EEA76A38E007EE10EAB8EE477A9FEDCE
:103B9800486AC6EE076A424B1B6CC3F3080307EE7C
:103BA800103AB8EE477A9FED406A67EE867A77EE6C
:103BB800277AB7EE007A77EE877A66EEA76A1BE077
:103BC80007EE10EAB8EE477A9FED366AC6EE076A46
:103BD800334B1B6CC3F3080307EE103AB8EE477A71
:103BE8009FED316A67EE867A77EE277AB7EE007A2C
:103BF80077EE877A66EEA76A294A136CC3F34623E1
:103C080007EE103AB8EE477AB7EE006A37EE067A52
:103C1800C6EE877AFCEEE77AC0ED007A136CC3F340
:103C2800064307EE103AB8EE477A37EE067AC6EE44
:103C3800877AFCEEE77AC0ED017A136CC3F306636A
:103C480007EE903AF8EE677A77EE867A86EEA77AEC
:103C5800BCEEC77A80ED027A10BD07EE10EAB8EE26
:103C6800477A9FED146AC6EE076A0D4B1B6CC3F3C7
:103C7800080307EE103AB8EE477A9FED0B6A67EE35
:103C8800867A77EE277AB7EE007A77EE877A66EE4D
:103C9800A76AB1E70023036043608360DCE700BFE5
:103CA800004402580024744A000000390090D003F0
:103CB8000024744C20BCBE4B10B5774A916A946AB4
:103CC800C4F3051ED36A03F0010C536BC3F3CC0392
:103CD8000CFB03F314F47C7F00F0D88001F003019F
:103CE80007EE903AF8EE677A012965D0022900F0CC
:103CF800B080E1B107EE10EAB8EE477A9FED676A47
:103D0800C6EE076A644B1B6BC3F3080307EE103A51
:103D1800B8EE477A9FED626A67EE867A77EE277A81
:103D2800B7EE007A77EE877A66EEA76A60E01368E6
:103D380013F0200F23D011461268C2F3C102594B69
:103D4800D34007EE103AB8EE477A06EE90EAB8EE9E
:103D5800666AC7EE066A0B6BC3F3080307EE103AF0
:103D6800B8EE477A9FED4E6A67EE867A77EE277A45
:103D7800B7EE007A77EE877A66EEA76A38E007EE44
:103D880010EAB8EE477A9FED456AC6EE076A424BDD
:103D98001B6BC3F3080307EE103AB8EE477A9FEDA2
:103DA800406A67EE867A77EE277AB7EE007A77EE82
:103DB800877A66EEA76A1BE007EE10EAB8EE477A44
:103DC8009FED396AC6EE076A334B1B6BC3F30803D2
:103DD80007EE103AB8EE477A9FED316A67EE867AB9
:103DE80077EE277AB7EE007A77EE877A66EEA76ADB
:103DF800294A136BC3F3462307EE103AB8EE477A05
:103E0800B7EE006A37EE067AC6EE877AFCEEE77AF6
:103E1800C0ED007A136BC3F3064307EE103AB8EE11
:103E2800477A37EE067AC6EE877AFCEEE77AC0ED77
:103E3800017A136BC3F3066307EE903AF8EE677ADC
:103E480077EE867A86EEA77ABCEEC77A80ED027A9C
:103E580010BD07EE10EAB8EE477A9FED146AC6EE79
:103E6800076A0D4B1B6BC3F3080307EE103AB8EE55
:103E7800477A9FED0B6A67EE867A77EE277AB7EE78
:103E8800007A77EE877A66EEA76AB1E700230360C7
:103E980043608360DCE700BF004402580024744C90
:103EA800000000390090D0030024744A20BCBE4BA7
:103EB80000B58BB0B0F5807F20D0B0F5007F71D011
:103EC800B0F5806F00F0C880B0F5006F00F0218178
:103ED800B0F5805F00F08281B0F5002F00F0DB8143
:103EE800B0F5803F00F01F82B0F5804F00F03982B6
:103EF800B0F5004F00F084820020B2E2954B1B6DB4
:103F080003F00703042B00F2A382DFE803F0051097
:103F18001B0326009048A4E28E4B186810F000702E
:103F280000F09F8207A8FFF7C7FE089899E2894B1F
:103F3800186810F0006000F0948204A8FFF7C4FC31
:103F480004988EE2834B186810F0005000F08982C4
:103F580001A8FFF7B5FD019883E27E4AD36C03F010
:103F68004053126812F0040F07D033B9794B1B681D
:103F7800C3F3C1037948D84073E2764A126812F451
:103F8800807F03D0B3F1805F00F06482714A1268C9
:103F980012F4003F00F06082B3F1005F00F05E822F
:103FA80000205EE26B4B1B6D03F4E073802B33D073
:103FB80015D9C02B00F05482B3F5807F1FD1654A14
:103FC800D36C03F04053126812F0040F2FD073BB68
:103FD800604B1B68C3F3C1036048D84041E283B11A
:103FE800402B0AD15B4B186810F0006000F0398252
:103FF80004A8FFF769FC049833E2002031E20020AE
:104008002FE2544B186810F0007000F02A8207A8BD
:10401800FFF752FE089824E24E4B186810F0005043
:1040280000F01F8201A8FFF74BFD019819E2494AE9
:10403800126812F4807F03D0B3F1805F00F014821D
:10404800444A126812F4003F00F01082B3F1005F96
:1040580000F00E82002004E23E4B9B6D03F46003E7
:10406800B3F5800F35D016D9B3F5C00F00F0028232
:10407800B3F5000F20D1374AD36C03F040531268D0
:1040880012F0040F30D07BBB324B1B68C3F3C10363
:104098003248D840E5E18BB1B3F5001F0AD12D4B6A
:1040A800186810F0006000F0DC8104A8FFF70CFC31
:1040B8000498D6E10020D4E10020D2E1254B18680D
:1040C80010F0007000F0CD8107A8FFF7F5FD089803
:1040D800C7E1204B186810F0005000F0C28101A819
:1040E800FFF7EEFC0198BCE11A4A126812F4807FCF
:1040F80003D0B3F1805F00F0BF81164A126812F452
:10410800003F00F0BB81B3F1005F00F0B9810020EF
:10411800A7E1104B9B6D03F0E063B3F1007F3DD046
:104128001ED9B3F1407F00F0AD81B3F1806F28D183
:10413800084AD36C03F04053126812F0040F38D0C9
:10414800002B36D1034B1B68C3F3C1030348D84087
:1041580087E100BF004402580080BB000090D003F4
:104168008BB1B3F1807F0AD1994B186810F00060C9
:1041780000F0778104A8FFF7A7FB049871E10020FD
:104188006FE100206DE1924B186810F0007000F0AC
:10419800688107A8FFF790FD089862E18C4B1868C2
:1041A80010F0005000F05D8101A8FFF789FC01982C
:1041B80057E1874A126812F4807F03D0B3F1805F19
:1041C80000F06281824A126812F4003F00F05E81BA
:1041D800B3F1005F00F05C81002042E17C4B1B6D75
:1041E80003F4E043B3F5005F35D016D9B3F5405F6B
:1041F80000F05081B3F5804F20D1754AD36C03F09D
:104208004053126812F0040F30D07BBB704B1B6810
:10421800C3F3C1036F48D84023E18BB1B3F5805F86
:104228000AD16B4B186810F0006000F01A8104A8DE
:10423800FFF74AFB049814E1002012E1002010E186
:10424800634B186810F0007000F00B8107A8FFF7A7
:1042580033FD089805E15E4B186810F0005000F037
:10426800008101A8FFF72CFC0198FAE0584A12686F
:1042780012F4807F03D0B3F1805F00F00D81544ABF
:10428800126812F4003F00F00981B3F1005F00F0FA
:1042980007810020E5E04E4B9B6D03F44033B3F5F6
:1042A800803F10D0B3F5003F18D00BB10020D8E004
:1042B800474B186810F0006000F0D38004A8FFF79F
:1042C80003FB0498CDE0424B186810F0005000F052
:1042D800C88001A8FFF7F4FB0398C2E03C4AD36CFE
:1042E80003F04053126812F0040F07D033B9384B6B
:1042F8001B68C3F3C1033748D840B2E0344A126898
:1043080012F4807F03D0B3F1805F00F0CB80304A95
:10431800126812F4003F00F0C780B3F1005F00F0AC
:10432800C58000209DE02A4BDB6C13F4803302D05B
:1043380063B9002095E0264B186810F0007000F073
:10434800908007A8FFF7B8FC08988AE0204B186807
:1043580010F0006000F0858004A8FFF7B5FA069811
:104368007FE01B4B9B6D03F0E043B3F1405F35D01A
:1043780015D8B3F1805F21D0B3F1005F09D1144B98
:10438800186810F000506CD001A8FFF799FB02984C
:1043980067E013B9FFF786FA63E0002061E0B3F144
:1043A800804F26D0B3F1A04F06D1094B186810F4FE
:1043B800003056D0084854E0002052E0044B1868FA
:1043C80010F000604DD004A8FFF77EFA059848E089
:1043D800004402580090D00340787D01344B18689F
:1043E80010F004003DD01B68C3F3C1033148D84026
:1043F80037E02F4B186810F4807032D02E4830E028
:104408002B4B1B6D03F04053B3F1805F0CD0B3F11D
:10441800005F13D00BB1002023E0254B186810F47F
:1044280000301ED025481CE0214B186810F00070A1
:1044380017D007A8FFF740FC089812E01C4B186833
:1044480010F000600DD004A8FFF73EFA059808E0C8
:10445800002006E0184804E0002002E0174800E0C9
:1044680017480BB05DF804FB1348FAE70020F8E79B
:104478001248F6E71248F4E70F48F2E70020F0E7A1
:104488000E48EEE70E48ECE70B48EAE70020E8E7BD
:104498000A48E6E70A48E4E70748E2E70020E0E7D9
:1044A8000648DEE70448DCE70020DAE70348D8E7F7
:1044B800004402580090D00300093D0040787D0177
:1044C8000080BB00F0B583B000236BE085685E0018
:1044D8000324B44025EA0405CC68B4402C43846026
:1044E800446824EA0C0C4C68C4F300149C4044EA69
:1044F8000C04446068E0DD08083550F8256003F0D6
:1045080007044FEA840C0F2404FA0CF426EA040E7C
:104518000C6904FA0CF444EA0E0440F825406BE0F8
:10452800092400E0002404FA0EF42C430CF1020CD8
:10453800694D45F82C404FF0B0442568D44325EA2E
:1045480002064F6817F4801F01D042EA05064FF0B3
:10455800B0452E606D6804EA05064F6817F4001F21
:1045680001D042EA05064FF0B0456E60D5F8845098
:1045780004EA05064F6817F4003F01D042EA050631
:104588004FF0B045C5F88460D5F880502C404E688F
:1045980016F4803F01D042EA05044FF0B042C2F859
:1045A800804001330A6832FA03F400F092804FF039
:1045B800010C0CFA03FC1CEA0202F2D04C6804F06D
:1045C8000304013C012C81D94C6804F00304032C3A
:1045D8000CD0C4685D004FF0030C0CFA05FC24EA0B
:1045E8000C0C8C68AC4044EA0C04C4604C6804F0C1
:1045F8000304022C3FF47FAF04684FEA430E4FF0E8
:10460800030C0CFA0EFC24EA0C0C4C6804F00304AE
:1046180004FA0EF444EA0C0404604C6814F4403FB5
:10462800BFD02E4CD4F8F45045F00205C4F8F4502D
:10463800D4F8F44004F002040194019C4FEA930C6E
:104648000CF10205244C54F8255003F003044FEAFA
:10465800840E0F2404FA0EF425EA0405204CA04227
:104668003FF460AF04F58064A04222D004F5806472
:10467800A04220D004F58064A0421ED004F58064D6
:10468800A0421CD004F58064A0421AD004F58064CE
:10469800A04218D004F58064A04216D004F58064C6
:1046A800A04214D004F58064A0423FF439AF0A2434
:1046B80039E7012437E7022435E7032433E70424E4
:1046C80031E705242FE706242DE707242BE70824E4
:1046D80029E703B0F0BD00BF0004005800440258A9
:1046E800000002580AB1816170470904816170476E
:1046F800134BDB6813F0040F07D1114BDB6803F091
:10470800070383421AD00120704710B50C4AD368BA
:1047180023F007031843D06000F0E0F80446084B84
:104728005B6813F4005F07D100F0D8F8001BB0F500
:104738007A7FF4D9012000E0002010BD00207047E6
:10474800004802580649CB6823F4E0631B041B0C9D
:10475800000200F4E0600343024A1A43CA6070474B
:1047680000ED00E00000FA0500B5174BDB68C3F365
:104778000223C3F1070CBCF1040F28BF4FF0040C4F
:1047880003F1040EBEF1060F14D9033B4FF0FF3EB0
:104798000EFA0CFC21EA0C0199400EFA03F322EA06
:1047A80003031943002807DB0901C9B2074B195451
:1047B8005DF804FB0023E9E700F00F000901C9B226
:1047C800034B1954F4E700BF00ED00E000E400E0FB
:1047D80014ED00E0002807DB00F01F024009012368
:1047E8009340024A42F82030704700BF00E100E0E1
:1047F8000138B0F1807F0BD24FF0E0235861054AB1
:10480800F02182F823100020986107221A6170476E
:104818000120704700ED00E0104B1B780BB9012018
:10482800704710B504464FF47A70B0FBF3F30C4AA6
:104838001068B0FBF3F0FFF7DBFF68B90F2C01D964
:1048480001200AE0002221464FF0FF30FFF78CFFDD
:10485800044B1C60002000E0012010BD0000002077
:10486800080000200400002010B50320FFF76AFFAD
:10487800FDF7A0FF0F498B69C3F303230E4AD35CEE
:1048880003F01F03D8408B6903F00F03D35C03F0D8
:104898001F0320FA03F3094A1360094B18600F201D
:1048A800FFF7BAFF10B10124204610BD0446FCF7FB
:1048B80051FAF9E700440258546200080C0000203D
:1048C80008000020034B1B78034A11680B4413604F
:1048D800704700BF0000002080030020014B1868CB
:1048E800704700BF80030020014B1868000C704718
:1048F8000010005CF0B4036A23F001030362036A4A
:10490800466884691F4A22400D68154323F0020354
:104918008C6823431C4A1D4CA04218BF90420CBF10
:10492800012200220CD004F58044A04214BF0024C8
:104938000124174FB84203D014B9164CA04205D130
:1049480023F00803CC68234323F004035AB9124A1E
:10495800904214BF002201220D4CA04203D012B98C
:104968000C4A904207D126F4407C4A6942EA0C0C72
:104978008E6946EA0C06466085614A6842630362AE
:10498800F0BC70478CFFFEFF0000014000040140AE
:1049980000400140004801400044014070B4036AEF
:1049A80023F480730362036A4568C4691A4A224083
:1049B8000E68164323F400738A6843EA0223174AF1
:1049C800174CA04218BF90420CBF0122002206D10A
:1049D80023F40063CC6843EA042323F480635AB9C0
:1049E800104A904214BF002201220F4CA04203D06B
:1049F80012B90E4A904207D125F4405C4A694CEA44
:104A0800021C8D694CEA05154560C6614A68C26397
:104A1800036270BC704700BF8CFFFEFF00000140BE
:104A280000040140004401400040014000480140AA
:104A380070B4036A23F480530362036A4468C56947
:104A4800144A2A400D6842EA052223F400538D686F
:104A580043EA0533104E114DA84218BFB0420DD09D
:104A680005F58045A84214BF0025012506F58046B6
:104A7800B04203D015B90A4DA84204D124F48044A9
:104A88004D6944EA85144460C2614A68026403625D
:104A980070BC7047FF8CFFFE00000140000401401D
:104AA8000048014070B4036A23F480330362036A48
:104AB8004268456D144C2C400D682C4323F4003398
:104AC8008D6843EA0543114E114DA84218BFB04204
:104AD8000DD005F58045A84214BF0025012506F52F
:104AE8008046B04203D015B90A4DA84204D122F439
:104AF80080324D6942EA0522426044654A6882650F
:104B0800036270BC704700BF8FFFFEFF00000140CA
:104B1800000401400048014070B4036A23F4801384
:104B28000362036A4468456D144A2A400D6842EAE4
:104B3800052223F400138D6843EA0553104E114DE6
:104B4800A84218BFB0420DD005F58045A84214BF51
:104B58000025012506F58046B04203D015B90A4D57
:104B6800A84204D124F480244D6944EA8524446091
:104B780042654A68C265036270BC7047FF8FFFFEDA
:104B880000000140000401400048014010B4036ADD
:104B9800046A24F001040462846924F0F00C4CEAED
:104BA800021223F00A030B43826103625DF8044B8F
:104BB800704710B4046A24F0100404628469036A1C
:104BC80024F4704C4CEA023223F0A00343EA0113A8
:104BD800826103625DF8044B704700008268034BF2
:104BE80013400B4343F00703836070478FFFCFFFE9
:104BF80090F83D30DBB2012B3AD1022380F83D30EA
:104C08000268D36843F00103D36003681A4AB3F11A
:104C1800804F18BF93421DD0A2F57C42934219D011
:104C280002F58062934215D002F58062934211D05A
:104C380002F5784293420DD0A2F56C42934209D016
:104C480002F59432934205D01A6842F001021A60C4
:104C5800002070479968094A0A40062A18BFB2F529
:104C6800803F07D01A6842F001021A60002070479E
:104C78000120704700207047000001400700010034
:104C88007047704770477047704710B5044603680F
:104C98001A6912F0020F11D0DA6812F0020F0DD063
:104CA8006FF002021A610123037703689B6913F00E
:104CB800030F79D0FFF7E6FF0023237723681A69EB
:104CC80012F0040F12D0DA6812F0040F0ED06FF051
:104CD80004021A610223237723689B6913F4407F37
:104CE80068D02046FFF7CEFF0023237723681A6990
:104CF80012F0080F12D0DA6812F0080F0ED06FF019
:104D080008021A61042323772368DB6913F0030F71
:104D180057D02046FFF7B6FF0023237723681A6988
:104D280012F0100F12D0DA6812F0100F0ED06FF0D8
:104D380010021A61082323772368DB6913F4407F84
:104D480046D02046FFF79EFF0023237723681A6981
:104D580012F0010F03D0DA6812F0010F3FD1236877
:104D68001A6912F0800F03D0DA6812F0800F3DD173
:104D780023681A6912F4807F03D0DA6812F0800F72
:104D88003BD123681A6912F0400F03D0DA6812F099
:104D9800400F39D123681A6912F0200F03D0DA685E
:104DA80012F0200F37D110BDFFF76BFF2046FFF739
:104DB8006AFF81E72046FFF764FF2046FFF763FF9D
:104DC80092E72046FFF75DFF2046FFF75CFFA3E769
:104DD8002046FFF756FF2046FFF755FFB4E76FF070
:104DE80001021A612046FBF797FFB8E76FF08002CF
:104DF8001A61204600F0C1FABAE76FF480721A61AE
:104E0800204600F0BBFABCE76FF040021A6120466A
:104E1800FFF73AFFBEE76FF020021A61204600F064
:104E2800ABFAC0E730B50368394A904214BF4FF077
:104E3800000E4FF0010EB0F1804F14BF72464EF0D5
:104E48000102AAB9334CA04214BF00240124324DF8
:104E5800A8420DD064B904F1804404F58234A0421C
:104E680014BF0024012405F50065A84200D01CB138
:104E780023F070034C68234312BB264A904214BFA8
:104E880000220122244CA0421AD0CAB902F1804261
:104E980002F58232904214BF0022012204F5006418
:104EA800A0420DD062B91D4A904214BF00220122CF
:104EB80004F59A34A04203D012B9194A904204D199
:104EC80023F4407CCB6843EA0C0323F080034A694F
:104ED800134303608A68C2620A688262114A904278
:104EE80014BF73464EF0010363B90C4B984214BFCC
:104EF8000023012302F57052904203D013B9084BE6
:104F0800984201D10B6903630123436130BD00BF9F
:104F18000000014000080040000400400044014037
:104F2800004801400004014060B310B5044690F801
:104F38003D3013B3022384F83D30214651F8040B69
:104F4800FFF770FF012384F8483084F83E3084F876
:104F58003F3084F8403084F8413084F8423084F897
:104F6800433084F8443084F8453084F8463084F877
:104F7800473084F83D30002010BD80F83C30FBF706
:104F88005DFFD7E70120704760B310B5044690F87D
:104F98003D3013B3022384F83D30214651F8040B09
:104FA800FFF740FF012384F8483084F83E3084F846
:104FB8003F3084F8403084F8413084F8423084F837
:104FC800433084F8443084F8453084F8463084F817
:104FD800473084F83D30002010BD80F83C30FFF7A2
:104FE8004FFED7E70120704770B4036A23F010031F
:104FF8000362036A456884691A4A22400E6842EAD5
:10500800062623F020038A6843EA0213164A174C3F
:10501800A04218BF90420CBF0122002206D123F003
:105028008003CC6843EA041323F040035AB9104ABA
:10503800904214BF002201220E4CA04203D012B9A4
:105048000D4A904207D125F4406C4A694CEA820C1B
:105058008D694CEA8505456086614A68826303620A
:1050680070BC7047FF8CFFFE000001400004014047
:1050780000440140004001400048014090F83C30A5
:10508800012B36D010B50446012380F83C30142A91
:105098002AD8DFE802F00B292929102929291529FE
:1050A80029291A2929291F29292924000068FFF7F5
:1050B80021FC002019E00068FFF796FF002014E0AB
:1050C8000068FFF76BFC00200FE00068FFF7B0FCFA
:1050D80000200AE00068FFF7E5FC002005E0006812
:1050E800FFF71AFD002000E00120002384F83C307F
:1050F80010BD0220704710B4846824F47F4C42EA43
:1051080003220A4342EA0C0282605DF8044B7047AE
:1051180090F83C30012B00F08F8010B50446012335
:1051280080F83C30022380F83D3002689068434B99
:10513800034093600B68702B55D031D8502B6CD03E
:105148000CD9602B2AD1CA6849682068FFF731FD5D
:1051580060212068FFF742FD002035E0402B0AD18E
:10516800CA6849682068FFF711FD40212068FFF7E9
:1051780035FD002028E05BD8202B07D003D9302B41
:1051880004D0012020E00BB1102B05D1194620686E
:10519800FFF724FD002017E0012015E0012013E0AF
:1051A800B3F5005F2CD00BD9254A9342EED012D923
:1051B800244A9342EAD010329342E7D0012003E018
:1051C800B3F5805F36D10020012384F83D300023F9
:1051D80084F83C3010BDB3F5801FD7D0B3F1101F51
:1051E800D4D00120F0E7CB684A6889682068FFF7C7
:1051F80082FF2268936843F0770393600020E3E717
:10520800CB684A6889682068FFF775FF2268936849
:1052180043F4804393600020D6E7CA684968206851
:10522800FFF7B4FC50212068FFF7D8FC0020CBE73B
:105238000120C9E70120C7E7022070478800CEFF98
:10524800200010003000100090F83C30012B45D0B1
:1052580070B4012380F83C30022380F83D300368A5
:105268005A689C681E4E1F4DAB4218BFB34203D10B
:1052780022F470024D682A4322F070020D682A4316
:105288005A600368164AB3F1804F18BF934217D08B
:10529800A2F57C42934213D002F5806293420FD06C
:1052A80002F5806293420BD002F57842934207D010
:1052B800A2F56C42934203D002F59432934204D192
:1052C80024F080048A6814439C60012380F83D30F0
:1052D800002380F83C30184670BC704702207047A5
:1052E800000001400004014090F83C30012B3CD004
:1052F80030B4012380F83C30CB6823F440738A68CB
:10530800134323F480634A68134323F400630A6851
:10531800134323F480530A69134323F400534A695F
:10532800134323F480438A6A134323F470238A695E
:1053380043EA024302680E4D0E4CA24218BFAA422D
:105348000CD123F470034C6A43EA045323F08073AE
:10535800CC69234323F00073096A0B435364002389
:1053680080F83C30184630BC70470220704700BFB8
:10537800000001400004014070477047704700007A
:1053880070B586B0044601688368026913434269B0
:105398001343C26913430868884A024013430B60E9
:1053A8002268536823F44053E1680B435360A169B2
:1053B8002268834B9A4201D0236A19439068814B33
:1053C80003400B4393602268D36A23F00F03616A9A
:1053D8000B43D36222687C4B9A4221D07B4B9A4282
:1053E80000F08C807A4B9A4200F0A280794B9A4266
:1053F80000F0B580784B9A4200F0C880774B9A420B
:1054080000F0F480764B9A4200F01981754B9A426D
:1054180000F02C816A4B9A4200F03F81802333E0F0
:10542800714B5B6D03F03803282B65D8DFE813F068
:10543800290064006400640064006400640064007F
:105448004D0164006400640064006400640064004A
:105458002B0064006400640064006400640064005D
:105468005E0064006400640064006400640064001A
:105478006000640064006400640064006400640008
:105488006200012300E008234D498A4200F02F8181
:10549800E069B0F5004F00F0AF81202B00F20782E1
:1054A800202B00F25182DFE813F01E0224024F0283
:1054B8004F0227024F024F024F022C024F024F02A7
:1054C8004F024F024F024F024F0231024F024F026A
:1054D8004F024F024F024F024F024F024F024F023C
:1054E8004F024F024F024F024F023D021023CBE7FB
:1054F8002023C9E74023C7E78023C5E73A4B5B6D04
:1055080003F00703052B11D8DFE813F00600E100CC
:1055180008000A000C000E000023B5E70823B3E7D3
:105528001023B1E72023AFE74023ADE78023ABE7A3
:105538002D4B5B6D03F00703052B0ED8DFE803F056
:1055480003C90507090B00239EE708239CE71023DE
:105558009AE7202398E7402396E7802394E7224B95
:105568005B6D03F00703052B0ED8DFE803F003B4E7
:105578000507090B002387E7082385E7102383E73E
:10558800202381E740237FE780237DE7164B5B6D6F
:1055980003F00703052B0ED8DFE803F0039F050788
:1055A800090B002370E708236EE710236CE720231C
:1055B8006AE7402368E7802366E700BFF369FFCF07
:1055C800000C0058FFF4FF11001001400044004097
:1055D80000480040004C00400050004000140140CA
:1055E80000780040007C0040004402587D4B5B6D11
:1055F80003F03803282B20D8DFE803F0151F1F1FFE
:105608001F1F1F1F711F1F1F1F1F1F1F171F1F1F58
:105618001F1F1F1F191F1F1F1F1F1F1F1B1F1F1F9C
:105628001F1F1F1F1D0001232EE708232CE710232F
:105638002AE7202328E7402326E7802324E7694B2D
:105648005B6D03F00703052B0ED8DFE803F0034A70
:105658000507090B002317E7082315E7102313E7AD
:10566800202311E740230FE780230DE75D4B5B6D97
:1056780003F00703052B0ED8DFE803F00335050711
:10568800090B002300E70823FEE61023FCE620238D
:10569800FAE64023F8E68023F6E603F50E339B6D21
:1056A80003F00703052B0ED8DFE803F0031F0507F7
:1056B800090B0223E8E60823E6E61023E4E62023A4
:1056C800E2E64023E0E68023DEE60423DCE604236A
:1056D800DAE60423D8E60423D6E60423D4E6042332
:1056E800D2E60423D0E60423CEE60423CCE6202B1E
:1056F80027D8022BC0F01A81023B1E2B00F218811A
:10570800DFE813F0500016015600160116011601C5
:105718005B00160116011601160116011601160185
:105728006000160116011601160116011601160170
:1057380016011601160116011601160116011601A9
:105748006C00402B2CD14FF40040626A264B33F892
:105758001220B0FBF2F3656805EB4501994200F2AF
:10576800E980B3EB053F00F2E78000263346314677
:10577800FAF7AEFD090241EA106100026B08C01891
:105788002A46334641F10001FAF7A2FDA0F540721E
:10579800164B9A4200F2D2802368D8603046D4E093
:1057A8000120D2E0FEF77EF80028CED10020CCE020
:1057B80003A8FEF789F80498F6E76846FEF780F92B
:1057C8000198F1E7074B1B6813F0200F08D0054B31
:1057D8001B68C3F3C1030648D840E5E70548B4E7AA
:1057E8000348B2E7004402582C620008FFFC0F008F
:1057F8000090D00300093D00202B15D8202B00F283
:105808009F80DFE803F031379D9D3A9D9D9D3F9D28
:105818009D9D9D9D9D9D449D9D9D9D9D9D9D9D9D09
:105828009D9D9D9D9D9D5000402B1BD1626A4D4BB7
:1058380033F81230B0FBF3F06268530803EB400012
:10584800B0FBF2F0A0F110024FF6EF739A4279D84C
:1058580083B223F00F03C0F3420018432368D860D3
:10586800002072E0012070E0FDF70AFA0028DDD17F
:1058780000206AE0FDF716FAF8E703A8FEF724F817
:105888000498F3E76846FEF71BF90198EEE7364BF4
:105898001B6813F0200F08D0334B1B68C3F3C103F8
:1058A8003248D840E2E73248C0E73048BEE7402BEC
:1058B80017D14FF40040626A2A4B33F81230B0FB1C
:1058C800F3F0636800EB5300B0FBF3F0A0F11002B3
:1058D8004FF6EF739A4242D8236880B2D86000200E
:1058E80033E0012031E0FDF7CBF90028E3D10020B7
:1058F8002BE0FDF7D7F9F8E703A8FDF7E5FF0498D3
:10590800F3E76846FEF7DCF80198EEE7164B1B68EC
:1059180013F0200F08D0144B1B68C3F3C1031348BE
:10592800D840E2E71248C6E71048C4E701200CE077
:1059380001200AE0012008E0012006E0012004E03F
:10594800012002E0012000E001200123A4F86A30D0
:10595800A4F8683000232367636706B070BD012090
:10596800F3E700BF2C620008004402580090D003FF
:1059780000093D00836A13F0010F06D002685368DE
:1059880023F40033C16A0B435360836A13F0020F98
:1059980006D00268536823F48033016B0B435360CD
:1059A800836A13F0040F06D00268536823F4802337
:1059B800416B0B435360836A13F0080F06D00268EB
:1059C800536823F40043816B0B435360836A13F0DD
:1059D800100F06D00268936823F48053C16B0B4301
:1059E8009360836A13F0200F06D00268936823F44B
:1059F8000053016C0B439360836A13F0400F0AD085
:105A08000268536823F48013416C0B435360436C62
:105A1800B3F5801F0BD0836A13F0800F06D002689D
:105A2800536823F40023C16C0B435360704702682A
:105A3800536823F4C003816C0B435360EBE72DE9F3
:105A4800F84305460F4616469946DDF820802C682F
:105A5800E46937EA04030CBF4FF0010C4FF0000C67
:105A6800B44557D1B8F1FF3FF1D0FEF737FFA0EBAF
:105A7800090040452FD8B8F1000F2CD02B681A68C0
:105A880012F0040FE3D0DA6912F4006FDFD04FF49C
:105A980000621A622A6852E8003F23F4D07342E891
:105AA80000310029F6D12A6802F1080353E8003FC3
:105AB80023F00103083242E800310029F3D1202302
:105AC800C5F88430C5F88830C5F88C30002385F8CF
