:020000040800F2
:1000000000000220556C0008890C00088B0C0008C9
:100010008D0C00088F0C0008910C000800000000F7
:10002000000000000000000000000000930C000829
:10003000950C000800000000970C000845700008AF
:100040009F6C0008A56C0008AB6C0008B16C000840
:10005000B76C0008BD6C0008C36C0008C96C0008D0
:10006000CF6C0008D56C0008DB6C0008E16C000860
:10007000E76C0008ED6C0008F36C0008F96C0008F0
:10008000FF6C0008056D00080B6D00081D7000086E
:10009000116D000835700008176D00081D6D00080F
:1000A000236D0008296D00082F6D0008356D0008CC
:1000B0003B6D0008416D0008476D00084D6D00085C
:1000C000536D0008596D00085F6D0008656D0008EC
:1000D0006B6D0008716D0008776D00087D6D00087C
:1000E000836D0008896D0008000000008F6D000816
:1000F000956D00089B6D0008A16D0008A76D0008B4
:10010000AD6D0008B36D0008B96D0008BF6D000843
:10011000C56D0008CB6D0008D16D0008D76D0008D3
:10012000DD6D0008E36D0008E96D0008EF6D000863
:10013000F56D0008FB6D0008016E0008076E0008F1
:1001400000000000000000000000000000000000AF
:100150000D6E0008136E0008196E00081F6E00086F
:10016000256E00082B6E0008316E0008376E0008FF
:100170003D6E0008436E0008496E00080000000054
:100180004F6E0008556E00085B6E0008616E000837
:10019000676E00086D6E0008736E0008796E0008C7
:1001A0007F6E0008856E00088B6E0008916E000857
:1001B000976E00089D6E0008A36E0008A96E0008E7
:1001C000AF6E0008B56E0008BB6E0008C16E000877
:1001D000C76E0008CD6E0008D36E0008D96E000807
:1001E000DF6E0008E56E0008EB6E0008F16E000897
:1001F000F76E0008FD6E0008036F0008096F000825
:100200000F6F0008156F00081B6F0008216F0008B2
:10021000D56F0008ED6F000805700008276F000813
:100220002D6F0008336F0008396F000800000000D0
:100230003F6F0008456F0008000000004B6F00088A
:10024000516F0008576F00085D6F0008636F00086A
:10025000696F00086F6F0008756F00087B6F0008FA
:10026000816F0008876F00088D6F0008936F00088A
:10027000996F00089F6F0008A56F0008000000003C
:10028000AB6F0008B16F0008B76F000800000000F6
:0802900000000000BD6F000832
:1002980010B5054C237833B9044B13B10448AFF3B8
:1002A80000800123237010BD1C0000200000000006
:1002B800C070000808B5034B1BB103490348AFF3EE
:1002C800008008BD0000000020000020C070000869
:1002D8002DE9F04F8FB0002409940A940B940C94E4
:1002E8000D94794BD3F8E02042F01002C3F8E020D7
:1002F800D3F8E02002F010020092009AD3F8E02030
:1003080042F48072C3F8E020D3F8E02002F480724F
:100318000192019AD3F8E02042F02002C3F8E020CD
:10032800D3F8E02002F020020292029AD3F8E020EB
:1003380042F00402C3F8E020D3F8E02002F00402FF
:100348000392039AD3F8E02042F08002C3F8E02039
:10035800D3F8E02002F080020492049AD3F8E02057
:1003680042F00102C3F8E020D3F8E02002F00102D5
:100378000592059AD3F8E02042F00202C3F8E02083
:10038800D3F8E02002F002020692069AD3F8E020A1
:1003980042F00802C3F8E020D3F8E02002F0080297
:1003A8000792079AD3F8E02042F04002C3F8E02011
:1003B800D3F8E03003F040030893089BDFF81CB142
:1003C80022467421584604F088FDDFF814A122461D
:1003D80040F2F771504604F080FDDFF8089122469C
:1003E8004FF48061484604F078FDDFF8FC8022462F
:1003F8000121404604F071FD344F22464AF21C7137
:10040800384604F06AFD324E2246C221304604F0D6
:1004180064FD22464FF4E6512E4804F05EFD224664
:1004280040212D4804F059FD7423099301250A95AC
:100438000B940C9409A9584604F038FC40F2F77361
:1004480009930A950B940C9409A9504604F02EFCC4
:100458004FF4806309930A950B940C9409A94846B4
:1004680004F024FC09950A950B940C9409A94046BC
:1004780004F01CFC4AF21C7309930A950B940C9423
:1004880009A9384604F012FCC22309930A950B9473
:100498000C9409A9304604F009FC4FF4E65309937B
:1004A8000A950B940C9409A90A4804F0FFFB402311
:1004B80009930A950B940C9409A9074804F0F6FBD4
:1004C8000FB0BDE8F08F00BF00440258001C02586E
:1004D8000004025800180258000C02580010025874
:1004E80000200258001402580008025872B6FEE7AD
:1004F80010B592B000240B940C940D940E940F94A4
:10050800109411942C222146684606F0CDFD1D4812
:100518001D4B0360EF234360846040F2E733C36000
:1005280004614461846102F0D9F810BB154802F0F7
:100538000FF900BB00220B920C920D920E920F92B3
:10054800109211920BA90F4801F0FCFEA8B90023E4
:10055800009301930293039304934FF4005205927E
:1005680006930A936946074802F0B6F938B912B0FB
:1005780010BDFFF7BBFFFFF7B9FFFFF7B7FFFFF7A6
:10058800B5FF00BF700500200048014010B592B0CB
:1005980000240B940C940D940E940F9410941194C1
:1005A8002C222146684606F07FFD1C481C4B036040
:1005B8001723436084600923C36004614461846134
:1005C80002F08CF810BB154802F0C2F800BB0022FC
:1005D8000B920C920D920E920F92109211920BA9FF
:1005E8000E4801F0AFFEA8B90023009301930293CF
:1005F800039304934FF40052059206930A936946B5
:10060800064802F069F938B912B010BDFFF76EFF5D
:10061800FFF76CFFFFF76AFFFFF768FFB4040020DD
:100628000044014008B51148114B0360114B436069
:10063800002383600122C260036143618361C36157
:10064800036204F017FD50B90021084804F026FEA3
:1006580038B90021054804F04FFE20B908BDFFF75E
:1006680045FFFFF743FFFFF741FF00BFD802002017
:1006780000540040DB3FB00008B51348134B03603B
:10068800A3F11E53A3F57A23A3F24F63436000231B
:1006980083600122C260036143618361C3610362B5
:1006A80004F0E8FC50B90021074804F0F7FD38B918
:1006B8000021054804F020FE20B908BDFFF716FF09
:1006C800FFF714FFFFF712FF24030020001C005857
:1006D80000B589B00023049305930693079301930B
:1006E800029303931348144A0260EF224260836026
:1006F80042F20F72C26003614361836101F0EEFF51
:1007080090B94FF48053049304A90A4801F002FFFA
:1007180060B900230193039301A9064802F08CF8FD
:1007280030B909B05DF804FBFFF7E0FEFFF7DEFE25
:10073800FFF7DCFEF80300200040014000B589B057
:10074800002301930293039304930593069307935D
:100758002048214A02604FF48012426083600122DF
:10076800C26004210161037543750221816102772A
:10077800026243628362C3620363436380F8383072
:1007880005F002FBF8B9154B0193062302930023E9
:10079800039340F2FF7204920422059206938DF8A7
:1007A8001D300DEB02010B4804F0D6FE68B90C4B66
:1007B80001930C23029301A9064804F0CDFE30B939
:1007C80009B05DF804FBFFF791FEFFF78FFEFFF716
:1007D8008DFE00BF9C00002000600258000084CB02
:1007E800000052C700B58BB0002307930893099304
:1007F800009301930293039304930593069324486B
:10080800244A02604FF48012426083600122C26071
:100818000421016103754375022181610277026237
:1008280043628362C3620363436380F8383005F030
:10083800ABFA28BB0023079307A9154805F0D6FB98
:1008480000BB154B0093062301930023029340F24B
:10085800FF7203920422049205938DF819306946B9
:100868000B4804F079FE78B90C4B00930C230193E4
:100878006946074804F070FE40B90BB05DF804FB08
:10088800FFF734FEFFF732FEFFF730FEFFF72EFECC
:100898003800002000200240400020198000501D30
:1008A80008B51348134B03604FF4800343600023DB
:1008B80083600322C260036143614FF0005282618A
:1008C800C361036243628362C3624FF08042426342
:1008D8008363C363036443648364C36403654365D8
:1008E800836505F03DFC00B908BDFFF7FFFD00BFBB
:1008F800700300200050014000B58FB000230A9318
:100908000B930C930D93079308930993009301930A
:10091800029303930493059306932048204A0260A8
:100928007722426083604FF47A72C2600361836108
:1009380001F0D4FE38BB4FF480530A930AA9174834
:1009480001F0E8FD08BB154801F03CFFF8B90023A9
:100958000793099307A9114801F06EFFC8B96023EE
:1009680000934FF4FA7301930023029304930C222B
:1009780069460A4801F023FD68B9084800F0D8FB29
:100988000FB05DF804FBFFF7B1FDFFF7AFFDFFF710
:10099800ADFDFFF7ABFDFFF7A9FD00BF2C0600205A
:1009A800000C004038B51548154B036000238360E0
:1009B8000421C160012202744374827402244461D8
:1009C800082484611F25C561046242628262C26292
:1009D800026343638263C363036441648364C164E1
:1009E800036541658365C36503664366816605F0F3
:1009F800ABFD00B938BDFFF779FD00BF000100204D
:100A080000A0004038B51548154B036000238360EB
:100A18000421C16001220274437482740224446177
:100A2800082484611F25C561046242628262C26231
:100A3800026343638363C363036441648364C1647F
:100A4800036541658365C36503664366816605F092
:100A58007BFD00B938BDFFF749FD00BFEC01002060
:100A680000A4004000B59DB04C22002109A806F062
:100A78001BFB2022002101A806F016FB022004F02F
:100A880033FA002300932A4B9A6942F440429A6150
:100A98009B6903F440430093264BDA6A42F0010253
:100AA800DA62DB6A03F001030093009B204B9B6929
:100AB80013F4005FFAD0204A936A23F0030343F04B
:100AC8000103936210230993802310932023119329
:100AD80002231293012213921492F0221592169374
:100AE800179318930823199300231A931B9309A8A3
:100AF80001F03EFFB8B93F2301930323029300237B
:100B08000393082304934023059306934FF48062CC
:100B18000792089304210DEB010002F05DFB20B958
:100B28001DB05DF804FBFFF7E1FCFFF7DFFC00BF39
:100B380000480258000400580044025800B5B1B0FB
:100B4800BC22002101A806F0AFFA4FF4004301933C
:100B58000123029325230393022304930593069309
:100B680080230793202308934FF4805309934FF071
:100B780000531C9301A802F0A7FD10B931B05DF82D
:100B880004FBFFF7B3FC000008B5394B5B6913F4AD
:100B9800003F13D1BFF34F8FBFF36F8F344B002249
:100BA800C3F85022BFF34F8FBFF36F8F5A6942F4D7
:100BB80000325A61BFF34F8FBFF36F8F2C4B5B69C5
:100BC80013F4803F27D12A4B0022C3F88420BFF3B7
:100BD8004F8FD3F88040C4F34E3000E01846C4F37A
:100BE800C90243F6E07303EA401343EA82732049DB
:100BF800C1F860321346013A002BF2D1431E002897
:100C0800ECD1BFF34F8F4B6943F480334B61BFF393
:100C18004F8FBFF36F8F04F0B9F9FFF723FFFFF78A
:100C28008DFFFFF755FBFFF763FCFFF7AFFCFFF7FE
:100C3800F9FCFFF721FDFFF74BFDFFF77FFDFFF7FD
:100C4800D1FDFFF72DFEFFF757FEFFF7ABFEFFF7CD
:100C5800D9FE084801F086F9074801F083F90748EA
:100C680001F080F900F0A8FA00F024FBFCE700BFCF
:100C780000ED00E0F8030020B40400207005002017
:100C8800FEE7FEE7FEE7FEE7FEE7704770477047BE
:100C980010B5044602680A4B9A4208D02268094BEC
:100CA8009A4207D02268084B9A4206D010BD00F03D
:100CB80057FBF3E700F086FAF4E700F021FBF5E7CD
:100CC80000400140004401400048014082B0074B09
:100CD800D3F8F42042F00202C3F8F420D3F8F43039
:100CE80003F002030193019B02B0704700440258CD
:100CF80010B58AB0002305930693079308930993C8
:100D08000368274A934204D0264A934239D00AB04E
:100D180010BD254BD3F8D82042F02002C3F8D820C4
:100D2800D3F8D82002F020020192019AD3F8E020EB
:100D380042F00102C3F8E020D3F8E02002F00102FB
:100D48000292029AD3F8E02042F02002C3F8E02091
:100D5800D3F8E03003F020030393039B802305932B
:100D68000324069405A9114803F0A0FF4FF480530B
:100D7800059306940023079305A90D4803F096FFF1
:100D8800C5E7094BD3F8E02042F08072C3F8E020B1
:100D9800D3F8E03003F080730493049BB7E700BFF7
:100DA8000020024000600258004402580000025827
:100DB8000014025800B58BB00023059306930793DF
:100DC800089309930368354A934205D0344A9342FD
:100DD80033D00BB05DF804FB324A1368013313605B
:100DE800012B1CD0304BD3F8E02042F00102C3F8AD
:100DF800E020D3F8E03003F001030293029B4FF4A4
:100E0800C0530593022306930123079303230893F2
:100E18000923099305A9254803F048FFD9E7224B80
:100E2800D3F8EC2042F48072C3F8EC20D3F8EC300D
:100E380003F480730193019BD4E71A4A13680133C2
:100E48001360012B1CD0184BD3F8E02042F00202AB
:100E5800C3F8E020D3F8E03003F002030493049BC6
:100E68004FF440530593022306930123079303236A
:100E780008930923099305A90D4803F017FFA8E76C
:100E8800094BD3F8EC2042F48072C3F8EC20D3F875
:100E9800EC3003F480730393039BD4E700A0004075
:100EA80000A40040E8060020004402580000025850
:100EB8000004025810B5B8B00446002133913491AB
:100EC800359136913791BC2204A806F0EDF82368D5
:100ED800364A934204D0364A934233D038B010BDD4
:100EE8000823049304A802F0EFFB40BB314CD4F86C
:100EF800E03043F00203C4F8E030D4F8E03003F007
:100F080002030093009B4FF44073339312233493EE
:100F180001233593002336930423379333A92648B6
:100F280003F0C4FED4F8E83043F40013C4F8E83002
:100F3800D4F8E83003F400130193019BCEE7FFF7E0
:100F4800D5FAD3E7102304930DEB030002F0BCFBA2
:100F580040BB184CD4F8E03043F00803C4F8E03044
:100F6800D4F8E03003F008030293029B4FF4405397
:100F780033931223349301233593002336930423A8
:100F8800379333A90D4803F091FED4F8F43043F0B9
:100F98008003C4F8F430D4F8F43003F080030393EA
:100FA800039B9BE7FFF7A2FAD3E700BF005400407A
:100FB800001C00580044025800040258000C025853
:100FC80010B5B6B004460021319132913391349175
:100FD8003591BC2202A806F067F822681B4B9A429A
:100FE80001D036B010BD4FF40053029302A802F0AE
:100FF8006BFB38BB164BD3F8F02042F48012C3F8D1
:10100800F020D3F8F02002F480120092009AD3F86E
:10101800E02042F02002C3F8E020D3F8E03003F0EB
:1010280020030193019B4FF4707331930223329391
:101038000023339334930523359331A9054803F0EE
:1010480035FECEE7FFF752FAD4E700BF0050014063
:10105800004402580014025800B585B003682F4AAE
:1010680093420BD02E4A934216D02E4A934229D04F
:101078002D4A93423CD005B05DF804FB2B4BD3F8C6
:10108800E82042F00802C3F8E820D3F8E83003F07B
:1010980008030093009BEEE7244BD3F8F02042F4BA
:1010A8008032C3F8F020D3F8F03003F48033019392
:1010B800019B00220E21742000F072FD742000F0C4
:1010C800A5FDD8E7194BD3F8F02042F40032C3F855
:1010D800F020D3F8F03003F400330293029B00228F
:1010E8000C21752000F05CFD752000F08FFDC2E733
:1010F8000E4BD3F8F02042F48022C3F8F020D3F846
:10110800F03003F480230393039B00220D21762003
:1011180000F046FD762000F079FDACE7000C0040B9
:10112800004001400044014000480140004402588A
:1011380000B587B0002301930293039304930593AA
:1011480002680E4B9A4202D007B05DF804FB0C4BC4
:10115800D3F8E02042F00102C3F8E020D3F8E030F1
:1011680003F001030093009B0823019302230293D9
:10117800059301A9034803F099FDE5E7000C004039
:10118800004402580000025808B500F075FB08BD7D
:1011980008B500F003F900F083F900F001FB00F056
:1011A8004BFB00F0DBFC08BD08B500F07DF900F052
:1011B8008DF900F0D5F908BD08B500F0EBFA00F09C
:1011C80047FB08BD024A136801331360704700BF2C
:1011D800EC060020014B1868704700BFEC060020A1
:1011E80010B50446FFF7F6FF022C07D0032C08D0F1
:1011F800012C00D010BD044B1861FBE7024B98612D
:10120800F8E7014B1862F5E7EC06002010B5044634
:10121800FFF7E0FF022C0FD0032C10D0012C08D0D0
:101228000023C31A022C11D0032C13D0012C09D08F
:1012380010BD0A4B1B69F4E7084B9B69F1E7074BA4
:101248001B6AEEE7054A53635061F1E7034A93636B
:10125800D061EDE7014AD3635062E9E7EC0600206C
:1012680010B50446FFF7B6FF022C0FD0032C10D0A0
:10127800012C08D00023C31A022C11D0032C13D040
:10128800012C09D010BD0A4B9B6AF4E7084BDB6AB6
:10129800F1E7074B1B6BEEE7054A13649062F1E731
:1012A800034A5364D062EDE7014A93641063E9E7A7
:1012B800EC06002008B5104B93F85630012B09D0E6
:1012C8000420FFF78DFF0420FFF7A0FF0420FFF79D
:1012D800C7FF08BD084B094A1A66002283F8562042
:1012E8000320FFF77DFFFFF74FFF0320FFF78EFF77
:1012F8000320FFF7B5FFECE7EC060020911100088A
:1013080008B5144B5A6801325A60012183F8541009
:10131800114BA3FB02135B09642101FB132333B9AF
:101328000C4BDA680132DA60012283F85620094B47
:101338000A4A9A65002283F854200120FFF750FFDB
:10134800FFF726FF0120FFF761FF0120FFF788FF65
:1013580008BD00BFEC0600201F85EB51991100085D
:1013680008B50C4B9A6801329A60012283F855201F
:10137800094ADA65002283F855200220FFF730FF7A
:10138800FFF712FF0220FFF741FF0220FFF768FF77
:1013980008BD00BFEC060020B111000810B5394A9D
:1013A80013780133DBB21370642B02D91346002281
:1013B8001A70344B1B78192B1FD9A3F11A02D2B219
:1013C800182A31D9333BDBB2182B44D82E4C0022D3
:1013D8004021204603F081FD00228021204603F0B1
:1013E8007CFD01221021294803F077FD00224FF4EB
:1013F8008071274803F071FD15E0234C012240213C
:10140800204603F06AFD00228021204603F065FD96
:10141800002210211D4803F060FD00224FF4807166
:101428001B4803F05AFD10BD174C002240212046EE
:1014380003F053FD01228021204603F04EFD0022D7
:101448001021124803F049FD00224FF48071104822
:1014580003F043FDE7E70C4C00224021204603F04F
:101468003CFD00228021204603F037FD0022102198
:10147800064803F032FD01224FF48071044803F05E
:101488002CFDD0E75007002000040258001C025829
:1014980000200258014B00225A747047540700205C
:1014A80008B5FFF7F7FF08BD08B50A230322054969
:1014B8000978054803F03CFE18B1024A1378013355
:1014C800137008BD51070020D802002010B51E4C2B
:1014D800204604F01FFB0A21204603F0A3FFD8B1E1
:1014E800194C204604F016FB0A21204603F09AFF07
:1014F800C0B1164C204604F00DFB0A21204603F02B
:1015080091FFA8B1114C204604F004FB0A212046A3
:1015180003F088FF90B110BD204604F019F80C4B79
:101528001860DDE7204604F013F80A4B1860E0E77E
:10153800204604F00DF8084B1860E3E7204604F055
:1015480007F8064B1860E6E7380000209C000020EA
:10155800A0070020A807002098070020B007002057
:101568001F4B93ED007AB8EE477ADFED1E5A27EE4F
:10157800257ADFED1D6A87EE266ABCEEC66A1B4B2C
:1015880083ED006A1A4BD3ED007AF8EE677A67EEBE
:10159800A57A87EEA67ABCEEC77A164B83ED007A59
:1015A800154B93ED007AB8EE477ADFED145A27EE23
:1015B800257A87EE266ABCEEC66A114B83ED006A6F
:1015C800104BD3ED007AF8EE677A67EEA57A87EECE
:1015D800A67ABCEEC77A0C4B83ED007A704700BF41
:1015E800A007002000409C4500FF7F47A40700207B
:1015F800A8070020AC0700209807002000404E45AF
:101608009C070020B0070020B407002008B5024658
:101618004FF48071014803F060FC08BD00200258B7
:1016280038B50446194D00F001020421284603F09C
:1016380054FCC4F340020821284603F04EFCC4F3CE
:1016480080024FF48071284603F047FCC4F3C002BF
:101658004FF40071284603F040FCC4F300124FF425
:101668008061284603F039FCC4F340120121084880
:1016780003F033FCC4F380120221064803F02DFC6A
:10168800E2094021044803F028FC38BD001C025838
:1016980000080258000402580018025838B50446D9
:1016A8001B4D00F001022021284603F016FCC4F36C
:1016B80040024021284603F010FC05F54065C4F3BC
:1016C80080024FF40051284603F007FCC4F3C0021F
:1016D8004FF480610F4803F000FCC4F300124FF48C
:1016E8000041284603F0F9FB05F58065C4F3401274
:1016F8000121284603F0F1FBC4F380120221284699
:1017080003F0EBFBE2090421284603F0E6FB38BDB1
:10171800001002580018025838B5044600F00102BB
:101728001021194803F0D9FB184DC4F340024FF4B7
:101738008051284603F0D1FBC4F3800240211448AD
:1017480003F0CBFBC4F3C0024FF40061284603F05A
:10175800C4FB05F50065C4F300121021284603F008
:10176800BCFBC4F340122021284603F0B6FBC4F3A7
:1017780080124021284603F0B0FBE2098021284668
:1017880003F0ABFB38BD00BF001002580018025828
:10179800000C025808B564210120FFF737FF08BD87
:1017A80008B5204A137883F0010303F0010313708E
:1017B8001D4B1B780F2B10D801224FF480611B485A
:1017C80003F08BFB184A137801331370154B1A7802
:1017D8008021174803F081FB08BD00224FF4806187
:1017E800124803F07AFB104B1B78112B0BD00E4BD1
:1017F8001B78122B0ED00C4B1B78132BE2D10A4B03
:1018080000221A70DEE700224FF48061094803F0D5
:1018180064FBECE701224FF48061064803F05DFBAE
:10182800E9E700BFB9070020B807002000140258F4
:10183800001802580020025808B5FF20FFF7F0FEF4
:10184800FF20FFF72BFFFF20FFF766FF08BD000012
:1018580008B5054805F024F8044B1870044805F04D
:101868001FF8044B187008BD00010020E007002095
:10187800EC01002008080020F8B5134940F6AA2713
:101888000F6000244C608C604FF40026CE600C6121
:101898004C618C61CC610C620C4D2A460C4805F0F9
:1018A80019F80C4B18700C490F604C608C60CE60B6
:1018B8000C614C618C61CC610C622A46074805F0CA
:1018C80009F8074B1870F8BDBC070020000000207D
:1018D80000010020E1070020E4070020EC010020BF
:1018E80009080020194B1B68184448F6A043984281
:1018F80002D9C0F50C40A03041F26F73984217D955
:10190800134B034441F26F72934215D9114B0344B0
:10191800934213D9104B0344934211D90F4B0344FC
:1019280093420FD90E4B034493420DD9002200E095
:1019380001220C4B1A7070470222FAE70322F8E7DB
:101948000422F6E70522F4E70622F2E70C08002055
:1019580090E8FFFF20D1FFFFB0B9FFFF40A2FFFFD3
:10196800D08AFFFF1108002000B587B0002301933B
:1019780002930393049305930190012908D001234E
:10198800029301A9054803F091F907B05DF804FB3B
:101998000223029301230593F3E700BF00040258D2
:1019A80038B5644B1B78002800F0B8800446013B2A
:1019B800052B00F2BD80DFE803F003203D5A779441
:1019C80001214FF40050FFF7CFFF5B4B5C6300240D
:1019D8009C63DC6302214FF44040FFF7C5FF574D7D
:1019E80001224FF48041284603F077FA22464FF44B
:1019F8000041284603F071FA9AE001214FF40050A3
:101A0800FFF7B2FF4C4B5C6300249C63DC6302214C
:101A18004FF44040FFF7A8FF484D22464FF480415D
:101A2800284603F05AFA01224FF40041284603F0F1
:101A380054FA7DE001214FF48040FFF795FF3E4BBB
:101A480000255D639C63DD6302214FF42040FFF7AE
:101A58008BFF3A4C2A464FF40051204603F03DFADA
:101A680001224FF40041204603F037FA60E00121DB
:101A78004FF48040FFF778FF2F4B00255D639C6390
:101A8800DD6302214FF42040FFF76EFF2B4C01224B
:101A98004FF40051204603F020FA2A464FF4004143
:101AA800204603F01AFA43E001214FF40040FFF703
:101AB8005BFF214B00255D639D63DC6302214FF4CE
:101AC800C040FFF751FF1D4C01224FF40051204642
:101AD80003F003FA2A464FF48041204603F0FDF94B
:101AE80026E001214FF40040FFF73EFF124B00258E
:101AF8005D639D63DC6302214FF4C040FFF734FF50
:101B08000E4C2A464FF40051204603F0E6F9012214
:101B18004FF48041204603F0E0F909E001214FF439
:101B28006040FFF721FF044B00225A639A63DA638F
:101B380038BD00BF11080020000001400004025811
:101B480008B54FF48051034803F0C0F9024B1870F0
:101B580008BD00BF000402581008002008B5054B56
:101B68001878FFF7BFFE044B1868FFF719FFFFF757
:101B7800E7FF08BD0A080020080000200649CB68D6
:101B880023F4E0631B041B0C000200F4E060034331
:101B9800024A1A43CA60704700ED00E00000FA05E7
:101BA80000B5174BDB68C3F30223C3F1070CBCF184
:101BB800040F28BF4FF0040C03F1040EBEF1060F0A
:101BC80014D9033B4FF0FF3E0EFA0CFC21EA0C013E
:101BD80099400EFA03F322EA03031943002807DBAE
:101BE8000901C9B2074B19545DF804FB0023E9E762
:101BF80000F00F000901C9B2034B1954F4E700BF04
:101C080000ED00E000E400E014ED00E0002807DB50
:101C180000F01F02400901239340024A42F8203095
:101C2800704700BF00E100E00138B0F1807F0BD2BF
:101C38004FF0E0235861054AF02182F82310002074
:101C4800986107221A6170470120704700ED00E093
:101C580070477047704770477047704770477047C4
:101C68007047704770470000F0B4036A23F001031F
:101C78000362036A466884691F4A22400D68154357
:101C880023F002038C6823431C4A1D4CA04218BF52
:101C980090420CBF012200220CD004F58044A042DF
:101CA80014BF00240124174FB84203D014B9164CAE
:101CB800A04205D123F00803CC68234323F0040392
:101CC8005AB9124A904214BF002201220D4CA04278
:101CD80003D012B90C4A904207D126F4407C4A69D5
:101CE80042EA0C0C8E6946EA0C06466085614A6831
:101CF80042630362F0BC70478CFFFEFF00000140A6
:101D080000040140004001400048014000440140F7
:101D180070B4036A23F480730362036A4568C46974
:101D28001A4A22400E68164323F400738A6843EA6D
:101D38000223174A174CA04218BF90420CBF012239
:101D4800002206D123F40063CC6843EA042323F479
:101D580080635AB9104A904214BF002201220F4CE6
:101D6800A04203D012B90E4A904207D125F4405C34
:101D78004A694CEA021C8D694CEA05154560C66142
:101D88004A68C263036270BC704700BF8CFFFEFFE5
:101D980000000140000401400044014000400140AF
:101DA8000048014070B4036A23F480530362036A55
:101DB8004468C569144A2A400D6842EA052223F49A
:101DC80000538D6843EA0533104E114DA84218BFE1
:101DD800B0420DD005F58045A84214BF0025012565
:101DE80006F58046B04203D015B90A4DA84204D181
:101DF80024F480444D6944EA85144460C2614A6809
:101E08000264036270BC7047FF8CFFFE0000014053
:101E1800000401400048014070B4036A23F4803391
:101E28000362036A4268456D144C2C400D682C43CC
:101E380023F400338D6843EA0543114E114DA8423F
:101E480018BFB0420DD005F58045A84214BF002543
:101E5800012506F58046B04203D015B90A4DA842BF
:101E680004D122F480324D6942EA05224260446579
:101E78004A688265036270BC704700BF8FFFFEFF2F
:101E880000000140000401400048014070B4036AAA
:101E980023F480130362036A4468456D144A2A4098
:101EA8000D6842EA052223F400138D6843EA0553BE
:101EB800104E114DA84218BFB0420DD005F580450F
:101EC800A84214BF0025012506F58046B04203D07C
:101ED80015B90A4DA84204D124F480244D6944EA76
:101EE8008524446042654A68C265036270BC7047D5
:101EF800FF8FFFFE00000140000401400048014040
:101F080010B4036A046A24F001040462846924F0AA
:101F1800F00C4CEA021223F00A030B4382610362BD
:101F28005DF8044B704710B4046A24F0100404628E
:101F38008469036A24F4704C4CEA023223F0A0034B
:101F480043EA0113826103625DF8044B70470000A5
:101F58008268034B13400B4343F0070383607047C9
:101F68008FFFCFFF90F83D30DBB2012B3AD102232F
:101F780080F83D300268D36843F00103D3600368FA
:101F88001A4AB3F1804F18BF93421DD0A2F57C4284
:101F9800934219D002F58062934215D002F580620F
:101FA800934211D002F5784293420DD0A2F56C42CB
:101FB800934209D002F59432934205D01A6842F050
:101FC80001021A60002070479968094A0A40062AE7
:101FD80018BFB2F5803F07D01A6842F001021A60B4
:101FE8000020704701207047002070470000014022
:101FF8000700010010B5044603681A6912F0020FC1
:1020080013D0DA6812F0020F0FD06FF002021A61D3
:102018000123037703689B6913F0030F00F0A38083
:10202800D0F8943098470023237723681A6912F070
:10203800040F14D0DA6812F0040F10D06FF0040205
:102048001A610223237723689B6913F4407F00F009
:102058009280D4F894302046984700232377236849
:102068001A6912F0080F14D0DA6812F0080F10D0AD
:102078006FF008021A61042323772368DB6913F0E1
:10208800030F00F08180D4F894302046984700234D
:10209800237723681A6912F0100F13D0DA6812F048
:1020A800100F0FD06FF010021A61082323772368EE
:1020B800DB6913F4407F70D0D4F8943020469847F9
:1020C8000023237723681A6912F0010F0AD0DA680F
:1020D80012F0010F06D06FF001021A61D4F88430B3
:1020E8002046984723681A6912F0800F0AD0DA68E8
:1020F80012F0800F06D06FF080021A61D4F8B43065
:102108002046984723681A6912F4807F0AD0DA6853
:1021180012F0800F06D06FF480721A61D4F8B830CC
:102128002046984723681A6912F0400F0AD0DA68E7
:1021380012F0400F06D06FF040021A61D4F88C30CC
:102148002046984723681A6912F0200F0AD0DA68E7
:1021580012F0200F06D06FF020021A61D4F8AC30CC
:102168002046984710BDD0F89C309847D4F8A03046
:102178002046984757E7D4F89C3020469847D4F82B
:10218800A0302046984768E7D4F89C302046984706
:10219800D4F8A0302046984779E7D4F89C302046F8
:1021A8009847D4F8A0302046984789E730B50368A7
:1021B800394A904214BF4FF0000E4FF0010EB0F1B3
:1021C800804F14BF72464EF00102AAB9334CA042A8
:1021D80014BF00240124324DA8420DD064B904F183
:1021E800804404F58234A04214BF0024012405F57C
:1021F8000065A84200D01CB123F070034C6823434B
:1022080012BB264A904214BF00220122244CA0424D
:102218001AD0CAB902F1804202F58232904214BF44
:102228000022012204F50064A0420DD062B91D4AC3
:10223800904214BF0022012204F59A34A04203D030
:1022480012B9194A904204D123F4407CCB6843EA7E
:102258000C0323F080034A69134303608A68C2624F
:102268000A688262114A904214BF73464EF0010315
:1022780063B90C4B984214BF0023012302F5705236
:10228800904203D013B9084B984201D10B690363FC
:102298000123436130BD00BF000001400008004039
:1022A800000400400044014000480140000401408F
:1022B80070B4036A23F010030362036A45688469F3
:1022C8001A4A22400E6842EA062623F020038A684A
:1022D80043EA0213164A174CA04218BF90420CBF9B
:1022E8000122002206D123F08003CC6843EA0413BC
:1022F80023F040035AB9104A904214BF0022012229
:102308000E4CA04203D012B90D4A904207D125F4D1
:10231800406C4A694CEA820C8D694CEA8505456037
:1023280086614A688263036270BC7047FF8CFFFE57
:102338000000014000040140004401400040014009
:102348000048014090F83C30012B36D010B50446C7
:10235800012380F83C30142A2AD8DFE802F00B2940
:10236800292910292929152929291A2929291F291B
:10237800292924000068FFF777FC002019E000688D
:10238800FFF796FF002014E00068FFF7C1FC00206B
:102398000FE00068FFF706FD00200AE00068FFF77D
:1023A8003BFD002005E00068FFF770FD002000E01D
:1023B8000120002384F83C3010BD0220704738B556
:1023C80090F83C30012B00F0958004460D4601231F
:1023D80080F83C30142A00F28880DFE802F00B868F
:1023E80086861F86868634868686488686865D86A5
:1023F800868671000068FFF737FC2268936943F00E
:10240800080393612268936923F0040393612268A7
:10241800936929690B439361002067E00068FFF71F
:1024280047FF2268936943F40063936122689369C4
:1024380023F48063936122689369296943EA01233D
:102448009361002052E00068FFF762FC2268D369BC
:1024580043F00803D3612268D36923F00403D361EE
:102468002268D36929690B43D36100203EE00068E4
:10247800FFF798FC2268D36943F40063D3612268AC
:10248800D36923F48063D3612268D369296943EA55
:102498000123D361002029E00068FFF7BDFC226812
:1024A800536D43F0080353652268536D23F004030A
:1024B80053652268536D29690B435365002015E065
:1024C8000068FFF7E3FC2268536D43F4006353652B
:1024D8002268536D23F4806353652268536D29691C
:1024E80043EA01235365002000E00120002384F81B
:1024F8003C3038BD0220FCE710B4846824F47F4CDB
:1025080042EA03220A4342EA0C0282605DF8044B65
:102518007047000090F83C30012B00F08F8010B518
:102528000446012380F83C30022380F83D300268DD
:102538009068434B034093600B68702B55D031D89B
:10254800502B6CD00CD9602B2AD1CA6849682068F6
:10255800FFF7E9FC60212068FFF7FAFC002035E06E
:10256800402B0AD1CA6849682068FFF7C9FC402196
:102578002068FFF7EDFC002028E05BD8202B07D06F
:1025880003D9302B04D0012020E00BB1102B05D14A
:1025980019462068FFF7DCFC002017E0012015E051
:1025A800012013E0B3F5005F2CD00BD9254A9342E4
:1025B800EED012D9244A9342EAD010329342E7D09F
:1025C800012003E0B3F5805F36D10020012384F8B1
:1025D8003D30002384F83C3010BDB3F5801FD7D0C0
:1025E800B3F1101FD4D00120F0E7CB684A6889689E
:1025F8002068FFF781FF2268936843F077039360B0
:102608000020E3E7CB684A6889682068FFF774FF11
:102618002268936843F4804393600020D6E7CA6831
:1026280049682068FFF76CFC50212068FFF790FC90
:102638000020CBE70120C9E70120C7E70220704747
:102648008800CEFF2000100030001000154BC0F8A5
:102658008430154BC0F88830144BC0F88C30144BBC
:10266800C0F89030134BC0F89430134BC0F8983032
:10267800124BC0F89C30124BC0F8A030114BC0F878
:10268800A430114BC0F8A830104BC0F8AC30104B38
:10269800C0F8B0300F4BC0F8B4300F4BC0F8B830AA
:1026A800704700BF990C00085D1C0008691C0008F1
:1026B8006B1C0008611C0008631C00085F1C0008F4
:1026C800651C0008671C00086D1C000871290008BB
:1026D800732900087529000877290008A0B310B5E8
:1026E800044690F83D3013B3022384F83D30214668
:1026F80051F8040BFFF75AFD012384F8483084F899
:102708003E3084F83F3084F8403084F8413084F813
:10271800423084F8433084F8443084F8453084F8F3
:10272800463084F8473084F83D30002010BD80F8EA
:102738003C30FFF78BFFE36C1BB1E36C20469847F6
:10274800D2E7024BE364F8E7012070476110000804
:10275800A0B310B5044690F83D3013B3022384F8B3
:102768003D30214651F8040BFFF720FD012384F882
:10277800483084F83E3084F83F3084F8403084F89C
:10278800413084F8423084F8433084F8443084F887
:10279800453084F8463084F8473084F83D300020CE
:1027A80010BD80F83C30FFF751FFE36D1BB1E36DBE
:1027B80020469847D2E7024BE365F8E701207047C7
:1027C800591C0008A0B310B5044690F83D3013B367
:1027D800022384F83D30214651F8040BFFF7E6FC4C
:1027E800012384F8483084F83E3084F83F3084F878
:1027F800403084F8413084F8423084F8433084F81B
:10280800443084F8453084F8463084F8473084F8FA
:102818003D30002010BD80F83C30FFF717FF636E95
:102828001BB1636E20469847D2E7024B6366F8E710
:10283800012070475B1C000890F83C30012B45D004
:1028480070B4012380F83C30022380F83D300368DF
:102858005A689C681E4E1F4DAB4218BFB34203D145
:1028680022F470024D682A4322F070020D682A4350
:102878005A600368164AB3F1804F18BF934217D0C5
:10288800A2F57C42934213D002F5806293420FD0A6
:1028980002F5806293420BD002F57842934207D04A
:1028A800A2F56C42934203D002F59432934204D1CC
:1028B80024F080048A6814439C60012380F83D302A
:1028C800002380F83C30184670BC704702207047DF
:1028D800000001400004014090F83C30012B3CD03E
:1028E80030B4012380F83C30CB6823F440738A6805
:1028F800134323F480634A68134323F400630A688C
:10290800134323F480530A69134323F400534A6999
:10291800134323F480438A6A134323F470238A6998
:1029280043EA024302680E4D0E4CA24218BFAA4267
:102938000CD123F470034C6A43EA045323F08073E8
:10294800CC69234323F00073096A0B4353640023C3
:1029580080F83C30184630BC70470220704700BFF2
:1029680000000140000401407047704770477047FD
:10297800002800F0188338B50446036813F0010FE7
:1029880025D0944A136903F03803926A102B15D0A6
:10299800182B0FD06368B3F5803F3FD0002B53D17D
:1029A8008C4B1A6822F480321A601A6822F480224A
:1029B8001A6038E002F00302022AEBD1854B1B684B
:1029C80013F4003F03D06368002B00F0EE82236805
:1029D80013F0020F00F0A1807E4A1369926A13F087
:1029E80038035AD0182B55D0E368002B00F0DE804E
:1029F80078490A6822F0190213430B6002F000FBC1
:102A08000546744B1B6813F0040F40F0AD8002F0CC
:102A1800F7FA401B0228F4D90320CDE26D4A136867
:102A280043F48033136063682BB302F0E9FA054678
:102A3800684B1B6813F4003FC9D102F0E1FA401B50
:102A48006428F5D90320B7E2B3F5A02F09D0614B6C
:102A58001A6822F480321A601A6822F480221A60F6
:102A6800E1E75C4B1A6842F480221A601A6842F463
:102A780080321A60D7E702F0C3FA0546554B1B6847
:102A880013F4003FA3D002F0BBFA401B6428F5D929
:102A9800032091E212F0030FA6D14E4B1B6813F0EE
:102AA800040F03D0E368002B00F08182494A1368C1
:102AB80023F01903E1680B43136002F0A1FA0546FD
:102AC800444B1B6813F0040F06D102F099FA401B1F
:102AD8000228F5D903206FE202F098FA41F20303C5
:102AE800984212D82269402A07D03A494B6823F401
:102AF8007C3343EA02334B600FE0364A536823F4D1
:102B08007C3343F40033536007E0324A536823F0C0
:102B1800FE43216943EA01635360236813F0100FF1
:102B280000F088802B4A136903F03803926A082B57
:102B380056D0182B50D0E369002B00F0B880254AF6
:102B4800136843F08003136002F05AFA0546214BDC
:102B58001B6813F4807F40F0888002F051FA401B14
:102B68000228F4D9032027E202F050FA41F20303C5
:102B7800984212D82269402A07D016494B6823F494
:102B88007C3343EA02334B60C7E7124A536823F4A5
:102B98007C3343F400335360BFE70E4A536823F095
:102BA800FE43216943EA01635360B6E7094A1368A3
:102BB80023F00103136002F023FA0546054B1B6856
:102BC80013F0040FA9D002F01BFA401B0228F5D914
:102BD8000320F1E10044025802F00302012AAAD1BD
:102BE800A14B1B6813F4807F03D0E369802B40F06E
:102BF800E08102F00BFA41F20303984212D8226AEC
:102C0800202A07D098494B6823F0F84343EA8263A7
:102C18004B600FE0944A536823F0F84343F0804335
:102C2800536007E0904AD36823F07C53216A43EA53
:102C38000163D360236813F0080F60D06369002B29
:102C480049D0894A536F43F00103536702F0D8F91A
:102C58000546854B5B6F13F0020F50D102F0D0F997
:102C6800401B0228F5D90320A6E102F0CFF941F272
:102C78000303984212D8226A202A07D07A494B685F
:102C880023F0F84343EA82634B60D3E7764A5368FC
:102C980023F0F84343F080435360CBE7724AD3688C
:102CA80023F07C53216A43EA0163D360C2E76E4A8A
:102CB800136823F08003136002F0A2F905466A4BFB
:102CC8001B6813F4807FB5D002F09AF9401B0228E4
:102CD800F5D9032070E1644A536F23F00103536769
:102CE80002F08EF90546604B5B6F13F0020F06D0B9
:102CF80002F086F9401B0228F5D903205CE123681D
:102D080013F0200F29D0A3699BB1574A136843F4E5
:102D18008053136002F074F90546534B1B6813F493
:102D2800005F1AD102F06CF9401B0228F5D9032084
:102D380042E14D4A136823F48053136002F060F9AE
:102D48000546494B1B6813F4005F06D002F058F99A
:102D5800401B0228F5D903202EE1236813F0040F45
:102D680021D1636A002B00F026813F4A126902F0E4
:102D78003802182A00F0EE80022B79D03A4A1368FC
:102D880023F08073136002F03BF90446364B1B684E
:102D980013F0007F00F0DC8002F032F9001B0228FB
:102DA800F4D9032008E1314A136843F480731360AF
:102DB80002F026F905462D4B1B6813F4807F06D1D7
:102DC80002F01EF9401B6428F5D90320F4E0A3683B
:102DD800012B0AD00BBB244B1A6F22F001021A6791
:102DE8001A6F22F004021A6704E01F4A136F43F0B7
:102DF80001031367A36833B302F002F905461A4BBF
:102E08001B6F13F0020FACD102F0FAF8401B41F22D
:102E180088339842F3D90320CEE0052B09D0124B12
:102E28001A6F22F001021A671A6F22F004021A6759
:102E3800E0E70D4B1A6F42F004021A671A6F42F06E
:102E480001021A67D6E702F0DBF80546064B1B6F4E
:102E580013F0020F85D002F0D3F8401B41F28833FB
:102E68009842F3D90320A7E00044025800480258CA
:102E7800594A136823F08073136002F0C1F80546BD
:102E8800554B1B6813F0007F06D002F0B9F8401BC1
:102E98000228F5D903208FE04F4B996A4F4A0A4020
:102EA800A16AE06A41EA00110A439A62226B013A78
:102EB800C2F30802616B0139490289B20A43A16B66
:102EC8000139090401F4FE010A43E16B01390906DD
:102ED80001F0FE410A431A63DA6A22F00102DA625B
:102EE800596B3F4A0A40A16C42EAC1025A63DA6A46
:102EF80022F00C02216C0A43DA62DA6A22F002023A
:102F0800616C0A43DA62DA6A42F48032DA62DA6AB7
:102F180042F40032DA62DA6A42F48022DA62DA6A69
:102F280042F00102DA621A6842F080721A6002F016
:102F380067F80446284B1B6813F0007F06D102F09F
:102F48005FF8001B0228F5D9032035E0002033E0A4
:102F5800002031E0204A916A106B012B2DD001F03E
:102F68000303A26A93422AD1C1F30511E36A994285
:102F780027D1C0F30802236B013B9A4223D1C0F347
:102F88004622636B013B9A421FD1C0F30642A36BF2
:102F9800013B9A421BD1C0F30660E36B013B9842A8
:102FA80017D1002008E001207047012004E001202B
:102FB80002E0012000E0002038BD0120FCE70120EC
:102FC800FAE70120F8E70120F6E70120F4E70120FD
:102FD800F2E70120F0E700BF004402580CFCFFFFB5
:102FE8000700FFFF744B1B6903F03803102B00F038
:102FF800DE80182B10D00BB1704870476E4B1B68E1
:1030080013F0200F00F0D5806B4B1868C0F3C10097
:103018006B4B23FA00F0704710B4674A916A01F0CD
:103028000301946AC4F30510D36A03F0010C536BCF
:10303800C3F3CC030CFB03F307EE903AF8EE677A80
:1030480014F47C7F00F09380012965D0022900F0F8
:103058009180E1B107EE100AF8EE476A9FED596AD0
:1030680086EE267A544B1B6BC3F3080306EE903AA0
:10307800F8EE666A9FED546A67EE867A76EEA77A6E
:10308800F7EE006A77EEA67A27EE277A60E01368F3
:1030980013F0200F23D011461268C2F3C102484B27
:1030A800D34007EE103AF8EE476A07EE100AB8EE7A
:1030B800476A86EE867A0B6BC3F3080306EE903AEE
:1030C800F8EE666A9FED406A67EE867A76EEA77A32
:1030D800F7EE006A77EEA67A27EE277A38E007EE51
:1030E800100AF8EE476A9FED396A86EE267A324B67
:1030F8001B6BC3F3080306EE903AF8EE666A9FED81
:10310800326A67EE867A76EEA77AF7EE006A77EE8D
:10311800A67A27EE277A1BE007EE100AF8EE476A30
:103128009FED286A86EE267A234B1B6BC3F30803B0
:1031380006EE903AF8EE666A9FED236A67EE867AA5
:1031480076EEA77AF7EE006A77EEA67A27EE277A68
:10315800194B1B6BC3F34623013307EE903AF8EE85
:10316800677AC7EE276AFCEEE67A17EE900A5DF8F2
:10317800044B704707EE100AF8EE476A9FED146A91
:1031880086EE267A0C4B1B6BC3F3080306EE903AC7
:10319800F8EE666A9FED0C6A67EE867A76EEA77A95
:1031A800F7EE006A77EEA67A27EE277AD0E7094885
:1031B80070470348704700BF0044025800093D00AB
:1031C8000090D0030024744A000000390024744C95
:1031D80020BCBE4B40787D01002800F0328170B5DC
:1031E8000D4604469B4B1B6803F00F038B420BD222
:1031F800984A136823F00F030B431360136803F016
:103208000F038B4240F01F81236813F0040F0CD08A
:103218002269914B9B6903F070039A4205D98E4944
:103228008B6923F070031A438A61236813F0080F2F
:103238000CD06269884BDB6903F070039A4205D9A8
:103248008549CB6923F070031A43CA61236813F0D8
:10325800100F0CD0A269804BDB6903F4E0639A423B
:1032680005D97D49CB6923F4E0631A43CA61236811
:1032780013F0200F0CD0E269774B1B6A03F0700340
:103288009A4205D974490B6A23F070031A430A62FB
:10329800236813F0020F0CD0E2686F4B9B6903F0B0
:1032A8000F039A4205D96C498B6923F00F031A431F
:1032B8008A61236813F0010F41D0674A936923F4A8
:1032C8007063A1680B4393616368022B0AD0032BD8
:1032D80027D0012B2CD0604A126812F0040F06D1B7
:1032E8000120ADE0126812F4003F00F0AE805A49A8
:1032F8000A6922F0070213430B6101F081FE0646BA
:10330800554B1B6903F038036268B3EBC20F16D044
:1033180001F076FE801B41F288339842F0D90320F1
:103328008EE04D4A126812F0007FE0D1012087E05C
:10333800494A126812F4807FD9D1012080E02368BD
:1033480013F0020F0CD0E268434B9B6903F00F03A4
:103358009A4205D240498B6923F00F031A438A61C8
:103368003C4B1B6803F00F03AB420AD9394A136878
:1033780023F00F032B431360136803F00F03AB42D2
:1033880065D1236813F0040F0CD02269324B9B6976
:1033980003F070039A4205D22F498B6923F070031A
:1033A8001A438A61236813F0080F0CD062692A4B0C
:1033B800DB6903F070039A4205D22749CB6923F0F1
:1033C80070031A43CA61236813F0100F0CD0A26966
:1033D800214BDB6903F4E0639A4205D21E49CB69AD
:1033E80023F4E0631A43CA61236813F0200F0CD05A
:1033F800E269194B1B6A03F070039A4205D2164919
:103408000B6A23F070031A430A62FFF7EBFD1249B7
:103418008B69C3F30323114AD35C03F01F03D8401D
:103428008B6903F00F03D35C03F01F0320FA03F347
:103438000B4A13600B4B18600B4B186801F07EFDAC
:1034480070BD012070470120FAE70120F8E701204C
:10345800F6E700BF0020005200440258247100081B
:1034680018000020140000201000002008B5FFF705
:10347800B9FD0B4A9369C3F303230A49CB5C03F0F4
:103488001F0320FA03F3926902F00F02885C00F030
:103498001F0023FA00F0044A1060044A136008BDB4
:1034A800004402582471000818000020140000206D
:1034B800404B9B6A03F00303032B79D070B5054694
:1034C8000E463C4A136823F08063136001F098FDB0
:1034D8000446384B1B6813F0006F06D001F090FDCE
:1034E800031B022BF5D9032070BD324B9A6A22F4D4
:1034F8007C32296842EA01329A626A68013AC2F368
:103508000802A9680139490289B20A43E968013900
:10351800090401F4FE010A4329690139090601F089
:10352800FE410A439A63DA6A22F0C00269690A43D3
:10353800DA62DA6A22F02002A9690A43DA62DA6AF0
:1035480022F01002DA62D96B1B4A0A40E96942EAA2
:10355800C102DA63DA6A42F01002DA62C6B91A46C0
:10356800DB6A43F40023D362124A136843F0806392
:10357800136001F045FD04460E4B1B6813F0006F05
:1035880014D101F03DFD001B0228F5D90320ABE75B
:10359800012E05D0074AD36A43F40013D362E3E748
:1035A800044AD36A43F48013D362DDE700209BE723
:1035B80001207047004402580700FFFF404B9B6AF8
:1035C80003F00303032B79D070B505460E463C4A39
:1035D800136823F08053136001F012FD0446384B42
:1035E8001B6813F0005F06D001F00AFD031B022BD5
:1035F800F5D9032070BD324B9A6A22F07C72296893
:1036080042EA01529A626A68013AC2F30802A9685A
:103618000139490289B20A43E9680139090401F408
:10362800FE010A4329690139090601F0FE410A43EE
:103638001A64DA6A22F4406269690A43DA62DA6A69
:1036480022F40072A9690A43DA62DA6A22F4807203
:10365800DA62596C1B4A0A40E96942EAC1025A64B3
:10366800DA6A42F48072DA62C6B91A46DB6A43F44F
:103678008003D362124A136843F08053136001F049
:10368800BFFC04460E4B1B6813F0005F14D101F019
:10369800B7FC001B0228F5D90320ABE7012E05D0A3
:1036A800074AD36A43F08073D362E3E7044AD36AD4
:1036B80043F40003D362DDE700209BE70120704755
:1036C800004402580700FFFFF8B50446036813F0EA
:1036D800006F30D0436EB3F5001F26D00ED8EBB183
:1036E800B3F5801F07D102210430FFF7E1FE05463C
:1036F80045B12E4621E0012635461EE0B3F5401FB0
:1037080009D10025954A136D23F44013616E0B43CC
:103718001365002611E0012635460EE08F4AD36A6C
:1037280043F40033D3620025ECE702212430FFF78D
:1037380045FF0546DCE700263546236813F4807FFD
:1037480014D0636D042B30D8DFE803F00322280877
:103758000800824AD36A43F40033D36245BB7F4AE8
:10376800136D23F00703616D0B431365236813F48E
:10377800007F2FD0A36D802B49D01ED8002B40D0BE
:10378800402B17D10021201DFFF792FE054619E0B6
:103798000021201DFFF78CFE0546DFE7002104F11C
:1037A8002400FFF70BFF0546D8E701263546DDE77D
:1037B8002E46DBE7012635460CE0C02B02D0B3F5D8
:1037C800807F1BD155BB654A136D23F4E073A16D4F
:1037D8000B431365236813F4806F45D0D4F8A430E5
:1037E800B3F5800F38D01ED883B3B3F5001F17D1B7
:1037F8000021201DFFF75CFE05461AE0012635462C
:10380800E8E7564AD36A43F40033D362DAE7002183
:1038180004F12400FFF7D2FE0546D3E72E46D9E788
:103828000126354620E0B3F5C00F02D0B3F5000FEE
:1038380009D1C5B9494A936D23F46003D4F8A4109B
:103848000B43936510E0012635460DE0434AD36AE1
:1038580043F40033D362ECE7002104F12400FFF7BE
:10386800ADFE0546E5E72E46236813F4006F23D026
:10387800D4F8A830B3F1007F41D00DD8002B38D050
:10388800B3F1807F05D10021201DFFF711FE054609
:1038980008E0012635460FE0B3F1407F02D0B3F1CE
:1038A800806F23D1002D31D12C4A936D23F0E06332
:1038B800D4F8A8100B439365236813F0007F2ED02B
:1038C800A36C202B3FD026D833B1102B20D1234A0C
:1038D800D36A43F40033D362002D3AD11F4AD36C24
:1038E80023F03003A16C0B43D36418E0012635465E
:1038F800E2E71A4AD36A43F40033D362D2E70021DD
:1039080004F12400FFF75AFE0546CBE72E46D3E71D
:103918000126354603E0302BDED0012635462368E4
:1039280013F4805F2BD0E36DB3F5005F4CD017D84C
:10393800002B43D0B3F5805F0DD10021201DFFF788
:10394800B7FD054612E00221201DFFF7B1FD05462F
:10395800C2E72E46E3E70126354610E00044025848
:10396800B3F5405F02D0B3F5804F24D1002D32D19A
:10397800754A136D23F4E043E16D0B431365236827
:1039880013F4005F37D0236EB3F5003F51D027D82A
:103998003BB1B3F5803F20D10121201DFFF788FD01
:1039A8000546002D4CD1684A136D23F4E023216E9F
:1039B8000B4313651FE001263546E0E7624AD36AE8
:1039C80043F40033D362D1E7002104F12400FFF768
:1039D800F5FD0546CAE72E46D1E7012635460AE039
:1039E800B3F5802FDDD0B3F5A02FDAD0B3F5403F83
:1039F800D7D001263546236813F4804F30D0D4F849
:103A0800AC30B3F1005F44D01FD83BB1B3F1805F55
:103A180018D10121201DFFF74BFD0546002D3FD190
:103A2800494A936D23F0E043D4F8AC100B439365F7
:103A380016E0012104F12400FFF7C0FD0546B0E7B8
:103A48002E46D8E7012635460AE0B3F1804FE5D087
:103A5800B3F1A04FE2D0B3F1405FDFD00126354685
:103A6800236813F4004F09D0E36EB3F1805F19D0D7
:103A7800B3F1005F24D0D3B101263546236813F093
:103A8800807F32D0636C032B59D8DFE803F02621FE
:103A98005226012104F12400FFF790FD0546BDE7F9
:103AA8002E46DDE7284AD36A43F40033D3626DB962
:103AB800254A136D23F04053E16E0B431365DDE790
:103AC8000121201DFFF7F4FC0546F0E72E46D5E757
:103AD8001D4AD36A43F40033D3629DBB1A4AD36CA0
:103AE80023F00303616C0B43D364236813F4800F42
:103AF8002CD1236813F0010F00F0A380A36F282BAB
:103B080000F29D80DFE803F08B9B9B9B9B9B9B9B1C
:103B1800869B9B9B9B9B9B9B949B9B9B9B9B9B9B09
:103B28008B9B9B9B9B9B9B9B8B9B9B9B9B9B9B9BFD
:103B38008B000221201DFFF7BBFC0546CDE70126BF
:103B48003546D2E72E46D0E7004402588F4A13681C
:103B580043F48073136001F053FA07468B4B1B68DC
:103B680013F4807F05D101F04BFAC01B6428F5D906
:103B78000325002D4AD1864B1B6FD4F8B020534043
:103B880013F4407F0CD0824B1A6F22F44072196FE5
:103B980041F480311967196F21F4803119671A6768
:103BA800D4F8B030B3F5807F15D08DBBD4F8B030E1
:103BB80003F44072B2F5407F1ED0754A136923F4AE
:103BC8007C53136172490B6FD4F8B020C2F30B0217
:103BD80013430B678DE701F013FA07466C4B1B6F15
:103BE80013F0020FE1D101F00BFAC01B41F2883348
:103BF8009842F3D90325D8E76548026922F47C5234
:103C0800644901EA131313430361DBE72E4670E7A7
:103C18002E466EE70121201DFFF74AFC0546E5B94F
:103C28005B4A536D23F03803A16F0B43536508E0DB
:103C3800012104F12400FFF7C1FC0546EFE7012646
:103C48003546236813F0020F16D0636F052B27D86B
:103C5800DFE803F00A051F0A0A0A2E46F1E70121E8
:103C6800201DFFF725FC0546EDB9494A536D23F0A1
:103C78000703616F0B435365236813F0040F22D0C9
:103C8800D4F89030052B43D8DFE803F0140F3B1429
:103C98001414012104F12400FFF790FC0546E3E722
:103CA80001263546E8E72E46E6E70121201DFFF705
:103CB800FFFB05467DBB364A936D23F00703D4F816
:103CC80090100B439365236813F0200F33D0D4F87A
:103CD8008C30B3F1005F4CD022D83BB1B3F1805F98
:103CE8001BD10021201DFFF7E3FB0546002D47D11E
:103CF800274A536D23F0E043D4F88C100B435365E7
:103D080019E0012104F12400FFF758FC0546D1E72A
:103D180001263546D7E72E46D5E7012635460AE07F
:103D2800B3F1804FE2D0B3F1A04FDFD0B3F1405FE1
:103D3800DCD001263546236813F0400F37D0D4F87D
:103D48009830B3F5006F52D026D83BB1B3F5806FE9
:103D580018D10021201DFFF7ABFB0546002D4DD1E2
:103D68000B4A936D23F4E053D4F898100B439365F2
:103D78001DE0022104F12400FFF720FC0546B5E709
:103D88002E46D8E70126354611E000BF0048025804
:103D980000440258CFFFFF00B3F5805FDED0B3F5D3
:103DA800A05FDBD0B3F5406FD8D001263546236835
:103DB80013F0800F32D0D4F89C30B3F5804F00F068
:103DC8009D8020D83BB1B3F5005F19D10021201D9B
:103DD800FFF76EFB0546002D40F09780A54A936DCE
:103DE80023F46043D4F89C100B43936516E002213A
:103DF80004F12400FFF7E2FB0546AFE72E46D6E7BD
:103E0800012635460AE0B3F5004FE4D0B3F5204F5C
:103E1800E1D0B3F5C04FDED001263546236813F054
:103E2800080F0CD0D4F88030B3F5805F6FD0914A7A
:103E3800536D23F44053D4F880100B435365236823
:103E480013F0100F0CD0D4F89430B3F5807F67D0FE
:103E5800884A936D23F44073D4F894100B43936508
:103E6800236813F4002F0BD0D4F8A030B3F5803FAB
:103E78006ED0B3F5003F61D0002B5AD001263546ED
:103E8800236813F4802F0CD0D4F88430B3F5001FC6
:103E980076D0B3F5401F69D0B3F5801F61D00126F5
:103EA8003546236813F4803F07D0E36C002B70D0AD
:103EB800B3F5803F7BD001263546236813F0005FB9
:103EC8007DD1236813F4003F00F08680E36FB3F5DB
:103ED800807F00F0C6807CD9B3F5007F03D0B3F5AE
:103EE800407F40F0BC80002D40F0C180614A536D96
:103EF80023F44073E16F0B4353656DE0022104F135
:103F08002400FFF75BFB054665E72E4686E702219E
:103F180004F12400FFF752FB002888D0012686E729
:103F2800022104F12400FFF749FB002890D0012664
:103F38008EE70021201DFFF7BBFA05467DB94D4AE3
:103F4800936D23F44033D4F8A0100B43936597E79F
:103F5800022104F12400FFF731FB0546EEE72E4667
:103F68008EE7444AD36A43F40033D3627DB9414AA9
:103F7800536D23F44013D4F884100B43536590E732
:103F8800012104F12400FFF719FB0546EEE72E4650
:103F980087E7384AD36A43F40033D3626DB9354AA8
:103FA800D36C23F48033E16C0B43D36485E702219F
:103FB800201DFFF77DFA0546F0E72E467DE7022132
:103FC80004F12400FFF7FAFA00283FF47AAF01263B
:103FD80077E7002B87D00126236813F4801F06D0CB
:103FE800244A136D23F00043216F0B4313652368A4
:103FF80013F0805F07D01F4A136923F48043D4F875
:10400800B4100B431361236813F4001F06D0194A38
:10401800136D23F08073A16E0B431365236813F0AF
:10402800804F09D0134B1A6922F400421A611A69A9
:10403800D4F8B8100A431A612368002B1CDB2368E4
:1040480013F4000F07D00B4A536D23F44003D4F840
:1040580088100B43536506B101263046F8BD01268A
:10406800BAE7044AD36A43F40033D3623BE72E46E7
:10407800B2E700BF00440258034AD36C23F0405310
:10408800216D0B43D364DAE70044025808B5FFF703
:10409800EDF9054B1B6AC3F30213044AD35C03F022
:1040A8001F03D84008BD00BF00440258247100080F
:1040B80010B5774A916A946AC4F3053ED36AC3F38C
:1040C800001CD36BC3F3CC030CFB03F314F47C3F49
:1040D80000F0D88001F0030107EE903AF8EE677A15
:1040E800012965D0022900F0B080E1B107EE10EA9D
:1040F800B8EE477A9FED676AC6EE076A644B9B6B1A
:10410800C3F3080307EE103AB8EE477A9FED626AE8
:1041180067EE867A77EE277AB7EE007A77EE877AB7
:1041280066EEA76A60E0136813F0200F23D01146EB
:104138001268C2F3C102594BD34007EE103AB8EEE9
:10414800477A06EE90EAB8EE666AC7EE066A8B6BA7
:10415800C3F3080307EE103AB8EE477A9FED4E6AAC
:1041680067EE867A77EE277AB7EE007A77EE877A67
:1041780066EEA76A38E007EE10EAB8EE477A9FEDD8
:10418800486AC6EE076A424B9B6BC3F3080307EE07
:10419800103AB8EE477A9FED406A67EE867A77EE76
:1041A800277AB7EE007A77EE877A66EEA76A1BE081
:1041B80007EE10EAB8EE477A9FED366AC6EE076A50
:1041C800334B9B6BC3F3080307EE103AB8EE477AFC
:1041D8009FED316A67EE867A77EE277AB7EE007A36
:1041E80077EE877A66EEA76A294A936BC3F346236C
:1041F80007EE103AB8EE477AB7EE006A37EE067A5D
:10420800C6EE877AFCEEE77AC0ED007A936BC3F3CB
:10421800064307EE103AB8EE477A37EE067AC6EE4E
:10422800877AFCEEE77AC0ED017A936BC3F30663F5
:1042380007EE903AF8EE677A77EE867A86EEA77AF6
:10424800BCEEC77A80ED027A10BD07EE10EAB8EE30
:10425800477A9FED146AC6EE076A0D4B9B6BC3F352
:10426800080307EE103AB8EE477A9FED0B6A67EE3F
:10427800867A77EE277AB7EE007A77EE877A66EE57
:10428800A76AB1E70023036043608360DCE700BFEF
:10429800004402580024744A000000390090D003FA
:1042A8000024744C20BCBE4B10B5774A916A946ABE
:1042B800C4F3055ED36AC3F3002C536CC3F3CC0379
:1042C8000CFB03F314F07C7F00F0D88001F00301AD
:1042D80007EE903AF8EE677A012965D0022900F0D6
:1042E800B080E1B107EE10EAB8EE477A9FED676A51
:1042F800C6EE076A644B1B6CC3F3080307EE103A5B
:10430800B8EE477A9FED626A67EE867A77EE277A8B
:10431800B7EE007A77EE877A66EEA76A60E01368F0
:1043280013F0200F23D011461268C2F3C102594B73
:10433800D34007EE103AB8EE477A06EE90EAB8EEA8
:10434800666AC7EE066A0B6CC3F3080307EE103AF9
:10435800B8EE477A9FED4E6A67EE867A77EE277A4F
:10436800B7EE007A77EE877A66EEA76A38E007EE4E
:1043780010EAB8EE477A9FED486AC6EE076A424BE4
:104388001B6CC3F3080307EE103AB8EE477A9FEDAB
:10439800406A67EE867A77EE277AB7EE007A77EE8C
:1043A800877A66EEA76A1BE007EE10EAB8EE477A4E
:1043B8009FED366AC6EE076A334B1B6CC3F30803DE
:1043C80007EE103AB8EE477A9FED316A67EE867AC3
:1043D80077EE277AB7EE007A77EE877A66EEA76AE5
:1043E800294A136CC3F3462307EE103AB8EE477A0E
:1043F800B7EE006A37EE067AC6EE877AFCEEE77A01
:10440800C0ED007A136CC3F3064307EE103AB8EE1A
:10441800477A37EE067AC6EE877AFCEEE77AC0ED81
:10442800017A136CC3F3066307EE903AF8EE677AE5
:1044380077EE867A86EEA77ABCEEC77A80ED027AA6
:1044480010BD07EE10EAB8EE477A9FED146AC6EE83
:10445800076A0D4B1B6CC3F3080307EE103AB8EE5E
:10446800477A9FED0B6A67EE867A77EE277AB7EE82
:10447800007A77EE877A66EEA76AB1E700230360D1
:1044880043608360DCE700BF004402580024744A9C
:10449800000000390090D0030024744C20BCBE4BAF
:1044A80010B5774A916A946AC4F3051ED36A03F07B
:1044B800010C536BC3F3CC030CFB03F314F47C7FA4
:1044C80000F0D88001F0030107EE903AF8EE677A21
:1044D800012965D0022900F0B080E1B107EE10EAA9
:1044E800B8EE477A9FED676AC6EE076A644B1B6BA6
:1044F800C3F3080307EE103AB8EE477A9FED626AF5
:1045080067EE867A77EE277AB7EE007A77EE877AC3
:1045180066EEA76A60E0136813F0200F23D01146F7
:104528001268C2F3C102594BD34007EE103AB8EEF5
:10453800477A06EE90EAB8EE666AC7EE066A0B6B33
:10454800C3F3080307EE103AB8EE477A9FED4E6AB8
:1045580067EE867A77EE277AB7EE007A77EE877A73
:1045680066EEA76A38E007EE10EAB8EE477A9FEDE4
:10457800456AC6EE076A424B1B6BC3F3080307EE96
:10458800103AB8EE477A9FED406A67EE867A77EE82
:10459800277AB7EE007A77EE877A66EEA76A1BE08D
:1045A80007EE10EAB8EE477A9FED396AC6EE076A59
:1045B800334B1B6BC3F3080307EE103AB8EE477A88
:1045C8009FED316A67EE867A77EE277AB7EE007A42
:1045D80077EE877A66EEA76A294A136BC3F34623F8
:1045E80007EE103AB8EE477AB7EE006A37EE067A69
:1045F800C6EE877AFCEEE77AC0ED007A136BC3F358
:10460800064307EE103AB8EE477A37EE067AC6EE5A
:10461800877AFCEEE77AC0ED017A136BC3F3066381
:1046280007EE903AF8EE677A77EE867A86EEA77A02
:10463800BCEEC77A80ED027A10BD07EE10EAB8EE3C
:10464800477A9FED146AC6EE076A0D4B1B6BC3F3DE
:10465800080307EE103AB8EE477A9FED0B6A67EE4B
:10466800867A77EE277AB7EE007A77EE877A66EE63
:10467800A76AB1E70023036043608360DCE700BFFB
:10468800004402580024744C000000390090D00304
:104698000024744A20BCBE4B00B58BB0B0F5807FB7
:1046A80020D0B0F5007F71D0B0F5806F00F0C880E1
:1046B800B0F5006F00F02181B0F5805F00F08281D5
:1046C800B0F5002F00F0DB81B0F5803F00F01F82CD
:1046D800B0F5804F00F03982B0F5004F00F08482C9
:1046E8000020B2E2954B1B6D03F00703042B00F288
:1046F800A382DFE803F005101B0326009048A4E21C
:104708008E4B186810F0007000F09F8207A8FFF722
:10471800C7FE089899E2894B186810F0006000F00D
:10472800948204A8FFF7C4FC04988EE2834B1868AF
:1047380010F0005000F0898201A8FFF7B5FD01983C
:1047480083E27E4AD36C03F04053126812F0040FE0
:1047580007D033B9794B1B68C3F3C1037948D840F4
:1047680073E2764A126812F4807F03D0B3F1805F57
:1047780000F06482714A126812F4003F00F060820F
:10478800B3F1005F00F05E8200205EE26B4B1B6DB0
:1047980003F4E073802B33D015D9C02B00F054827A
:1047A800B3F5807F1FD1654AD36C03F0405312687C
:1047B80012F0040F2FD073BB604B1B68C3F3C10307
:1047C8006048D84041E283B1402B0AD15B4B18685E
:1047D80010F0006000F0398204A8FFF769FC049823
:1047E80033E2002031E200202FE2544B186810F029
:1047F800007000F02A8207A8FFF752FE089824E20A
:104808004E4B186810F0005000F01F8201A8FFF707
:104818004BFD019819E2494A126812F4807F03D0CF
:10482800B3F1805F00F01482444A126812F4003F2A
:1048380000F01082B3F1005F00F00E82002004E265
:104848003E4B9B6D03F46003B3F5800F35D016D94A
:10485800B3F5C00F00F00282B3F5000F20D1374A3C
:10486800D36C03F04053126812F0040F30D07BBBB6
:10487800324B1B68C3F3C1033248D840E5E18BB122
:10488800B3F5001F0AD12D4B186810F0006000F036
:10489800DC8104A8FFF70CFC0498D6E10020D4E1E1
:1048A8000020D2E1254B186810F0007000F0CD818F
:1048B80007A8FFF7F5FD0898C7E1204B186810F026
:1048C800005000F0C28101A8FFF7EEFC0198BCE19E
:1048D8001A4A126812F4807F03D0B3F1805F00F0A7
:1048E800BF81164A126812F4003F00F0BB81B3F191
:1048F800005F00F0B9810020A7E1104B9B6D03F029
:10490800E063B3F1007F3DD01ED9B3F1407F00F0E2
:10491800AD81B3F1806F28D1084AD36C03F04053BE
:10492800126812F0040F38D0002B36D1034B1B68E5
:10493800C3F3C1030348D84087E100BF00440258CD
:104948000080BB000090D0038BB1B3F1807F0AD107
:10495800994B186810F0006000F0778104A8FFF701
:10496800A7FB049871E100206FE100206DE1924BF4
:10497800186810F0007000F0688107A8FFF790FD34
:10498800089862E18C4B186810F0005000F05D81C7
:1049980001A8FFF789FC019857E1874A126812F4C9
:1049A800807F03D0B3F1805F00F06281824A126891
:1049B80012F4003F00F05E81B3F1005F00F05C810B
:1049C800002042E17C4B1B6D03F4E043B3F5005F2C
:1049D80035D016D9B3F5405F00F05081B3F5804F5C
:1049E80020D1754AD36C03F04053126812F0040FBB
:1049F80030D07BBB704B1B68C3F3C1036F48D840F2
:104A080023E18BB1B3F5805F0AD16B4B186810F0C6
:104A1800006000F01A8104A8FFF74AFB049814E12B
:104A2800002012E1002010E1634B186810F00070BC
:104A380000F00B8107A8FFF733FD089805E15E4BEE
:104A4800186810F0005000F0008101A8FFF72CFC56
:104A58000198FAE0584A126812F4807F03D0B3F143
:104A6800805F00F00D81544A126812F4003F00F094
:104A78000981B3F1005F00F007810020E5E04E4BAB
:104A88009B6D03F44033B3F5803F10D0B3F5003F7E
:104A980018D00BB10020D8E0474B186810F0006020
:104AA80000F0D38004A8FFF703FB0498CDE0424B45
:104AB800186810F0005000F0C88001A8FFF7F4FB58
:104AC8000398C2E03C4AD36C03F04053126812F0DA
:104AD800040F07D033B9384B1B68C3F3C1033748F9
:104AE800D840B2E0344A126812F4807F03D0B3F1A0
:104AF800805F00F0CB80304A126812F4003F00F06B
:104B0800C780B3F1005F00F0C58000209DE02A4B0C
:104B1800DB6C13F4803302D063B9002095E0264B98
:104B2800186810F0007000F0908007A8FFF7B8FC34
:104B380008988AE0204B186810F0006000F0858023
:104B480004A8FFF7B5FA06987FE01B4B9B6D03F0AE
:104B5800E043B3F1405F35D015D8B3F1805F21D081
:104B6800B3F1005F09D1144B186810F000506CD0F5
:104B780001A8FFF799FB029867E013B9FFF786FAD7
:104B880063E0002061E0B3F1804F26D0B3F1A04F7D
:104B980006D1094B186810F4003056D0084854E084
:104BA800002052E0044B186810F000604DD004A8B3
:104BB800FFF77EFA059848E0004402580090D003B9
:104BC80040787D01344B186810F004003DD01B6814
:104BD800C3F3C1033148D84037E02F4B186810F4AD
:104BE800807032D02E4830E02B4B1B6D03F04053C1
:104BF800B3F1805F0CD0B3F1005F13D00BB100208C
:104C080023E0254B186810F400301ED025481CE01E
:104C1800214B186810F0007017D007A8FFF740FC68
:104C2800089812E01C4B186810F000600DD004A81A
:104C3800FFF73EFA059808E0002006E0184804E06F
:104C4800002002E0174800E017480BB05DF804FBAD
:104C58001348FAE70020F8E71248F6E71248F4E7A5
:104C68000F48F2E70020F0E70E48EEE70E48ECE7C1
:104C78000B48EAE70020E8E70A48E6E70A48E4E7DD
:104C88000748E2E70020E0E70648DEE70448DCE7FB
:104C98000020DAE70348D8E7004402580090D00320
:104CA80000093D0040787D010080BB00F0B583B06D
:104CB80000236BE085685E000324B44025EA040500
:104CC800CC68B4402C438460446824EA0C0C4C68DB
:104CD800C4F300149C4044EA0C04446068E0DD0816
:104CE800083550F8256003F007044FEA840C0F24B8
:104CF80004FA0CF426EA040E0C6904FA0CF444EAEB
:104D08000E0440F825406BE0092400E0002404FA72
:104D18000EF42C430CF1020C694D45F82C404FF071
:104D2800B0442568D44325EA02064F6817F4801F6B
:104D380001D042EA05064FF0B0452E606D6804EADE
:104D480005064F6817F4001F01D042EA05064FF028
:104D5800B0456E60D5F8845004EA05064F6817F42C
:104D6800003F01D042EA05064FF0B045C5F884601F
:104D7800D5F880502C404E6816F4803F01D042EAA6
:104D880005044FF0B042C2F8804001330A6832FA95
:104D980003F400F092804FF0010C0CFA03FC1CEABB
:104DA8000202F2D04C6804F00304013C012C81D9C2
:104DB8004C6804F00304032C0CD0C4685D004FF069
:104DC800030C0CFA05FC24EA0C0C8C68AC4044EA91
:104DD8000C04C4604C6804F00304022C3FF47FAF59
:104DE80004684FEA430E4FF0030C0CFA0EFC24EA59
:104DF8000C0C4C6804F0030404FA0EF444EA0C04A6
:104E080004604C6814F4403FBFD02E4CD4F8F450E2
:104E180045F00205C4F8F450D4F8F44004F0020454
:104E28000194019C4FEA930C0CF10205244C54F8B0
:104E3800255003F003044FEA840E0F2404FA0EF4FD
:104E480025EA0405204CA0423FF460AF04F58064D5
:104E5800A04222D004F58064A04220D004F58064EA
:104E6800A0421ED004F58064A0421CD004F58064E2
:104E7800A0421AD004F58064A04218D004F58064DA
:104E8800A04216D004F58064A04214D004F58064D2
:104E9800A0423FF439AF0A2439E7012437E7022456
:104EA80035E7032433E7042431E705242FE70624F4
:104EB8002DE707242BE7082429E703B0F0BD00BF3E
:104EC80000040058004402580000025803691942BF
:104ED80001D001207047002070470AB181617047F6
:104EE8000904816170470000134BDB6813F0040F5D
:104EF80007D1114BDB6803F0070383421AD0012066
:104F0800704710B50C4AD36823F007031843D060E4
:104F180000F076F80446084B5B6813F4005F07D18D
:104F280000F06EF8001BB0F57A7FF4D9012000E09C
:104F3800002010BD0020704700480258104B1B7815
:104F48000BB90120704710B504464FF47A70B0FBD6
:104F5800F3F30C4A1068B0FBF3F0FCF765FE68B990
:104F68000F2C01D901200AE0002221464FF0FF3022
:104F7800FCF716FE044B1C60002000E0012010BD69
:104F88000C000020140000201000002010B50320A1
:104F9800FCF7F4FDFEF726F80F498B69C3F30323EA
:104FA8000E4AD35C03F01F03D8408B6903F00F034C
:104FB800D35C03F01F0320FA03F3094A1360094B7B
:104FC80018600F20FFF7BAFF10B10124204610BD6A
:104FD8000446FBF77BFEF9E70044025824710008F9
:104FE8001800002014000020034B1B78034A1168A6
:104FF8000B441360704700BF0C0000201408002009
:10500800014B1868704700BF14080020014B18684E
:10501800000C70470010005C2DE9F04106468846F8
:1050280017461D463468A46938EA04030CBF4FF0DC
:10503800010C4FF0000CBC4518D1B5F1FF3FF1D081
:10504800FFF7DEFF069BC01AA84201D8002DE9D160
:10505800736C43F020037364202386F841300023E7
:1050680086F8423086F84030012000E00020BDE894
:10507800F0810000002857D010B5044690F8413060
:10508800002B41D0242384F841302268136823F090
:10509800010313606368226823F070631361226858
:1050A800936823F400439360E368012B31D0A3682D
:1050B800226843F404439360E368022B2FD02268EC
:1050C80051681A4B0B4353602268D36823F400439A
:1050D800D360236962691343A169226843EA012303
:1050E800D360E369216A22680B431360226813685E
:1050F80043F00103136000206064202384F84130EA
:10510800206384F8420010BD80F84030FBF7D2FEDF
:10511800B8E7A368226843F400439360CCE72368A8
:105128004FF400625A60CAE701207047008000020D
:105138002DE9F04385B01D460023039390F84130D4
:10514800DBB2202B40F09C800646894690460368D7
:105158009B6913F4004F40F0958090F84030012B84
:1051680000F09280012380F84030242380F84130F9
:1051780000234364F368012B10D0C9F3090343F4F7
:10518800205332685360FFF73BFF07463268936944
:10519800C3F340139469C4F3001C0BE0C9F309027C
:1051A8003D4B1343EDE732689369C3F340139469A9
:1051B800C4F3001C53EA0C0317D1B5F1FF3FF2D03A
:1051C800FFF71EFFC01BA84201D8002DEBD12023FA
:1051D80086F84130736C43F020037364002386F82B
:1051E8004030012005B0BDE8F08333689B6913F0B7
:1051F800100F23D000972B46002220213046FFF7BE
:105208000BFF002844D133681022DA61336820226A
:10521800DA61039B434522D0039B01330393039B2D
:105228004345A7D3202386F84130736C43F020030D
:105238007364002386F840300120D3E700972B469B
:10524800002220213046FFF7E7FEF8B93268202314
:10525800D36186F84130002386F84030C2E73268CF
:10526800536843F48043536000972B460022202163
:105278003046FFF7D1FE68B933682022DA61CBE700
:105288000220AFE70220ADE70220ABE70120A9E743
:105298000120A7E70120A5E70020000290F841308F
:1052A800DBB2202B24D190F84030012B22D00123EF
:1052B80080F84030242380F841300268136823F0D6
:1052C800010313600268136823F4805313600268B3
:1052D8001368194311600268136843F001031360EF
:1052E800202380F84130002380F84030184670476A
:1052F800022070470220704790F84130DBB2202B23
:1053080022D190F84030012B20D0012380F8403082
:10531800242380F841300268136823F001031360E6
:105328000268136823F4706343EA0121116002687C
:10533800136843F001031360202380F841300023F1
:1053480080F84030184670470220704702207047A6
:10535800294AD2F8883043F47003C2F88830274BC2
:105368001B6803F00F03062B06D8244A136823F0A2
:105378000F0343F007031360214B1A6842F0010240
:105388001A6000221A6119681E4A0A401A601B4BEB
:105398001B6813F0080F06D0184A136823F00F0390
:1053A80043F007031360164B00229A61DA611A6210
:1053B800154999621549D962154919635A63996360
:1053C800DA6319645A64196821F4802119601A662D
:1053D800104B1A68104B1340B3F1005F03D20F4B08
:1053E8000122C3F808210E4B43F2D2021A60024B85
:1053F8004FF000629A60704700ED00E00020005214
:10540800004402587FEDF6EA000202020000FF01A4
:10541800800201010010005C0000FFFF00800051C5
:10542800004000522DE9F04104460E460368454904
:10543800454A934218BF8B4213D102F50072976810
:1054480007F01F072569082D12D0052F18BF002F58
:1054580009D0092F07D0936813F4404F2DD10425A4
:1054680006E03A4AEBE7DB6813F0010F1FD1042589
:10547800FFF7C6FD804623681A682A4223D1B6F191
:10548800FF3FF8D0FFF7BCFDA0EB0800B04201D801
:10549800002EF0D123681B682B42ECD1636D43F0DA
:1054A80004036365002384F85030032045E0636DEE
:1054B80043F02003636501203FE0636D43F0200360
:1054C8006365012039E0626D42F400726265DA6852
:1054D80012F4406F11D1627D7AB91A6812F0080F80
:1054E8000BD0626D22F480726265626D12F4805F87
:1054F80003D1626D42F001026265134A93420CD0F7
:105508001A4693420CD0052F14BF002101213FB148
:1055180031B9092F04D0D26803E0A2F58072F0E710
:10552800DA68082D06D012F4804F08D10C221A60D0
:10553800002002E008221A600020BDE8F081002067
:10554800FBE700BF00200240002102400063025830
:105558000368186C70470000F0B583B00022019210
:1055680090F85020012A00F055820346012280F865
:1055780050200068826812F0040F09D05A6D42F07A
:1055880020025A650120002283F8502003B0F0BDA4
:105598000A68C2F31304002C4ED1C2F384620124BA
:1055A8009440C2692243C2611D684C683035220AA2
:1055B800920002F00C02A85804F01F0E1F2404FAEF
:1055C8000EF420EA04000C68C4F3846C0CFA0EFC98
:1055D80040EA0C00A8501C68A26812F0040200D02F
:1055E8000122A06810F0080000D0012002432FD04B
:1055F8001868826812F0010F40F008820A68CD68C6
:10560800D0F8C040C2F3130624EA060405F0180CCB
:10561800B24D25FA0CF52A40C2F313022243C0F812
:10562800C020C868AE4A904200F0B0800A68002ADC
:10563800C0F26B810020A6E792FAA2F232B1B2FA68
:1056480082F202F01F0201249440AAE72022F8E720
:105658000F688D681434780E800000F00400265816
:10566800C7F3045E4FF0070C0CFA0EFC26EA0C0C8C
:1056780005FA0EF54CEA050525509A48006800F031
:105688007040B0F1805F0BD01C68E06810F0100F1C
:1056980039D14869E468C4F382046400A04006E094
:1056A80048691C68E468C4F382046400A0400D697A
:1056B800042D36D01F680E68603757F8254004F06F
:1056C800004406F0F8463043204347F825001868A0
:1056D8000E694C7E012C1ED01546603050F82640CD
:1056E80024F000442C4340F826401D680C69087ECD
:1056F800012813D0286920F4F04004F01F04A240C8
:1057080002432A6174E74869E468A40804F00404C1
:105718006400A040CBE74FF00045DEE74FF400629D
:10572800E8E71868026E02F0F8420C68B2EB846F82
:105738001DD01868426E02F0F8420C68B2EB846F14
:105748001AD01868826E02F0F8420C68B2EB846FC7
:1057580017D01868C26E02F0F8420C68B2EB846F7A
:105768007FF446AFC26E22F00042C26640E7026E86
:1057780022F000420266DCE7426E22F000424266F6
:10578800DFE7826E22F000428266E2E71C680A6860
:10579800C2F31305002D34D1900E013000F01F0024
:1057A80009288CBF00200120002861D0002D37D1A6
:1057B800900E0130800600F0F840002D3CD1960E86
:1057C800013606F01F070126BE403043002D41D1A7
:1057D800920E013202F01F0202EB4202120502434E
:1057E80088681434550EAD0005F004056659C2F3F7
:1057F80004520727974026EA070690403043605135
:1058080014E792FAA2F048B1B0FA80F0013000F043
:105818001F0009288CBF00200120C5E72020F5E7DC
:1058280092FAA2F030B1B0FA80F00130800600F0B0
:10583800F840C2E72020F8E792FAA2F646B1B6FA95
:1058480086F6013606F01F06012707FA06F6BCE7BA
:105858002026F6E792FAA2F242B1B2FA82F20132B7
:1058680002F01F0202EB42021205B8E72022F6E717
:10587800CDB9900E0130800600F0F840FDB9960EC3
:10588800013606F01F070126BE40304365BB920E65
:10589800013202F01F0202EB42021E3A120542F0E8
:1058A800007202439CE792FAA2F030B1B0FA80F09D
:1058B8000130800600F0F840E0E72020F8E792FA8F
:1058C800A2F646B1B6FA86F6013606F01F0601279B
:1058D80007FA06F6D9E72026F6E700BFFFFF0F0014
:1058E8000000FF470010005C92FAA2F25AB1B2FA27
:1058F80082F2013202F01F0202EB42021E3A120546
:1059080042F00072CDE72022F3E719684248434C81
:10591800A14218BF81420CBF0120002021D1404E76
:10592800B56805F0E077F0B13B48806810F00100F9
:1059380000D00120394CA46814F0010400D00124DF
:1059480020430CBF01200020002859D0354882424E
:1059580012D03548824231D0344882423FD00020AC
:1059680011E6334EDCE73348806810F0010000D0C0
:10597800012080F00100E7E715F4000FE9D12D4A76
:10598800914201D00020FEE547F40002B16821F001
:10599800E0710A43B260284A126892092749A1FBBC
:1059A8000212920901325200019202E0019A013A70
:1059B8000192019A002AF9D10020E4E515F0807FD0
:1059C800CAD11C4A914201D00020DCE547F0807220
:1059D800B16821F0E0710A43B2600020D3E515F404
:1059E800800F15D1134A914201D00020CBE547F42E
:1059F8008002B16821F0E0710A43B2600020C2E57C
:105A08005A6D42F020025A650120BCE50020BAE533
:105A18000020B8E50220B9E500200240002102403C
:105A280000230240000084CB000052C70000B8CF1A
:105A3800006302580060025814000020632D3E05E0
:105A480038B503689A6812F0010F56D10446996870
:105A58002B4A114209D0436D43F010034365836D0F
:105A680043F001038365012048E09968254A0A400C
:105A780042F001029A60FFF7C3FA054623682249FB
:105A8800224A934218BF8B420DD102F500729268E8
:105A980002F01F021D498B4207D01946994207D0D0
:105AA80032B100202AE01A4AF1E7A1F58071F5E742
:105AB80023681A6812F0010F1DD19A6812F0010FBD
:105AC80005D199680F4A0A4042F001029A60FFF72F
