:020000040800F2
:1000000000000220FD1F00081D0600081F06000852
:10001000210600082306000825060008000000004D
:10002000000000000000000000000000270600089B
:1000300029060008000000002B0600082D06000815
:10004000472000084D2000085320000859200008D0
:100050005F200008652000086B2000087120000860
:10006000772000087D2000088320000889200008F0
:100070008F200008952000089B200008A120000880
:10008000A7200008AD200008B3200008B920000810
:10009000BF200008C5200008CB200008D1200008A0
:1000A000D7200008DD200008E3200008E920000830
:1000B000EF200008F5200008FB20000801210008BF
:1000C000072100080D21000813210008192100084C
:1000D0001F210008252100082B21000831210008DC
:1000E000372100083D2100080000000043210008DE
:1000F000492100084F210008552100085B21000814
:1001000061210008672100086D21000873210008A3
:10011000792100087F210008852100088B21000833
:1001200091210008972100089D210008A3210008C3
:10013000A9210008AF210008B5210008BB21000853
:1001400000000000000000000000000000000000AF
:10015000C1210008C7210008CD210008D3210008D3
:10016000D9210008DF210008E5210008EB21000863
:10017000F1210008F7210008FD210008000000001F
:1001800003220008092200080F2200081522000897
:100190001B22000821220008272200082D22000827
:1001A00033220008392200083F22000845220008B7
:1001B0004B22000851220008572200085D22000847
:1001C00063220008692200086F22000875220008D7
:1001D0007B22000881220008872200088D22000867
:1001E00093220008992200089F220008A5220008F7
:1001F000AB220008B1220008B7220008BD22000887
:10020000C3220008C9220008CF220008D522000816
:10021000DB22000895230008E1220008E7220008FD
:10022000ED220008F3220008F92200080000000077
:10023000FF22000805230008000000000B2300082F
:1002400011230008172300081D230008232300089A
:10025000292300082F230008352300083B2300082A
:1002600041230008472300084D23000853230008BA
:10027000592300085F2300086523000800000000E0
:100280006B2300087123000877230008000000009A
:08029000000000007D230008BE
:1002980010B5054C237833B9044B13B10448AFF3B8
:1002A80000800123237010BD100000200000000012
:1002B800F423000808B5034B1BB103490348AFF307
:1002C800008008BD0000000014000020F42300088E
:1002D800F0B589B000240394049405940694079417
:1002E8001C4BD3F8E02042F01002C3F8E020D3F80A
:1002F800E02002F010020192019AD3F8E02042F0C7
:100308000202C3F8E020D3F8E03003F002030293BE
:10031800029B114F22460421384601F063FD0F4D20
:1003280022464021284601F05DFD0423039301265F
:1003380004960594069403A9384601F055FC402319
:10034800039304960594069403A9284601F04CFCEF
:1003580009B0F0BD004402580010025800040258C9
:1003680072B6FEE710B592B000240B940C940D946D
:100378000E940F94109411942C222146684602F092
:100388002DF81D481D4B03604FF4F07343608460E3
:100398004FF47A73C36004614461846100F0FCFD2A
:1003A80010BB154800F032FE00BB00220B920C92E5
:1003B8000D920E920F92109211920BA90E4800F016
:1003C8006DFDA8B90023009301930293039304934E
:1003D8004FF40052059206930A936946064800F0C6
:1003E8004FFE38B912B010BDFFF7BAFFFFF7B8FFDC
:1003F800FFF7B6FFFFF7B4FFE80000200048014010
:1004080010B592B000240B940C940D940E940F9494
:10041800109411942C222146684601F0DFFF1D48F4
:100428001D4B0360EF234360846040F2E733C360F1
:1004380004614461846100F0AFFD10BB154800F011
:10044800E5FD00BB00220B920C920D920E920F92CA
:10045800109211920BA90F4800F020FDA8B90023B3
:10046800009301930293039304934FF4005205926F
:1004780006930A936946074800F002FE38B912B09D
:1004880010BDFFF76DFFFFF76BFFFFF769FFFFF781
:1004980067FF00BF2C0000200044014000B59DB05C
:1004A8004C22002109A801F099FF2022002101A86F
:1004B80001F094FF022001F09BFC00230093264BDF
:1004C8009A6942F440429A619B6903F4404300935D
:1004D800224BDA6A42F00102DA62DB6A03F00103B6
:1004E8000093009B1C4B9B6913F4005FFAD0102308
:1004F800099380231093202311930223129301223E
:1005080013921492F02215921693179318930823B6
:10051800199300231A931B9309A800F0FDFDB8B99D
:100528003F23019303230293002303930823049397
:100538004023059306934FF48062079208930421A1
:100548000DEB010001F006FA20B91DB05DF804FBBF
:10055800FFF706FFFFF704FF0048025800040058A1
:1005680008B52A4B5B6913F4003F13D1BFF34F8FD3
:10057800BFF36F8F254B0022C3F85022BFF34F8F74
:10058800BFF36F8F5A6942F400325A61BFF34F8F3D
:10059800BFF36F8F1D4B5B6913F4803F27D11B4B53
:1005A8000022C3F88420BFF34F8FD3F88040C4F3F0
:1005B8004E3000E01846C4F3C90243F6E07303EA7C
:1005C800401343EA82731149C1F860321346013A75
:1005D800002BF2D1431E0028ECD1BFF34F8F4B699B
:1005E80043F480334B61BFF34F8FBFF36F8F01F03C
:1005F80051FCFFF753FFFFF76BFEFFF7B3FEFFF762
:10060800FFFE034800F05EFAFEE700BF00ED00E0E1
:100618002C000020FEE7FEE7FEE7FEE7FEE7704756
:100628007047704708B501F063FC08BD08B500F0D5
:1006380051F808BD82B0074BD3F8F42042F002020B
:10064800C3F8F420D3F8F43003F002030193019BBC
:1006580002B070470044025800B583B003681A4AD4
:10066800934205D0194A934218D003B05DF804FBB1
:10067800174BD3F8F02042F40032C3F8F020D3F837
:10068800F03003F400330093009B002211467520DC
:1006980000F072F8752000F0A5F8E6E70C4BD3F8E7
:1006A800F02042F48022C3F8F020D3F8F03003F4AD
:1006B80080230193019B00221146762000F05CF80C
:1006C800762000F08FF8D0E7004401400048014050
:1006D800004402581B4A1368013313601A4AA2FBEC
:1006E800031222F0030101EB9202934203D1154950
:1006F8004A6801324A60144AA2FB0312D20802EB8C
:10070800820251008B4203D10E498A6801328A6005
:100718000E4AA2FB03125209642101FB12321AB9D4
:100728000849CA680132CA60094AA2FB0312920941
:100738004FF47A7101FB12321AB9024A1369013374
:1007480013617047A4010020CDCCCCCC1F85EB51A0
:10075800D34D62100649CB6823F4E0631B041B0CDD
:10076800000200F4E0600343024A1A43CA6070477B
:1007780000ED00E00000FA0500B5174BDB68C3F395
:100788000223C3F1070CBCF1040F28BF4FF0040C7F
:1007980003F1040EBEF1060F14D9033B4FF0FF3EE0
:1007A8000EFA0CFC21EA0C0199400EFA03F322EA36
:1007B80003031943002807DB0901C9B2074B195481
:1007C8005DF804FB0023E9E700F00F000901C9B256
:1007D800034B1954F4E700BF00ED00E000E400E02B
:1007E80014ED00E0002807DB00F01F024009012398
:1007F8009340024A42F82030704700BF00E100E011
:100808000138B0F1807F0BD24FF0E0235861054AE0
:10081800F02182F823100020986107221A6170479E
:100828000120704700ED00E070477047704770473F
:10083800704770477047704770477047F0B4036A55
:1008480023F001030362036A466884691F4A224051
:100858000D68154323F002038C6823431C4A1D4C82
:10086800A04218BF90420CBF012200220CD004F510
:100878008044A04214BF00240124174FB84203D07B
:1008880014B9164CA04205D123F00803CC682343C1
:1008980023F004035AB9124A904214BF00220122DD
:1008A8000D4CA04203D012B90C4A904207D126F44D
:1008B800407C4A6942EA0C0C8E6946EA0C0646609E
:1008C80085614A6842630362F0BC70478CFFFEFF93
:1008D8000000014000040140004001400048014080
:1008E8000044014070B4036A23F480730362036A0E
:1008F8004568C26922F073020E68164323F4007338
:100908008A6843EA0223164A164CA04218BF90424E
:100918000CBF0122002206D123F40063CC6843EA0D
:10092800042323F480635AB90F4A904214BF00226B
:1009380001220E4CA04203D012B90D4A904207D1B1
:1009480025F4405C4A694CEA021C8D694CEA05159D
:100958004560C6614A68C263036270BC704700BFE5
:1009680000000140000401400044014000400140F3
:100978000048014070B4036A23F480530362036A99
:100988004468C26922F4E6420D6842EA052223F46B
:1009980000538D6843EA05330F4E104DA84218BF27
:1009A800B0420DD005F58045A84214BF00250125A9
:1009B80006F58046B04203D015B9094DA84204D1C6
:1009C80024F480444D6944EA85144460C2614A684D
:1009D8000264036270BC70470000014000040140DB
:1009E8000048014070B4036A23F480330362036A49
:1009F8004268446D24F0700C0C6844EA0C0623F439
:100A080000338C6843EA04430F4D104CA04218BFD2
:100A1800A8420DD004F58044A04214BF002401244C
:100A280005F58045A84203D014B9094CA04204D169
:100A380022F480324C6942EA0422426046654A68E0
:100A48008265036270BC70470000014000040140E9
:100A58000048014070B4036A23F480130362036AF8
:100A68004468426D22F4E0420D6842EA052223F40C
:100A780000138D6843EA05530F4E104DA84218BF66
:100A8800B0420DD005F58045A84214BF00250125C8
:100A980006F58046B04203D015B9094DA84204D1E5
:100AA80024F400344D6944EA8524446042654A6868
:100AB800C265036270BC7047000001400004014039
:100AC8000048014090F83D30DBB2012B36D10223BB
:100AD80080F83D300268D36843F00103D3600368AF
:100AE800184AB3F1804F18BF934219D0A2F57C423F
:100AF800934215D002F58062934211D002F58062CC
:100B080093420DD002F57842934209D0A2F56C4287
:100B1800934205D01A6842F001021A60002070471B
:100B28009968094A0A40062A18BFB2F5803F07D0DB
:100B38001A6842F001021A600020704701207047CD
:100B480000207047000001400700010010B504466E
:100B580003681A6912F0020F13D0DA6812F0020F54
:100B68000FD06FF002021A610123037703689B69B3
:100B780013F0030F00F0A380D0F8943098470023B7
:100B8800237723681A6912F0040F14D0DA6812F078
:100B9800040F10D06FF004021A6102232377236830
:100BA8009B6913F4407F00F09280D4F8943020467B
:100BB80098470023237723681A6912F0080F14D086
:100BC800DA6812F0080F10D06FF008021A610423D7
:100BD80023772368DB6913F0030F00F08180D4F8D2
:100BE8009430204698470023237723681A6912F027
:100BF800100F13D0DA6812F0100F0FD06FF0100238
:100C08001A61082323772368DB6913F4407F70D0C7
:100C1800D4F89430204698470023237723681A692C
:100C280012F0010F0AD0DA6812F0010F06D06FF047
:100C380001021A61D4F884302046984723681A695B
:100C480012F0800F0AD0DA6812F0800F06D06FF029
:100C580080021A61D4F8B4302046984723681A698C
:100C680012F4807F0AD0DA6812F0800F06D06FF491
:100C780080721A61D4F8B8302046984723681A69F8
:100C880012F0400F0AD0DA6812F0400F06D06FF069
:100C980040021A61D4F88C302046984723681A69B4
:100CA80012F0200F0AD0DA6812F0200F06D06FF089
:100CB80020021A61D4F8AC302046984710BDD0F80D
:100CC8009C309847D4F8A0302046984757E7D4F886
:100CD8009C3020469847D4F8A0302046984768E7CB
:100CE800D4F89C3020469847D4F8A030204698473E
:100CF80079E7D4F89C3020469847D4F8A0302046AD
:100D0800984789E730B50368394A904214BF4FF0D5
:100D1800000E4FF0010EB0F1804F14BF72464EF036
:100D28000102AAB9334CA04214BF00240124324D59
:100D3800A8420DD064B904F1804404F58234A0427D
:100D480014BF0024012405F50065A84200D01CB199
:100D580023F070034C68234312BB264A904214BF09
:100D680000220122244CA0421AD0CAB902F18042C2
:100D780002F58232904214BF0022012204F5006479
:100D8800A0420DD062B91D4A904214BF0022012230
:100D980004F59A34A04203D012B9194A904204D1FA
:100DA80023F4407CCB6843EA0C0323F080034A69B0
:100DB800134303608A68C2620A688262114A9042D9
:100DC80014BF73464EF0010363B90C4B984214BF2D
:100DD8000023012302F57052904203D013B9084B47
:100DE800984201D10B6903630123436130BD00BF01
:100DF8000000014000080040000400400044014099
:100E0800004801400004014070B4036A23F0100355
:100E18000362036A456884691A4A22400E6842EAF6
:100E2800062623F020038A6843EA0213164A174C61
:100E3800A04218BF90420CBF0122002206D123F025
:100E48008003CC6843EA041323F040035AB9104ADC
:100E5800904214BF002201220E4CA04203D012B9C6
:100E68000D4A904207D125F4406C4A694CEA820C3D
:100E78008D694CEA8505456086614A68826303622C
:100E880070BC7047FF8CFFFE000001400004014069
:100E980000440140004001400048014090F83C30C7
:100EA800012B2ED010B50446012380F83C30142ABB
:100EB8000FD8DFE802F00B0E0E0E120E0E0E160EF5
:100EC8000E0E1A0E0E0E1E0E0E0E22000068FFF7F2
:100ED800B5FC002084F83C0010BD0068FFF794FFC3
:100EE800F7E70068FFF7FEFCF3E70068FFF742FD4D
:100EF800EFE70068FFF776FDEBE70068FFF7AAFD6C
:100F0800E7E7022070470000154BC0F88430154B06
:100F1800C0F88830144BC0F88C30144BC0F89030AF
:100F2800134BC0F89430134BC0F89830124BC0F8EC
:100F38009C30124BC0F8A030114BC0F8A430114BB4
:100F4800C0F8A830104BC0F8AC30104BC0F8B03027
:100F58000F4BC0F8B4300F4BC0F8B830704700BF23
:100F680035060008330800083F0800084108000853
:100F78003708000839080008350800083B08000849
:100F88003D08000843080008191100081B11000853
:100F98001D1100081F110008A0B310B5044690F8F1
:100FA8003D3013B3022384F83D30214651F8040B39
:100FB800FFF7A8FE012384F8483084F83E3084F80F
:100FC8003F3084F8403084F8413084F8423084F867
:100FD800433084F8443084F8453084F8463084F847
:100FE800473084F83D30002010BD80F83C30FFF7D2
:100FF8008BFFE36C1BB1E36C20469847D2E7024BAA
:10100800E364F8E70120704761060008A0B310B553
:10101800044690F83D3013B3022384F83D3021464E
:1010280051F8040BFFF76EFE012384F8483084F86A
:101038003E3084F83F3084F8403084F8413084F8FA
:10104800423084F8433084F8443084F8453084F8DA
:10105800463084F8473084F83D30002010BD80F8D1
:101068003C30FFF751FFE36D1BB1E36D2046984715
:10107800D2E7024BE365F8E7012070473108000822
:1010880090F83C30012B3CD030B4012380F83C3040
:10109800CB6823F440738A68134323F480634A6857
:1010A800134323F400630A68134323F480530A6943
:1010B800134323F400534A69134323F480438A6A91
:1010C800134323F470238A6943EA024302680E4DEE
:1010D8000E4CA24218BFAA420CD123F470034C6AEA
:1010E80043EA045323F08073CC69234323F000734D
:1010F800096A0B435364002380F83C30184630BC1F
:1011080070470220704700BF000001400004014002
:101118007047704770477047002800F0028338B561
:101128000446036813F0010F25D09C4A136903F0A5
:101138003803926A102B15D0182B0FD06368B3F5BB
:10114800803F3FD0002B53D1944B1A6822F4803251
:101158001A601A6822F480221A6038E002F003024A
:10116800022AEBD18D4B1B6813F4003F03D0636850
:10117800002B00F0D882236813F0020F00F08B8058
:10118800864A1369926A13F038035AD0182B55D03F
:10119800E368002B00F0C88080490A6822F0190231
:1011A80013430B6000F0B0FE05467C4B1B6813F040
:1011B800040F40F0978000F0A7FE401B0228F4D9E6
:1011C8000320B7E2754A136843F4803313606368F9
:1011D8002BB300F099FE0546704B1B6813F4003FD3
:1011E800C9D100F091FE401B6428F5D90320A1E283
:1011F800B3F5A02F09D0694B1A6822F480321A601F
:101208001A6822F480221A60E1E7644B1A6842F4F3
:1012180080221A601A6842F480321A60D7E700F018
:1012280073FE05465D4B1B6813F4003FA3D000F026
:101238006BFE401B6428F5D903207BE212F0030FF4
:10124800A6D1564B1B6813F0040F03D0E368002B9C
:1012580000F06B8200F05EFE41F20303984212D860
:101268002269402A07D04D494B6823F47C3343EA6E
:1012780002334B600FE0494A536823F47C3343F44C
:101288000033536007E0454A536823F0FE43216961
:1012980043EA01635360236813F0100F00F088805D
:1012A8003E4A136903F03803926A082B54D0182B6E
:1012B8004ED0E369002B00F0B880384A136843F039
:1012C8008003136000F020FE0546344B1B6813F4BE
:1012D800807F40F0888000F017FE401B0228F4D978
:1012E800032027E200F016FE41F20303984212D8C9
:1012F8002269402A07D029494B6823F47C3343EA02
:1013080002334B60C7E7254A536823F47C3343F420
:1013180000335360BFE7214A536823F0FE43216935
:1013280043EA01635360B6E71C4A136823F00103DC
:10133800136000F0E9FD0546184B1B6813F0040F15
:10134800A9D000F0E1FD401B0228F5D90320F1E106
:1013580002F00302012AACD1104B1B6813F4807F02
:1013680003D0E369802B40F0E28100F0D3FD41F225
:101378000303984214D8226A202A07D007494B68E9
:1013880023F0F84343EA82634B6011E0034A536851
:1013980023F0F84343F08043536009E000440258C7
:1013A8009A4AD36823F07C53216A43EA0163D360E5
:1013B800236813F0080F60D06369002B49D0934A63
:1013C800536F43F00103536700F09EFD05468F4BB2
:1013D8005B6F13F0020F50D100F096FD401B0228FE
:1013E800F5D90320A6E100F095FD41F203039842E8
:1013F80012D8226A202A07D084494B6823F0F84380
:1014080043EA82634B60D3E7804A536823F0F8438A
:1014180043F080435360CBE77C4AD36823F07C5386
:10142800216A43EA0163D360C2E7784A136823F06C
:101438008003136000F068FD0546744B1B6813F4C5
:10144800807FB5D000F060FD401B0228F5D903204D
:1014580070E16E4A536F23F00103536700F054FDA7
:1014680005466A4B5B6F13F0020F06D000F04CFD87
:10147800401B0228F5D903205CE1236813F0200FF4
:1014880029D0A3699BB1614A136843F48053136060
:1014980000F03AFD05465D4B1B6813F4005F1AD156
:1014A80000F032FD401B0228F5D9032042E1574ADB
:1014B800136823F48053136000F026FD0546534B50
:1014C8001B6813F4005F06D000F01EFD401B0228C5
:1014D800F5D903202EE1236813F0040F21D1636AA4
:1014E800002B00F02681494A126902F03802182AB6
:1014F80000F0EE80022B75D0444A136823F0807305
:10150800136000F001FD0446404B1B6813F0007F98
:1015180000F0DC8000F0F8FC001B0228F4D903205E
:1015280008E13B4A136843F48073136000F0ECFC55
:101538000546374B1B6813F4807F06D100F0E4FCA6
:10154800401B6428F5D90320F4E0A368012B0AD0D6
:101558000BBB2E4B1A6F22F001021A671A6F22F08A
:1015680004021A6704E0294A136F43F00103136762
:10157800A36833B300F0C8FC0546244B1B6F13F077
:10158800020FACD100F0C0FC401B41F288339842F6
:10159800F3D90320CEE0052B09D01C4B1A6F22F09B
:1015A80001021A671A6F22F004021A67E0E7174B64
:1015B8001A6F42F004021A671A6F42F001021A67A2
:1015C800D6E700F0A1FC0546104B1B6F13F0020F85
:1015D80085D000F099FC401B41F288339842F3D93A
:1015E8000320A7E0094A136823F08073136000F012
:1015F8008BFC0546054B1B6813F0007F0AD000F0F2
:1016080083FC401B0228F5D9032093E000440258CC
:10161800004802584F4B996A4F4A0A40A16AE06A4B
:1016280041EA00110A439A62226B013AC2F30802A6
:10163800616B0139490289B20A43A16B0139090476
:1016480001F4FE010A43E16B0139090601F0FE418C
:101658000A431A63DA6A22F00102DA62596B3F4AD6
:101668000A40A16C42EAC1025A63DA6A22F00C020B
:10167800216C0A43DA62DA6A22F00202616C0A43D8
:10168800DA62DA6A42F48032DA62DA6A42F4003202
:10169800DA62DA6A42F48022DA62DA6A42F0010235
:1016A800DA621A6842F080721A6000F02DFC044673
:1016B800284B1B6813F0007F06D100F025FC001BA7
:1016C8000228F5D9032035E0002033E0002031E07E
:1016D800204A916A106B012B2DD001F00303A26AF6
:1016E80093422AD1C1F30511E36A994227D1C0F385
:1016F8000802236B013B9A4223D1C0F34622636B55
:10170800013B9A421FD1C0F30642A36B013B9A42A8
:101718001BD1C0F30660E36B013B984217D1002050
:1017280008E001207047012004E0012002E00120C8
:1017380000E0002038BD0120FCE70120FAE7012085
:10174800F8E70120F6E70120F4E70120F2E701209D
:10175800F0E700BF004402580CFCFFFF0700FFFF42
:10176800744B1B6903F03803102B00F0DE80182B34
:1017780010D00BB1704870476E4B1B6813F0200FE8
:1017880000F0D5806B4B1868C0F3C1006B4B23FA8F
:1017980000F0704710B4674A916A01F00301946A37
:1017A800C4F30510D36A03F0010C536BC3F3CC03E5
:1017B8000CFB03F307EE903AF8EE677A14F47C7F9B
:1017C80000F09380012965D0022900F09180E1B1F1
:1017D80007EE100AF8EE476A9FED596A86EE267AF8
:1017E800544B1B6BC3F3080306EE903AF8EE666A97
:1017F8009FED546A67EE867A76EEA77AF7EE006A6E
:1018080077EEA67A27EE277A60E0136813F0200FA8
:1018180023D011461268C2F3C102484BD34007EEE9
:10182800103AF8EE476A07EE100AB8EE476A86EEF5
:10183800867A0B6BC3F3080306EE903AF8EE666AF5
:101848009FED406A67EE867A76EEA77AF7EE006A31
:1018580077EEA67A27EE277A38E007EE100AF8EE38
:10186800476A9FED396A86EE267A324B1B6BC3F3C3
:10187800080306EE903AF8EE666A9FED326A67EE64
:10188800867A76EEA77AF7EE006A77EEA67A27EEE2
:10189800277A1BE007EE100AF8EE476A9FED286AE0
:1018A80086EE267A234B1B6BC3F3080306EE903AA9
:1018B800F8EE666A9FED236A67EE867A76EEA77A77
:1018C800F7EE006A77EEA67A27EE277A194B1B6B9C
:1018D800C3F34623013307EE903AF8EE677AC7EE72
:1018E800276AFCEEE67A17EE900A5DF8044B70471B
:1018F80007EE100AF8EE476A9FED146A86EE267A1C
:101908000C4B1B6BC3F3080306EE903AF8EE666ABD
:101918009FED0C6A67EE867A76EEA77AF7EE006A94
:1019280077EEA67A27EE277AD0E70948704703486A
:10193800704700BF0044025800093D000090D003E2
:101948000024744A000000390024744C20BCBE4BAB
:1019580040787D01002800F0328170B50D460446BC
:101968009B4B1B6803F00F038B420BD2984A1368FA
:1019780023F00F030B431360136803F00F038B422C
:1019880040F01F81236813F0040F0CD02269914B9B
:101998009B6903F070039A4205D98E498B6923F03D
:1019A80070031A438A61236813F0080F0CD0626928
:1019B800884BDB6903F070039A4205D98549CB69E6
:1019C80023F070031A43CA61236813F0100F0CD078
:1019D800A269804BDB6903F4E0639A4205D97D492B
:1019E800CB6923F4E0631A43CA61236813F0200F1C
:1019F8000CD0E269774B1B6A03F070039A4205D951
:101A080074490B6A23F070031A430A62236813F0BF
:101A1800020F0CD0E2686F4B9B6903F00F039A42E8
:101A280005D96C498B6923F00F031A438A6123682F
:101A380013F0010F41D0674A936923F47063A168DA
:101A48000B4393616368022B0AD0032B27D0012B29
:101A58002CD0604A126812F0040F06D10120ADE0C4
:101A6800126812F4003F00F0AE805A490A6922F069
:101A7800070213430B6100F047FA0646554B1B69F2
:101A880003F038036268B3EBC20F16D000F03CFADB
:101A9800801B41F288339842F0D903208EE04D4AEA
:101AA800126812F0007FE0D1012087E0494A1268ED
:101AB80012F4807FD9D1012080E0236813F0020F4F
:101AC8000CD0E268434B9B6903F00F039A4205D29E
:101AD80040498B6923F00F031A438A613C4B1B680A
:101AE80003F00F03AB420AD9394A136823F00F03F6
:101AF8002B431360136803F00F03AB4265D12368CF
:101B080013F0040F0CD02269324B9B6903F0700369
:101B18009A4205D22F498B6923F070031A438A61D0
:101B2800236813F0080F0CD062692A4BDB6903F0B5
:101B380070039A4205D22749CB6923F070031A43F0
:101B4800CA61236813F0100F0CD0A269214BDB691E
:101B580003F4E0639A4205D21E49CB6923F4E0639B
:101B68001A43CA61236813F0200F0CD0E269194B9D
:101B78001B6A03F070039A4205D216490B6A23F0D8
:101B880070031A430A62FFF7EBFD12498B69C3F32E
:101B98000323114AD35C03F01F03D8408B6903F079
:101BA8000F03D35C03F01F0320FA03F30B4A1360FF
:101BB8000B4B18600B4B186800F044F970BD0120FE
:101BC80070470120FAE70120F8E70120F6E700BF97
:101BD80000200052004402580C2400080C00002089
:101BE8000800002004000020F0B583B0002340E086
:101BF800092400E00024B44044EA0C040235764E7F
:101C080046F825404FF0B044D4F88050D44325EA34
:101C180002064F6817F4803F01D042EA05064FF0EC
:101C2800B045C5F88060D5F8845004EA05064F68C9
:101C380017F4003F01D042EA05064FF0B045C5F859
:101C480084602D6804EA05064F6817F4801F01D0E8
:101C580042EA05064FF0B0452E606D682C404E688C
:101C680016F4001F01D042EA05044FF0B042546058
:101C780001330A6832FA03F400F0AB804FF0010C2C
:101C88000CFA03FC1CEA0202F2D04C68651E112C07
:101C980018BF012D01D9122C13D185685E000324C9
:101CA800B44025EA0405CC68B4402C4384604468F9
:101CB80024EA0C0C4C68C4F300149C4044EA0C045D
:101CC8004460C6684FEA430C032505FA0CF5EC435B
:101CD80026EA050E8D6805FA0CF545EA0E05C5607D
:101CE8004D68122D18BF022D12D1DE08083650F8A3
:101CF800267003F007054FEA850E0F2505FA0EF545
:101D080027EA05070D6905FA0EF53D4340F8265008
:101D1800056825404C6804F0030404FA0CF42C43CD
:101D280004604C6814F0805FA2D02C4CD4F8F450B6
:101D380045F00205C4F8F450D4F8F44004F0020465
:101D48000194019C9D08AE1C234C54F8267003F0A6
:101D58000304A6000F24B44027EA040C204CA04238
:101D68003FF448AF04F58064A04222D004F58064B3
:101D7800A04220D004F58064A0421ED004F58064FF
:101D8800A0421CD004F58064A0421AD004F58064F7
:101D9800A04218D004F58064A04216D004F58064EF
:101DA800A04214D004F58064A0423FF421AF0A2475
:101DB80021E701241FE702241DE703241BE704246D
:101DC80019E7052417E7062415E7072413E708246D
:101DD80011E703B0F0BD00BF0004005800440258EA
:101DE800000002580AB18161704709048161704797
:101DF800134BDB6813F0040F07D1114BDB6803F0BA
:101E0800070383421AD00120704710B50C4AD368E3
:101E180023F007031843D06000F076F80446084B17
:101E28005B6813F4005F07D100F06EF8001BB0F593
:101E38007A7FF4D9012000E0002010BD002070470F
:101E480000480258104B1B780BB90120704710B599
:101E580004464FF47A70B0FBF3F30C4A1068B0FBF9
:101E6800F3F0FEF7CDFC68B90F2C01D901200AE088
:101E7800002221464FF0FF30FEF77EFC044B1C6029
:101E8800002000E0012010BD000000200800002014
:101E98000400002010B50320FEF75CFCFFF760FC8F
:101EA8000F498B69C3F303230E4AD35C03F01F0366
:101EB800D8408B6903F00F03D35C03F01F0320FAAB
:101EC80003F3094A1360094B18600020FFF7BAFFB3
:101ED80010B10124204610BD0446FEF7ABFBF9E71C
:101EE800004402580C2400080C00002008000020C0
:101EF800034B1B78034A11680B441360704700BFFB
:101F080000000020B8010020014B1868704700BF8E
:101F1800B8010020014B1868000C70470010005CE5
:101F2800294AD2F8883043F47003C2F88830274B26
:101F38001B6803F00F03062B06D8244A136823F006
:101F48000F0343F007031360214B1A6842F00102A4
:101F58001A6000221A6119681E4A0A401A601B4B4F
:101F68001B6813F0080F06D0184A136823F00F03F4
:101F780043F007031360164B00229A61DA611A6274
:101F8800154999621549D962154919635A639963C4
:101F9800DA6319645A64196821F4802119601A6691
:101FA800104B1A68104B1340B3F1005F03D20F4B6C
:101FB8000122C3F808210E4B43F2D2021A60024BE9
:101FC8004FF000629A60704700ED00E00020005278
:101FD800004402587FEDF6EA000202020000FF0109
:101FE800800201010010005C0000FFFF008000512A
:101FF8000040005208B50C4B0C4A03E052F8041B91
:1020080043F8041B0A498B42F8D30A4B02E000222A
:1020180043F8042B084A9342F9D3FFF781FF00F0F5
:10202800B9F9FEF79DFAFEE7000000202424000815
:102038001000002010000020BC010020FEE708B5B9
:10204800FFF7FCFF08B5FFF7F9FF08B5FFF7F6FF44
:1020580008B5FFF7F3FF08B5FFF7F0FF08B5FFF77E
:10206800EDFF08B5FFF7EAFF08B5FFF7E7FF08B58A
:10207800FFF7E4FF08B5FFF7E1FF08B5FFF7DEFF5C
:1020880008B5FFF7DBFF08B5FFF7D8FF08B5FFF77E
:10209800D5FF08B5FFF7D2FF08B5FFF7CFFF08B5A2
:1020A800FFF7CCFF08B5FFF7C9FF08B5FFF7C6FF74
:1020B80008B5FFF7C3FF08B5FFF7C0FF08B5FFF77E
:1020C800BDFF08B5FFF7BAFF08B5FFF7B7FF08B5BA
:1020D800FFF7B4FF08B5FFF7B1FF08B5FFF7AEFF8C
:1020E80008B5FFF7ABFF08B5FFF7A8FF08B5FFF77E
:1020F800A5FF08B5FFF7A2FF08B5FFF79FFF08B5D2
:10210800FFF79CFF08B5FFF799FF08B5FFF796FFA3
:1021180008B5FFF793FF08B5FFF790FF08B5FFF77D
:102128008DFF08B5FFF78AFF08B5FFF787FF08B5E9
:10213800FFF784FF08B5FFF781FF08B5FFF77EFFBB
:1021480008B5FFF77BFF08B5FFF778FF08B5FFF77D
:1021580075FF08B5FFF772FF08B5FFF76FFF08B501
:10216800FFF76CFF08B5FFF769FF08B5FFF766FFD3
:1021780008B5FFF763FF08B5FFF760FF08B5FFF77D
:102188005DFF08B5FFF75AFF08B5FFF757FF08B519
:10219800FFF754FF08B5FFF751FF08B5FFF74EFFEB
:1021A80008B5FFF74BFF08B5FFF748FF08B5FFF77D
:1021B80045FF08B5FFF742FF08B5FFF73FFF08B531
:1021C800FFF73CFF08B5FFF739FF08B5FFF736FF03
:1021D80008B5FFF733FF08B5FFF730FF08B5FFF77D
:1021E8002DFF08B5FFF72AFF08B5FFF727FF08B549
:1021F800FFF724FF08B5FFF721FF08B5FFF71EFF1B
:1022080008B5FFF71BFF08B5FFF718FF08B5FFF77C
:1022180015FF08B5FFF712FF08B5FFF70FFF08B560
:10222800FFF70CFF08B5FFF709FF08B5FFF706FF32
:1022380008B5FFF703FF08B5FFF700FF08B5FFF77C
:10224800FDFE08B5FFF7FAFE08B5FFF7F7FE08B57B
:10225800FFF7F4FE08B5FFF7F1FE08B5FFF7EEFE4D
:1022680008B5FFF7EBFE08B5FFF7E8FE08B5FFF77E
:10227800E5FE08B5FFF7E2FE08B5FFF7DFFE08B593
:10228800FFF7DCFE08B5FFF7D9FE08B5FFF7D6FE65
:1022980008B5FFF7D3FE08B5FFF7D0FE08B5FFF77E
:1022A800CDFE08B5FFF7CAFE08B5FFF7C7FE08B5AB
:1022B800FFF7C4FE08B5FFF7C1FE08B5FFF7BEFE7D
:1022C80008B5FFF7BBFE08B5FFF7B8FE08B5FFF77E
:1022D800B5FE08B5FFF7B2FE08B5FFF7AFFE08B5C3
:1022E800FFF7ACFE08B5FFF7A9FE08B5FFF7A6FE95
:1022F80008B5FFF7A3FE08B5FFF7A0FE08B5FFF77E
:102308009DFE08B5FFF79AFE08B5FFF797FE08B5DA
:10231800FFF794FE08B5FFF791FE08B5FFF78EFEAC
:1023280008B5FFF78BFE08B5FFF788FE08B5FFF77D
:1023380085FE08B5FFF782FE08B5FFF77FFE08B5F2
:10234800FFF77CFE08B5FFF779FE08B5FFF776FEC4
:1023580008B5FFF773FE08B5FFF770FE08B5FFF77D
:102368006DFE08B5FFF76AFE08B5FFF767FE08B50A
:10237800FFF764FE08B5FFF761FE000008B50248E4
:10238800FEF7E4FB08BD00BF2C00002008B5FFF7EE
:10239800F5FF08BD70B50D4D0D4C641BA41000264B
:1023A800A64209D10B4D0C4C00F020F8641BA41078
:1023B8000026A64205D170BD55F8043B9847013662
:1023C800EEE755F8043B98470136F2E71C2400086D
:1023D8001C2400081C24000820240008024403468A
:1023E800934200D1704703F8011BF9E7F8B500BF25
:1023F800F8BC08BC9E467047F8B500BFF8BC08BCDE
:042408009E46704735
:10240C00000000000102030401020304060708098E
:04241C00BD020008F5
:042420009902000815
:1024240001000000100000000090D0030090D003D1
:0400000508001FFDD3
:00000001FF
